:020000040000FA
:010000000FF0
:010001000FEF
:010002000EEF
:010003000DEF
:010004000DEE
:010005000CEE
:010006000BEE
:010007000AEE
:010008000AED
:0100090009ED
:01000A0008ED
:01000B0007ED
:01000C0007EC
:01000D0006EC
:01000E0005EC
:01000F0004EC
:0100100004EB
:0100110003EB
:0100120002EB
:0100130002EA
:0100140001EA
:0100150000EA
:010016000FDA
:010017000FD9
:010018000ED9
:010019000DD9
:01001A000CD9
:01001B000CD8
:01001C000BD8
:01001D000AD8
:01001E000AD7
:01001F0009D7
:0100200008D7
:0100210008D6
:0100220007D6
:0100230006D6
:0100240005D6
:0100250005D5
:0100260004D5
:0100270003D5
:0100280003D4
:0100290002D4
:01002A0001D4
:01002B0001D3
:01002C0000D3
:01002D000FC3
:01002E000EC3
:01002F000EC2
:010030000DC2
:010031000CC2
:010032000CC1
:010033000BC1
:010034000AC1
:010035000AC0
:0100360009C0
:0100370008C0
:0100380008BF
:0100390007BF
:01003A0006BF
:01003B0006BE
:01003C0005BE
:01003D0004BE
:01003E0004BD
:01003F0003BD
:0100400002BD
:0100410002BC
:0100420001BC
:0100430000BC
:0100440000BB
:010045000FAB
:010046000EAB
:010047000EAA
:010048000DAA
:010049000CAA
:01004A000CA9
:01004B000BA9
:01004C000AA9
:01004D000AA8
:01004E0009A8
:01004F0009A7
:0100500008A7
:0100510007A7
:0100520007A6
:0100530006A6
:0100540005A6
:0100550005A5
:0100560004A5
:0100570003A5
:0100580003A4
:0100590002A4
:01005A0002A3
:01005B0001A3
:01005C0000A3
:01005D0000A2
:01005E000F92
:01005F000E92
:010060000E91
:010061000D91
:010062000D90
:010063000C90
:010064000B90
:010065000B8F
:010066000A8F
:01006700098F
:01006800098E
:01006900088E
:01006A00088D
:01006B00078D
:01006C00068D
:01006D00068C
:01006E00058C
:01006F00058B
:01007000048B
:01007100038B
:01007200038A
:01007300028A
:01007400018A
:010075000189
:010076000089
:010077000088
:010078000F78
:010079000F77
:01007A000E77
:01007B000D77
:01007C000D76
:01007D000C76
:01007E000C75
:01007F000B75
:010080000A75
:010081000A74
:010082000974
:010083000973
:010084000873
:010085000773
:010086000772
:010087000672
:010088000671
:010089000571
:01008A000570
:01008B000470
:01008C000370
:01008D00036F
:01008E00026F
:01008F00026E
:01009000016E
:01009100016D
:01009200006D
:010093000F5D
:010094000F5C
:010095000E5C
:010096000E5B
:010097000D5B
:010098000D5A
:010099000C5A
:01009A000B5A
:01009B000B59
:01009C000A59
:01009D000A58
:01009E000958
:01009F000957
:0100A0000857
:0100A1000856
:0100A2000756
:0100A3000656
:0100A4000655
:0100A5000555
:0100A6000554
:0100A7000454
:0100A8000453
:0100A9000353
:0100AA000352
:0100AB000252
:0100AC000152
:0100AD000151
:0100AE000051
:0100AF000050
:0100B0000F40
:0100B1000F3F
:0100B2000E3F
:0100B3000E3E
:0100B4000D3E
:0100B5000D3D
:0100B6000C3D
:0100B7000C3C
:0100B8000B3C
:0100B9000A3C
:0100BA000A3B
:0100BB00093B
:0100BC00093A
:0100BD00083A
:0100BE000839
:0100BF000739
:0100C0000738
:0100C1000638
:0100C2000637
:0100C3000537
:0100C4000536
:0100C5000436
:0100C6000435
:0100C7000335
:0100C8000334
:0100C9000234
:0100CA000233
:0100CB000133
:0100CC000132
:0100CD000032
:0100CE000031
:0100CF000F21
:0100D0000F20
:0100D1000E20
:0100D2000E1F
:0100D3000D1F
:0100D4000D1E
:0100D5000C1E
:0100D6000B1E
:0100D7000B1D
:0100D8000A1D
:0100D9000A1C
:0100DA00091C
:0100DB00091B
:0100DC00081B
:0100DD00081A
:0100DE00071A
:0100DF000719
:0100E0000718
:0100E1000618
:0100E2000617
:0100E3000517
:0100E4000516
:0100E5000416
:0100E6000415
:0100E7000315
:0100E8000314
:0100E9000214
:0100EA000213
:0100EB000113
:0100EC000112
:0100ED000012
:0100EE000011
:0100EF000F01
:0100F0000F00
:0100F1000E00
:0100F2000EFF
:0100F3000DFF
:0100F4000DFE
:0100F5000CFE
:0100F6000CFD
:0100F7000BFD
:0100F8000BFC
:0100F9000AFC
:0100FA000AFB
:0100FB0009FB
:0100FC0009FA
:0100FD0009F9
:0100FE0008F9
:0100FF0008F8
:0101000007F7
:0101010007F6
:0101020006F6
:0101030006F5
:0101040005F5
:0101050005F4
:0101060004F4
:0101070004F3
:0101080003F3
:0101090003F2
:01010A0002F2
:01010B0002F1
:01010C0002F0
:01010D0001F0
:01010E0001EF
:01010F0000EF
:0101100000EE
:010111000FDE
:010112000FDD
:010113000EDD
:010114000EDC
:010115000DDC
:010116000DDB
:010117000DDA
:010118000CDA
:010119000CD9
:01011A000BD9
:01011B000BD8
:01011C000AD8
:01011D000AD7
:01011E0009D7
:01011F0009D6
:0101200009D5
:0101210008D5
:0101220008D4
:0101230007D4
:0101240007D3
:0101250006D3
:0101260006D2
:0101270005D2
:0101280005D1
:0101290005D0
:01012A0004D0
:01012B0004CF
:01012C0003CF
:01012D0003CE
:01012E0002CE
:01012F0002CD
:0101300002CC
:0101310001CC
:0101320001CB
:0101330000CB
:0101340000CA
:010135000FBA
:010136000FB9
:010137000FB8
:010138000EB8
:010139000EB7
:01013A000DB7
:01013B000DB6
:01013C000CB6
:01013D000CB5
:01013E000CB4
:01013F000BB4
:010140000BB3
:010141000AB3
:010142000AB2
:0101430009B2
:0101440009B1
:0101450009B0
:0101460008B0
:0101470008AF
:0101480007AF
:0101490007AE
:01014A0007AD
:01014B0006AD
:01014C0006AC
:01014D0005AC
:01014E0005AB
:01014F0005AA
:0101500004AA
:0101510004A9
:0101520003A9
:0101530003A8
:0101540002A8
:0101550002A7
:0101560002A6
:0101570001A6
:0101580001A5
:0101590000A5
:01015A0000A4
:01015B0000A3
:01015C000F93
:01015D000F92
:01015E000E92
:01015F000E91
:010160000E90
:010161000D90
:010162000D8F
:010163000C8F
:010164000C8E
:010165000C8D
:010166000B8D
:010167000B8C
:010168000A8C
:010169000A8B
:01016A000A8A
:01016B00098A
:01016C000989
:01016D000988
:01016E000888
:01016F000887
:010170000787
:010171000786
:010172000785
:010173000685
:010174000684
:010175000584
:010176000583
:010177000582
:010178000482
:010179000481
:01017A000480
:01017B000380
:01017C00037F
:01017D00027F
:01017E00027E
:01017F00027D
:01018000017D
:01018100017C
:01018200007C
:01018300007B
:01018400007A
:010185000F6A
:010186000F69
:010187000F68
:010188000E68
:010189000E67
:01018A000E66
:01018B000D66
:01018C000D65
:01018D000C65
:01018E000C64
:01018F000C63
:010190000B63
:010191000B62
:010192000B61
:010193000A61
:010194000A60
:010195000960
:01019600095F
:01019700095E
:01019800085E
:01019900085D
:01019A00085C
:01019B00075C
:01019C00075B
:01019D00075A
:01019E00065A
:01019F000659
:0101A0000559
:0101A1000558
:0101A2000557
:0101A3000457
:0101A4000456
:0101A5000455
:0101A6000355
:0101A7000354
:0101A8000353
:0101A9000253
:0101AA000252
:0101AB000251
:0101AC000151
:0101AD000150
:0101AE00014F
:0101AF00004F
:0101B000004E
:0101B1000F3E
:0101B2000F3D
:0101B3000F3C
:0101B4000E3C
:0101B5000E3B
:0101B6000E3A
:0101B7000D3A
:0101B8000D39
:0101B9000D38
:0101BA000C38
:0101BB000C37
:0101BC000C36
:0101BD000B36
:0101BE000B35
:0101BF000B34
:0101C0000A34
:0101C1000A33
:0101C2000A32
:0101C3000932
:0101C4000931
:0101C5000930
:0101C6000830
:0101C700082F
:0101C800082E
:0101C900072E
:0101CA00072D
:0101CB00072C
:0101CC00062C
:0101CD00062B
:0101CE00062A
:0101CF00052A
:0101D0000529
:0101D1000528
:0101D2000428
:0101D3000427
:0101D4000426
:0101D5000326
:0101D6000325
:0101D7000324
:0101D8000224
:0101D9000223
:0101DA000222
:0101DB000122
:0101DC000121
:0101DD000120
:0101DE000020
:0101DF00001F
:0101E000001E
:0101E1000F0E
:0101E2000F0D
:0101E3000F0C
:0101E4000E0C
:0101E5000E0B
:0101E6000E0A
:0101E7000D0A
:0101E8000D09
:0101E9000D08
:0101EA000D07
:0101EB000C07
:0101EC000C06
:0101ED000C05
:0101EE000B05
:0101EF000B04
:0101F0000B03
:0101F1000A03
:0101F2000A02
:0101F3000A01
:0101F4000901
:0101F5000900
:0101F60009FF
:0101F70008FF
:0101F80008FE
:0101F90008FD
:0101FA0007FD
:0101FB0007FC
:0101FC0007FB
:0101FD0007FA
:0101FE0006FA
:0101FF0006F9
:0102000006F7
:0102010005F7
:0102020005F6
:0102030005F5
:0102040004F5
:0102050004F4
:0102060004F3
:0102070004F2
:0102080003F2
:0102090003F1
:01020A0003F0
:01020B0002F0
:01020C0002EF
:01020D0002EE
:01020E0001EE
:01020F0001ED
:0102100001EC
:0102110000EC
:0102120000EB
:0102130000EA
:0102140000E9
:010215000FD9
:010216000FD8
:010217000FD7
:010218000ED7
:010219000ED6
:01021A000ED5
:01021B000ED4
:01021C000DD4
:01021D000DD3
:01021E000DD2
:01021F000CD2
:010220000CD1
:010221000CD0
:010222000BD0
:010223000BCF
:010224000BCE
:010225000BCD
:010226000ACD
:010227000ACC
:010228000ACB
:0102290009CB
:01022A0009CA
:01022B0009C9
:01022C0009C8
:01022D0008C8
:01022E0008C7
:01022F0008C6
:0102300007C6
:0102310007C5
:0102320007C4
:0102330007C3
:0102340006C3
:0102350006C2
:0102360006C1
:0102370005C1
:0102380005C0
:0102390005BF
:01023A0005BE
:01023B0004BE
:01023C0004BD
:01023D0004BC
:01023E0003BC
:01023F0003BB
:0102400003BA
:0102410003B9
:0102420002B9
:0102430002B8
:0102440002B7
:0102450002B6
:0102460001B6
:0102470001B5
:0102480001B4
:0102490000B4
:01024A0000B3
:01024B0000B2
:01024C0000B1
:01024D000FA1
:01024E000FA0
:01024F000F9F
:010250000F9E
:010251000E9E
:010252000E9D
:010253000E9C
:010254000D9C
:010255000D9B
:010256000D9A
:010257000D99
:010258000C99
:010259000C98
:01025A000C97
:01025B000C96
:01025C000B96
:01025D000B95
:01025E000B94
:01025F000A94
:010260000A93
:010261000A92
:010262000A91
:010263000991
:010264000990
:01026500098F
:01026600098E
:01026700088E
:01026800088D
:01026900088C
:01026A00088B
:01026B00078B
:01026C00078A
:01026D000789
:01026E000788
:01026F000688
:010270000687
:010271000686
:010272000685
:010273000585
:010274000584
:010275000583
:010276000483
:010277000482
:010278000481
:010279000480
:01027A000380
:01027B00037F
:01027C00037E
:01027D00037D
:01027E00027D
:01027F00027C
:01028000027B
:01028100027A
:01028200017A
:010283000179
:010284000178
:010285000177
:010286000077
:010287000076
:010288000075
:010289000074
:01028A000F64
:01028B000F63
:01028C000F62
:01028D000F61
:01028E000E61
:01028F000E60
:010290000E5F
:010291000E5E
:010292000D5E
:010293000D5D
:010294000D5C
:010295000D5B
:010296000C5B
:010297000C5A
:010298000C59
:010299000C58
:01029A000C57
:01029B000B57
:01029C000B56
:01029D000B55
:01029E000B54
:01029F000A54
:0102A0000A53
:0102A1000A52
:0102A2000A51
:0102A3000951
:0102A4000950
:0102A500094F
:0102A600094E
:0102A700084E
:0102A800084D
:0102A900084C
:0102AA00084B
:0102AB00074B
:0102AC00074A
:0102AD000749
:0102AE000748
:0102AF000648
:0102B0000647
:0102B1000646
:0102B2000645
:0102B3000644
:0102B4000544
:0102B5000543
:0102B6000542
:0102B7000541
:0102B8000441
:0102B9000440
:0102BA00043F
:0102BB00043E
:0102BC00033E
:0102BD00033D
:0102BE00033C
:0102BF00033B
:0102C000033A
:0102C100023A
:0102C2000239
:0102C3000238
:0102C4000237
:0102C5000137
:0102C6000136
:0102C7000135
:0102C8000134
:0102C9000034
:0102CA000033
:0102CB000032
:0102CC000031
:0102CD000030
:0102CE000F20
:0102CF000F1F
:0102D0000F1E
:0102D1000F1D
:0102D2000E1D
:0102D3000E1C
:0102D4000E1B
:0102D5000E1A
:0102D6000E19
:0102D7000D19
:0102D8000D18
:0102D9000D17
:0102DA000D16
:0102DB000C16
:0102DC000C15
:0102DD000C14
:0102DE000C13
:0102DF000C12
:0102E0000B12
:0102E1000B11
:0102E2000B10
:0102E3000B0F
:0102E4000A0F
:0102E5000A0E
:0102E6000A0D
:0102E7000A0C
:0102E8000A0B
:0102E900090B
:0102EA00090A
:0102EB000909
:0102EC000908
:0102ED000808
:0102EE000807
:0102EF000806
:0102F0000805
:0102F1000804
:0102F2000704
:0102F3000703
:0102F4000702
:0102F5000701
:0102F6000700
:0102F7000600
:0102F80006FF
:0102F90006FE
:0102FA0006FD
:0102FB0006FC
:0102FC0005FC
:0102FD0005FB
:0102FE0005FA
:0102FF0005F9
:0103000004F8
:0103010004F7
:0103020004F6
:0103030004F5
:0103040004F4
:0103050003F4
:0103060003F3
:0103070003F2
:0103080003F1
:0103090003F0
:01030A0002F0
:01030B0002EF
:01030C0002EE
:01030D0002ED
:01030E0002EC
:01030F0001EC
:0103100001EB
:0103110001EA
:0103120001E9
:0103130001E8
:0103140000E8
:0103150000E7
:0103160000E6
:0103170000E5
:0103180000E4
:010319000FD4
:01031A000FD3
:01031B000FD2
:01031C000FD1
:01031D000ED1
:01031E000ED0
:01031F000ECF
:010320000ECE
:010321000ECD
:010322000DCD
:010323000DCC
:010324000DCB
:010325000DCA
:010326000DC9
:010327000CC9
:010328000CC8
:010329000CC7
:01032A000CC6
:01032B000CC5
:01032C000CC4
:01032D000BC4
:01032E000BC3
:01032F000BC2
:010330000BC1
:010331000BC0
:010332000AC0
:010333000ABF
:010334000ABE
:010335000ABD
:010336000ABC
:0103370009BC
:0103380009BB
:0103390009BA
:01033A0009B9
:01033B0009B8
:01033C0008B8
:01033D0008B7
:01033E0008B6
:01033F0008B5
:0103400008B4
:0103410007B4
:0103420007B3
:0103430007B2
:0103440007B1
:0103450007B0
:0103460006B0
:0103470006AF
:0103480006AE
:0103490006AD
:01034A0006AC
:01034B0006AB
:01034C0005AB
:01034D0005AA
:01034E0005A9
:01034F0005A8
:0103500005A7
:0103510004A7
:0103520004A6
:0103530004A5
:0103540004A4
:0103550004A3
:0103560003A3
:0103570003A2
:0103580003A1
:0103590003A0
:01035A00039F
:01035B00039E
:01035C00029E
:01035D00029D
:01035E00029C
:01035F00029B
:01036000029A
:01036100019A
:010362000199
:010363000198
:010364000197
:010365000196
:010366000195
:010367000095
:010368000094
:010369000093
:01036A000092
:01036B000091
:01036C000F81
:01036D000F80
:01036E000F7F
:01036F000F7E
:010370000F7D
:010371000F7C
:010372000E7C
:010373000E7B
:010374000E7A
:010375000E79
:010376000E78
:010377000D78
:010378000D77
:010379000D76
:01037A000D75
:01037B000D74
:01037C000D73
:01037D000C73
:01037E000C72
:01037F000C71
:010380000C70
:010381000C6F
:010382000C6E
:010383000B6E
:010384000B6D
:010385000B6C
:010386000B6B
:010387000B6A
:010388000A6A
:010389000A69
:01038A000A68
:01038B000A67
:01038C000A66
:01038D000A65
:01038E000965
:01038F000964
:010390000963
:010391000962
:010392000961
:010393000960
:010394000860
:01039500085F
:01039600085E
:01039700085D
:01039800085C
:01039900085B
:01039A00075B
:01039B00075A
:01039C000759
:01039D000758
:01039E000757
:01039F000756
:0103A0000656
:0103A1000655
:0103A2000654
:0103A3000653
:0103A4000652
:0103A5000651
:0103A6000551
:0103A7000550
:0103A800054F
:0103A900054E
:0103AA00054D
:0103AB00054C
:0103AC00044C
:0103AD00044B
:0103AE00044A
:0103AF000449
:0103B0000448
:0103B1000447
:0103B2000347
:0103B3000346
:0103B4000345
:0103B5000344
:0103B6000343
:0103B7000342
:0103B8000242
:0103B9000241
:0103BA000240
:0103BB00023F
:0103BC00023E
:0103BD00023D
:0103BE00013D
:0103BF00013C
:0103C000013B
:0103C100013A
:0103C2000139
:0103C3000138
:0103C4000038
:0103C5000037
:0103C6000036
:0103C7000035
:0103C8000034
:0103C9000033
:0103CA000F23
:0103CB000F22
:0103CC000F21
:0103CD000F20
:0103CE000F1F
:0103CF000F1E
:0103D0000F1D
:0103D1000E1D
:0103D2000E1C
:0103D3000E1B
:0103D4000E1A
:0103D5000E19
:0103D6000E18
:0103D7000D18
:0103D8000D17
:0103D9000D16
:0103DA000D15
:0103DB000D14
:0103DC000D13
:0103DD000D12
:0103DE000C12
:0103DF000C11
:0103E0000C10
:0103E1000C0F
:0103E2000C0E
:0103E3000C0D
:0103E4000B0D
:0103E5000B0C
:0103E6000B0B
:0103E7000B0A
:0103E8000B09
:0103E9000B08
:0103EA000B07
:0103EB000A07
:0103EC000A06
:0103ED000A05
:0103EE000A04
:0103EF000A03
:0103F0000A02
:0103F1000902
:0103F2000901
:0103F3000900
:0103F40009FF
:0103F50009FE
:0103F60009FD
:0103F70009FC
:0103F80008FC
:0103F90008FB
:0103FA0008FA
:0103FB0008F9
:0103FC0008F8
:0103FD0008F7
:0103FE0008F6
:0103FF0007F6
:0104000007F4
:0104010007F3
:0104020007F2
:0104030007F1
:0104040007F0
:0104050006F0
:0104060006EF
:0104070006EE
:0104080006ED
:0104090006EC
:01040A0006EB
:01040B0006EA
:01040C0005EA
:01040D0005E9
:01040E0005E8
:01040F0005E7
:0104100005E6
:0104110005E5
:0104120005E4
:0104130004E4
:0104140004E3
:0104150004E2
:0104160004E1
:0104170004E0
:0104180004DF
:0104190004DE
:01041A0003DE
:01041B0003DD
:01041C0003DC
:01041D0003DB
:01041E0003DA
:01041F0003D9
:0104200003D8
:0104210002D8
:0104220002D7
:0104230002D6
:0104240002D5
:0104250002D4
:0104260002D3
:0104270002D2
:0104280001D2
:0104290001D1
:01042A0001D0
:01042B0001CF
:01042C0001CE
:01042D0001CD
:01042E0001CC
:01042F0000CC
:0104300000CB
:0104310000CA
:0104320000C9
:0104330000C8
:0104340000C7
:0104350000C6
:010436000FB6
:010437000FB5
:010438000FB4
:010439000FB3
:01043A000FB2
:01043B000FB1
:01043C000FB0
:01043D000FAF
:01043E000EAF
:01043F000EAE
:010440000EAD
:010441000EAC
:010442000EAB
:010443000EAA
:010444000EA9
:010445000DA9
:010446000DA8
:010447000DA7
:010448000DA6
:010449000DA5
:01044A000DA4
:01044B000DA3
:01044C000CA3
:01044D000CA2
:01044E000CA1
:01044F000CA0
:010450000C9F
:010451000C9E
:010452000C9D
:010453000C9C
:010454000B9C
:010455000B9B
:010456000B9A
:010457000B99
:010458000B98
:010459000B97
:01045A000B96
:01045B000A96
:01045C000A95
:01045D000A94
:01045E000A93
:01045F000A92
:010460000A91
:010461000A90
:010462000A8F
:01046300098F
:01046400098E
:01046500098D
:01046600098C
:01046700098B
:01046800098A
:010469000989
:01046A000988
:01046B000888
:01046C000887
:01046D000886
:01046E000885
:01046F000884
:010470000883
:010471000882
:010472000782
:010473000781
:010474000780
:01047500077F
:01047600077E
:01047700077D
:01047800077C
:01047900077B
:01047A00067B
:01047B00067A
:01047C000679
:01047D000678
:01047E000677
:01047F000676
:010480000675
:010481000674
:010482000574
:010483000573
:010484000572
:010485000571
:010486000570
:01048700056F
:01048800056E
:01048900056D
:01048A00046D
:01048B00046C
:01048C00046B
:01048D00046A
:01048E000469
:01048F000468
:010490000467
:010491000466
:010492000366
:010493000365
:010494000364
:010495000363
:010496000362
:010497000361
:010498000360
:01049900035F
:01049A00025F
:01049B00025E
:01049C00025D
:01049D00025C
:01049E00025B
:01049F00025A
:0104A0000259
:0104A1000258
:0104A2000257
:0104A3000157
:0104A4000156
:0104A5000155
:0104A6000154
:0104A7000153
:0104A8000152
:0104A9000151
:0104AA000150
:0104AB000050
:0104AC00004F
:0104AD00004E
:0104AE00004D
:0104AF00004C
:0104B000004B
:0104B100004A
:0104B2000049
:0104B3000F39
:0104B4000F38
:0104B5000F37
:0104B6000F36
:0104B7000F35
:0104B8000F34
:0104B9000F33
:0104BA000F32
:0104BB000F31
:0104BC000E31
:0104BD000E30
:0104BE000E2F
:0104BF000E2E
:0104C0000E2D
:0104C1000E2C
:0104C2000E2B
:0104C3000E2A
:0104C4000E29
:0104C5000D29
:0104C6000D28
:0104C7000D27
:0104C8000D26
:0104C9000D25
:0104CA000D24
:0104CB000D23
:0104CC000D22
:0104CD000C22
:0104CE000C21
:0104CF000C20
:0104D0000C1F
:0104D1000C1E
:0104D2000C1D
:0104D3000C1C
:0104D4000C1B
:0104D5000C1A
:0104D6000B1A
:0104D7000B19
:0104D8000B18
:0104D9000B17
:0104DA000B16
:0104DB000B15
:0104DC000B14
:0104DD000B13
:0104DE000B12
:0104DF000A12
:0104E0000A11
:0104E1000A10
:0104E2000A0F
:0104E3000A0E
:0104E4000A0D
:0104E5000A0C
:0104E6000A0B
:0104E7000A0A
:0104E800090A
:0104E9000909
:0104EA000908
:0104EB000907
:0104EC000906
:0104ED000905
:0104EE000904
:0104EF000903
:0104F0000902
:0104F1000802
:0104F2000801
:0104F3000800
:0104F40008FF
:0104F50008FE
:0104F60008FD
:0104F70008FC
:0104F80008FB
:0104F90008FA
:0104FA0007FA
:0104FB0007F9
:0104FC0007F8
:0104FD0007F7
:0104FE0007F6
:0104FF0007F5
:0105000007F3
:0105010007F2
:0105020007F1
:0105030006F1
:0105040006F0
:0105050006EF
:0105060006EE
:0105070006ED
:0105080006EC
:0105090006EB
:01050A0006EA
:01050B0006E9
:01050C0006E8
:01050D0005E8
:01050E0005E7
:01050F0005E6
:0105100005E5
:0105110005E4
:0105120005E3
:0105130005E2
:0105140005E1
:0105150005E0
:0105160004E0
:0105170004DF
:0105180004DE
:0105190004DD
:01051A0004DC
:01051B0004DB
:01051C0004DA
:01051D0004D9
:01051E0004D8
:01051F0004D7
:0105200003D7
:0105210003D6
:0105220003D5
:0105230003D4
:0105240003D3
:0105250003D2
:0105260003D1
:0105270003D0
:0105280003CF
:0105290003CE
:01052A0002CE
:01052B0002CD
:01052C0002CC
:01052D0002CB
:01052E0002CA
:01052F0002C9
:0105300002C8
:0105310002C7
:0105320002C6
:0105330001C6
:0105340001C5
:0105350001C4
:0105360001C3
:0105370001C2
:0105380001C1
:0105390001C0
:01053A0001BF
:01053B0001BE
:01053C0001BD
:01053D0000BD
:01053E0000BC
:01053F0000BB
:0105400000BA
:0105410000B9
:0105420000B8
:0105430000B7
:0105440000B6
:0105450000B5
:0105460000B4
:010547000FA4
:010548000FA3
:010549000FA2
:01054A000FA1
:01054B000FA0
:01054C000F9F
:01054D000F9E
:01054E000F9D
:01054F000F9C
:010550000F9B
:010551000F9A
:010552000E9A
:010553000E99
:010554000E98
:010555000E97
:010556000E96
:010557000E95
:010558000E94
:010559000E93
:01055A000E92
:01055B000E91
:01055C000D91
:01055D000D90
:01055E000D8F
:01055F000D8E
:010560000D8D
:010561000D8C
:010562000D8B
:010563000D8A
:010564000D89
:010565000D88
:010566000C88
:010567000C87
:010568000C86
:010569000C85
:01056A000C84
:01056B000C83
:01056C000C82
:01056D000C81
:01056E000C80
:01056F000C7F
:010570000C7E
:010571000B7E
:010572000B7D
:010573000B7C
:010574000B7B
:010575000B7A
:010576000B79
:010577000B78
:010578000B77
:010579000B76
:01057A000B75
:01057B000B74
:01057C000A74
:01057D000A73
:01057E000A72
:01057F000A71
:010580000A70
:010581000A6F
:010582000A6E
:010583000A6D
:010584000A6C
:010585000A6B
:01058600096B
:01058700096A
:010588000969
:010589000968
:01058A000967
:01058B000966
:01058C000965
:01058D000964
:01058E000963
:01058F000962
:010590000961
:010591000861
:010592000860
:01059300085F
:01059400085E
:01059500085D
:01059600085C
:01059700085B
:01059800085A
:010599000859
:01059A000858
:01059B000857
:01059C000757
:01059D000756
:01059E000755
:01059F000754
:0105A0000753
:0105A1000752
:0105A2000751
:0105A3000750
:0105A400074F
:0105A500074E
:0105A600074D
:0105A700074C
:0105A800064C
:0105A900064B
:0105AA00064A
:0105AB000649
:0105AC000648
:0105AD000647
:0105AE000646
:0105AF000645
:0105B0000644
:0105B1000643
:0105B2000642
:0105B3000542
:0105B4000541
:0105B5000540
:0105B600053F
:0105B700053E
:0105B800053D
:0105B900053C
:0105BA00053B
:0105BB00053A
:0105BC000539
:0105BD000538
:0105BE000537
:0105BF000437
:0105C0000436
:0105C1000435
:0105C2000434
:0105C3000433
:0105C4000432
:0105C5000431
:0105C6000430
:0105C700042F
:0105C800042E
:0105C900042D
:0105CA00032D
:0105CB00032C
:0105CC00032B
:0105CD00032A
:0105CE000329
:0105CF000328
:0105D0000327
:0105D1000326
:0105D2000325
:0105D3000324
:0105D4000323
:0105D5000322
:0105D6000222
:0105D7000221
:0105D8000220
:0105D900021F
:0105DA00021E
:0105DB00021D
:0105DC00021C
:0105DD00021B
:0105DE00021A
:0105DF000219
:0105E0000218
:0105E1000217
:0105E2000117
:0105E3000116
:0105E4000115
:0105E5000114
:0105E6000113
:0105E7000112
:0105E8000111
:0105E9000110
:0105EA00010F
:0105EB00010E
:0105EC00010D
:0105ED00010C
:0105EE00000C
:0105EF00000B
:0105F000000A
:0105F1000009
:0105F2000008
:0105F3000007
:0105F4000006
:0105F5000005
:0105F6000004
:0105F7000003
:0105F8000002
:0105F9000001
:0105FA000000
:0105FB000FF0
:0105FC000FEF
:0105FD000FEE
:0105FE000FED
:0105FF000FEC
:010600000FEA
:010601000FE9
:010602000FE8
:010603000FE7
:010604000FE6
:010605000FE5
:010606000FE4
:010607000EE4
:010608000EE3
:010609000EE2
:01060A000EE1
:01060B000EE0
:01060C000EDF
:01060D000EDE
:01060E000EDD
:01060F000EDC
:010610000EDB
:010611000EDA
:010612000ED9
:010613000ED8
:010614000DD8
:010615000DD7
:010616000DD6
:010617000DD5
:010618000DD4
:010619000DD3
:01061A000DD2
:01061B000DD1
:01061C000DD0
:01061D000DCF
:01061E000DCE
:01061F000DCD
:010620000DCC
:010621000CCC
:010622000CCB
:010623000CCA
:010624000CC9
:010625000CC8
:010626000CC7
:010627000CC6
:010628000CC5
:010629000CC4
:01062A000CC3
:01062B000CC2
:01062C000CC1
:01062D000CC0
:01062E000BC0
:01062F000BBF
:010630000BBE
:010631000BBD
:010632000BBC
:010633000BBB
:010634000BBA
:010635000BB9
:010636000BB8
:010637000BB7
:010638000BB6
:010639000BB5
:01063A000BB4
:01063B000AB4
:01063C000AB3
:01063D000AB2
:01063E000AB1
:01063F000AB0
:010640000AAF
:010641000AAE
:010642000AAD
:010643000AAC
:010644000AAB
:010645000AAA
:010646000AA9
:010647000AA8
:0106480009A8
:0106490009A7
:01064A0009A6
:01064B0009A5
:01064C0009A4
:01064D0009A3
:01064E0009A2
:01064F0009A1
:0106500009A0
:01065100099F
:01065200099E
:01065300099D
:01065400099C
:01065500099B
:01065600089B
:01065700089A
:010658000899
:010659000898
:01065A000897
:01065B000896
:01065C000895
:01065D000894
:01065E000893
:01065F000892
:010660000891
:010661000890
:01066200088F
:01066300088E
:01066400078E
:01066500078D
:01066600078C
:01066700078B
:01066800078A
:010669000789
:01066A000788
:01066B000787
:01066C000786
:01066D000785
:01066E000784
:01066F000783
:010670000782
:010671000781
:010672000681
:010673000680
:01067400067F
:01067500067E
:01067600067D
:01067700067C
:01067800067B
:01067900067A
:01067A000679
:01067B000678
:01067C000677
:01067D000676
:01067E000675
:01067F000674
:010680000574
:010681000573
:010682000572
:010683000571
:010684000570
:01068500056F
:01068600056E
:01068700056D
:01068800056C
:01068900056B
:01068A00056A
:01068B000569
:01068C000568
:01068D000567
:01068E000566
:01068F000466
:010690000465
:010691000464
:010692000463
:010693000462
:010694000461
:010695000460
:01069600045F
:01069700045E
:01069800045D
:01069900045C
:01069A00045B
:01069B00045A
:01069C000459
:01069D000458
:01069E000358
:01069F000357
:0106A0000356
:0106A1000355
:0106A2000354
:0106A3000353
:0106A4000352
:0106A5000351
:0106A6000350
:0106A700034F
:0106A800034E
:0106A900034D
:0106AA00034C
:0106AB00034B
:0106AC00034A
:0106AD00024A
:0106AE000249
:0106AF000248
:0106B0000247
:0106B1000246
:0106B2000245
:0106B3000244
:0106B4000243
:0106B5000242
:0106B6000241
:0106B7000240
:0106B800023F
:0106B900023E
:0106BA00023D
:0106BB00023C
:0106BC00013C
:0106BD00013B
:0106BE00013A
:0106BF000139
:0106C0000138
:0106C1000137
:0106C2000136
:0106C3000135
:0106C4000134
:0106C5000133
:0106C6000132
:0106C7000131
:0106C8000130
:0106C900012F
:0106CA00012E
:0106CB00002E
:0106CC00002D
:0106CD00002C
:0106CE00002B
:0106CF00002A
:0106D0000029
:0106D1000028
:0106D2000027
:0106D3000026
:0106D4000025
:0106D5000024
:0106D6000023
:0106D7000022
:0106D8000021
:0106D9000020
:0106DA00001F
:0106DB000F0F
:0106DC000F0E
:0106DD000F0D
:0106DE000F0C
:0106DF000F0B
:0106E0000F0A
:0106E1000F09
:0106E2000F08
:0106E3000F07
:0106E4000F06
:0106E5000F05
:0106E6000F04
:0106E7000F03
:0106E8000F02
:0106E9000F01
:0106EA000F00
:0106EB000E00
:0106EC000EFF
:0106ED000EFE
:0106EE000EFD
:0106EF000EFC
:0106F0000EFB
:0106F1000EFA
:0106F2000EF9
:0106F3000EF8
:0106F4000EF7
:0106F5000EF6
:0106F6000EF5
:0106F7000EF4
:0106F8000EF3
:0106F9000EF2
:0106FA000EF1
:0106FB000DF1
:0106FC000DF0
:0106FD000DEF
:0106FE000DEE
:0106FF000DED
:010700000DEB
:010701000DEA
:010702000DE9
:010703000DE8
:010704000DE7
:010705000DE6
:010706000DE5
:010707000DE4
:010708000DE3
:010709000DE2
:01070A000DE1
:01070B000DE0
:01070C000CE0
:01070D000CDF
:01070E000CDE
:01070F000CDD
:010710000CDC
:010711000CDB
:010712000CDA
:010713000CD9
:010714000CD8
:010715000CD7
:010716000CD6
:010717000CD5
:010718000CD4
:010719000CD3
:01071A000CD2
:01071B000CD1
:01071C000BD1
:01071D000BD0
:01071E000BCF
:01071F000BCE
:010720000BCD
:010721000BCC
:010722000BCB
:010723000BCA
:010724000BC9
:010725000BC8
:010726000BC7
:010727000BC6
:010728000BC5
:010729000BC4
:01072A000BC3
:01072B000BC2
:01072C000BC1
:01072D000BC0
:01072E000AC0
:01072F000ABF
:010730000ABE
:010731000ABD
:010732000ABC
:010733000ABB
:010734000ABA
:010735000AB9
:010736000AB8
:010737000AB7
:010738000AB6
:010739000AB5
:01073A000AB4
:01073B000AB3
:01073C000AB2
:01073D000AB1
:01073E000AB0
:01073F0009B0
:0107400009AF
:0107410009AE
:0107420009AD
:0107430009AC
:0107440009AB
:0107450009AA
:0107460009A9
:0107470009A8
:0107480009A7
:0107490009A6
:01074A0009A5
:01074B0009A4
:01074C0009A3
:01074D0009A2
:01074E0009A1
:01074F0009A0
:01075000099F
:01075100089F
:01075200089E
:01075300089D
:01075400089C
:01075500089B
:01075600089A
:010757000899
:010758000898
:010759000897
:01075A000896
:01075B000895
:01075C000894
:01075D000893
:01075E000892
:01075F000891
:010760000890
:01076100088F
:01076200088E
:01076300078E
:01076400078D
:01076500078C
:01076600078B
:01076700078A
:010768000789
:010769000788
:01076A000787
:01076B000786
:01076C000785
:01076D000784
:01076E000783
:01076F000782
:010770000781
:010771000780
:01077200077F
:01077300077E
:01077400077D
:01077500067D
:01077600067C
:01077700067B
:01077800067A
:010779000679
:01077A000678
:01077B000677
:01077C000676
:01077D000675
:01077E000674
:01077F000673
:010780000672
:010781000671
:010782000670
:01078300066F
:01078400066E
:01078500066D
:01078600066C
:01078700066B
:01078800056B
:01078900056A
:01078A000569
:01078B000568
:01078C000567
:01078D000566
:01078E000565
:01078F000564
:010790000563
:010791000562
:010792000561
:010793000560
:01079400055F
:01079500055E
:01079600055D
:01079700055C
:01079800055B
:01079900055A
:01079A000559
:01079B000459
:01079C000458
:01079D000457
:01079E000456
:01079F000455
:0107A0000454
:0107A1000453
:0107A2000452
:0107A3000451
:0107A4000450
:0107A500044F
:0107A600044E
:0107A700044D
:0107A800044C
:0107A900044B
:0107AA00044A
:0107AB000449
:0107AC000448
:0107AD000447
:0107AE000446
:0107AF000346
:0107B0000345
:0107B1000344
:0107B2000343
:0107B3000342
:0107B4000341
:0107B5000340
:0107B600033F
:0107B700033E
:0107B800033D
:0107B900033C
:0107BA00033B
:0107BB00033A
:0107BC000339
:0107BD000338
:0107BE000337
:0107BF000336
:0107C0000335
:0107C1000334
:0107C2000234
:0107C3000233
:0107C4000232
:0107C5000231
:0107C6000230
:0107C700022F
:0107C800022E
:0107C900022D
:0107CA00022C
:0107CB00022B
:0107CC00022A
:0107CD000229
:0107CE000228
:0107CF000227
:0107D0000226
:0107D1000225
:0107D2000224
:0107D3000223
:0107D4000222
:0107D5000221
:0107D6000220
:0107D7000120
:0107D800011F
:0107D900011E
:0107DA00011D
:0107DB00011C
:0107DC00011B
:0107DD00011A
:0107DE000119
:0107DF000118
:0107E0000117
:0107E1000116
:0107E2000115
:0107E3000114
:0107E4000113
:0107E5000112
:0107E6000111
:0107E7000110
:0107E800010F
:0107E900010E
:0107EA00010D
:0107EB00000D
:0107EC00000C
:0107ED00000B
:0107EE00000A
:0107EF000009
:0107F0000008
:0107F1000007
:0107F2000006
:0107F3000005
:0107F4000004
:0107F5000003
:0107F6000002
:0107F7000001
:0107F8000000
:0107F90000FF
:0107FA0000FE
:0107FB0000FD
:0107FC0000FC
:0107FD0000FB
:0107FE0000FA
:0107FF0000F9
:00000001ff
