:020000040000FA
:0100000004FB
:0100010000FE
:0100020009F4
:010003000DEF
:0100040004F7
:0100050000FA
:010006000BEE
:0100070007F1
:010008000FE8
:010009000CEA
:01000A0003F2
:01000B000DE7
:01000C0007EC
:01000D0008EA
:01000E000BE6
:01000F0002EE
:0100100001EE
:0100110000EE
:0100120007E6
:0100130007E5
:0100140000EB
:0100150001E9
:0100160004E5
:010017000CDC
:0100180009DE
:010019000DD9
:01001A0000E5
:01001B0004E0
:01001C0004DF
:01001D0000E2
:01001E000AD7
:01001F0008D8
:0100200007D8
:010021000AD4
:010022000BD2
:010023000DCF
:010024000BD0
:010025000CCE
:010026000ECB
:0100270005D3
:010028000DCA
:0100290004D2
:01002A0005D0
:01002B000ACA
:01002C0008CB
:01002D0003CF
:01002E000AC7
:01002F000CC4
:010030000CC3
:010031000DC1
:0100320007C6
:0100330005C7
:010034000DBE
:010035000DBD
:0100360001C8
:010037000FB9
:010038000CBB
:0100390006C0
:01003A0001C4
:01003B0006BE
:01003C000FB4
:01003D0001C1
:01003E0005BC
:01003F0008B8
:010040000DB2
:0100410007B7
:0100420008B5
:0100430004B8
:010044000EAD
:010045000AB0
:0100460000B9
:010047000DAB
:0100480002B5
:010049000FA7
:01004A0003B2
:01004B000DA7
:01004C0007AC
:01004D0006AC
:01004E0004AD
:01004F0005AB
:010050000FA0
:0100510004AA
:0100520000AD
:0100530003A9
:0100540002A9
:010055000AA0
:0100560004A5
:0100570000A8
:01005800089F
:0100590005A1
:01005A0005A0
:01005B000F95
:01005C0001A2
:01005D00069C
:01005E00059C
:01005F00059B
:01006000009F
:010061000896
:010062000D90
:01006300029A
:01006400009B
:010065000694
:010066000495
:010067000F89
:010068000493
:010069000D89
:01006A000B8A
:01006B000391
:01006C00068D
:01006D000F83
:01006E000889
:01006F000A86
:01007000058A
:010071000E80
:01007200038A
:010073000389
:010074000784
:010075000F7B
:010076000E7B
:010077000880
:010078000C7B
:010079000284
:01007A000382
:01007B000A7A
:01007C000D76
:01007D000280
:01007E000B76
:01007F000D73
:010080000877
:01008100007E
:010082000E6F
:010083000E6E
:010084000D6E
:010085000377
:010086000376
:010087000E6A
:010088000B6C
:010089000274
:01008A000F66
:01008B000371
:01008C000C67
:01008D000969
:01008E000071
:01008F00066A
:01009000026D
:010091000B63
:010092000568
:01009300006C
:010094000566
:010095000C5E
:010096000D5C
:010097000167
:010098000E59
:010099000B5B
:01009A00065F
:01009B000460
:01009C000360
:01009D000D55
:01009E000C55
:01009F000060
:0100A000025D
:0100A100025C
:0100A2000D50
:0100A3000A52
:0100A4000952
:0100A5000F4B
:0100A6000554
:0100A7000355
:0100A800084F
:0100A9000E48
:0100AA000055
:0100AB00094B
:0100AC00074C
:0100AD000F43
:0100AE000B46
:0100AF00054B
:0100B000044B
:0100B1000648
:0100B2000746
:0100B3000C40
:0100B400014A
:0100B5000644
:0100B6000445
:0100B700093F
:0100B800083F
:0100B9000D39
:0100BA000144
:0100BB00083C
:0100BC000A39
:0100BD000B37
:0100BE000A37
:0100BF000E32
:0100C000013E
:0100C100043A
:0100C2000835
:0100C300003C
:0100C4000F2C
:0100C5000832
:0100C6000039
:0100C7000A2E
:0100C8000235
:0100C9000135
:0100CA000530
:0100CB000B29
:0100CC00082B
:0100CD000929
:0100CE00022F
:0100CF00012F
:0100D0000926
:0100D100042A
:0100D2000726
:0100D3000626
:0100D4000229
:0100D5000E1C
:0100D6000B1E
:0100D7000226
:0100D8000D1A
:0100D9000D19
:0100DA000D18
:0100DB000420
:0100DC000023
:0100DD000E14
:0100DE000120
:0100DF00041C
:0100E0000817
:0100E100041A
:0100E2000716
:0100E3000F0D
:0100E4000912
:0100E5000E0C
:0100E6000A0F
:0100E7000D0B
:0100E8000413
:0100E9000016
:0100EA000F06
:0100EB00070D
:0100EC000F04
:0100ED000E04
:0100EE00030E
:0100EF000C04
:0100F0000F00
:0100F100040A
:0100F200010C
:0100F300010B
:0100F400000B
:0100F5000FFB
:0100F6000DFC
:0100F7000305
:0100F8000304
:0100F9000DF9
:0100FA000CF9
:0100FB000DF7
:0100FC000CF7
:0100FD0007FB
:0100FE000FF2
:0100FF000AF6
:010100000FEF
:0101010005F8
:010102000FED
:010103000FEC
:010104000FEB
:010105000AEF
:0101060006F2
:0101070004F3
:010108000AEC
:0101090009EC
:01010A000DE7
:01010B000BE8
:01010C000AE8
:01010D0000F1
:01010E000CE4
:01010F0008E7
:0101100001ED
:0101110003EA
:0101120006E6
:0101130006E5
:0101140001E9
:0101150000E9
:0101160006E2
:0101170008DF
:010118000ADC
:0101190007DE
:01011A000CD8
:01011B0005DE
:01011C0008DA
:01011D0003DE
:01011E0002DE
:01011F0005DA
:0101200007D7
:0101210001DC
:010122000ECE
:0101230004D7
:010124000FCB
:010125000FCA
:0101260006D2
:0101270005D2
:0101280003D3
:0101290004D1
:01012A0001D3
:01012B0006CD
:01012C0000D2
:01012D0009C8
:01012E0008C8
:01012F0000CF
:010130000FBF
:0101310001CC
:010132000EBE
:0101330001CA
:010134000AC0
:0101350007C2
:0101360003C5
:010137000ABD
:010138000CBA
:0101390007BE
:01013A000ABA
:01013B0004BF
:01013C0001C1
:01013D000AB7
:01013E000AB6
:01013F000AB5
:010140000FAF
:010141000DB0
:0101420007B5
:0101430006B5
:0101440004B6
:0101450006B3
:0101460001B7
:0101470009AE
:0101480005B1
:0101490005B0
:01014A0000B4
:01014B000AA9
:01014C0006AC
:01014D0009A8
:01014E0008A8
:01014F0001AE
:0101500007A7
:010151000E9F
:010152000E9E
:0101530009A2
:010154000C9E
:0101550009A0
:010156000E9A
:010157000A9D
:0101580003A3
:010159000D98
:01015A000C98
:01015B00079C
:01015C00049E
:01015D000E93
:01015E000997
:01015F000798
:010160000599
:01016100039A
:010162000C90
:010163000F8C
:010164000F8B
:010165000A8F
:010166000D8B
:010167000C8B
:010168000D89
:010169000392
:01016A000C88
:01016B000F84
:01016C00058D
:01016D000988
:01016E000090
:01016F000F80
:010170000B83
:010171000489
:010172000389
:010173000E7D
:010174000F7B
:010175000089
:010176000286
:010177000582
:010178000A7C
:010179000184
:01017A000381
:01017B000380
:01017C000082
:01017D000978
:01017E00067A
:01017F000679
:010180000777
:010181000A73
:01018200027A
:01018300017A
:010184000D6D
:010185000772
:010186000573
:010187000473
:010188000670
:010189000471
:01018A000D67
:01018B000D66
:01018C000B67
:01018D00036E
:01018E00056B
:01018F000F60
:01019000036B
:010191000964
:010192000B61
:01019300016A
:010194000A60
:010195000D5C
:010196000F59
:010197000E59
:010198000C5A
:01019900065F
:01019A000262
:01019B000C57
:01019C000F53
:01019D00025F
:01019E000F51
:01019F000956
:0101A0000757
:0101A1000D50
:0101A200015B
:0101A3000457
:0101A4000753
:0101A5000455
:0101A6000751
:0101A7000651
:0101A8000F47
:0101A9000154
:0101AA00074D
:0101AB00044F
:0101AC000250
:0101AD000C45
:0101AE00034D
:0101AF000946
:0101B0000945
:0101B100004D
:0101B2000448
:0101B3000942
:0101B4000644
:0101B5000F3A
:0101B6000C3C
:0101B7000E39
:0101B800083E
:0101B9000C39
:0101BA00083C
:0101BB000F34
:0101BC000141
:0101BD000839
:0101BE00013F
:0101BF00033C
:0101C0000C32
:0101C1000E2F
:0101C2000735
:0101C3000536
:0101C4000E2C
:0101C5000534
:0101C6000D2B
:0101C7000D2A
:0101C8000A2C
:0101C9000233
:0101CA000D27
:0101CB000A29
:0101CC000131
:0101CD00042D
:0101CE000F21
:0101CF000E21
:0101D0000925
:0101D1000A23
:0101D2000D1F
:0101D3000C1F
:0101D4000E1C
:0101D5000524
:0101D6000820
:0101D7000225
:0101D8000F17
:0101D900071E
:0101DA00061E
:0101DB000A19
:0101DC00051D
:0101DD000E13
:0101DE00011F
:0101DF000619
:0101E000041A
:0101E1000419
:0101E2000517
:0101E3000318
:0101E4000E0C
:0101E5000E0B
:0101E6000810
:0101E7000314
:0101E800070F
:0101E9000F06
:0101EA000311
:0101EB00060D
:0101EC000F03
:0101ED00020F
:0101EE000808
:0101EF000906
:0101F000000E
:0101F100010C
:0101F2000408
:0101F3000902
:0101F4000901
:0101F5000702
:0101F6000305
:0101F7000304
:0101F8000402
:0101F9000DF8
:0101FA0006FE
:0101FB000EF5
:0101FC000002
:0101FD000001
:0101FE0008F8
:0101FF000EF1
:0102000000FD
:010201000CF0
:010202000AF1
:0102030005F5
:0102040008F1
:0102050003F5
:0102060002F5
:0102070006F0
:0102080004F1
:0102090001F3
:01020A000AE9
:01020B0005ED
:01020C0007EA
:01020D000EE2
:01020E000FE0
:01020F0000EE
:0102100009E4
:010211000CE0
:010212000AE1
:0102130006E4
:010214000BDE
:0102150002E6
:010216000CDB
:0102170003E3
:0102180004E1
:0102190005DF
:01021A000FD4
:01021B0005DD
:01021C000BD6
:01021D0000E0
:01021E000FD0
:01021F0001DD
:010220000FCE
:010221000BD1
:0102220007D4
:010223000FCB
:0102240006D3
:0102250000D8
:010226000CCB
:0102270005D1
:0102280005D0
:0102290006CE
:01022A0003D0
:01022B0001D1
:01022C0009C8
:01022D0003CD
:01022E0008C7
:01022F000FBF
:0102300007C6
:010231000CC0
:010232000BC0
:010233000CBE
:010234000ABF
:010235000EBA
:0102360008BF
:010237000CBA
:0102380000C5
:0102390008BC
:01023A0000C3
:01023B000AB8
:01023C000BB6
:01023D000AB6
:01023E0002BD
:01023F000BB3
:010240000EAF
:010241000CB0
:0102420006B5
:010243000BAF
:0102440007B2
:010245000AAE
:010246000FA8
:0102470001B5
:0102480002B3
:0102490002B2
:01024A0002B1
:01024B0002B0
:01024C0004AD
:01024D000CA4
:01024E000BA4
:01024F0003AB
:0102500007A6
:010251000BA1
:010252000E9D
:010253000E9C
:0102540009A0
:0102550001A7
:010256000D9A
:010257000C9A
:010258000B9A
:010259000E96
:01025A00049F
:01025B00079B
:01025C000899
:01025D000D93
:01025E00009F
:01025F000F8F
:010260000598
:010261000498
:010262000A91
:010263000496
:010264000198
:010265000A8E
:010266000D8A
:010267000B8B
:010268000B8A
:010269000C88
:01026A000192
:01026B00048E
:01026C000E83
:01026D00048C
:01026E000986
:01026F00048A
:010270000489
:01027100028A
:010272000D7E
:010273000A80
:010274000B7E
:010275000385
:01027600097E
:010277000086
:010278000D78
:01027900097B
:01027A000A79
:01027B00047E
:01027C000C75
:01027D000080
:01027E000F70
:01027F000F6F
:01028000027B
:010281000973
:010282000C6F
:010283000D6D
:010284000C6D
:010285000870
:010286000D6A
:010287000571
:010288000D68
:01028900066E
:01028A000E65
:01028B00066C
:01028C000D64
:01028D000B65
:01028E000768
:01028F000F5F
:010290000C61
:010291000D5F
:010292000764
:01029300006A
:010294000A5F
:010295000167
:010296000661
:01029700095D
:01029800065F
:010299000C58
:01029A000A59
:01029B00085A
:01029C000D54
:01029D00015F
:01029E00035C
:01029F000559
:0102A0000855
:0102A100025A
:0102A2000754
:0102A3000F4B
:0102A4000059
:0102A500094F
:0102A6000552
:0102A7000E48
:0102A8000A4B
:0102A9000351
:0102AA000152
:0102AB000052
:0102AC000B46
:0102AD000F41
:0102AE00054A
:0102AF000C42
:0102B0000A43
:0102B1000646
:0102B2000E3D
:0102B3000C3E
:0102B4000D3C
:0102B5000543
:0102B6000D3A
:0102B7000A3C
:0102B8000C39
:0102B9000F35
:0102BA00043F
:0102BB00033F
:0102BC000F32
:0102BD00013F
:0102BE00003F
:0102BF00043A
:0102C0000439
:0102C100023A
:0102C200013A
:0102C3000634
:0102C4000A2F
:0102C5000E2A
:0102C6000F28
:0102C7000036
:0102C800082D
:0102C9000B29
:0102CA000330
:0102CB000032
:0102CC000B26
:0102CD00052B
:0102CE00022D
:0102CF000D21
:0102D0000429
:0102D1000C20
:0102D2000A21
:0102D3000B1F
:0102D4000623
:0102D5000721
:0102D6000027
:0102D7000B1B
:0102D800081D
:0102D9000024
:0102DA00041F
:0102DB000121
:0102DC00061B
:0102DD000B15
:0102DE000619
:0102DF00021C
:0102E0000F0E
:0102E1000715
:0102E2000516
:0102E300001A
:0102E4000415
:0102E5000216
:0102E6000D0A
:0102E700080E
:0102E800060F
:0102E900060E
:0102EA000C07
:0102EB000D05
:0102EC00040D
:0102ED000B05
:0102EE00040B
:0102EF000FFF
:0102F0000A03
:0102F100000C
:0102F2000506
:0102F3000208
:0102F4000207
:0102F5000800
:0102F6000007
:0102F7000AFC
:0102F8000500
:0102F90009FB
:0102FA0004FF
:0102FB000DF5
:0102FC000BF6
:0102FD0007F9
:0102FE0007F8
:0102FF0004FA
:0103000004F8
:0103010005F6
:010302000FEB
:0103030005F4
:0103040005F3
:0103050006F1
:0103060006F0
:0103070009EC
:0103080001F3
:0103090004EF
:01030A0002F0
:01030B0007EA
:01030C000AE6
:01030D0009E6
:01030E0001ED
:01030F0002EB
:0103100000EC
:0103110002E9
:010312000FDB
:010313000ADF
:0103140001E7
:010315000DDA
:010316000BDB
:010317000CD9
:0103180008DC
:0103190004DF
:01031A0008DA
:01031B000ED3
:01031C0009D7
:01031D0009D6
:01031E0001DD
:01031F000FCE
:010320000AD2
:010321000ECD
:010322000ECC
:010323000ECB
:010324000FC9
:0103250003D4
:010326000EC8
:0103270000D5
:010328000FC5
:0103290007CC
:01032A000AC8
:01032B0001D0
:01032C0002CE
:01032D000AC5
:01032E0004CA
:01032F000EBF
:0103300006C6
:010331000EBD
:010332000BBF
:0103330006C3
:010334000CBC
:010335000ABD
:0103360008BE
:010337000FB6
:0103380009BB
:0103390007BC
:01033A0009B9
:01033B0008B9
:01033C0007B9
:01033D000BB4
:01033E000AB4
:01033F0003BA
:010340000CB0
:010341000AB1
:0103420006B4
:0103430002B7
:010344000DAB
:010345000BAC
:010346000FA7
:0103470005B0
:0103480001B3
:0103490007AC
:01034A000CA6
:01034B0004AD
:01034C0001AF
:01034D0005AA
:01034E0001AD
:01034F000BA2
:0103500000AC
:010351000E9D
:0103520009A1
:010353000D9C
:0103540002A6
:010355000D9A
:0103560002A4
:0103570005A0
:010358000C98
:010359000A99
:01035A000F93
:01035B000B96
:01035C00029E
:01035D000798
:01035E000896
:01035F000C91
:010360000894
:010361000695
:010362000F8B
:010363000693
:010364000692
:01036500098E
:010366000E88
:010367000491
:010368000193
:010369000192
:01036A00068C
:01036B00068B
:01036C000C84
:01036D000A85
:01036E000985
:01036F000A83
:010370000389
:010371000982
:010372000585
:010373000188
:010374000682
:01037500097E
:010376000B7B
:010377000184
:01037800087C
:010379000E75
:01037A000181
:01037B00037E
:01037C00047C
:01037D00027D
:01037E000A74
:01037F00027B
:01038000017B
:010381000A71
:010382000476
:010383000376
:010384000F69
:010385000A6D
:010386000076
:010387000A6B
:010388000C68
:010389000271
:01038A000270
:01038B00036E
:01038C000967
:01038D00026D
:01038E000B63
:01038F000D60
:010390000369
:010391000962
:010392000664
:010393000564
:01039400095F
:01039500085F
:010396000C5A
:010397000461
:010398000460
:01039900055E
:01039A00055D
:01039B000D54
:01039C000D53
:01039D00055A
:01039E000E50
:01039F00025B
:0103A0000953
:0103A1000358
:0103A2000A50
:0103A3000653
:0103A400094F
:0103A5000255
:0103A6000254
:0103A7000154
:0103A800074D
:0103A900054E
:0103AA00084A
:0103AB000E43
:0103AC000F41
:0103AD000E41
:0103AE00034B
:0103AF000449
:0103B0000844
:0103B1000249
:0103B2000941
:0103B3000049
:0103B4000F39
:0103B5000A3D
:0103B6000E38
:0103B7000144
:0103B8000440
:0103B9000D36
:0103BA00033F
:0103BB000A37
:0103BC000A36
:0103BD000F30
:0103BE000D31
:0103BF000D30
:0103C0000834
:0103C1000B30
:0103C2000F2B
:0103C3000E2B
:0103C4000236
:0103C5000C2B
:0103C6000630
:0103C700092C
:0103C800072D
:0103C900052E
:0103CA00052D
:0103CB000928
:0103CC000F21
:0103CD000A25
:0103CE000E20
:0103CF00022B
:0103D000012B
:0103D1000229
:0103D2000B1F
:0103D3000326
:0103D4000E1A
:0103D500081F
:0103D600091D
:0103D7000C19
:0103D8000B19
:0103D900091A
:0103DA00071B
:0103DB000E13
:0103DC000917
:0103DD000C13
:0103DE000519
:0103DF000A13
:0103E0000F0D
:0103E1000F0C
:0103E2000911
:0103E3000910
:0103E4000A0E
:0103E5000A0D
:0103E6000610
:0103E7000114
:0103E8000A0A
:0103E900050E
:0103EA000B07
:0103EB00030E
:0103EC000709
:0103ED000B04
:0103EE000C02
:0103EF000706
:0103F0000C00
:0103F1000407
:0103F2000703
:0103F3000504
:0103F40009FF
:0103F5000205
:0103F60007FF
:0103F70006FF
:0103F8000103
:0103F90008FB
:0103FA000002
:0103FB0004FD
:0103FC000DF3
:0103FD0008F7
:0103FE000AF4
:0103FF000DF0
:0104000000FB
:010401000EEC
:0104020000F9
:010403000BED
:0104040005F2
:0104050003F3
:0104060003F2
:0104070007ED
:010408000FE4
:0104090009E9
:01040A0008E9
:01040B0002EE
:01040C0008E7
:01040D0009E5
:01040E000BE2
:01040F0004E8
:0104100008E3
:0104110004E6
:010412000EDB
:010413000FD9
:010414000BDC
:0104150001E5
:0104160000E5
:0104170006DE
:0104180001E2
:010419000AD8
:01041A000FD2
:01041B0002DE
:01041C0007D8
:01041D000ED0
:01041E0004D9
:01041F000AD2
:0104200004D7
:0104210000DA
:010422000ACF
:010423000FC9
:010424000BCC
:0104250006D0
:010426000CC9
:0104270006CE
:010428000FC4
:0104290000D2
:01042A0002CF
:01042B0001CF
:01042C000EC1
:01042D0004CA
:01042E000AC3
:01042F0006C6
:0104300009C2
:0104310000CA
:0104320008C1
:010433000DBB
:0104340000C7
:0104350001C5
:0104360006BF
:0104370000C4
:0104380008BB
:0104390009B9
:01043A0007BA
:01043B0006BA
:01043C0008B7
:01043D000CB2
:01043E000FAE
:01043F0004B8
:010440000DAE
:0104410005B5
:0104420008B1
:010443000AAE
:0104440001B6
:0104450009AD
:0104460003B2
:010447000AAA
:010448000AA9
:010449000AA8
:01044A0003AE
:01044B0004AC
:01044C0006A9
:01044D000CA2
:01044E0000AD
:01044F0000AC
:0104500008A3
:010451000E9C
:0104520000A9
:0104530003A5
:0104540006A1
:0104550003A3
:010456000B9A
:010457000C98
:0104580002A1
:010459000C96
:01045A000C95
:01045B000997
:01045C000B94
:01045D000797
:01045E00019C
:01045F00009C
:010460000F8C
:010461000595
:010462000B8E
:010463000098
:010464000097
:010465000A8C
:010466000590
:010467000B89
:010468000F84
:010469000092
:01046A000D84
:01046B000A86
:01046C000788
:01046D000C82
:01046E00018C
:01046F000E7E
:010470000883
:010471000585
:010472000B7E
:010473000286
:010474000681
:010475000482
:010476000D78
:010477000A7A
:010478000C77
:010479000082
:01047A000879
:01047B00047C
:01047C000E71
:01047D000579
:01047E000F6E
:01047F000C70
:010480000378
:010481000E6C
:010482000A6F
:010483000F69
:01048400086F
:010485000A6C
:01048600096C
:01048700056F
:01048800046F
:010489000969
:01048A000F62
:01048B000070
:01048C00026D
:01048D000F5F
:01048E000766
:01048F000666
:010490000863
:010491000F5B
:010492000762
:010493000860
:010494000661
:010495000C5A
:010496000263
:01049700055F
:01049800055E
:01049900055D
:01049A000B56
:01049B000060
:01049C000659
:01049D000B53
:01049E000B52
:01049F000854
:0104A000015A
:0104A1000D4D
:0104A2000158
:0104A3000553
:0104A4000B4C
:0104A5000551
:0104A6000352
:0104A700094B
:0104A800044F
:0104A900064C
:0104AA000948
:0104AB000050
:0104AC00024D
:0104AD000D41
:0104AE000548
:0104AF000646
:0104B0000843
:0104B1000C3E
:0104B2000346
:0104B3000345
:0104B4000C3B
:0104B5000046
:0104B6000144
:0104B700053F
:0104B8000142
:0104B9000F33
:0104BA000A37
:0104BB00013F
:0104BC000F30
:0104BD00033B
:0104BE00013C
:0104BF00013B
:0104C0000C2F
:0104C1000436
:0104C2000D2C
:0104C3000D2B
:0104C4000C2B
:0104C5000C2A
:0104C6000530
:0104C7000F25
:0104C800052E
:0104C900082A
:0104CA000130
:0104CB000F21
:0104CC000F20
:0104CD000925
:0104CE000E1F
:0104CF000527
:0104D0000F1C
:0104D1000E1C
:0104D2000C1D
:0104D3000721
:0104D4000027
:0104D5000B1B
:0104D6000223
:0104D700091B
:0104D8000D16
:0104D900031F
:0104DA00021F
:0104DB000917
:0104DC00041B
:0104DD000816
:0104DE000D10
:0104DF000F0D
:0104E0000F0C
:0104E1000911
:0104E2000118
:0104E3000E0A
:0104E4000314
:0104E5000610
:0104E6000312
:0104E7000311
:0104E8000112
:0104E9000909
:0104EA00030E
:0104EB000B05
:0104EC000609
:0104ED000C02
:0104EE000C01
:0104EF000A02
:0104F0000308
:0104F1000A00
:0104F2000504
:0104F3000602
:0104F4000007
:0104F5000303
:0104F6000EF7
:0104F7000FF5
:0104F80004FF
:0104F9000BF7
:0104FA0002FF
:0104FB000EF2
:0104FC0005FA
:0104FD0001FD
:0104FE0007F6
:0104FF0003F9
:010500000BEF
:0105010001F8
:0105020001F7
:0105030003F4
:010504000CEA
:0105050001F4
:0105060003F1
:0105070003F0
:0105080006EC
:0105090008E9
:01050A0009E7
:01050B000AE5
:01050C0007E7
:01050D0003EA
:01050E000FDD
:01050F000EDD
:0105100003E7
:0105110009E0
:0105120009DF
:0105130009DE
:0105140002E4
:010515000ADB
:0105160009DB
:010517000FD4
:010518000DD5
:0105190005DC
:01051A000DD3
:01051B0001DE
:01051C000ED0
:01051D0000DD
:01051E0000DC
:01051F0001DA
:0105200007D3
:0105210006D3
:0105220008D0
:0105230003D4
:0105240000D6
:010525000CC9
:010526000BC9
:0105270005CE
:010528000AC8
:0105290007CA
:01052A0006CA
:01052B000FC0
:01052C0000CE
:01052D0008C5
:01052E0001CB
:01052F0000CB
:010530000AC0
:010531000ABF
:0105320003C5
:0105330002C5
:0105340003C3
:0105350007BE
:010536000DB7
:0105370008BB
:010538000AB8
:0105390008B9
:01053A000AB6
:01053B0009B6
:01053C0000BE
:01053D000CB1
:01053E0002BA
:01053F0007B4
:010540000DAD
:010541000DAC
:010542000DAB
:010543000DAA
:0105440005B1
:010545000FA6
:0105460006AE
:010547000EA5
:0105480006AC
:0105490006AB
:01054A0004AC
:01054B0006A9
:01054C0003AB
:01054D000CA1
:01054E0000AC
:01054F000BA0
:0105500001A9
:0105510003A6
:0105520007A1
:0105530004A3
:0105540000A6
:010555000B9A
:0105560000A4
:010557000D96
:01055800059D
:01055900079A
:01055A000C94
:01055B000996
:01055C000599
:01055D00029B
:01055E000F8D
:01055F000C8F
:010560000D8D
:010561000A8F
:010562000791
:010563000D8A
:01056400078F
:010565000B8A
:010566000292
:010567000093
:010568000B87
:010569000D84
:01056A00068A
:01056B000788
:01056C000688
:01056D000489
:01056E000389
:01056F00018A
:010570000B7F
:010571000881
:010572000F79
:010573000E79
:010574000680
:010575000481
:010576000480
:01057700077C
:010578000280
:01057900077A
:01057A000E72
:01057B000D72
:01057C00007E
:01057D000E6F
:01057E00007C
:01057F00007B
:010580000278
:010581000D6C
:010582000771
:010583000176
:010584000D69
:010585000D68
:010586000F65
:010587000370
:010588000969
:01058900046D
:01058A000E62
:01058B000E61
:01058C00046A
:01058D000D60
:01058E00026A
:01058F000764
:010590000D5D
:010591000D5C
:010592000A5E
:010593000B5C
:010594000A5C
:010595000164
:010596000A5A
:010597000162
:010598000260
:01059900055C
:01059A000B55
:01059B000956
:01059C000658
:01059D000558
:01059E000458
:01059F000F4C
:0105A0000753
:0105A1000653
:0105A2000157
:0105A3000F48
:0105A4000650
:0105A5000352
:0105A600054F
:0105A7000B48
:0105A8000D45
:0105A9000150
:0105AA000E42
:0105AB00054A
:0105AC000549
:0105AD000A43
:0105AE000E3E
:0105AF000B40
:0105B0000941
:0105B1000445
:0105B2000E3A
:0105B3000F38
:0105B400073F
:0105B5000B3A
:0105B6000B39
:0105B7000043
:0105B800043E
:0105B900053C
:0105BA000D33
:0105BB00003F
:0105BC000A34
:0105BD00003D
:0105BE000B31
:0105BF00013A
:0105C0000B2F
:0105C1000B2E
:0105C2000236
:0105C3000B2C
:0105C4000E28
:0105C5000A2B
:0105C600072D
:0105C7000F24
:0105C8000929
:0105C900032E
:0105CA00012F
:0105CB000B24
:0105CC000F1F
:0105CD00012C
:0105CE00022A
:0105CF000F1C
:0105D0000921
:0105D1000326
:0105D2000B1D
:0105D3000225
:0105D4000F17
:0105D5000F16
:0105D6000222
:0105D700061D
:0105D800061C
:0105D9000918
:0105DA00051B
:0105DB00041B
:0105DC000B13
:0105DD00021B
:0105DE000D0F
:0105DF000417
:0105E0000614
:0105E1000B0E
:0105E2000E0A
:0105E3000B0C
:0105E4000B0B
:0105E5000B0A
:0105E6000F05
:0105E7000F04
:0105E800050D
:0105E9000110
:0105EA000808
:0105EB000807
:0105EC000D01
:0105ED000B02
:0105EE000FFD
:0105EF000CFF
:0105F0000A00
:0105F1000603
:0105F2000305
:0105F30009FE
:0105F4000402
:0105F50006FF
:0105F6000EF6
:0105F70006FD
:0105F80006FC
:0105F90005FC
:0105FA0002FE
:0105FB0001FE
:0105FC000DF1
:0105FD000AF3
:0105FE0007F5
:0105FF000DEE
:0106000005F4
:010601000DEB
:0106020009EE
:0106030001F5
:0106040001F4
:0106050003F1
:0106060003F0
:010607000EE4
:010608000CE5
:010609000EE2
:01060A000FE0
:01060B0005E9
:01060C000EDF
:01060D0005E7
:01060E0000EB
:01060F0007E3
:0106100008E1
:010611000ADE
:0106120004E3
:0106130004E2
:010614000BDA
:0106150003E1
:010616000DD6
:0106170008DA
:0106180000E1
:0106190000E0
:01061A0002DD
:01061B0007D7
:01061C0006D7
:01061D0008D4
:01061E000AD1
:01061F0005D5
:010620000BCE
:010621000BCD
:0106220004D3
:010623000BCB
:0106240000D5
:0106250007CD
:0106260007CC
:010627000FC3
:010628000DC4
:0106290008C8
:01062A0008C7
:01062B000AC4
:01062C0004C9
:01062D000DBF
:01062E0009C2
:01062F000EBC
:0106300001C8
:0106310009BF
:010632000BBC
:010633000FB7
:0106340005C0
:0106350002C2
:010636000DB6
:0106370004BE
:010638000EB3
:0106390009B7
:01063A000EB1
:01063B0005B9
:01063C0004B9
:01063D0009B3
:01063E000BB0
:01063F000DAD
:0106400001B8
:010641000FA9
:0106420002B5
:0106430000B6
:0106440001B4
:010645000EA6
:0106460007AC
:0106470003AF
:0106480005AC
:010649000FA1
:01064A0002AD
:01064B0008A6
:01064C000DA0
:01064D000D9F
:01064E000BA0
:01064F0009A1
:010650000B9E
:0106510006A2
:0106520003A4
:010653000E98
:010654000C99
:0106550003A1
:010656000B98
:010657000F93
:01065800059C
:01065900059B
:01065A000A95
:01065B00009E
:01065C00009D
:01065D000795
:01065E000893
:01065F000793
:010660000297
:010661000692
:010662000592
:010663000096
:010664000F86
:010665000490
:010666000A89
:010667000D85
:01066800028F
:01066900058B
:01066A00038C
:01066B000C82
:01066C000E7F
:01066D000686
:01066E000487
:01066F000B7F
:010670000782
:010671000B7D
:010672000384
:010673000383
:010674000B7A
:01067500097B
:010676000D76
:010677000D75
:010678000A77
:010679000977
:01067A000D72
:01067B00037B
:01067C000B72
:01067D000C70
:01067E000477
:01067F000674
:010680000376
:010681000474
:010682000473
:01068300096D
:010684000E67
:010685000E66
:010686000C67
:010687000969
:010688000A67
:01068900026E
:01068A000B64
:01068B000A64
:01068C000469
:01068D000864
:01068E00006B
:01068F000763
:010690000A5F
:01069100095F
:010692000265
:010693000264
:010694000C59
:010695000163
:010696000C57
:010697000B57
:01069800075A
:010699000C54
:01069A000857
:01069B000F4F
:01069C000558
:01069D00025A
:01069E000655
:01069F000456
:0106A0000C4D
:0106A1000C4C
:0106A2000750
:0106A300094D
:0106A4000D48
:0106A500084C
:0106A600044F
:0106A7000052
:0106A8000B46
:0106A900064A
:0106AA00004F
:0106AB00044A
:0106AC000E3F
:0106AD000D3F
:0106AE000249
:0106AF000446
:0106B0000742
:0106B1000D3B
:0106B2000641
:0106B300093D
:0106B400093C
:0106B5000F35
:0106B6000E35
:0106B7000B37
:0106B8000E33
:0106B9000D33
:0106BA00033C
:0106BB000836
:0106BC000C31
:0106BD000834
:0106BE000734
:0106BF000C2E
:0106C0000E2B
:0106C1000E2A
:0106C2000C2B
:0106C3000630
:0106C400072E
:0106C500082C
:0106C6000231
:0106C700072B
:0106C800032E
:0106C9000C24
:0106CA00042B
:0106CB000A24
:0106CC000F1E
:0106CD000329
:0106CE000625
:0106CF000D1D
:0106D0000B1E
:0106D1000D1B
:0106D2000522
:0106D3000B1B
:0106D4000520
:0106D5000123
:0106D6000E15
:0106D7000919
:0106D8000120
:0106D9000D13
:0106DA000E11
:0106DB000717
:0106DC000914
:0106DD000418
:0106DE000219
:0106DF000911
:0106E0000E0B
:0106E1000A0E
:0106E2000D0A
:0106E3000B0B
:0106E4000510
:0106E500060E
:0106E6000D06
:0106E7000C06
:0106E8000908
:0106E9000B05
:0106EA00050A
:0106EB000C02
:0106EC000508
:0106ED000705
:0106EE000B00
:0106EF000208
:0106F0000FFA
:0106F1000602
:0106F2000502
:0106F3000204
:0106F40006FF
:0106F5000CF8
:0106F6000AF9
:0106F7000CF6
:0106F8000001
:0106F9000BF5
:0106FA0008F7
:0106FB000DF1
:0106FC0004F9
:0106FD000BF1
:0106FE000EED
:0106FF0004F6
:010700000BED
:010701000FE8
:0107020001F5
:010703000FE6
:0107040000F4
:010705000CE7
:010706000BE7
:0107070005EC
:0107080002EE
:010709000BE4
:01070A000DE1
:01070B0005E8
:01070C0009E3
:01070D0004E7
:01070E000BDF
:01070F0000E9
:0107100000E8
:010711000ADD
:0107120007DF
:0107130001E4
:010714000FD5
:010715000ED5
:010716000ED4
:010717000BD6
:010718000CD4
:0107190008D7
:01071A0003DB
:01071B000CD1
:01071C000CD0
:01071D0000DB
:01071E0006D4
:01071F0001D8
:0107200005D3
:0107210000D7
:0107220004D2
:010723000BCA
:010724000EC6
:010725000CC7
:0107260001D1
:0107270001D0
:010728000FC1
:010729000FC0
:01072A000DC1
:01072B0009C4
:01072C000AC2
:01072D0000CB
:01072E0009C1
:01072F0005C4
:0107300000C8
:0107310006C1
:010732000CBA
:0107330005C0
:010734000BB9
:0107350000C3
:0107360004BE
:0107370008B9
:0107380002BE
:0107390005BA
:01073A0006B8
:01073B0002BB
:01073C0007B5
:01073D0001BA
:01073E000FAB
:01073F000BAE
:010740000AAE
:010741000FA8
:010742000CAA
:0107430007AE
:010744000AAA
:0107450001B2
:010746000FA3
:0107470001B0
:0107480002AE
:0107490006A9
:01074A000CA2
:01074B000AA3
:01074C000E9E
:01074D000F9C
:01074E000F9B
:01074F0001A8
:010750000B9D
:010751000E99
:01075200079F
:0107530001A4
:010754000D97
:010755000B98
:01075600039F
:01075700059C
:01075800039D
:010759000D92
:01075A000F8F
:01075B000F8E
:01075C000498
:01075D000992
:01075E000E8C
:01075F000594
:010760000395
:010761000196
:010762000492
:010763000E87
:010764000F85
:010765000A89
:01076600058D
:01076700048D
:01076800028E
:010769000689
:01076A00048A
:01076B000786
:01076C00018B
:01076D000D7E
:01076E000E7C
:01076F000386
:010770000A7E
:010771000D7A
:010772000284
:010773000580
:01077400087C
:01077500047F
:01077600087A
:01077700057C
:010778000779
:01077900037C
:01077A000D71
:01077B000C71
:01077C000B71
:01077D000477
:01077E000971
:01077F000079
:010780000E6A
:010781000374
:010782000B6B
:01078300066F
:01078400086C
:010785000C67
:010786000270
:01078700026F
:01078800056B
:010789000966
:01078A000B63
:01078B000667
:01078C000765
:01078D000665
:01078E000268
:01078F000E5B
:010790000F59
:01079100095E
:010792000165
:010793000E57
:010794000C58
:010795000360
:01079600065C
:010797000F52
:010798000C54
:010799000C53
:01079A000E50
:01079B000657
:01079C000854
:01079D00015A
:01079E000258
:01079F000257
:0107A0000256
:0107A1000453
:0107A2000F47
:0107A3000E47
:0107A4000252
:0107A5000A49
:0107A600054D
:0107A7000051
:0107A8000E42
:0107A900054A
:0107AA000648
:0107AB000F3E
:0107AC00024A
:0107AD000F3C
:0107AE000842
:0107AF000B3E
:0107B0000F39
:0107B1000245
:0107B2000B3B
:0107B3000B3A
:0107B4000143
:0107B5000D36
:0107B600043E
:0107B7000F32
:0107B800033D
:0107B900033C
:0107BA00013D
:0107BB000934
:0107BC000933
:0107BD000239
:0107BE000238
:0107BF000A2F
:0107C0000A2E
:0107C1000E29
:0107C200082E
:0107C3000134
:0107C4000A2A
:0107C5000033
:0107C600052D
:0107C7000829
:0107C800062A
:0107C900022D
:0107CA000B23
:0107CB000528
:0107CC000A22
:0107CD000F1C
:0107CE000E1C
:0107CF000128
:0107D0000B1D
:0107D1000C1B
:0107D2000B1B
:0107D300081D
:0107D4000222
:0107D5000D16
:0107D6000C16
:0107D7000819
:0107D800051B
:0107D9000D12
:0107DA00011D
:0107DB000D10
:0107DC000715
:0107DD000813
:0107DE000D0D
:0107DF000A0F
:0107E0000A0E
:0107E1000D0A
:0107E2000115
:0107E300080D
:0107E400050F
:0107E500090A
:0107E6000B07
:0107E7000809
:0107E8000808
:0107E9000906
:0107EA00030B
:0107EB000409
:0107EC000507
:0107ED000B00
:0107EE000BFF
:0107EF000207
:0107F0000008
:0107F1000601
:0107F2000105
:0107F30008FD
:0107F4000202
:0107F5000BF8
:0107F60003FF
:0107F70005FC
:0107F8000BF5
:0107F90000FF
:0107FA0005F9
:0107FB000AF3
:0107FC000BF1
:0107FD000BF0
:0107FE0000FA
:0107FF0001F8
:00000001ff
