:020000040000FA
:020000000000FE
:020001000003FA
:02000200000FED
:020003000023D8
:02000400003FBB
:02000500006396
:02000600008F69
:0200070000C235
:0200080000FEF8
:020009000141B3
:02000A00018C67
:02000B0001DE14
:02000C000039B9
:02000D00009B56
:02000E000105EA
:02000F00017777
:0200100001F0FD
:0200110000717C
:0200120000F9F3
:02001300018961
:020014000021C9
:0200150000C029
:02001600016780
:020017000015D2
:0200180000CB1B
:0200190001885C
:02001A00004D97
:02001B000119C9
:02001C0001ECF5
:02001D0000C71A
:02001E0001A936
:02001F0000934C
:0200200001835A
:02002100007C61
:02002200017B60
:02002300008259
:02002400018F4A
:0200250000A534
:0200260001C116
:0200270000E4F3
:02002800000FC7
:02002900014193
:02002A0000795B
:02002B0001B919
:02002C000100D1
:02002D00004F82
:02002E0001A42B
:02002F000100CE
:0200300000636B
:0200310001CDFF
:02003200013E8D
:0200330000B615
:02003400003595
:0200350001BB0D
:02003600014780
:0200370000DBEC
:02003800007551
:020039000016AF
:02003A0001BE05
:02003B00016D55
:02003C0001229F
:02003D0000DFE2
:02003E0000A21E
:02003F00006B54
:02004000003C82
:020041000013AA
:0200420001F0CB
:0200430001D5E5
:0200440001C0F9
:0200450001B107
:0200460001A90E
:0200470001A80E
:0200480001AD08
:0200490001B9FB
:02004A0001CBE8
:02004B0001E4CE
:02004C000003AF
:02004D00002988
:02004E0000555B
:02004F00008827
:0200500000C0EE
:020051000100AC
:02005200014566
:02005300019119
:0200540001E4C5
:02005500003C6D
:02005600009B0D
:020057000101A5
:02005800016C39
:0200590001DEC6
:02005A0000564E
:02005B0000D4CF
:02005C00015948
:02005D0001E3BD
:02005E0000742C
:02005F00010B93
:0200600001A8F5
:02006100004B52
:0200620000F4A8
:0200630001A3F7
:02006400005941
:02006500011484
:0200660001D6C1
:02006700009DFA
:02006800016B2A
:02006900003E57
:02006A0001187B
:02006B0001F79B
:02006C0000DCB6
:02006D0001C7C9
:02006E0000B9D7
:02006F0001B0DE
:0200700000ADE1
:0200710001AFDD
:0200720000B8D4
:0200730001C6C4
:0200740000DBAF
:0200750001F593
:02007600011572
:02007700003A4D
:0200780001661F
:020079000097EE
:02007A0001CDB6
:02007B00010A78
:02007C00004C36
:02007D000194EC
:02007E0000E29E
:02007F0000354A
:02008000018EEF
:0200810000EC91
:0200820000502C
:0200830001BAC0
:02008400012950
:02008500009EDB
:02008600001860
:020087000198DE
:02008800011E57
:0200890000A8CD
:02008A0000393B
:02008B0001CFA3
:02008C00016A07
:02008D00010B65
:02008E0000B1BF
:02008F00005D12
:02009000000E60
:0200910001C4A8
:020092000180EB
:02009300014129
:02009400010762
:0200950000D396
:0200960000A4C4
:02009700007BEC
:0200980000570F
:0200990000382D
:02009A00001E46
:02009B0000095A
:02009C0001FA67
:02009D0001F070
:02009E0001EC73
:02009F0001EC72
:0200A00001F26B
:0200A10001FC60
:0200A200000C50
:0200A300002239
:0200A400003C1E
:0200A500005BFE
:0200A6000080D8
:0200A70000A9AE
:0200A80000D87E
:0200A900010C48
:0200AA0001450E
:0200AB000182D0
:0200AC0001C58C
:0200AD00000D44
:0200AE00005AF6
:0200AF0000ACA3
:0200B00001034A
:0200B100015FED
:0200B20001C08B
:0200B300002526
:0200B4000090BA
:0200B500010048
:0200B6000174D3
:0200B70001EE58
:0200B800006CDA
:0200B90000EF56
:0200BA000177CC
:0200BB0000043F
:0200BC000096AC
:0200BD00012C14
:0200BE0001C877
:0200BF000068D7
:0200C000010D30
:0200C10001B785
:0200C2000065D7
:0200C300011822
:0200C40001D069
:0200C500008DAC
:0200C600014FE8
:0200C700001522
:0200C80000E056
:0200C90001AF85
:0200CA000083B1
:0200CB00015CD6
:0200CC00003AF8
:0200CD00011C14
:0200CE0000032D
:0200CF0000EE41
:0200D00001DE4F
:0200D10000D35A
:0200D20001CC5F
:0200D30000CA61
:0200D40001CC5D
:0200D50000D356
:0200D60001DE49
:0200D70000EE39
:0200D800000323
:0200D900011C08
:0200DA000039EB
:0200DB00015BC7
:0200DC000082A0
:0200DD0001AC74
:0200DE0000DC44
:0200DF0000100F
:0200E0000148D5
:0200E100008499
:0200E20001C556
:0200E300010B0F
:0200E4000055C5
:0200E50001A375
:0200E60000F523
:0200E700004CCB
:0200E80001A76E
:0200E90001070D
:0200EA00006BA9
:0200EB0001D33F
:0200EC000140D1
:0200ED0000B160
:0200EE000026EA
:0200EF00019F6F
:0200F000011DF0
:0200F100009F6E
:0200F2000025E7
:0200F30001AF5B
:0200F400013ECB
:0200F50000D039
:0200F6000068A0
:0200F700000304
:0200F80001A263
:0200F9000146BE
:0200FA0000ED17
:0200FB0000996A
:0200FC000049B9
:0200FD0001FD03
:0200FE0001B649
:0200FF0001728C
:020100000133C9
:0201010000F705
:0201020000C03B
:02010300008D6D
:02010400005E9B
:020105000033C5
:02010600000BEC
:0201070001E80D
:0201080001C92B
:0201090001AE45
:02010A0001985A
:02010B0001856C
:02010C0001767A
:02010D00016B84
:02010E0001648A
:02010F0001618C
:0201100001618B
:02011100016685
:02011200016F7B
:02011300017C6D
:02011400018C5C
:0201150001A146
:0201160001BA2C
:0201170001D60F
:0201180001F6EE
:02011900001ACA
:02011A000042A1
:02011B00006E74
:02011C00009E43
:02011D0000D10F
:02011E000108D6
:02011F00014499
:02012000018359
:0201210001C516
:02012200000CCF
:02012300005684
:0201240000A435
:0201250000F6E2
:02012600014C8A
:0201270001A530
:020128000003D2
:02012900006371
:02012A0000C80B
:02012B000130A1
:02012C00019D33
:02012D00000CC4
:02012E0000804F
:02012F0000F7D7
:0201300001725A
:0201310001F0DB
:02013200007259
:0201330000F8D2
:02013400018147
:02013500000EBA
:02013600009F28
:02013700013392
:0201380001CBF9
:0201390000675D
:02013A000106BC
:02013B0001A918
:02013C00004F72
:02013D0000F9C7
:02013E0001A618
:02013F00005767
:02014000010CB0
:0201410001C4F7
:02014200007F3C
:02014300013E7B
:020144000001B8
:0201450000C7F1
:02014600019125
:02014700005E58
:02014800012E86
:020149000003B1
:02014A0000DAD9
:02014B0001B5FC
:02014C0000941D
:02014D0001753A
:02014E00005B54
:02014F00014469
:0201500000307D
:02015100011F8C
:02015200001299
:020153000109A0
:020154000003A6
:020155000100A7
:020156000000A7
:020157000104A1
:02015800000B9A
:0201590001168D
:02015A0000247F
:02015B0001356C
:02015C00004A57
:02015D0001623D
:02015E00007D22
:02015F00019C01
:0201600000BEDF
:0201610001E3B8
:02016200010C8E
:02016300003862
:02016400016731
:020165000099FF
:0201660001CFC7
:0201670001078E
:02016800004451
:02016900018310
:02016A0000C6CD
:02016B00000B87
:02016C0001543C
:02016D0000A1EF
:02016E0001F09E
:02016F0001434A
:020170000099F4
:0201710001F299
:02017200014E3C
:0201730000ADDD
:02017400001079
:02017500017512
:0201760000DEA9
:02017700004A3C
:0201780001B9CB
:02017900012C57
:02017A0000A1E2
:02017B00001969
:02017C000195EB
:02017D0001146B
:02017E000096E9
:02017F00001A64
:0201800001A2DA
:02018100012D4E
:0201820000BCBF
:02018300004D2D
:0201840001E197
:020185000178FF
:02018600011363
:0201870000B0C6
:02018800005025
:0201890001F47F
:02018A00019AD8
:02018B0001442D
:02018C0000F081
:02018D0000A0D0
:02018E0000521D
:02018F00000866
:0201900001C0AC
:02019100017CEF
:02019200013A30
:0201930000FB6F
:0201940000C0A9
:020195000087E1
:02019600005116
:02019700001E48
:0201980001EE76
:0201990001C1A2
:02019A000197CB
:02019B000170F1
:02019C00014C14
:02019D00012A35
:02019E00010C52
:02019F0000F06E
:0201A00000D885
:0201A10000C29A
:0201A20000AFAC
:0201A300009FBB
:0201A4000092C7
:0201A5000087D1
:0201A6000080D7
:0201A700007BDB
:0201A8000079DC
:0201A900007ADA
:0201AA00007ED5
:0201AB000085CD
:0201AC00008EC3
:0201AD00009AB6
:0201AE0000A9A6
:0201AF0000BB93
:0201B00000D07D
:0201B10000E765
:0201B200010149
:0201B300011E2B
:0201B400013E0A
:0201B5000160E7
:0201B6000186C0
:0201B70001AE97
:0201B80001D86C
:0201B90000063E
:0201BA0000360D
:0201BB000069D9
:0201BC00009FA2
:0201BD0000D769
:0201BE0001122C
:0201BF000150ED
:0201C0000190AC
:0201C10001D368
:0201C200001922
:0201C3000062D8
:0201C40000AD8C
:0201C50000FB3D
:0201C600014BEB
:0201C700019F96
:0201C80001F440
:0201C900004DE7
:0201CA0000A88B
:0201CB0001062B
:0201CC000166CA
:0201CD0001C966
:0201CE00002F00
:0201CF00009797
:0201D00001022A
:0201D1000170BB
:0201D20001E04A
:0201D3000053D7
:0201D40000C861
:0201D5000140E7
:0201D60001BA6C
:0201D7000037EF
:0201D80000B76E
:0201D9000139EA
:0201DA0001BE64
:0201DB000045DD
:0201DC0000CF52
:0201DD00015BC4
:0201DE0001EA34
:0201DF00007CA2
:0201E00001100C
:0201E10001A675
:0201E200003FDC
:0201E30000DB3F
:0201E40001799F
:0201E500001AFE
:0201E60000BD5A
:0201E7000162B3
:0201E800000A0B
:0201E90000B55F
:0201EA000162B0
:0201EB00001101
:0201EC0000C34E
:0201ED00017897
:0201EE00002FE0
:0201EF0000E826
:0201F00001A468
:0201F1000062AA
:0201F2000123E7
:0201F30001E623
:0201F40000AC5D
:0201F500017394
:0201F600003EC9
:0201F700010BFA
:0201F80001DA2A
:0201F90000AC58
:0201FA00018082
:0201FB000056AC
:0201FC00012FD1
:0201FD00000AF6
:0201FE0000E817
:0201FF0001C835
:0202000000AA52
:02020100018F6B
:02020200007684
:02020300015F99
:02020400004BAD
:020205000139BD
:02020600002ACC
:02020700011DD7
:020208000012E2
:02020900010AE8
:02020A000003EF
:02020B000100F0
:02020C0001FEF1
:02020D0000FFF0
:02020E000002EC
:02020F000108E4
:02021000000FDD
:020211000119D1
:020212000026C4
:020213000134B4
:020214000045A3
:0202150001588E
:02021600006E78
:0202170001865E
:0202180000A044
:0202190001BC26
:02021A0000DA08
:02021B0001FBE5
:02021C00011EC1
:02021D0000449B
:02021E00016B72
:02021F00009548
:0202200001C11A
:0202210000EFEC
:02022200001FBB
:02022300015286
:02022400008751
:0202250001BE18
:0202260000F7DF
:020227000033A2
:02022800017162
:0202290000B023
:02022A0001F3DE
:02022B00013799
:02022C00007D53
:02022D0001C608
:02022E000111BC
:02022F00005E6F
:0202300001AD1E
:0202310000FECD
:02023200005179
:0202330001A721
:0202340000FFC9
:0202350000596E
:0202360001B510
:020237000113B1
:02023800007351
:0202390001D6EC
:02023A00013A87
:02023B0000A120
:02023C00000AB6
:02023D00017549
:02023E0000E2DC
:02023F0000516C
:0202400001C2F9
:02024100013585
:0202420000AB0F
:02024300002297
:02024400019C1B
:0202450001189E
:02024600009521
:020247000015A0
:0202480001971C
:02024900011B97
:02024A0000A111
:02024B00002988
:02024C0001B3FC
:02024D00013F6F
:02024E0000CEE0
:02024F00005E4F
:0202500001F0BB
:02025100018525
:02025200011B8E
:0202530000B3F6
:02025400004E5A
:0202550001EABC
:0202560001891C
:0202570001297B
:0202580000CCD8
:02025900007033
:02025A0000178B
:02025B0001BFE1
:02025C00016A35
:02025D00011688
:02025E0000C5D9
:02025F00007528
:02026000002874
:0202610001DCBE
:02026200019207
:02026300014B4D
:02026400010592
:0202650000C1D6
:02026600008016
:02026700004055
:02026800000292
:0202690001C6CC
:02026A00018C05
:02026B0001543C
:02026C00011E71
:02026D0000EAA5
:02026E0000B8D6
:02026F00008706
:02027000005933
:02027100002D5E
:02027200000288
:0202730001D9AF
:0202740001B3D4
:02027500018EF8
:02027600016B1A
:02027700014A3A
:02027800012B58
:02027900010E74
:02027A0000F290
:02027B0000D9A8
:02027C0000C1BF
:02027D0000ACD3
:02027E000098E6
:02027F000086F7
:02028000007606
:02028100006714
:02028200005B1F
:02028300005128
:02028400004830
:02028500004136
:02028600003C3A
:0202870000393C
:0202880000383C
:0202890000383B
:02028A00003B37
:02028B00003F32
:02028C0000452B
:02028D00004D22
:02028E00005717
:02028F0000620B
:020290000070FC
:02029100007FEC
:020292000090DA
:0202930000A3C6
:0202940000B7B1
:0202950000CE99
:0202960000E680
:02029700010064
:02029800011B48
:02029900013929
:02029A00015809
:02029B000179E7
:02029C00019CC3
:02029D0001C19D
:02029E0001E776
:02029F0000104D
:0202A000003923
:0202A1000065F6
:0202A2000093C7
:0202A30000C297
:0202A40000F365
:0202A500012630
:0202A600015AFB
:0202A7000190C4
:0202A80001C88B
:0202A900000251
:0202AA00003D15
:0202AB00007AD7
:0202AC0000B997
:0202AD0000FA55
:0202AE00013C11
:0202AF000180CC
:0202B00001C685
:0202B100000E3D
:0202B2000057F3
:0202B30000A2A7
:0202B40000EE5A
:0202B500013C0A
:0202B600018CB9
:0202B70001DE66
:0202B800003212
:0202B9000087BC
:0202BA0000DD65
:0202BB0001360A
:0202BC000190AF
:0202BD0001EC52
:0202BE000049F5
:0202BF0000A895
:0202C000010932
:0202C100016BCF
:0202C20001D069
:0202C300003504
:0202C400009D9B
:0202C500010630
:0202C6000171C4
:0202C70001DD57
:0202C800004BE9
:0202C90000BB78
:0202CA00012C05
:0202CB00019F91
:0202CC0000141C
:0202CD00008AA5
:0202CE0001022B
:0202CF00017BB1
:0202D00001F635
:0202D1000073B8
:0202D20000F139
:0202D3000171B7
:0202D40001F334
:0202D5000076B1
:0202D60000FB2B
:0202D7000181A3
:0202D80000091B
:0202D900009291
:0202DA00011E03
:0202DB0001AA76
:0202DC000039E7
:0202DD0000C956
:0202DE00015AC3
:0202DF0001ED2F
:0202E00000829A
:0202E100011802
:0202E20001B069
:0202E3000049D0
:0202E40000E434
:0202E500018195
:0202E600001FF7
:0202E70000BE57
:0202E8000160B3
:0202E900000211
:0202EA0000A76B
:0202EB00014DC3
:0202EC0001F41B
:0202ED00009D72
:0202EE000147C6
:0202EF0001F319
:0202F00000A16B
:0202F1000150BA
:0202F200000109
:0202F30000B356
:0202F4000166A1
:0202F500001CEB
:0202F60000D234
:0202F700018B79
:0202F8000044C0
:0202F900010002
:0202FA0001BC45
:0202FB00007B86
:0202FC00013AC5
:0202FD0001FC02
:0202FE0000BF3F
:0202FF00018379
:020300000049B2
:020301000110E9
:0203020001D91F
:0203030000A355
:02030400016F87
:02030500003CBA
:02030600010BE9
:0203070001DB18
:0203080000AC47
:02030900018071
:02030A0000549D
:02030B00012AC5
:02030C000002ED
:02030D0000DB13
:02030E0001B537
:02030F0000915B
:02031000016F7B
:02031100004D9D
:02031200012EBA
:02031300000FD9
:0203140000F3F4
:0203150001D70E
:0203160000BD28
:0203170001A53E
:02031800008E55
:02031900017869
:02031A0000647D
:02031B0001518E
:02031C0000409F
:02031D000130AD
:02031E000021BC
:02031F000114C7
:020320000008D3
:0203210000FEDC
:0203220001F5E3
:0203230000EEEA
:0203240001E8EE
:0203250000E3F3
:0203260001E0F4
:0203270000DEF6
:0203280001DEF4
:0203290000DFF3
:02032A0001E1EF
:02032B0000E5EB
:02032C0001EAE4
:02032D0000F1DD
:02032E0001F9D3
:02032F000102C9
:02033000000DBE
:020331000119B0
:020332000026A3
:02033300013592
:02033400004582
:0203350001576E
:02033600006A5B
:02033700017E45
:0203380000942F
:0203390001AB16
:02033A0000C3FE
:02033B0001DDE2
:02033C0000F8C7
:02033D000015A9
:02033E00013389
:02033F0000526A
:02034000017248
:02034100009426
:0203420001B701
:0203430000DCDC
:020344000002B5
:0203450001298C
:02034600005164
:02034700017B38
:0203480000A70C
:0203490001D3DE
:02034A000101AF
:02034B00003080
:02034C0001614D
:02034D0000921C
:02034E0001C5E7
:02034F0000FAB2
:0203500000307B
:02035100016742
:02035200009F0A
:0203530001D9CE
:02035400011492
:02035500005056
:02035600018E16
:0203570000CCD8
:02035800000D96
:02035900014E53
:02035A00009110
:02035B0001D5CA
:02035C00011A84
:02035D0000613D
:02035E0001A9F3
:02035F0000F2AA
:02036000003C5F
:02036100018811
:0203620000D5C4
:02036300002375
:02036400017323
:0203650000C4D2
:0203660000167F
:0203670001692A
:0203680000BED5
:0203690000137F
:02036A00016B25
:02036B0000C3CD
:02036C00001D72
:02036D00017716
:02036E0000D4B9
:02036F0000315B
:020370000190FA
:0203710000F09A
:02037200005138
:0203730001B3D4
:0203740001176F
:02037500007B0B
:0203760001E1A3
:0203770001493A
:0203780000B1D2
:02037900001B67
:02037A000186FA
:02037B0000F28E
:02037C0000601F
:02037D0001CEAF
:02037E00013E3E
:02037F0000AFCD
:02038000002259
:020381000195E4
:02038200010A6E
:020383000080F8
:0203840001F77F
:02038500016F06
:0203860000E98C
:02038700006410
:0203880001E092
:02038900015D14
:02038A0000DB96
:02038B00005B15
:02038C0001DB93
:02038D00015D10
:02038E0000E18C
:02038F00006507
:0203900001EA80
:020391000171F8
:0203920000F970
:020393000082E6
:02039400000C5B
:020395000198CD
:02039600012440
:0203970000B2B2
:02039800004122
:0203990001D190
:02039A000162FE
:02039B0000F56B
:02039C000088D7
:02039D00001D41
:02039E0001B3A9
:02039F00014A11
:0203A00000E279
:0203A100007CDE
:0203A200001643
:0203A30001B2A5
:0203A400014F07
:0203A50000ED69
:0203A600008CC9
:0203A700002C28
:0203A80001CD85
:0203A9000170E1
:0203AA0001143C
:0203AB0000B898
:0203AC00005EF1
:0203AD00000549
:0203AE0001AE9E
:0203AF000157F4
:0203B000010248
:0203B10000AD9D
:0203B200005AEF
:0203B300000840
:0203B40001B78F
:0203B5000167DE
:0203B60001182C
:0203B70000CA7A
:0203B800007EC5
:0203B90000330F
:0203BA0001E858
:0203BB00019FA0
:0203BC000157E7
:0203BD0001102D
:0203BE0000CA73
:0203BF000085B7
:0203C0000042F9
:0203C10001FF3A
:0203C20001BE7A
:0203C300017DBA
:0203C400013EF8
:0203C500010035
:0203C60000C372
:0203C7000087AD
:0203C800004CE7
:0203C900001220
:0203CA0001D957
:0203CB0001A18E
:0203CC00016BC3
:0203CD000135F8
:0203CE0001012B
:0203CF0000CD5F
:0203D000009B90
:0203D100006AC0
:0203D200003AEF
:0203D300000B1D
:0203D40001DD49
:0203D50001B075
:0203D6000184A0
:0203D7000159CA
:0203D800012FF3
:0203D90001071A
:0203DA0000DF42
:0203DB0000B967
:0203DC0000938C
:0203DD00006FAF
:0203DE00004BD2
:0203DF000029F3
:0203E000000813
:0203E10001E732
:0203E20001C850
:0203E30001AA6D
:0203E400018D89
:0203E5000171A4
:0203E6000156BE
:0203E700013CD7
:0203E8000123EF
:0203E900010B06
:0203EA0000F41D
:0203EB0000DE32
:0203EC0000C946
:0203ED0000B658
:0203EE0000A36A
:0203EF0000917B
:0203F00000818A
:0203F100007199
:0203F2000062A7
:0203F3000055B3
:0203F4000048BF
:0203F500003CCA
:0203F6000032D3
:0203F7000028DC
:0203F8000020E3
:0203F9000018EA
:0203FA000012EF
:0203FB00000CF4
:0203FC000008F7
:0203FD000004FA
:0203FE000002FB
:0203FF000000FC
:00000001ff
