:020000040000FA
:0100000008F7
:0100010008F6
:0100020008F5
:0100030008F4
:0100040008F3
:0100050008F2
:0100060008F1
:0100070008F0
:0100080008EF
:0100090008EE
:01000A0008ED
:01000B0008EC
:01000C0008EB
:01000D0008EA
:01000E0008E9
:01000F0008E8
:0100100008E7
:0100110008E6
:0100120008E5
:0100130008E4
:0100140008E3
:0100150008E2
:0100160008E1
:0100170008E0
:0100180008DF
:0100190008DE
:01001A0008DD
:01001B0008DC
:01001C0008DB
:01001D0008DA
:01001E0008D9
:01001F0008D8
:0100200008D7
:0100210008D6
:0100220008D5
:0100230008D4
:0100240008D3
:0100250008D2
:0100260008D1
:0100270008D0
:0100280008CF
:0100290008CE
:01002A0008CD
:01002B0008CC
:01002C0008CB
:01002D0008CA
:01002E0008C9
:01002F0008C8
:0100300008C7
:0100310008C6
:0100320008C5
:0100330008C4
:0100340008C3
:0100350008C2
:0100360008C1
:0100370008C0
:0100380008BF
:0100390008BE
:01003A0008BD
:01003B0008BC
:01003C0008BB
:01003D0008BA
:01003E0008B9
:01003F0008B8
:0100400008B7
:0100410008B6
:0100420008B5
:0100430008B4
:0100440008B3
:0100450008B2
:0100460009B0
:0100470009AF
:0100480009AE
:0100490009AD
:01004A0009AC
:01004B0009AB
:01004C0009AA
:01004D0009A9
:01004E0009A8
:01004F0009A7
:0100500009A6
:0100510009A5
:0100520009A4
:0100530009A3
:0100540009A2
:0100550009A1
:0100560009A0
:01005700099F
:01005800099E
:01005900099D
:01005A00099C
:01005B00099B
:01005C00099A
:01005D000999
:01005E000998
:01005F000997
:010060000996
:010061000995
:010062000994
:010063000993
:010064000992
:010065000991
:010066000990
:01006700098F
:01006800098E
:01006900098D
:01006A00098C
:01006B00098B
:01006C00098A
:01006D000989
:01006E000988
:01006F000987
:010070000986
:010071000985
:010072000984
:010073000983
:010074000982
:010075000981
:010076000980
:01007700097F
:01007800097E
:01007900097D
:01007A00097C
:01007B00097B
:01007C00097A
:01007D000979
:01007E000978
:01007F000977
:010080000976
:010081000975
:010082000974
:010083000973
:010084000972
:010085000971
:010086000970
:01008700096F
:01008800096E
:01008900096D
:01008A00096C
:01008B00096B
:01008C00096A
:01008D000969
:01008E000968
:01008F000967
:010090000966
:010091000965
:010092000964
:010093000963
:010094000962
:010095000961
:010096000960
:01009700095F
:01009800095E
:010099000A5C
:01009A000A5B
:01009B000A5A
:01009C000A59
:01009D000A58
:01009E000A57
:01009F000A56
:0100A0000A55
:0100A1000A54
:0100A2000A53
:0100A3000A52
:0100A4000A51
:0100A5000A50
:0100A6000A4F
:0100A7000A4E
:0100A8000A4D
:0100A9000A4C
:0100AA000A4B
:0100AB000A4A
:0100AC000A49
:0100AD000A48
:0100AE000A47
:0100AF000A46
:0100B0000A45
:0100B1000A44
:0100B2000A43
:0100B3000A42
:0100B4000A41
:0100B5000A40
:0100B6000A3F
:0100B7000A3E
:0100B8000A3D
:0100B9000A3C
:0100BA000A3B
:0100BB000A3A
:0100BC000A39
:0100BD000A38
:0100BE000A37
:0100BF000A36
:0100C0000A35
:0100C1000A34
:0100C2000A33
:0100C3000A32
:0100C4000A31
:0100C5000A30
:0100C6000A2F
:0100C7000A2E
:0100C8000A2D
:0100C9000A2C
:0100CA000A2B
:0100CB000A2A
:0100CC000A29
:0100CD000A28
:0100CE000A27
:0100CF000A26
:0100D0000A25
:0100D1000A24
:0100D2000A23
:0100D3000A22
:0100D4000A21
:0100D5000A20
:0100D6000A1F
:0100D7000A1E
:0100D8000A1D
:0100D9000A1C
:0100DA000A1B
:0100DB000A1A
:0100DC000A19
:0100DD000A18
:0100DE000A17
:0100DF000A16
:0100E0000A15
:0100E1000A14
:0100E2000A13
:0100E3000A12
:0100E4000A11
:0100E5000A10
:0100E6000A0F
:0100E7000A0E
:0100E8000A0D
:0100E9000A0C
:0100EA000A0B
:0100EB000A0A
:0100EC000A09
:0100ED000A08
:0100EE000A07
:0100EF000A06
:0100F0000A05
:0100F1000A04
:0100F2000A03
:0100F3000A02
:0100F4000A01
:0100F5000A00
:0100F6000AFF
:0100F7000AFE
:0100F8000AFD
:0100F9000AFC
:0100FA000AFB
:0100FB000AFA
:0100FC000AF9
:0100FD000AF8
:0100FE000AF7
:0100FF000AF6
:010100000BF3
:010101000BF2
:010102000BF1
:010103000BF0
:010104000BEF
:010105000BEE
:010106000BED
:010107000BEC
:010108000BEB
:010109000BEA
:01010A000BE9
:01010B000BE8
:01010C000BE7
:01010D000BE6
:01010E000BE5
:01010F000BE4
:010110000BE3
:010111000BE2
:010112000BE1
:010113000BE0
:010114000BDF
:010115000BDE
:010116000BDD
:010117000BDC
:010118000BDB
:010119000BDA
:01011A000BD9
:01011B000BD8
:01011C000BD7
:01011D000BD6
:01011E000BD5
:01011F000BD4
:010120000BD3
:010121000BD2
:010122000BD1
:010123000BD0
:010124000BCF
:010125000BCE
:010126000BCD
:010127000BCC
:010128000BCB
:010129000BCA
:01012A000BC9
:01012B000BC8
:01012C000BC7
:01012D000BC6
:01012E000BC5
:01012F000BC4
:010130000BC3
:010131000BC2
:010132000BC1
:010133000BC0
:010134000BBF
:010135000BBE
:010136000BBD
:010137000BBC
:010138000BBB
:010139000BBA
:01013A000BB9
:01013B000BB8
:01013C000BB7
:01013D000BB6
:01013E000BB5
:01013F000BB4
:010140000BB3
:010141000BB2
:010142000BB1
:010143000BB0
:010144000BAF
:010145000BAE
:010146000BAD
:010147000BAC
:010148000BAB
:010149000BAA
:01014A000BA9
:01014B000BA8
:01014C000BA7
:01014D000BA6
:01014E000BA5
:01014F000BA4
:010150000BA3
:010151000BA2
:010152000BA1
:010153000BA0
:010154000B9F
:010155000B9E
:010156000B9D
:010157000B9C
:010158000B9B
:010159000B9A
:01015A000B99
:01015B000B98
:01015C000B97
:01015D000B96
:01015E000B95
:01015F000B94
:010160000B93
:010161000B92
:010162000B91
:010163000B90
:010164000B8F
:010165000B8E
:010166000B8D
:010167000B8C
:010168000B8B
:010169000B8A
:01016A000B89
:01016B000B88
:01016C000B87
:01016D000B86
:01016E000B85
:01016F000B84
:010170000B83
:010171000B82
:010172000B81
:010173000B80
:010174000B7F
:010175000B7E
:010176000B7D
:010177000B7C
:010178000B7B
:010179000B7A
:01017A000B79
:01017B000B78
:01017C000B77
:01017D000B76
:01017E000B75
:01017F000B74
:010180000B73
:010181000B72
:010182000B71
:010183000B70
:010184000C6E
:010185000C6D
:010186000C6C
:010187000C6B
:010188000C6A
:010189000C69
:01018A000C68
:01018B000C67
:01018C000C66
:01018D000C65
:01018E000C64
:01018F000C63
:010190000C62
:010191000C61
:010192000C60
:010193000C5F
:010194000C5E
:010195000C5D
:010196000C5C
:010197000C5B
:010198000C5A
:010199000C59
:01019A000C58
:01019B000C57
:01019C000C56
:01019D000C55
:01019E000C54
:01019F000C53
:0101A0000C52
:0101A1000C51
:0101A2000C50
:0101A3000C4F
:0101A4000C4E
:0101A5000C4D
:0101A6000C4C
:0101A7000C4B
:0101A8000C4A
:0101A9000C49
:0101AA000C48
:0101AB000C47
:0101AC000C46
:0101AD000C45
:0101AE000C44
:0101AF000C43
:0101B0000C42
:0101B1000C41
:0101B2000C40
:0101B3000C3F
:0101B4000C3E
:0101B5000C3D
:0101B6000C3C
:0101B7000C3B
:0101B8000C3A
:0101B9000C39
:0101BA000C38
:0101BB000C37
:0101BC000C36
:0101BD000C35
:0101BE000C34
:0101BF000C33
:0101C0000C32
:0101C1000C31
:0101C2000C30
:0101C3000C2F
:0101C4000C2E
:0101C5000C2D
:0101C6000C2C
:0101C7000C2B
:0101C8000C2A
:0101C9000C29
:0101CA000C28
:0101CB000C27
:0101CC000C26
:0101CD000C25
:0101CE000C24
:0101CF000C23
:0101D0000C22
:0101D1000C21
:0101D2000C20
:0101D3000C1F
:0101D4000C1E
:0101D5000C1D
:0101D6000C1C
:0101D7000C1B
:0101D8000C1A
:0101D9000C19
:0101DA000C18
:0101DB000C17
:0101DC000C16
:0101DD000C15
:0101DE000C14
:0101DF000C13
:0101E0000C12
:0101E1000C11
:0101E2000C10
:0101E3000C0F
:0101E4000C0E
:0101E5000C0D
:0101E6000C0C
:0101E7000C0B
:0101E8000C0A
:0101E9000C09
:0101EA000C08
:0101EB000C07
:0101EC000C06
:0101ED000C05
:0101EE000C04
:0101EF000C03
:0101F0000C02
:0101F1000C01
:0101F2000C00
:0101F3000CFF
:0101F4000CFE
:0101F5000CFD
:0101F6000CFC
:0101F7000CFB
:0101F8000CFA
:0101F9000CF9
:0101FA000CF8
:0101FB000CF7
:0101FC000CF6
:0101FD000CF5
:0101FE000CF4
:0101FF000CF3
:010200000CF1
:010201000CF0
:010202000CEF
:010203000CEE
:010204000CED
:010205000CEC
:010206000CEB
:010207000CEA
:010208000CE9
:010209000CE8
:01020A000CE7
:01020B000CE6
:01020C000CE5
:01020D000CE4
:01020E000CE3
:01020F000CE2
:010210000CE1
:010211000CE0
:010212000CDF
:010213000CDE
:010214000CDD
:010215000CDC
:010216000CDB
:010217000CDA
:010218000CD9
:010219000CD8
:01021A000CD7
:01021B000CD6
:01021C000CD5
:01021D000CD4
:01021E000CD3
:01021F000CD2
:010220000CD1
:010221000CD0
:010222000CCF
:010223000CCE
:010224000CCD
:010225000CCC
:010226000CCB
:010227000CCA
:010228000CC9
:010229000CC8
:01022A000CC7
:01022B000CC6
:01022C000CC5
:01022D000CC4
:01022E000CC3
:01022F000CC2
:010230000CC1
:010231000CC0
:010232000CBF
:010233000CBE
:010234000CBD
:010235000CBC
:010236000CBB
:010237000CBA
:010238000CB9
:010239000CB8
:01023A000DB6
:01023B000DB5
:01023C000DB4
:01023D000DB3
:01023E000DB2
:01023F000DB1
:010240000DB0
:010241000DAF
:010242000DAE
:010243000DAD
:010244000DAC
:010245000DAB
:010246000DAA
:010247000DA9
:010248000DA8
:010249000DA7
:01024A000DA6
:01024B000DA5
:01024C000DA4
:01024D000DA3
:01024E000DA2
:01024F000DA1
:010250000DA0
:010251000D9F
:010252000D9E
:010253000D9D
:010254000D9C
:010255000D9B
:010256000D9A
:010257000D99
:010258000D98
:010259000D97
:01025A000D96
:01025B000D95
:01025C000D94
:01025D000D93
:01025E000D92
:01025F000D91
:010260000D90
:010261000D8F
:010262000D8E
:010263000D8D
:010264000D8C
:010265000D8B
:010266000D8A
:010267000D89
:010268000D88
:010269000D87
:01026A000D86
:01026B000D85
:01026C000D84
:01026D000D83
:01026E000D82
:01026F000D81
:010270000D80
:010271000D7F
:010272000D7E
:010273000D7D
:010274000D7C
:010275000D7B
:010276000D7A
:010277000D79
:010278000D78
:010279000D77
:01027A000D76
:01027B000D75
:01027C000D74
:01027D000D73
:01027E000D72
:01027F000D71
:010280000D70
:010281000D6F
:010282000D6E
:010283000D6D
:010284000D6C
:010285000D6B
:010286000D6A
:010287000D69
:010288000D68
:010289000D67
:01028A000D66
:01028B000D65
:01028C000D64
:01028D000D63
:01028E000D62
:01028F000D61
:010290000D60
:010291000D5F
:010292000D5E
:010293000D5D
:010294000D5C
:010295000D5B
:010296000D5A
:010297000D59
:010298000D58
:010299000D57
:01029A000D56
:01029B000D55
:01029C000D54
:01029D000D53
:01029E000D52
:01029F000D51
:0102A0000D50
:0102A1000D4F
:0102A2000D4E
:0102A3000D4D
:0102A4000D4C
:0102A5000D4B
:0102A6000D4A
:0102A7000D49
:0102A8000D48
:0102A9000D47
:0102AA000D46
:0102AB000D45
:0102AC000D44
:0102AD000D43
:0102AE000D42
:0102AF000D41
:0102B0000D40
:0102B1000D3F
:0102B2000D3E
:0102B3000D3D
:0102B4000D3C
:0102B5000D3B
:0102B6000D3A
:0102B7000D39
:0102B8000D38
:0102B9000D37
:0102BA000D36
:0102BB000D35
:0102BC000D34
:0102BD000D33
:0102BE000D32
:0102BF000D31
:0102C0000D30
:0102C1000D2F
:0102C2000D2E
:0102C3000D2D
:0102C4000D2C
:0102C5000D2B
:0102C6000D2A
:0102C7000D29
:0102C8000D28
:0102C9000D27
:0102CA000D26
:0102CB000D25
:0102CC000D24
:0102CD000D23
:0102CE000D22
:0102CF000D21
:0102D0000D20
:0102D1000D1F
:0102D2000D1E
:0102D3000D1D
:0102D4000D1C
:0102D5000D1B
:0102D6000D1A
:0102D7000D19
:0102D8000D18
:0102D9000D17
:0102DA000D16
:0102DB000D15
:0102DC000D14
:0102DD000D13
:0102DE000D12
:0102DF000D11
:0102E0000D10
:0102E1000D0F
:0102E2000D0E
:0102E3000D0D
:0102E4000D0C
:0102E5000D0B
:0102E6000D0A
:0102E7000D09
:0102E8000D08
:0102E9000D07
:0102EA000D06
:0102EB000D05
:0102EC000D04
:0102ED000D03
:0102EE000D02
:0102EF000D01
:0102F0000D00
:0102F1000DFF
:0102F2000DFE
:0102F3000DFD
:0102F4000DFC
:0102F5000DFB
:0102F6000DFA
:0102F7000DF9
:0102F8000DF8
:0102F9000DF7
:0102FA000DF6
:0102FB000DF5
:0102FC000DF4
:0102FD000DF3
:0102FE000DF2
:0102FF000DF1
:010300000DEF
:010301000DEE
:010302000DED
:010303000DEC
:010304000DEB
:010305000DEA
:010306000DE9
:010307000DE8
:010308000DE7
:010309000DE6
:01030A000DE5
:01030B000DE4
:01030C000DE3
:01030D000DE2
:01030E000DE1
:01030F000DE0
:010310000DDF
:010311000DDE
:010312000DDD
:010313000DDC
:010314000DDB
:010315000DDA
:010316000DD9
:010317000DD8
:010318000DD7
:010319000DD6
:01031A000DD5
:01031B000DD4
:01031C000DD3
:01031D000DD2
:01031E000DD1
:01031F000DD0
:010320000DCF
:010321000DCE
:010322000DCD
:010323000DCC
:010324000DCB
:010325000DCA
:010326000DC9
:010327000DC8
:010328000DC7
:010329000DC6
:01032A000DC5
:01032B000DC4
:01032C000DC3
:01032D000DC2
:01032E000DC1
:01032F000DC0
:010330000DBF
:010331000DBE
:010332000DBD
:010333000DBC
:010334000DBB
:010335000DBA
:010336000DB9
:010337000DB8
:010338000DB7
:010339000DB6
:01033A000DB5
:01033B000DB4
:01033C000DB3
:01033D000DB2
:01033E000DB1
:01033F000DB0
:010340000DAF
:010341000DAE
:010342000DAD
:010343000DAC
:010344000DAB
:010345000DAA
:010346000DA9
:010347000DA8
:010348000DA7
:010349000DA6
:01034A000DA5
:01034B000DA4
:01034C000DA3
:01034D000DA2
:01034E000DA1
:01034F000DA0
:010350000D9F
:010351000E9D
:010352000E9C
:010353000E9B
:010354000E9A
:010355000E99
:010356000E98
:010357000E97
:010358000E96
:010359000E95
:01035A000E94
:01035B000E93
:01035C000E92
:01035D000E91
:01035E000E90
:01035F000E8F
:010360000E8E
:010361000E8D
:010362000E8C
:010363000E8B
:010364000E8A
:010365000E89
:010366000E88
:010367000E87
:010368000E86
:010369000E85
:01036A000E84
:01036B000E83
:01036C000E82
:01036D000E81
:01036E000E80
:01036F000E7F
:010370000E7E
:010371000E7D
:010372000E7C
:010373000E7B
:010374000E7A
:010375000E79
:010376000E78
:010377000E77
:010378000E76
:010379000E75
:01037A000E74
:01037B000E73
:01037C000E72
:01037D000E71
:01037E000E70
:01037F000E6F
:010380000E6E
:010381000E6D
:010382000E6C
:010383000E6B
:010384000E6A
:010385000E69
:010386000E68
:010387000E67
:010388000E66
:010389000E65
:01038A000E64
:01038B000E63
:01038C000E62
:01038D000E61
:01038E000E60
:01038F000E5F
:010390000E5E
:010391000E5D
:010392000E5C
:010393000E5B
:010394000E5A
:010395000E59
:010396000E58
:010397000E57
:010398000E56
:010399000E55
:01039A000E54
:01039B000E53
:01039C000E52
:01039D000E51
:01039E000E50
:01039F000E4F
:0103A0000E4E
:0103A1000E4D
:0103A2000E4C
:0103A3000E4B
:0103A4000E4A
:0103A5000E49
:0103A6000E48
:0103A7000E47
:0103A8000E46
:0103A9000E45
:0103AA000E44
:0103AB000E43
:0103AC000E42
:0103AD000E41
:0103AE000E40
:0103AF000E3F
:0103B0000E3E
:0103B1000E3D
:0103B2000E3C
:0103B3000E3B
:0103B4000E3A
:0103B5000E39
:0103B6000E38
:0103B7000E37
:0103B8000E36
:0103B9000E35
:0103BA000E34
:0103BB000E33
:0103BC000E32
:0103BD000E31
:0103BE000E30
:0103BF000E2F
:0103C0000E2E
:0103C1000E2D
:0103C2000E2C
:0103C3000E2B
:0103C4000E2A
:0103C5000E29
:0103C6000E28
:0103C7000E27
:0103C8000E26
:0103C9000E25
:0103CA000E24
:0103CB000E23
:0103CC000E22
:0103CD000E21
:0103CE000E20
:0103CF000E1F
:0103D0000E1E
:0103D1000E1D
:0103D2000E1C
:0103D3000E1B
:0103D4000E1A
:0103D5000E19
:0103D6000E18
:0103D7000E17
:0103D8000E16
:0103D9000E15
:0103DA000E14
:0103DB000E13
:0103DC000E12
:0103DD000E11
:0103DE000E10
:0103DF000E0F
:0103E0000E0E
:0103E1000E0D
:0103E2000E0C
:0103E3000E0B
:0103E4000E0A
:0103E5000E09
:0103E6000E08
:0103E7000E07
:0103E8000E06
:0103E9000E05
:0103EA000E04
:0103EB000E03
:0103EC000E02
:0103ED000E01
:0103EE000E00
:0103EF000EFF
:0103F0000EFE
:0103F1000EFD
:0103F2000EFC
:0103F3000EFB
:0103F4000EFA
:0103F5000EF9
:0103F6000EF8
:0103F7000EF7
:0103F8000EF6
:0103F9000EF5
:0103FA000EF4
:0103FB000EF3
:0103FC000EF2
:0103FD000EF1
:0103FE000EF0
:0103FF000EEF
:010400000EED
:010401000EEC
:010402000EEB
:010403000EEA
:010404000EE9
:010405000EE8
:010406000EE7
:010407000EE6
:010408000EE5
:010409000EE4
:01040A000EE3
:01040B000EE2
:01040C000EE1
:01040D000EE0
:01040E000EDF
:01040F000EDE
:010410000EDD
:010411000EDC
:010412000EDB
:010413000EDA
:010414000ED9
:010415000ED8
:010416000ED7
:010417000ED6
:010418000ED5
:010419000ED4
:01041A000ED3
:01041B000ED2
:01041C000ED1
:01041D000ED0
:01041E000ECF
:01041F000ECE
:010420000ECD
:010421000ECC
:010422000ECB
:010423000ECA
:010424000EC9
:010425000EC8
:010426000EC7
:010427000EC6
:010428000EC5
:010429000EC4
:01042A000EC3
:01042B000EC2
:01042C000EC1
:01042D000EC0
:01042E000EBF
:01042F000EBE
:010430000EBD
:010431000EBC
:010432000EBB
:010433000EBA
:010434000EB9
:010435000EB8
:010436000EB7
:010437000EB6
:010438000EB5
:010439000EB4
:01043A000EB3
:01043B000EB2
:01043C000EB1
:01043D000EB0
:01043E000EAF
:01043F000EAE
:010440000EAD
:010441000EAC
:010442000EAB
:010443000EAA
:010444000EA9
:010445000EA8
:010446000EA7
:010447000EA6
:010448000EA5
:010449000EA4
:01044A000EA3
:01044B000EA2
:01044C000EA1
:01044D000EA0
:01044E000E9F
:01044F000E9E
:010450000E9D
:010451000E9C
:010452000E9B
:010453000E9A
:010454000E99
:010455000E98
:010456000E97
:010457000E96
:010458000E95
:010459000E94
:01045A000E93
:01045B000E92
:01045C000E91
:01045D000E90
:01045E000E8F
:01045F000E8E
:010460000E8D
:010461000E8C
:010462000E8B
:010463000E8A
:010464000E89
:010465000E88
:010466000E87
:010467000E86
:010468000E85
:010469000E84
:01046A000E83
:01046B000E82
:01046C000E81
:01046D000E80
:01046E000E7F
:01046F000E7E
:010470000E7D
:010471000E7C
:010472000E7B
:010473000E7A
:010474000E79
:010475000E78
:010476000E77
:010477000E76
:010478000E75
:010479000E74
:01047A000E73
:01047B000E72
:01047C000E71
:01047D000E70
:01047E000E6F
:01047F000E6E
:010480000E6D
:010481000E6C
:010482000E6B
:010483000E6A
:010484000E69
:010485000E68
:010486000E67
:010487000E66
:010488000E65
:010489000E64
:01048A000E63
:01048B000E62
:01048C000E61
:01048D000E60
:01048E000E5F
:01048F000E5E
:010490000E5D
:010491000E5C
:010492000E5B
:010493000E5A
:010494000E59
:010495000E58
:010496000E57
:010497000E56
:010498000E55
:010499000E54
:01049A000E53
:01049B000E52
:01049C000E51
:01049D000E50
:01049E000E4F
:01049F000E4E
:0104A0000E4D
:0104A1000E4C
:0104A2000E4B
:0104A3000E4A
:0104A4000E49
:0104A5000E48
:0104A6000E47
:0104A7000E46
:0104A8000E45
:0104A9000E44
:0104AA000E43
:0104AB000E42
:0104AC000E41
:0104AD000E40
:0104AE000E3F
:0104AF000E3E
:0104B0000E3D
:0104B1000E3C
:0104B2000E3B
:0104B3000E3A
:0104B4000E39
:0104B5000E38
:0104B6000E37
:0104B7000E36
:0104B8000E35
:0104B9000E34
:0104BA000E33
:0104BB000E32
:0104BC000E31
:0104BD000E30
:0104BE000E2F
:0104BF000E2E
:0104C0000E2D
:0104C1000E2C
:0104C2000E2B
:0104C3000E2A
:0104C4000E29
:0104C5000E28
:0104C6000E27
:0104C7000E26
:0104C8000E25
:0104C9000E24
:0104CA000E23
:0104CB000E22
:0104CC000E21
:0104CD000E20
:0104CE000E1F
:0104CF000E1E
:0104D0000E1D
:0104D1000E1C
:0104D2000E1B
:0104D3000E1A
:0104D4000E19
:0104D5000E18
:0104D6000E17
:0104D7000E16
:0104D8000E15
:0104D9000E14
:0104DA000E13
:0104DB000E12
:0104DC000E11
:0104DD000E10
:0104DE000E0F
:0104DF000E0E
:0104E0000E0D
:0104E1000E0C
:0104E2000E0B
:0104E3000E0A
:0104E4000E09
:0104E5000E08
:0104E6000E07
:0104E7000E06
:0104E8000E05
:0104E9000E04
:0104EA000E03
:0104EB000E02
:0104EC000E01
:0104ED000E00
:0104EE000EFF
:0104EF000EFE
:0104F0000EFD
:0104F1000EFC
:0104F2000EFB
:0104F3000EFA
:0104F4000EF9
:0104F5000EF8
:0104F6000EF7
:0104F7000EF6
:0104F8000EF5
:0104F9000EF4
:0104FA000EF3
:0104FB000EF2
:0104FC000EF1
:0104FD000EF0
:0104FE000EEF
:0104FF000EEE
:010500000EEC
:010501000EEB
:010502000EEA
:010503000EE9
:010504000EE8
:010505000EE7
:010506000EE6
:010507000EE5
:010508000EE4
:010509000EE3
:01050A000EE2
:01050B000EE1
:01050C000EE0
:01050D000EDF
:01050E000EDE
:01050F000EDD
:010510000EDC
:010511000EDB
:010512000EDA
:010513000ED9
:010514000ED8
:010515000ED7
:010516000ED6
:010517000ED5
:010518000ED4
:010519000ED3
:01051A000ED2
:01051B000ED1
:01051C000ED0
:01051D000ECF
:01051E000ECE
:01051F000ECD
:010520000ECC
:010521000ECB
:010522000ECA
:010523000EC9
:010524000EC8
:010525000EC7
:010526000EC6
:010527000EC5
:010528000EC4
:010529000EC3
:01052A000EC2
:01052B000EC1
:01052C000EC0
:01052D000EBF
:01052E000EBE
:01052F000EBD
:010530000EBC
:010531000EBB
:010532000EBA
:010533000EB9
:010534000EB8
:010535000EB7
:010536000EB6
:010537000EB5
:010538000EB4
:010539000EB3
:01053A000EB2
:01053B000EB1
:01053C000EB0
:01053D000EAF
:01053E000EAE
:01053F000EAD
:010540000EAC
:010541000EAB
:010542000EAA
:010543000EA9
:010544000EA8
:010545000EA7
:010546000EA6
:010547000EA5
:010548000EA4
:010549000EA3
:01054A000EA2
:01054B000EA1
:01054C000EA0
:01054D000E9F
:01054E000E9E
:01054F000E9D
:010550000E9C
:010551000E9B
:010552000E9A
:010553000E99
:010554000E98
:010555000E97
:010556000E96
:010557000E95
:010558000E94
:010559000E93
:01055A000E92
:01055B000E91
:01055C000E90
:01055D000E8F
:01055E000E8E
:01055F000E8D
:010560000E8C
:010561000E8B
:010562000E8A
:010563000E89
:010564000E88
:010565000E87
:010566000E86
:010567000E85
:010568000E84
:010569000E83
:01056A000E82
:01056B000E81
:01056C000E80
:01056D000E7F
:01056E000E7E
:01056F000E7D
:010570000E7C
:010571000E7B
:010572000E7A
:010573000E79
:010574000E78
:010575000F76
:010576000F75
:010577000F74
:010578000F73
:010579000F72
:01057A000F71
:01057B000F70
:01057C000F6F
:01057D000F6E
:01057E000F6D
:01057F000F6C
:010580000F6B
:010581000F6A
:010582000F69
:010583000F68
:010584000F67
:010585000F66
:010586000F65
:010587000F64
:010588000F63
:010589000F62
:01058A000F61
:01058B000F60
:01058C000F5F
:01058D000F5E
:01058E000F5D
:01058F000F5C
:010590000F5B
:010591000F5A
:010592000F59
:010593000F58
:010594000F57
:010595000F56
:010596000F55
:010597000F54
:010598000F53
:010599000F52
:01059A000F51
:01059B000F50
:01059C000F4F
:01059D000F4E
:01059E000F4D
:01059F000F4C
:0105A0000F4B
:0105A1000F4A
:0105A2000F49
:0105A3000F48
:0105A4000F47
:0105A5000F46
:0105A6000F45
:0105A7000F44
:0105A8000F43
:0105A9000F42
:0105AA000F41
:0105AB000F40
:0105AC000F3F
:0105AD000F3E
:0105AE000F3D
:0105AF000F3C
:0105B0000F3B
:0105B1000F3A
:0105B2000F39
:0105B3000F38
:0105B4000F37
:0105B5000F36
:0105B6000F35
:0105B7000F34
:0105B8000F33
:0105B9000F32
:0105BA000F31
:0105BB000F30
:0105BC000F2F
:0105BD000F2E
:0105BE000F2D
:0105BF000F2C
:0105C0000F2B
:0105C1000F2A
:0105C2000F29
:0105C3000F28
:0105C4000F27
:0105C5000F26
:0105C6000F25
:0105C7000F24
:0105C8000F23
:0105C9000F22
:0105CA000F21
:0105CB000F20
:0105CC000F1F
:0105CD000F1E
:0105CE000F1D
:0105CF000F1C
:0105D0000F1B
:0105D1000F1A
:0105D2000F19
:0105D3000F18
:0105D4000F17
:0105D5000F16
:0105D6000F15
:0105D7000F14
:0105D8000F13
:0105D9000F12
:0105DA000F11
:0105DB000F10
:0105DC000F0F
:0105DD000F0E
:0105DE000F0D
:0105DF000F0C
:0105E0000F0B
:0105E1000F0A
:0105E2000F09
:0105E3000F08
:0105E4000F07
:0105E5000F06
:0105E6000F05
:0105E7000F04
:0105E8000F03
:0105E9000F02
:0105EA000F01
:0105EB000F00
:0105EC000FFF
:0105ED000FFE
:0105EE000FFD
:0105EF000FFC
:0105F0000FFB
:0105F1000FFA
:0105F2000FF9
:0105F3000FF8
:0105F4000FF7
:0105F5000FF6
:0105F6000FF5
:0105F7000FF4
:0105F8000FF3
:0105F9000FF2
:0105FA000FF1
:0105FB000FF0
:0105FC000FEF
:0105FD000FEE
:0105FE000FED
:0105FF000FEC
:010600000FEA
:010601000FE9
:010602000FE8
:010603000FE7
:010604000FE6
:010605000FE5
:010606000FE4
:010607000FE3
:010608000FE2
:010609000FE1
:01060A000FE0
:01060B000FDF
:01060C000FDE
:01060D000FDD
:01060E000FDC
:01060F000FDB
:010610000FDA
:010611000FD9
:010612000FD8
:010613000FD7
:010614000FD6
:010615000FD5
:010616000FD4
:010617000FD3
:010618000FD2
:010619000FD1
:01061A000FD0
:01061B000FCF
:01061C000FCE
:01061D000FCD
:01061E000FCC
:01061F000FCB
:010620000FCA
:010621000FC9
:010622000FC8
:010623000FC7
:010624000FC6
:010625000FC5
:010626000FC4
:010627000FC3
:010628000FC2
:010629000FC1
:01062A000FC0
:01062B000FBF
:01062C000FBE
:01062D000FBD
:01062E000FBC
:01062F000FBB
:010630000FBA
:010631000FB9
:010632000FB8
:010633000FB7
:010634000FB6
:010635000FB5
:010636000FB4
:010637000FB3
:010638000FB2
:010639000FB1
:01063A000FB0
:01063B000FAF
:01063C000FAE
:01063D000FAD
:01063E000FAC
:01063F000FAB
:010640000FAA
:010641000FA9
:010642000FA8
:010643000FA7
:010644000FA6
:010645000FA5
:010646000FA4
:010647000FA3
:010648000FA2
:010649000FA1
:01064A000FA0
:01064B000F9F
:01064C000F9E
:01064D000F9D
:01064E000F9C
:01064F000F9B
:010650000F9A
:010651000F99
:010652000F98
:010653000F97
:010654000F96
:010655000F95
:010656000F94
:010657000F93
:010658000F92
:010659000F91
:01065A000F90
:01065B000F8F
:01065C000F8E
:01065D000F8D
:01065E000F8C
:01065F000F8B
:010660000F8A
:010661000F89
:010662000F88
:010663000F87
:010664000F86
:010665000F85
:010666000F84
:010667000F83
:010668000F82
:010669000F81
:01066A000F80
:01066B000F7F
:01066C000F7E
:01066D000F7D
:01066E000F7C
:01066F000F7B
:010670000F7A
:010671000F79
:010672000F78
:010673000F77
:010674000F76
:010675000F75
:010676000F74
:010677000F73
:010678000F72
:010679000F71
:01067A000F70
:01067B000F6F
:01067C000F6E
:01067D000F6D
:01067E000F6C
:01067F000F6B
:010680000F6A
:010681000F69
:010682000F68
:010683000F67
:010684000F66
:010685000F65
:010686000F64
:010687000F63
:010688000F62
:010689000F61
:01068A000F60
:01068B000F5F
:01068C000F5E
:01068D000F5D
:01068E000F5C
:01068F000F5B
:010690000F5A
:010691000F59
:010692000F58
:010693000F57
:010694000F56
:010695000F55
:010696000F54
:010697000F53
:010698000F52
:010699000F51
:01069A000F50
:01069B000F4F
:01069C000F4E
:01069D000F4D
:01069E000F4C
:01069F000F4B
:0106A0000F4A
:0106A1000F49
:0106A2000F48
:0106A3000F47
:0106A4000F46
:0106A5000F45
:0106A6000F44
:0106A7000F43
:0106A8000F42
:0106A9000F41
:0106AA000F40
:0106AB000F3F
:0106AC000F3E
:0106AD000F3D
:0106AE000F3C
:0106AF000F3B
:0106B0000F3A
:0106B1000F39
:0106B2000F38
:0106B3000F37
:0106B4000F36
:0106B5000F35
:0106B6000F34
:0106B7000F33
:0106B8000F32
:0106B9000F31
:0106BA000F30
:0106BB000F2F
:0106BC000F2E
:0106BD000F2D
:0106BE000F2C
:0106BF000F2B
:0106C0000F2A
:0106C1000F29
:0106C2000F28
:0106C3000F27
:0106C4000F26
:0106C5000F25
:0106C6000F24
:0106C7000F23
:0106C8000F22
:0106C9000F21
:0106CA000F20
:0106CB000F1F
:0106CC000F1E
:0106CD000F1D
:0106CE000F1C
:0106CF000F1B
:0106D0000F1A
:0106D1000F19
:0106D2000F18
:0106D3000F17
:0106D4000F16
:0106D5000F15
:0106D6000F14
:0106D7000F13
:0106D8000F12
:0106D9000F11
:0106DA000F10
:0106DB000F0F
:0106DC000F0E
:0106DD000F0D
:0106DE000F0C
:0106DF000F0B
:0106E0000F0A
:0106E1000F09
:0106E2000F08
:0106E3000F07
:0106E4000F06
:0106E5000F05
:0106E6000F04
:0106E7000F03
:0106E8000F02
:0106E9000F01
:0106EA000F00
:0106EB000FFF
:0106EC000FFE
:0106ED000FFD
:0106EE000FFC
:0106EF000FFB
:0106F0000FFA
:0106F1000FF9
:0106F2000FF8
:0106F3000FF7
:0106F4000FF6
:0106F5000FF5
:0106F6000FF4
:0106F7000FF3
:0106F8000FF2
:0106F9000FF1
:0106FA000FF0
:0106FB000FEF
:0106FC000FEE
:0106FD000FED
:0106FE000FEC
:0106FF000FEB
:010700000FE9
:010701000FE8
:010702000FE7
:010703000FE6
:010704000FE5
:010705000FE4
:010706000FE3
:010707000FE2
:010708000FE1
:010709000FE0
:01070A000FDF
:01070B000FDE
:01070C000FDD
:01070D000FDC
:01070E000FDB
:01070F000FDA
:010710000FD9
:010711000FD8
:010712000FD7
:010713000FD6
:010714000FD5
:010715000FD4
:010716000FD3
:010717000FD2
:010718000FD1
:010719000FD0
:01071A000FCF
:01071B000FCE
:01071C000FCD
:01071D000FCC
:01071E000FCB
:01071F000FCA
:010720000FC9
:010721000FC8
:010722000FC7
:010723000FC6
:010724000FC5
:010725000FC4
:010726000FC3
:010727000FC2
:010728000FC1
:010729000FC0
:01072A000FBF
:01072B000FBE
:01072C000FBD
:01072D000FBC
:01072E000FBB
:01072F000FBA
:010730000FB9
:010731000FB8
:010732000FB7
:010733000FB6
:010734000FB5
:010735000FB4
:010736000FB3
:010737000FB2
:010738000FB1
:010739000FB0
:01073A000FAF
:01073B000FAE
:01073C000FAD
:01073D000FAC
:01073E000FAB
:01073F000FAA
:010740000FA9
:010741000FA8
:010742000FA7
:010743000FA6
:010744000FA5
:010745000FA4
:010746000FA3
:010747000FA2
:010748000FA1
:010749000FA0
:01074A000F9F
:01074B000F9E
:01074C000F9D
:01074D000F9C
:01074E000F9B
:01074F000F9A
:010750000F99
:010751000F98
:010752000F97
:010753000F96
:010754000F95
:010755000F94
:010756000F93
:010757000F92
:010758000F91
:010759000F90
:01075A000F8F
:01075B000F8E
:01075C000F8D
:01075D000F8C
:01075E000F8B
:01075F000F8A
:010760000F89
:010761000F88
:010762000F87
:010763000F86
:010764000F85
:010765000F84
:010766000F83
:010767000F82
:010768000F81
:010769000F80
:01076A000F7F
:01076B000F7E
:01076C000F7D
:01076D000F7C
:01076E000F7B
:01076F000F7A
:010770000F79
:010771000F78
:010772000F77
:010773000F76
:010774000F75
:010775000F74
:010776000F73
:010777000F72
:010778000F71
:010779000F70
:01077A000F6F
:01077B000F6E
:01077C000F6D
:01077D000F6C
:01077E000F6B
:01077F000F6A
:010780000F69
:010781000F68
:010782000F67
:010783000F66
:010784000F65
:010785000F64
:010786000F63
:010787000F62
:010788000F61
:010789000F60
:01078A000F5F
:01078B000F5E
:01078C000F5D
:01078D000F5C
:01078E000F5B
:01078F000F5A
:010790000F59
:010791000F58
:010792000F57
:010793000F56
:010794000F55
:010795000F54
:010796000F53
:010797000F52
:010798000F51
:010799000F50
:01079A000F4F
:01079B000F4E
:01079C000F4D
:01079D000F4C
:01079E000F4B
:01079F000F4A
:0107A0000F49
:0107A1000F48
:0107A2000F47
:0107A3000F46
:0107A4000F45
:0107A5000F44
:0107A6000F43
:0107A7000F42
:0107A8000F41
:0107A9000F40
:0107AA000F3F
:0107AB000F3E
:0107AC000F3D
:0107AD000F3C
:0107AE000F3B
:0107AF000F3A
:0107B0000F39
:0107B1000F38
:0107B2000F37
:0107B3000F36
:0107B4000F35
:0107B5000F34
:0107B6000F33
:0107B7000F32
:0107B8000F31
:0107B9000F30
:0107BA000F2F
:0107BB000F2E
:0107BC000F2D
:0107BD000F2C
:0107BE000F2B
:0107BF000F2A
:0107C0000F29
:0107C1000F28
:0107C2000F27
:0107C3000F26
:0107C4000F25
:0107C5000F24
:0107C6000F23
:0107C7000F22
:0107C8000F21
:0107C9000F20
:0107CA000F1F
:0107CB000F1E
:0107CC000F1D
:0107CD000F1C
:0107CE000F1B
:0107CF000F1A
:0107D0000F19
:0107D1000F18
:0107D2000F17
:0107D3000F16
:0107D4000F15
:0107D5000F14
:0107D6000F13
:0107D7000F12
:0107D8000F11
:0107D9000F10
:0107DA000F0F
:0107DB000F0E
:0107DC000F0D
:0107DD000F0C
:0107DE000F0B
:0107DF000F0A
:0107E0000F09
:0107E1000F08
:0107E2000F07
:0107E3000F06
:0107E4000F05
:0107E5000F04
:0107E6000F03
:0107E7000F02
:0107E8000F01
:0107E9000F00
:0107EA000FFF
:0107EB000FFE
:0107EC000FFD
:0107ED000FFC
:0107EE000FFB
:0107EF000FFA
:0107F0000FF9
:0107F1000FF8
:0107F2000FF7
:0107F3000FF6
:0107F4000FF5
:0107F5000FF4
:0107F6000FF3
:0107F7000FF2
:0107F8000FF1
:0107F9000FF0
:0107FA000FEF
:0107FB000FEE
:0107FC000FED
:0107FD000FEC
:0107FE000FEB
:0107FF000FEA
:00000001ff
