:020000040000FA
:020000000000FE
:0200010001FFFD
:0200020001F00B
:02000300018674
:020004000002F8
:0200050001ED0B
:0200060000E612
:02000700016591
:02000800007F77
:0200090001AC48
:02000A00009361
:02000B0000CA29
:02000C0001A150
:02000D0001E808
:02000E0001BA35
:02000F000042AD
:0200100001816C
:020011000020CD
:020012000130BB
:0200130001F7F3
:0200140001BB2E
:0200150001895F
:020016000004E4
:02001700012BBB
:020018000027BF
:020019000113D1
:02001A0000CE16
:02001B0000C023
:02001C0000AB37
:02001D0000736E
:02001E0001F1EE
:02001F0000BA25
:0200200001F0ED
:02002100000FCE
:0200220000BA22
:02002300008B50
:0200240000E0FA
:0200250001A92F
:02002600013A9D
:020027000019BE
:0200280000CC0A
:0200290001AB29
:02002A0000B024
:02002B0001478B
:02002C00001EB4
:02002D0000F7DA
:02002E00007957
:02002F000001CE
:02003000017657
:020031000117B5
:0200320001507B
:02003300008E3D
:02003400010EBB
:0200350000B217
:0200360000D6F2
:020037000020A7
:0200380000576F
:02003900003491
:02003A0001398A
:02003B0001853D
:02003C0001A71A
:02003D0000754C
:02003E0000E1DF
:02003F0001CDF1
:0200400001E1DC
:02004100016557
:02004200000FAD
:0200430000E3D8
:020044000001B9
:02004500008336
:02004600004D6B
:0200470001ECCA
:0200480000684E
:02004900011D97
:02004A0001941F
:02004B00015B57
:02004C0001DCD5
:02004D00003879
:02004E00011D92
:02004F0000A20D
:02005000001D91
:020051000001AC
:0200520001B4F7
:02005300016743
:0200540001F8B1
:0200550000C4E5
:02005600018522
:02005700002E79
:0200580000C3E3
:0200590001366E
:02005A0001445F
:02005B00004B58
:02005C00012B76
:02005D00001F82
:02005E00009C04
:02005F00012A74
:0200600001415C
:02006100012973
:0200620001D3C8
:0200630000B6E5
:0200640001B1E8
:0200650000E3B6
:02006600008A0E
:0200670000E3B4
:0200680000078F
:0200690001C6CE
:02006A00018C07
:02006B0000365D
:02006C0001FC95
:02006D0000464B
:02006E000190FF
:02006F00014846
:0200700001B0DD
:0200710001B8D4
:0200720000E3A9
:02007300012466
:0200740000BECC
:02007500002762
:0200760001E6A1
:02007700007215
:0200780000196D
:0200790000D8AD
:02007A00004440
:02007B0001681A
:02007C0000A4DE
:02007D000192EE
:02007E0000E997
:02007F00005827
:0200800000710D
:020081000084F9
:020082000084F8
:0200830000EA91
:020084000098E2
:0200850000B9C0
:0200860000A8D0
:0200870001D0A6
:02008800018FE6
:02008900011B59
:02008A0001670C
:02008B0001036F
:02008C00000171
:02008D0001DC94
:02008E00015718
:02008F0000650A
:02009000000E60
:02009100004E1F
:0200920000016B
:0200930000C4A7
:0200940000D892
:02009500010C5C
:02009600009FC9
:02009700012541
:02009800006FF7
:02009900006EF7
:02009A00011B48
:02009B00005B08
:02009C0001E77A
:02009D0001312F
:02009E00014916
:02009F0000C699
:0200A00001ACB1
:0200A10001520A
:0200A200004814
:0200A300003F1C
:0200A40001F267
:0200A500010850
:0200A600000157
:0200A700001B3C
:0200A80001381D
:0200A90001C98B
:0200AA0000B3A1
:0200AB0001381A
:0200AC0000E072
:0200AD000160F0
:0200AE000081CF
:0200AF00000E41
:0200B00001B499
:0200B10000F35A
:0200B20001004B
:0200B30000B398
:0200B400006CDE
:0200B500000148
:0200B60000A2A6
:0200B70000C483
:0200B800000D39
:0200B900013B09
:0200BA00000E36
:0200BB00013210
:0200BC00002A18
:0200BD00013709
:0200BE000148F7
:0200BF0001DB63
:0200C00000F24C
:0200C10000F548
:0200C20000A09C
:0200C30000EF4C
:0200C400010534
:0200C500001C1D
:0200C6000169CE
:0200C700000E29
:0200C800010134
:0200C90000FA3B
:0200CA00005BD9
:0200CB00011D15
:0200CC0000BF73
:0200CD00002C05
:0200CE0001AA85
:0200CF0000C56A
:0200D000003BF3
:0200D10001EB41
:0200D20000BA72
:0200D3000088A3
:0200D400001515
:0200D50000F237
:0200D600016DBA
:0200D700007BAC
:0200D80001A67F
:0200D90000FE27
:0200DA0000FD27
:0200DB00007FA4
:0200DC0000A47E
:0200DD0000C75A
:0200DE000063BD
:0200DF00010816
:0200E0000041DD
:0200E100018993
:0200E2000032EA
:0200E3000158C2
:0200E40001CA4F
:0200E50001FB1D
:0200E60001F225
:0200E7000133E3
:0200E80000B066
:0200E90000B65F
:0200EA0000DF35
:0200EB0001FA18
:0200EC00000111
:0200ED00000110
:0200EE00000C04
:0200EF000129E5
:0200F000013DD0
:0200F10001020A
:0200F20001F01B
:0200F300002EDD
:0200F400008288
:0200F500003FCA
:0200F6000134D3
:0200F700019C6A
:0200F8000010F6
:0200F900017193
:0200FA0000DD27
:0200FB00019B67
:0200FC00010DF4
:0200FD0000A061
:0200FE0001B946
:0200FF0001A955
:02010000019963
:02010100007F7D
:020102000109F1
:02010300019366
:02010400000FEA
:020105000001F7
:02010600006592
:0201070001A451
:0201080001876D
:020109000122D1
:02010A0000CC27
:02010B000007EB
:02010C00017A76
:02010D0000DD13
:02010E0000E906
:02010F00014DA0
:02011000009E4F
:020111000045A7
:02011200007576
:02011300001BCF
:0201140000CE1B
:0201150000C127
:0201160000B730
:0201170001F1F4
:020118000022C3
:02011900016281
:02011A00001DC6
:02011B000107DA
:02011C00010DD3
:02011D00014798
:02011E0000ECF3
:02011F0001419C
:02012000018F4D
:020121000113C8
:0201220000F0EB
:020123000022B8
:02012400017365
:02012500016B6C
:02012600004097
:0201270001D005
:02012800018D47
:02012900007361
:02012A0000FBD8
:02012B00010DC4
:02012C0001F3DD
:02012D00004C84
:02012E000001CE
:02012F00003599
:02013000013A92
:02013100008646
:0201320000A328
:020133000124A5
:02013400009930
:02013500008345
:02013600014482
:020137000018AE
:020138000104C0
:0201390000CDF7
:02013A0000E9DA
:02013B0001764B
:02013C00012B95
:02013D00014E71
:02013E0001A816
:02013F00007648
:0201400000615C
:0201410000714B
:020142000001BA
:0201430000B208
:02014400006158
:02014500011B9C
:020146000112A4
:02014700009026
:0201480001EDC7
:02014900018330
:02014A0001A210
:02014B0000852D
:02014C00004A67
:02014D0000DFD1
:02014E000001AE
:02014F00012885
:0201500001812B
:0201510001E1CA
:0201520000BCEF
:02015300001793
:02015400018028
:020155000001A7
:02015600001790
:0201570001A8FD
:0201580001F4B0
:02015900018E15
:02015A00005350
:02015B00015B46
:02015C0000F1B0
:02015D00008917
:02015E0000B4EB
:02015F00011687
:02016000005F3E
:02016100003A62
:02016200014951
:02016300011A7F
:02016400001782
:02016500018512
:02016600017323
:0201670000B2E4
:0201680000CCC9
:0201690001FA99
:02016A0001187A
:02016B0001A0F1
:02016C000198F8
:02016D000192FD
:02016E00009CF3
:02016F00003658
:02017000004C41
:02017100012B60
:02017200017812
:02017300002268
:02017400006029
:0201750001A3E4
:02017600018DF9
:0201770001E79E
:02017800009BEA
:0201790001A7DC
:02017A0001176B
:02017B0000F989
:02017C0001562A
:02017D00002759
:02017E00014E30
:02017F00008BF3
:02018000017408
:02018100016D0E
:02018200019FDB
:0201830000EB8F
:0201840001E890
:0201850000D5A3
:020186000191E5
:020187000196DF
:0201880001EB89
:02018900011F54
:02018A00014032
:02018B0001D0A1
:02018C0001C0B0
:02018D0001650A
:02018E00006F00
:02018F0001E588
:02019000001756
:020191000098D4
:02019200003833
:0201930000F773
:02019400000168
:0201950001A4C3
:0201960001471F
:02019700016302
:02019800017CE8
:0201990000164E
:02019A0000AEB5
:02019B0001B6AB
:02019C000086DB
:02019D00015807
:02019E0001421C
:02019F00002A34
:0201A00000C19C
:0201A1000079E3
:0201A2000180DA
:0201A30000B5A5
:0201A40001A3B5
:0201A5000079DF
:0201A600000156
:0201A7000198BD
:0201A80001292B
:0201A900012231
:0201AA000072E1
:0201AB00007AD8
:0201AC00010B45
:0201AD00005FF1
:0201AE00010B43
:0201AF0000014D
:0201B0000081CC
:0201B100001636
:0201B200008CBF
:0201B30001EC5D
:0201B4000071D8
:0201B5000084C4
:0201B60000B493
:0201B70001AB9A
:0201B800002F16
:0201B900011330
:0201BA0001350D
:0201BB000174CD
:0201BC0000AA97
:0201BD0001A699
:0201BE00012519
:0201BF0001CA73
:0201C000001627
:0201C1000064D8
:0201C20000E15A
:0201C3000186B3
:0201C400000D2C
:0201C50001F245
:0201C6000065D2
:0201C7000048EE
:0201C800002312
:0201C90000270D
:0201CA00001C17
:0201CB000162CF
:0201CC0000E948
:0201CD00012807
:0201CE00001916
:0201CF000133FA
:0201D0000160CC
:0201D10000FB31
:0201D20001C664
:0201D30000E842
:0201D40000DF4A
:0201D5000184A3
:0201D60001FB2B
:0201D70000B373
:0201D800015EC6
:0201D90000EA3A
:0201DA00017BA7
:0201DB000066BC
:0201DC00002AF7
:0201DD000069B7
:0201DE0001E539
:0201DF000075A9
:0201E000010517
:0201E100018A91
:0201E20001001A
:0201E3000163B6
:0201E40001A96F
:0201E50001BB5C
:0201E6000071A6
:0201E700018B8A
:0201E80001AC68
:0201E9000051C3
:0201EA0001D240
:0201EB000155BC
:0201EC0000CA47
:0201ED0000EA26
:0201EE00012CE2
:0201EF0001C14C
:0201F000018E7E
:0201F1000028E4
:0201F20001CC3E
:0201F300015CAD
:0201F4000056B3
:0201F50000D137
:0201F60001798D
:0201F700018481
:0201F80000B352
:0201F9000148BB
:0201FA00000102
:0201FB000015ED
:0201FC00012ED2
:0201FD0001609F
:0201FE000128D6
:0201FF00016697
:020200000155A6
:02020100008873
:0202020000E614
:0202030000A059
:02020400002FC9
:020205000052A5
:020206000001F5
:02020700006E87
:0202080000FEF6
:020209000144AE
:02020A0000FBF7
:02020B000001F0
:02020C0000549C
:02020D00000BE4
:02020E0001529B
:02020F0000628B
:0202100001816A
:0202110000F9F2
:020212000116D3
:02021300001DCC
:02021400004C9C
:0202150001D115
:0202160000C91D
:020217000137AD
:020218000101E2
:0202190001ECF6
:02021A0001974A
:02021B0001756B
:02021C0000C917
:02021D0000A13E
:02021E0001D20B
:02021F0000F1EC
:02022000005389
:020221000003D8
:0202220001C019
:0202230000F8E1
:0202240000C414
:0202250001E3F3
:0202260000B422
:020227000134A0
:0202280000F6DE
:020229000123AF
:02022A00007260
:02022B000123AD
:02022C0000FED2
:02022D00014B83
:02022E0000D1FD
:02022F0001CEFE
:0202300001F5D6
:02023100006863
:0202320001B514
:0202330001D1F7
:020234000014B4
:02023500013492
:02023600014085
:02023700019E26
:020238000106BD
:02023900017C46
:02023A00004D75
:02023B00000AB7
:02023C00008838
:02023D0000D2ED
:02023E0001328B
:02023F0001209C
:02024000014774
:02024100017D3D
:0202420000BFFB
:02024300012C8C
:020244000006B2
:0202450001A610
:02024600017E37
:020247000013A2
:0202480000F9BB
:0202490000CEE5
:02024A00013879
:02024B0000E0D1
:02024C00016C43
:02024D0001802E
:02024E0000B4FA
:02024F00019517
:02025000019F0C
:02025100013971
:0202520001B2F7
:02025300013A6E
:0202540000E4C4
:02025500009D0A
:02025600012B7A
:0202570000267F
:0202580001F8AB
:0202590001D8CA
:02025A0001C4DD
:02025B00008120
:02025C0001950A
:02025D0001405E
:02025E0000821C
:02025F00010B91
:0202600001415A
:02026100003863
:0202620001AEEB
:02026300000A8F
:02026400005642
:02026500003B5C
:02026600000195
:0202670000860F
:02026800013F54
:02026900003360
:02026A0001F79A
:02026B0001A9E7
:02026C0000F0A0
:02026D0001F698
:02026E00016528
:02026F0000632A
:020270000090FC
:0202710000018A
:02027200013D4C
:02027300013B4D
:02027400015C2B
:0202750001681E
:02027600018EF7
:02027700005C29
:0202780000BEC6
:0202790001FB87
:02027A0001AFD2
:02027B0001CDB3
:02027C000095EB
:02027D000095EA
:02027E0000A5D9
:02027F0001E399
:0202800001B1CA
:0202810001AECC
:0202820001B8C1
:0202830001E593
:020284000082F6
:02028500000D6A
:0202860001363F
:0202870000D89D
:0202880001F67D
:0202890001BAB8
:02028A000172FF
:02028B000089E8
:02028C000088E8
:02028D0001135B
:02028E0001E08D
:02028F0000BBB2
:020290000181EA
:02029100001853
:020292000074F6
:02029300008CDD
:02029400005E0A
:0202950001E77F
:02029600012144
:02029700000164
:020298000074F0
:02029900005C07
:02029A00018BD6
:02029B0001C29E
:02029C0000AFB1
:02029D0001E777
:02029E0000E579
:02029F00010854
:0202A000018CCF
:0202A100018CCE
:0202A20001FD5C
:0202A30001ABAD
:0202A400013423
:0202A500010A4C
:0202A600016DE8
:0202A7000066EF
:0202A80001CB88
:0202A90001331F
:0202AA0001FC55
:0202AB0001420E
:0202AC0001DF70
:0202AD000068E7
:0202AE00012924
:0202AF00002429
:0202B000010B40
:0202B100014406
:0202B20001DC6D
:0202B300018EBA
:0202B40000BB8D
:0202B5000169DD
:0202B600013E07
:0202B7000183C1
:0202B80001192A
:0202B900007CC7
:0202BA0001C27F
:0202BB000092AF
:0202BC0000261A
:0202BD000146F8
:0202BE000048F6
:0202BF00010B31
:0202C00000F646
:0202C10000F348
:0202C2000170C9
:0202C3000058E1
:0202C400011423
:0202C5000089AE
:0202C600011025
:0202C700007ABB
:0202C80000092B
:0202C9000070C3
:0202CA0001CF62
:0202CB0001B17F
:0202CC00010A25
:0202CD000032FD
:0202CE0000E648
:0202CF000045E8
:0202D00000C963
:0202D100004DDE
:0202D200000129
:0202D300006DBC
:0202D4000171B6
:0202D500003AED
:0202D6000148DD
:0202D7000069BC
:0202D80000B470
:0202D90000889B
:0202DA00018C95
:0202DB0000AB76
:0202DC00001010
:0202DD000124FA
:0202DE0000908E
:0202DF000034E9
:0202E0000129F2
:0202E10001BF5B
:0202E2000178A1
:0202E300010513
:0202E400004ACE
:0202E5000053C4
:0202E600015ABB
:0202E70000BC59
:0202E800010112
:0202E90001CF43
:0202EA0001EF22
:0202EB00014BC5
:0202EC0000E42C
:0202ED0000DB34
:0202EE000065A9
:0202EF0001CD3F
:0202F000007399
:0202F10000C744
:0202F2000049C1
:0202F300018583
:0202F4000012F6
:0202F500008F78
:0202F60000A165
:0202F70000F213
:0202F800012FD4
:0202F900000102
:0202FA000112EF
:0202FB000106FA
:0202FC00017B84
:0202FD000105F9
:0202FE000130CD
:0202FF00007786
:020300000049B2
:020301000101F8
:0203020001EA0E
:020303000138BF
:020304000005F2
:020305000056A0
:020306000111E3
:020307000001F3
:0203080001CD25
:020309000000F2
:02030A0000FCF5
:02030B000000F0
:02030C000122CC
:02030D00014F9E
:02030E000048A5
:02030F00009F4D
:0203100001B733
:0203110001C128
:0203120001BA2E
:0203130001697E
:02031400015E88
:0203150000EEF8
:020316000033B2
:020317000009DB
:02031800000DD6
:02031900009A48
:02031A0000C61B
:02031B0000657B
:02031C000001DE
:02031D0000DA04
:02031E0000E8F5
:02031F0000D408
:0203200001F7E3
:02032100005A80
:0203220000B623
:02032300006B6D
:02032400018452
:0203250000B620
:0203260001597B
:0203270001696A
:0203280001874B
:0203290000F0E2
:02032A0001844C
:02032B0001BB14
:02032C0000AB24
:02032D000003CB
:02032E000007C6
:02032F00019239
:020330000011BA
:02033100018643
:02033200007F4A
:02033300001CAC
:020334000005C2
:02033500007155
:02033600001DA8
:02033700005074
:0203380000D2F1
:0203390001F3CE
:02033A0000833E
:02033B0001D1EE
:02033C0001AE10
:02033D0000635B
:02033E0000B904
:02033F0001EDCE
:0203400001B901
:02034100004971
:02034200003E7B
:0203430000AC0C
:0203440001199D
:0203450001783D
:02034600002B8A
:0203470001FEB5
:0203480000298A
:02034900004C66
:02034A00006D44
:02034B0000F9B7
:02034C0000BDF2
:02034D0000ECC2
:02034E00011894
:02034F0001307B
:02035000018129
:0203510000B4F6
:0203520001CBDD
:02035300002187
:0203540001683E
:0203550001A401
:02035600013173
:0203570000B9EB
:0203580001376B
:0203590001F7AA
:02035A00008F12
:02035B0000E3BD
:02035C0001207E
:02035D0001BAE3
:02035E00016F2D
:02035F00013F5C
:0203600000702B
:02036100008B0F
:02036200015642
:0203630000DABE
:02036400015C3A
:02036500015D38
:02036600019AFA
:0203670001088B
:0203680000D3C0
:02036900005F33
:02036A0001434D
:02036B00014B44
:02036C0000721D
:02036D0000E6A8
:02036E0001018B
:02036F00014E3D
:0203700000810A
:02037100017811
:02037200013B4D
:0203730000FA8E
:02037400000A7D
:0203750001E5A0
:0203760000295C
:020377000093F1
:0203780001037F
:0203790001760B
:02037A00000978
:02037B0000F18F
:02037C000082FD
:02037D00012657
:02037E0001601C
:02037F0001C9B2
:02038000011169
:0203810001F881
:02038200015226
:02038300000672
:0203840001076F
:0203850001591C
:02038600000A6B
:0203870000363E
:02038800010171
:020389000198D9
:02038A0001323E
:02038B00010867
:02038C00005A15
:02038D00006B03
:02038E00007FEE
:02038F0001DD8E
:0203900001C9A1
:020391000185E4
:02039200005118
:020393000169FE
:02039400000166
:0203950001461F
:02039600005E07
:02039700006400
:020398000069FA
:020399000170F1
:02039A00006FF2
:02039B00004E12
:02039C0001E37B
:02039D0001F469
:02039E00013428
:02039F0000401C
:0203A00001A3B7
:0203A10001CF8A
:0203A200011F39
:0203A30001D483
:0203A400001740
:0203A50001F263
:0203A6000156FE
:0203A700001341
:0203A80001DC76
:0203A900004111
:0203AA0000B39E
:0203AB00007ED2
:0203AC0000CB84
:0203AD00009DB1
:0203AE0000D17C
:0203AF00001C30
:0203B000010A40
:0203B10001FD4C
:0203B200012B1D
:0203B30000A0A8
:0203B400003611
:0203B500019BAA
:0203B600004DF8
:0203B7000198AB
:0203B8000095AE
:0203B900002A18
:0203BA00010A36
:0203BB0001AF90
:0203BC00005EE1
:0203BD0001221B
:0203BE0001CF6D
:0203BF0001FD3E
:0203C000010832
:0203C10000102A
:0203C20001F741
:0203C3000160D7
:0203C40000AE89
:0203C500000135
:0203C6000138FC
:0203C70001EF44
:0203C800017CB6
:0203C90000F042
:0203CA0001151B
:0203CB00006CC4
:0203CC00012FFF
:0203CD00014CE1
:0203CE000066C7
:0203CF0001D457
:0203D000009F8C
:0203D1000183A6
:0203D20000E940
:0203D30000ED3B
:0203D4000158CE
:0203D500019E87
:0203D60000E243
:0203D70001F033
:0203D8000140E2
:0203D90000F032
:0203DA0000C75A
:0203DB000035EB
:0203DC00004CD3
:0203DD0001C558
:0203DE0000FC21
:0203DF0001F02B
:0203E0000041DA
:0203E100012EEB
:0203E200019A7E
:0203E300000117
:0203E400007F98
:0203E50000CE48
:0203E6000040D5
:0203E70001C44F
:0203E80001E131
:0203E90000B75B
:0203EA0001FB15
:0203EB0000FD13
:0203EC00009E71
:0203ED000155B8
:0203EE00012DDF
:0203EF0001C14A
:0203F0000040CB
:0203F1000168A1
:0203F200018682
:0203F300007791
:0203F40001A363
:0203F500000105
:0203F6000011F4
:0203F70001DF24
:0203F800010101
:0203F90000936F
:0203FA00013CC4
:0203FB000128D7
:0203FC000008F7
:0203FD000111EC
:0203FE000100FC
:0203FF000010EC
:00000001ff
