:020000040000FA
:0100000000FF
:0100010000FE
:0100020000FD
:0100030000FC
:0100040000FB
:0100050000FA
:0100060000F9
:0100070000F8
:0100080000F7
:0100090000F6
:01000A0000F5
:01000B0000F4
:01000C0000F3
:01000D0000F2
:01000E0000F1
:01000F0000F0
:0100100000EF
:0100110000EE
:0100120000ED
:0100130000EC
:0100140000EB
:0100150000EA
:0100160000E9
:0100170000E8
:0100180000E7
:0100190000E6
:01001A0000E5
:01001B0000E4
:01001C0000E3
:01001D0000E2
:01001E0000E1
:01001F0000E0
:0100200000DF
:0100210000DE
:0100220000DD
:0100230000DC
:0100240000DB
:0100250000DA
:0100260000D9
:0100270000D8
:0100280000D7
:0100290000D6
:01002A0000D5
:01002B0000D4
:01002C0000D3
:01002D0000D2
:01002E0000D1
:01002F0000D0
:0100300000CF
:0100310000CE
:0100320000CD
:0100330000CC
:0100340000CB
:0100350000CA
:0100360000C9
:0100370000C8
:0100380000C7
:0100390000C6
:01003A0000C5
:01003B0000C4
:01003C0000C3
:01003D0000C2
:01003E0000C1
:01003F0000C0
:0100400000BF
:0100410000BE
:0100420000BD
:0100430000BC
:0100440001BA
:0100450001B9
:0100460001B8
:0100470001B7
:0100480001B6
:0100490001B5
:01004A0001B4
:01004B0001B3
:01004C0001B2
:01004D0001B1
:01004E0001B0
:01004F0001AF
:0100500001AE
:0100510001AD
:0100520001AC
:0100530001AB
:0100540001AA
:0100550001A9
:0100560001A8
:0100570001A7
:0100580001A6
:0100590001A5
:01005A0001A4
:01005B0001A3
:01005C0001A2
:01005D0001A1
:01005E0001A0
:01005F00019F
:01006000019E
:01006100019D
:01006200019C
:01006300019B
:01006400019A
:010065000199
:010066000198
:010067000197
:010068000196
:010069000195
:01006A000194
:01006B000193
:01006C000192
:01006D000191
:01006E000190
:01006F00018F
:01007000018E
:01007100018D
:01007200018C
:01007300018B
:01007400018A
:010075000189
:010076000188
:010077000187
:010078000186
:010079000185
:01007A000184
:01007B000183
:01007C000182
:01007D000181
:01007E000180
:01007F00017F
:01008000017E
:01008100017D
:01008200017C
:01008300017B
:01008400017A
:010085000179
:010086000178
:010087000177
:010088000176
:010089000175
:01008A000174
:01008B000173
:01008C000172
:01008D000171
:01008E00026F
:01008F00026E
:01009000026D
:01009100026C
:01009200026B
:01009300026A
:010094000269
:010095000268
:010096000267
:010097000266
:010098000265
:010099000264
:01009A000263
:01009B000262
:01009C000261
:01009D000260
:01009E00025F
:01009F00025E
:0100A000025D
:0100A100025C
:0100A200025B
:0100A300025A
:0100A4000259
:0100A5000258
:0100A6000257
:0100A7000256
:0100A8000255
:0100A9000254
:0100AA000253
:0100AB000252
:0100AC000251
:0100AD000250
:0100AE00024F
:0100AF00024E
:0100B000024D
:0100B100024C
:0100B200024B
:0100B300024A
:0100B4000249
:0100B5000248
:0100B6000247
:0100B7000246
:0100B8000245
:0100B9000244
:0100BA000243
:0100BB000242
:0100BC000241
:0100BD000240
:0100BE00023F
:0100BF00023E
:0100C000023D
:0100C100023C
:0100C200023B
:0100C300023A
:0100C4000239
:0100C5000238
:0100C6000237
:0100C7000236
:0100C8000235
:0100C9000234
:0100CA000233
:0100CB000232
:0100CC000231
:0100CD000230
:0100CE00022F
:0100CF00022E
:0100D000022D
:0100D100022C
:0100D200022B
:0100D300022A
:0100D4000229
:0100D5000228
:0100D6000227
:0100D7000226
:0100D8000225
:0100D9000224
:0100DA000223
:0100DB000222
:0100DC000221
:0100DD000220
:0100DE00021F
:0100DF00021E
:0100E000021D
:0100E100031B
:0100E200031A
:0100E3000319
:0100E4000318
:0100E5000317
:0100E6000316
:0100E7000315
:0100E8000314
:0100E9000313
:0100EA000312
:0100EB000311
:0100EC000310
:0100ED00030F
:0100EE00030E
:0100EF00030D
:0100F000030C
:0100F100030B
:0100F200030A
:0100F3000309
:0100F4000308
:0100F5000307
:0100F6000306
:0100F7000305
:0100F8000304
:0100F9000303
:0100FA000302
:0100FB000301
:0100FC000300
:0100FD0003FF
:0100FE0003FE
:0100FF0003FD
:0101000003FB
:0101010003FA
:0101020003F9
:0101030003F8
:0101040003F7
:0101050003F6
:0101060003F5
:0101070003F4
:0101080003F3
:0101090003F2
:01010A0003F1
:01010B0003F0
:01010C0003EF
:01010D0003EE
:01010E0003ED
:01010F0003EC
:0101100003EB
:0101110003EA
:0101120003E9
:0101130003E8
:0101140003E7
:0101150003E6
:0101160003E5
:0101170003E4
:0101180003E3
:0101190003E2
:01011A0003E1
:01011B0003E0
:01011C0003DF
:01011D0003DE
:01011E0003DD
:01011F0003DC
:0101200003DB
:0101210003DA
:0101220003D9
:0101230003D8
:0101240003D7
:0101250003D6
:0101260003D5
:0101270003D4
:0101280003D3
:0101290003D2
:01012A0003D1
:01012B0003D0
:01012C0003CF
:01012D0003CE
:01012E0003CD
:01012F0003CC
:0101300003CB
:0101310003CA
:0101320003C9
:0101330003C8
:0101340003C7
:0101350003C6
:0101360003C5
:0101370003C4
:0101380003C3
:0101390003C2
:01013A0003C1
:01013B0003C0
:01013C0003BF
:01013D0004BD
:01013E0004BC
:01013F0004BB
:0101400004BA
:0101410004B9
:0101420004B8
:0101430004B7
:0101440004B6
:0101450004B5
:0101460004B4
:0101470004B3
:0101480004B2
:0101490004B1
:01014A0004B0
:01014B0004AF
:01014C0004AE
:01014D0004AD
:01014E0004AC
:01014F0004AB
:0101500004AA
:0101510004A9
:0101520004A8
:0101530004A7
:0101540004A6
:0101550004A5
:0101560004A4
:0101570004A3
:0101580004A2
:0101590004A1
:01015A0004A0
:01015B00049F
:01015C00049E
:01015D00049D
:01015E00049C
:01015F00049B
:01016000049A
:010161000499
:010162000498
:010163000497
:010164000496
:010165000495
:010166000494
:010167000493
:010168000492
:010169000491
:01016A000490
:01016B00048F
:01016C00048E
:01016D00048D
:01016E00048C
:01016F00048B
:01017000048A
:010171000489
:010172000488
:010173000487
:010174000486
:010175000485
:010176000484
:010177000483
:010178000482
:010179000481
:01017A000480
:01017B00047F
:01017C00047E
:01017D00047D
:01017E00047C
:01017F00047B
:01018000047A
:010181000479
:010182000478
:010183000477
:010184000476
:010185000475
:010186000474
:010187000473
:010188000472
:010189000471
:01018A000470
:01018B00046F
:01018C00046E
:01018D00046D
:01018E00046C
:01018F00046B
:01019000046A
:010191000469
:010192000468
:010193000467
:010194000466
:010195000465
:010196000464
:010197000463
:010198000462
:010199000461
:01019A000460
:01019B00045F
:01019C00045E
:01019D00045D
:01019E00045C
:01019F00045B
:0101A000045A
:0101A1000459
:0101A2000458
:0101A3000457
:0101A4000456
:0101A5000455
:0101A6000553
:0101A7000552
:0101A8000551
:0101A9000550
:0101AA00054F
:0101AB00054E
:0101AC00054D
:0101AD00054C
:0101AE00054B
:0101AF00054A
:0101B0000549
:0101B1000548
:0101B2000547
:0101B3000546
:0101B4000545
:0101B5000544
:0101B6000543
:0101B7000542
:0101B8000541
:0101B9000540
:0101BA00053F
:0101BB00053E
:0101BC00053D
:0101BD00053C
:0101BE00053B
:0101BF00053A
:0101C0000539
:0101C1000538
:0101C2000537
:0101C3000536
:0101C4000535
:0101C5000534
:0101C6000533
:0101C7000532
:0101C8000531
:0101C9000530
:0101CA00052F
:0101CB00052E
:0101CC00052D
:0101CD00052C
:0101CE00052B
:0101CF00052A
:0101D0000529
:0101D1000528
:0101D2000527
:0101D3000526
:0101D4000525
:0101D5000524
:0101D6000523
:0101D7000522
:0101D8000521
:0101D9000520
:0101DA00051F
:0101DB00051E
:0101DC00051D
:0101DD00051C
:0101DE00051B
:0101DF00051A
:0101E0000519
:0101E1000518
:0101E2000517
:0101E3000516
:0101E4000515
:0101E5000514
:0101E6000513
:0101E7000512
:0101E8000511
:0101E9000510
:0101EA00050F
:0101EB00050E
:0101EC00050D
:0101ED00050C
:0101EE00050B
:0101EF00050A
:0101F0000509
:0101F1000508
:0101F2000507
:0101F3000506
:0101F4000505
:0101F5000504
:0101F6000503
:0101F7000502
:0101F8000501
:0101F9000500
:0101FA0005FF
:0101FB0005FE
:0101FC0005FD
:0101FD0005FC
:0101FE0005FB
:0101FF0005FA
:0102000005F8
:0102010005F7
:0102020005F6
:0102030005F5
:0102040005F4
:0102050005F3
:0102060005F2
:0102070005F1
:0102080005F0
:0102090005EF
:01020A0005EE
:01020B0005ED
:01020C0005EC
:01020D0005EB
:01020E0005EA
:01020F0005E9
:0102100005E8
:0102110005E7
:0102120005E6
:0102130005E5
:0102140005E4
:0102150005E3
:0102160005E2
:0102170005E1
:0102180005E0
:0102190005DF
:01021A0005DE
:01021B0005DD
:01021C0005DC
:01021D0005DB
:01021E0005DA
:01021F0006D8
:0102200006D7
:0102210006D6
:0102220006D5
:0102230006D4
:0102240006D3
:0102250006D2
:0102260006D1
:0102270006D0
:0102280006CF
:0102290006CE
:01022A0006CD
:01022B0006CC
:01022C0006CB
:01022D0006CA
:01022E0006C9
:01022F0006C8
:0102300006C7
:0102310006C6
:0102320006C5
:0102330006C4
:0102340006C3
:0102350006C2
:0102360006C1
:0102370006C0
:0102380006BF
:0102390006BE
:01023A0006BD
:01023B0006BC
:01023C0006BB
:01023D0006BA
:01023E0006B9
:01023F0006B8
:0102400006B7
:0102410006B6
:0102420006B5
:0102430006B4
:0102440006B3
:0102450006B2
:0102460006B1
:0102470006B0
:0102480006AF
:0102490006AE
:01024A0006AD
:01024B0006AC
:01024C0006AB
:01024D0006AA
:01024E0006A9
:01024F0006A8
:0102500006A7
:0102510006A6
:0102520006A5
:0102530006A4
:0102540006A3
:0102550006A2
:0102560006A1
:0102570006A0
:01025800069F
:01025900069E
:01025A00069D
:01025B00069C
:01025C00069B
:01025D00069A
:01025E000699
:01025F000698
:010260000697
:010261000696
:010262000695
:010263000694
:010264000693
:010265000692
:010266000691
:010267000690
:01026800068F
:01026900068E
:01026A00068D
:01026B00068C
:01026C00068B
:01026D00068A
:01026E000689
:01026F000688
:010270000687
:010271000686
:010272000685
:010273000684
:010274000683
:010275000682
:010276000681
:010277000680
:01027800067F
:01027900067E
:01027A00067D
:01027B00067C
:01027C00067B
:01027D00067A
:01027E000679
:01027F000678
:010280000677
:010281000676
:010282000675
:010283000674
:010284000673
:010285000672
:010286000671
:010287000670
:01028800066F
:01028900066E
:01028A00066D
:01028B00066C
:01028C00066B
:01028D00066A
:01028E000669
:01028F000668
:010290000667
:010291000666
:010292000665
:010293000664
:010294000663
:010295000662
:010296000661
:010297000660
:01029800065F
:01029900065E
:01029A00065D
:01029B00065C
:01029C00065B
:01029D00065A
:01029E000659
:01029F000658
:0102A0000657
:0102A1000656
:0102A2000655
:0102A3000654
:0102A4000653
:0102A5000652
:0102A6000651
:0102A7000650
:0102A800064F
:0102A900064E
:0102AA00064D
:0102AB00074B
:0102AC00074A
:0102AD000749
:0102AE000748
:0102AF000747
:0102B0000746
:0102B1000745
:0102B2000744
:0102B3000743
:0102B4000742
:0102B5000741
:0102B6000740
:0102B700073F
:0102B800073E
:0102B900073D
:0102BA00073C
:0102BB00073B
:0102BC00073A
:0102BD000739
:0102BE000738
:0102BF000737
:0102C0000736
:0102C1000735
:0102C2000734
:0102C3000733
:0102C4000732
:0102C5000731
:0102C6000730
:0102C700072F
:0102C800072E
:0102C900072D
:0102CA00072C
:0102CB00072B
:0102CC00072A
:0102CD000729
:0102CE000728
:0102CF000727
:0102D0000726
:0102D1000725
:0102D2000724
:0102D3000723
:0102D4000722
:0102D5000721
:0102D6000720
:0102D700071F
:0102D800071E
:0102D900071D
:0102DA00071C
:0102DB00071B
:0102DC00071A
:0102DD000719
:0102DE000718
:0102DF000717
:0102E0000716
:0102E1000715
:0102E2000714
:0102E3000713
:0102E4000712
:0102E5000711
:0102E6000710
:0102E700070F
:0102E800070E
:0102E900070D
:0102EA00070C
:0102EB00070B
:0102EC00070A
:0102ED000709
:0102EE000708
:0102EF000707
:0102F0000706
:0102F1000705
:0102F2000704
:0102F3000703
:0102F4000702
:0102F5000701
:0102F6000700
:0102F70007FF
:0102F80007FE
:0102F90007FD
:0102FA0007FC
:0102FB0007FB
:0102FC0007FA
:0102FD0007F9
:0102FE0007F8
:0102FF0007F7
:0103000007F5
:0103010007F4
:0103020007F3
:0103030007F2
:0103040007F1
:0103050007F0
:0103060007EF
:0103070007EE
:0103080007ED
:0103090007EC
:01030A0007EB
:01030B0007EA
:01030C0007E9
:01030D0007E8
:01030E0007E7
:01030F0007E6
:0103100007E5
:0103110007E4
:0103120007E3
:0103130007E2
:0103140007E1
:0103150007E0
:0103160007DF
:0103170007DE
:0103180007DD
:0103190007DC
:01031A0007DB
:01031B0007DA
:01031C0007D9
:01031D0007D8
:01031E0007D7
:01031F0007D6
:0103200007D5
:0103210007D4
:0103220007D3
:0103230007D2
:0103240007D1
:0103250007D0
:0103260007CF
:0103270007CE
:0103280007CD
:0103290007CC
:01032A0007CB
:01032B0007CA
:01032C0007C9
:01032D0007C8
:01032E0007C7
:01032F0007C6
:0103300007C5
:0103310007C4
:0103320007C3
:0103330007C2
:0103340007C1
:0103350007C0
:0103360007BF
:0103370007BE
:0103380007BD
:0103390007BC
:01033A0007BB
:01033B0007BA
:01033C0007B9
:01033D0007B8
:01033E0007B7
:01033F0007B6
:0103400007B5
:0103410007B4
:0103420007B3
:0103430007B2
:0103440007B1
:0103450007B0
:0103460007AF
:0103470007AE
:0103480007AD
:0103490007AC
:01034A0007AB
:01034B0007AA
:01034C0007A9
:01034D0007A8
:01034E0007A7
:01034F0007A6
:0103500007A5
:0103510008A3
:0103520008A2
:0103530008A1
:0103540008A0
:01035500089F
:01035600089E
:01035700089D
:01035800089C
:01035900089B
:01035A00089A
:01035B000899
:01035C000898
:01035D000897
:01035E000896
:01035F000895
:010360000894
:010361000893
:010362000892
:010363000891
:010364000890
:01036500088F
:01036600088E
:01036700088D
:01036800088C
:01036900088B
:01036A00088A
:01036B000889
:01036C000888
:01036D000887
:01036E000886
:01036F000885
:010370000884
:010371000883
:010372000882
:010373000881
:010374000880
:01037500087F
:01037600087E
:01037700087D
:01037800087C
:01037900087B
:01037A00087A
:01037B000879
:01037C000878
:01037D000877
:01037E000876
:01037F000875
:010380000874
:010381000873
:010382000872
:010383000871
:010384000870
:01038500086F
:01038600086E
:01038700086D
:01038800086C
:01038900086B
:01038A00086A
:01038B000869
:01038C000868
:01038D000867
:01038E000866
:01038F000865
:010390000864
:010391000863
:010392000862
:010393000861
:010394000860
:01039500085F
:01039600085E
:01039700085D
:01039800085C
:01039900085B
:01039A00085A
:01039B000859
:01039C000858
:01039D000857
:01039E000856
:01039F000855
:0103A0000854
:0103A1000853
:0103A2000852
:0103A3000851
:0103A4000850
:0103A500084F
:0103A600084E
:0103A700084D
:0103A800084C
:0103A900084B
:0103AA00084A
:0103AB000849
:0103AC000848
:0103AD000847
:0103AE000846
:0103AF000845
:0103B0000844
:0103B1000843
:0103B2000842
:0103B3000841
:0103B4000840
:0103B500083F
:0103B600083E
:0103B700083D
:0103B800083C
:0103B900083B
:0103BA00083A
:0103BB000839
:0103BC000838
:0103BD000837
:0103BE000836
:0103BF000835
:0103C0000834
:0103C1000833
:0103C2000832
:0103C3000831
:0103C4000830
:0103C500082F
:0103C600082E
:0103C700082D
:0103C800082C
:0103C900082B
:0103CA00082A
:0103CB000829
:0103CC000828
:0103CD000827
:0103CE000826
:0103CF000825
:0103D0000824
:0103D1000823
:0103D2000822
:0103D3000821
:0103D4000820
:0103D500081F
:0103D600081E
:0103D700081D
:0103D800081C
:0103D900081B
:0103DA00081A
:0103DB000819
:0103DC000818
:0103DD000817
:0103DE000816
:0103DF000815
:0103E0000814
:0103E1000813
:0103E2000812
:0103E3000811
:0103E4000810
:0103E500080F
:0103E600080E
:0103E700080D
:0103E800080C
:0103E900080B
:0103EA00080A
:0103EB000809
:0103EC000808
:0103ED000807
:0103EE000806
:0103EF000805
:0103F0000804
:0103F1000803
:0103F2000802
:0103F3000801
:0103F4000800
:0103F50008FF
:0103F60008FE
:0103F70008FD
:0103F80008FC
:0103F90008FB
:0103FA0008FA
:0103FB0008F9
:0103FC0008F8
:0103FD0008F7
:0103FE0008F6
:0103FF0008F5
:0104000008F3
:0104010008F2
:0104020008F1
:0104030008F0
:0104040008EF
:0104050008EE
:0104060008ED
:0104070008EC
:0104080008EB
:0104090008EA
:01040A0008E9
:01040B0008E8
:01040C0008E7
:01040D0008E6
:01040E0008E5
:01040F0008E4
:0104100008E3
:0104110008E2
:0104120008E1
:0104130008E0
:0104140008DF
:0104150008DE
:0104160008DD
:0104170008DC
:0104180008DB
:0104190009D9
:01041A0009D8
:01041B0009D7
:01041C0009D6
:01041D0009D5
:01041E0009D4
:01041F0009D3
:0104200009D2
:0104210009D1
:0104220009D0
:0104230009CF
:0104240009CE
:0104250009CD
:0104260009CC
:0104270009CB
:0104280009CA
:0104290009C9
:01042A0009C8
:01042B0009C7
:01042C0009C6
:01042D0009C5
:01042E0009C4
:01042F0009C3
:0104300009C2
:0104310009C1
:0104320009C0
:0104330009BF
:0104340009BE
:0104350009BD
:0104360009BC
:0104370009BB
:0104380009BA
:0104390009B9
:01043A0009B8
:01043B0009B7
:01043C0009B6
:01043D0009B5
:01043E0009B4
:01043F0009B3
:0104400009B2
:0104410009B1
:0104420009B0
:0104430009AF
:0104440009AE
:0104450009AD
:0104460009AC
:0104470009AB
:0104480009AA
:0104490009A9
:01044A0009A8
:01044B0009A7
:01044C0009A6
:01044D0009A5
:01044E0009A4
:01044F0009A3
:0104500009A2
:0104510009A1
:0104520009A0
:01045300099F
:01045400099E
:01045500099D
:01045600099C
:01045700099B
:01045800099A
:010459000999
:01045A000998
:01045B000997
:01045C000996
:01045D000995
:01045E000994
:01045F000993
:010460000992
:010461000991
:010462000990
:01046300098F
:01046400098E
:01046500098D
:01046600098C
:01046700098B
:01046800098A
:010469000989
:01046A000988
:01046B000987
:01046C000986
:01046D000985
:01046E000984
:01046F000983
:010470000982
:010471000981
:010472000980
:01047300097F
:01047400097E
:01047500097D
:01047600097C
:01047700097B
:01047800097A
:010479000979
:01047A000978
:01047B000977
:01047C000976
:01047D000975
:01047E000974
:01047F000973
:010480000972
:010481000971
:010482000970
:01048300096F
:01048400096E
:01048500096D
:01048600096C
:01048700096B
:01048800096A
:010489000969
:01048A000968
:01048B000967
:01048C000966
:01048D000965
:01048E000964
:01048F000963
:010490000962
:010491000961
:010492000960
:01049300095F
:01049400095E
:01049500095D
:01049600095C
:01049700095B
:01049800095A
:010499000959
:01049A000958
:01049B000957
:01049C000956
:01049D000955
:01049E000954
:01049F000953
:0104A0000952
:0104A1000951
:0104A2000950
:0104A300094F
:0104A400094E
:0104A500094D
:0104A600094C
:0104A700094B
:0104A800094A
:0104A9000949
:0104AA000948
:0104AB000947
:0104AC000946
:0104AD000945
:0104AE000944
:0104AF000943
:0104B0000942
:0104B1000941
:0104B2000940
:0104B300093F
:0104B400093E
:0104B500093D
:0104B600093C
:0104B700093B
:0104B800093A
:0104B9000939
:0104BA000938
:0104BB000937
:0104BC000936
:0104BD000935
:0104BE000934
:0104BF000933
:0104C0000932
:0104C1000931
:0104C2000930
:0104C300092F
:0104C400092E
:0104C500092D
:0104C600092C
:0104C700092B
:0104C800092A
:0104C9000929
:0104CA000928
:0104CB000927
:0104CC000926
:0104CD000925
:0104CE000924
:0104CF000923
:0104D0000922
:0104D1000921
:0104D2000920
:0104D300091F
:0104D400091E
:0104D500091D
:0104D600091C
:0104D700091B
:0104D800091A
:0104D9000919
:0104DA000918
:0104DB000917
:0104DC000916
:0104DD000915
:0104DE000914
:0104DF000913
:0104E0000912
:0104E1000911
:0104E2000910
:0104E300090F
:0104E400090E
:0104E500090D
:0104E600090C
:0104E700090B
:0104E800090A
:0104E9000909
:0104EA000908
:0104EB000907
:0104EC000906
:0104ED000905
:0104EE000904
:0104EF000903
:0104F0000902
:0104F1000901
:0104F2000900
:0104F30009FF
:0104F40009FE
:0104F50009FD
:0104F60009FC
:0104F70009FB
:0104F80009FA
:0104F90009F9
:0104FA0009F8
:0104FB0009F7
:0104FC0009F6
:0104FD0009F5
:0104FE0009F4
:0104FF0009F3
:0105000009F1
:0105010009F0
:0105020009EF
:0105030009EE
:0105040009ED
:0105050009EC
:0105060009EB
:0105070009EA
:0105080009E9
:0105090009E8
:01050A0009E7
:01050B0009E6
:01050C0009E5
:01050D0009E4
:01050E0009E3
:01050F0009E2
:0105100009E1
:010511000ADF
:010512000ADE
:010513000ADD
:010514000ADC
:010515000ADB
:010516000ADA
:010517000AD9
:010518000AD8
:010519000AD7
:01051A000AD6
:01051B000AD5
:01051C000AD4
:01051D000AD3
:01051E000AD2
:01051F000AD1
:010520000AD0
:010521000ACF
:010522000ACE
:010523000ACD
:010524000ACC
:010525000ACB
:010526000ACA
:010527000AC9
:010528000AC8
:010529000AC7
:01052A000AC6
:01052B000AC5
:01052C000AC4
:01052D000AC3
:01052E000AC2
:01052F000AC1
:010530000AC0
:010531000ABF
:010532000ABE
:010533000ABD
:010534000ABC
:010535000ABB
:010536000ABA
:010537000AB9
:010538000AB8
:010539000AB7
:01053A000AB6
:01053B000AB5
:01053C000AB4
:01053D000AB3
:01053E000AB2
:01053F000AB1
:010540000AB0
:010541000AAF
:010542000AAE
:010543000AAD
:010544000AAC
:010545000AAB
:010546000AAA
:010547000AA9
:010548000AA8
:010549000AA7
:01054A000AA6
:01054B000AA5
:01054C000AA4
:01054D000AA3
:01054E000AA2
:01054F000AA1
:010550000AA0
:010551000A9F
:010552000A9E
:010553000A9D
:010554000A9C
:010555000A9B
:010556000A9A
:010557000A99
:010558000A98
:010559000A97
:01055A000A96
:01055B000A95
:01055C000A94
:01055D000A93
:01055E000A92
:01055F000A91
:010560000A90
:010561000A8F
:010562000A8E
:010563000A8D
:010564000A8C
:010565000A8B
:010566000A8A
:010567000A89
:010568000A88
:010569000A87
:01056A000A86
:01056B000A85
:01056C000A84
:01056D000A83
:01056E000A82
:01056F000A81
:010570000A80
:010571000A7F
:010572000A7E
:010573000A7D
:010574000A7C
:010575000A7B
:010576000A7A
:010577000A79
:010578000A78
:010579000A77
:01057A000A76
:01057B000A75
:01057C000A74
:01057D000A73
:01057E000A72
:01057F000A71
:010580000A70
:010581000A6F
:010582000A6E
:010583000A6D
:010584000A6C
:010585000A6B
:010586000A6A
:010587000A69
:010588000A68
:010589000A67
:01058A000A66
:01058B000A65
:01058C000A64
:01058D000A63
:01058E000A62
:01058F000A61
:010590000A60
:010591000A5F
:010592000A5E
:010593000A5D
:010594000A5C
:010595000A5B
:010596000A5A
:010597000A59
:010598000A58
:010599000A57
:01059A000A56
:01059B000A55
:01059C000A54
:01059D000A53
:01059E000A52
:01059F000A51
:0105A0000A50
:0105A1000A4F
:0105A2000A4E
:0105A3000A4D
:0105A4000A4C
:0105A5000A4B
:0105A6000A4A
:0105A7000A49
:0105A8000A48
:0105A9000A47
:0105AA000A46
:0105AB000A45
:0105AC000A44
:0105AD000A43
:0105AE000A42
:0105AF000A41
:0105B0000A40
:0105B1000A3F
:0105B2000A3E
:0105B3000A3D
:0105B4000A3C
:0105B5000A3B
:0105B6000A3A
:0105B7000A39
:0105B8000A38
:0105B9000A37
:0105BA000A36
:0105BB000A35
:0105BC000A34
:0105BD000A33
:0105BE000A32
:0105BF000A31
:0105C0000A30
:0105C1000A2F
:0105C2000A2E
:0105C3000A2D
:0105C4000A2C
:0105C5000A2B
:0105C6000A2A
:0105C7000A29
:0105C8000A28
:0105C9000A27
:0105CA000A26
:0105CB000A25
:0105CC000A24
:0105CD000A23
:0105CE000A22
:0105CF000A21
:0105D0000A20
:0105D1000A1F
:0105D2000A1E
:0105D3000A1D
:0105D4000A1C
:0105D5000A1B
:0105D6000A1A
:0105D7000A19
:0105D8000A18
:0105D9000A17
:0105DA000A16
:0105DB000A15
:0105DC000A14
:0105DD000A13
:0105DE000A12
:0105DF000A11
:0105E0000A10
:0105E1000A0F
:0105E2000A0E
:0105E3000A0D
:0105E4000A0C
:0105E5000A0B
:0105E6000A0A
:0105E7000A09
:0105E8000A08
:0105E9000A07
:0105EA000A06
:0105EB000A05
:0105EC000A04
:0105ED000A03
:0105EE000A02
:0105EF000A01
:0105F0000A00
:0105F1000AFF
:0105F2000AFE
:0105F3000AFD
:0105F4000AFC
:0105F5000AFB
:0105F6000AFA
:0105F7000AF9
:0105F8000AF8
:0105F9000AF7
:0105FA000AF6
:0105FB000AF5
:0105FC000AF4
:0105FD000AF3
:0105FE000AF2
:0105FF000AF1
:010600000AEF
:010601000AEE
:010602000AED
:010603000AEC
:010604000AEB
:010605000AEA
:010606000AE9
:010607000AE8
:010608000AE7
:010609000AE6
:01060A000AE5
:01060B000AE4
:01060C000AE3
:01060D000AE2
:01060E000AE1
:01060F000AE0
:010610000ADF
:010611000ADE
:010612000ADD
:010613000ADC
:010614000ADB
:010615000ADA
:010616000AD9
:010617000AD8
:010618000AD7
:010619000AD6
:01061A000AD5
:01061B000AD4
:01061C000AD3
:01061D000AD2
:01061E000AD1
:01061F000AD0
:010620000ACF
:010621000ACE
:010622000ACD
:010623000ACC
:010624000ACB
:010625000ACA
:010626000AC9
:010627000AC8
:010628000AC7
:010629000AC6
:01062A000AC5
:01062B000AC4
:01062C000AC3
:01062D000AC2
:01062E000AC1
:01062F000AC0
:010630000ABF
:010631000ABE
:010632000ABD
:010633000ABC
:010634000ABB
:010635000ABA
:010636000AB9
:010637000AB8
:010638000AB7
:010639000AB6
:01063A000AB5
:01063B000AB4
:01063C000AB3
:01063D000AB2
:01063E000AB1
:01063F000AB0
:010640000AAF
:010641000AAE
:010642000AAD
:010643000AAC
:010644000AAB
:010645000AAA
:010646000AA9
:010647000AA8
:010648000AA7
:010649000AA6
:01064A000AA5
:01064B000AA4
:01064C000AA3
:01064D000AA2
:01064E000AA1
:01064F000AA0
:010650000B9E
:010651000B9D
:010652000B9C
:010653000B9B
:010654000B9A
:010655000B99
:010656000B98
:010657000B97
:010658000B96
:010659000B95
:01065A000B94
:01065B000B93
:01065C000B92
:01065D000B91
:01065E000B90
:01065F000B8F
:010660000B8E
:010661000B8D
:010662000B8C
:010663000B8B
:010664000B8A
:010665000B89
:010666000B88
:010667000B87
:010668000B86
:010669000B85
:01066A000B84
:01066B000B83
:01066C000B82
:01066D000B81
:01066E000B80
:01066F000B7F
:010670000B7E
:010671000B7D
:010672000B7C
:010673000B7B
:010674000B7A
:010675000B79
:010676000B78
:010677000B77
:010678000B76
:010679000B75
:01067A000B74
:01067B000B73
:01067C000B72
:01067D000B71
:01067E000B70
:01067F000B6F
:010680000B6E
:010681000B6D
:010682000B6C
:010683000B6B
:010684000B6A
:010685000B69
:010686000B68
:010687000B67
:010688000B66
:010689000B65
:01068A000B64
:01068B000B63
:01068C000B62
:01068D000B61
:01068E000B60
:01068F000B5F
:010690000B5E
:010691000B5D
:010692000B5C
:010693000B5B
:010694000B5A
:010695000B59
:010696000B58
:010697000B57
:010698000B56
:010699000B55
:01069A000B54
:01069B000B53
:01069C000B52
:01069D000B51
:01069E000B50
:01069F000B4F
:0106A0000B4E
:0106A1000B4D
:0106A2000B4C
:0106A3000B4B
:0106A4000B4A
:0106A5000B49
:0106A6000B48
:0106A7000B47
:0106A8000B46
:0106A9000B45
:0106AA000B44
:0106AB000B43
:0106AC000B42
:0106AD000B41
:0106AE000B40
:0106AF000B3F
:0106B0000B3E
:0106B1000B3D
:0106B2000B3C
:0106B3000B3B
:0106B4000B3A
:0106B5000B39
:0106B6000B38
:0106B7000B37
:0106B8000B36
:0106B9000B35
:0106BA000B34
:0106BB000B33
:0106BC000B32
:0106BD000B31
:0106BE000B30
:0106BF000B2F
:0106C0000B2E
:0106C1000B2D
:0106C2000B2C
:0106C3000B2B
:0106C4000B2A
:0106C5000B29
:0106C6000B28
:0106C7000B27
:0106C8000B26
:0106C9000B25
:0106CA000B24
:0106CB000B23
:0106CC000B22
:0106CD000B21
:0106CE000B20
:0106CF000B1F
:0106D0000B1E
:0106D1000B1D
:0106D2000B1C
:0106D3000B1B
:0106D4000B1A
:0106D5000B19
:0106D6000B18
:0106D7000B17
:0106D8000B16
:0106D9000B15
:0106DA000B14
:0106DB000B13
:0106DC000B12
:0106DD000B11
:0106DE000B10
:0106DF000B0F
:0106E0000B0E
:0106E1000B0D
:0106E2000B0C
:0106E3000B0B
:0106E4000B0A
:0106E5000B09
:0106E6000B08
:0106E7000B07
:0106E8000B06
:0106E9000B05
:0106EA000B04
:0106EB000B03
:0106EC000B02
:0106ED000B01
:0106EE000B00
:0106EF000BFF
:0106F0000BFE
:0106F1000BFD
:0106F2000BFC
:0106F3000BFB
:0106F4000BFA
:0106F5000BF9
:0106F6000BF8
:0106F7000BF7
:0106F8000BF6
:0106F9000BF5
:0106FA000BF4
:0106FB000BF3
:0106FC000BF2
:0106FD000BF1
:0106FE000BF0
:0106FF000BEF
:010700000BED
:010701000BEC
:010702000BEB
:010703000BEA
:010704000BE9
:010705000BE8
:010706000BE7
:010707000BE6
:010708000BE5
:010709000BE4
:01070A000BE3
:01070B000BE2
:01070C000BE1
:01070D000BE0
:01070E000BDF
:01070F000BDE
:010710000BDD
:010711000BDC
:010712000BDB
:010713000BDA
:010714000BD9
:010715000BD8
:010716000BD7
:010717000BD6
:010718000BD5
:010719000BD4
:01071A000BD3
:01071B000BD2
:01071C000BD1
:01071D000BD0
:01071E000BCF
:01071F000BCE
:010720000BCD
:010721000BCC
:010722000BCB
:010723000BCA
:010724000BC9
:010725000BC8
:010726000BC7
:010727000BC6
:010728000BC5
:010729000BC4
:01072A000BC3
:01072B000BC2
:01072C000BC1
:01072D000BC0
:01072E000BBF
:01072F000BBE
:010730000BBD
:010731000BBC
:010732000BBB
:010733000BBA
:010734000BB9
:010735000BB8
:010736000BB7
:010737000BB6
:010738000BB5
:010739000BB4
:01073A000BB3
:01073B000BB2
:01073C000BB1
:01073D000BB0
:01073E000BAF
:01073F000BAE
:010740000BAD
:010741000BAC
:010742000BAB
:010743000BAA
:010744000BA9
:010745000BA8
:010746000BA7
:010747000BA6
:010748000BA5
:010749000BA4
:01074A000BA3
:01074B000BA2
:01074C000BA1
:01074D000BA0
:01074E000B9F
:01074F000B9E
:010750000B9D
:010751000B9C
:010752000B9B
:010753000B9A
:010754000B99
:010755000B98
:010756000B97
:010757000B96
:010758000B95
:010759000B94
:01075A000B93
:01075B000B92
:01075C000B91
:01075D000B90
:01075E000B8F
:01075F000B8E
:010760000B8D
:010761000B8C
:010762000B8B
:010763000B8A
:010764000B89
:010765000B88
:010766000B87
:010767000B86
:010768000B85
:010769000B84
:01076A000B83
:01076B000B82
:01076C000B81
:01076D000B80
:01076E000B7F
:01076F000B7E
:010770000B7D
:010771000B7C
:010772000B7B
:010773000B7A
:010774000B79
:010775000B78
:010776000B77
:010777000B76
:010778000B75
:010779000B74
:01077A000B73
:01077B000B72
:01077C000B71
:01077D000B70
:01077E000B6F
:01077F000B6E
:010780000B6D
:010781000B6C
:010782000B6B
:010783000B6A
:010784000B69
:010785000B68
:010786000B67
:010787000B66
:010788000B65
:010789000B64
:01078A000B63
:01078B000B62
:01078C000B61
:01078D000B60
:01078E000B5F
:01078F000B5E
:010790000B5D
:010791000B5C
:010792000B5B
:010793000B5A
:010794000B59
:010795000B58
:010796000B57
:010797000B56
:010798000B55
:010799000B54
:01079A000B53
:01079B000B52
:01079C000B51
:01079D000B50
:01079E000B4F
:01079F000B4E
:0107A0000B4D
:0107A1000B4C
:0107A2000B4B
:0107A3000B4A
:0107A4000B49
:0107A5000B48
:0107A6000B47
:0107A7000B46
:0107A8000B45
:0107A9000B44
:0107AA000B43
:0107AB000B42
:0107AC000B41
:0107AD000B40
:0107AE000B3F
:0107AF000B3E
:0107B0000B3D
:0107B1000B3C
:0107B2000B3B
:0107B3000B3A
:0107B4000B39
:0107B5000B38
:0107B6000B37
:0107B7000B36
:0107B8000B35
:0107B9000B34
:0107BA000B33
:0107BB000B32
:0107BC000B31
:0107BD000B30
:0107BE000B2F
:0107BF000B2E
:0107C0000B2D
:0107C1000B2C
:0107C2000B2B
:0107C3000B2A
:0107C4000B29
:0107C5000B28
:0107C6000B27
:0107C7000B26
:0107C8000B25
:0107C9000B24
:0107CA000B23
:0107CB000B22
:0107CC000B21
:0107CD000B20
:0107CE000B1F
:0107CF000B1E
:0107D0000B1D
:0107D1000B1C
:0107D2000B1B
:0107D3000B1A
:0107D4000B19
:0107D5000B18
:0107D6000B17
:0107D7000B16
:0107D8000B15
:0107D9000B14
:0107DA000B13
:0107DB000B12
:0107DC000B11
:0107DD000B10
:0107DE000B0F
:0107DF000B0E
:0107E0000B0D
:0107E1000B0C
:0107E2000B0B
:0107E3000B0A
:0107E4000B09
:0107E5000B08
:0107E6000B07
:0107E7000B06
:0107E8000B05
:0107E9000B04
:0107EA000B03
:0107EB000B02
:0107EC000B01
:0107ED000B00
:0107EE000BFF
:0107EF000BFE
:0107F0000BFD
:0107F1000BFC
:0107F2000BFB
:0107F3000BFA
:0107F4000BF9
:0107F5000BF8
:0107F6000BF7
:0107F7000BF6
:0107F8000BF5
:0107F9000BF4
:0107FA000BF3
:0107FB000BF2
:0107FC000BF1
:0107FD000BF0
:0107FE000BEF
:0107FF000BEE
:00000001ff
