:020000040000FA
:010000000FF0
:0100010004FA
:0100020008F5
:010003000CF0
:0100040000FB
:0100050004F6
:0100060008F1
:010007000CEC
:0100080000F7
:0100090004F2
:01000A0009EC
:01000B000DE7
:01000C0001F2
:01000D0005ED
:01000E000AE7
:01000F000EE2
:0100100002ED
:0100110007E7
:010012000BE2
:0100130000EC
:0100140004E7
:0100150009E1
:010016000DDC
:0100170002E6
:0100180006E1
:010019000BDB
:01001A000FD6
:01001B0004E0
:01001C0008DB
:01001D000DD5
:01001E0002DF
:01001F0006DA
:010020000BD4
:0100210000DE
:0100220005D8
:0100230009D3
:010024000ECD
:0100250003D7
:0100260008D1
:010027000DCB
:0100280002D5
:0100290007CF
:01002A000BCA
:01002B0000D4
:01002C0005CE
:01002D000AC8
:01002E000FC2
:01002F0004CC
:0100300009C6
:010031000FBF
:0100320004C9
:0100330009C3
:010034000EBD
:0100350003C7
:0100360008C1
:010037000DBB
:0100380003C4
:0100390008BE
:01003A000DB8
:01003B0002C2
:01003C0008BB
:01003D000DB5
:01003E0002BF
:01003F0008B8
:010040000DB2
:0100410003BB
:0100420008B5
:010043000DAF
:0100440003B8
:0100450008B2
:010046000EAB
:0100470003B5
:0100480009AE
:010049000EA8
:01004A0004B1
:01004B000AAA
:01004C000FA4
:01004D0005AD
:01004E000BA6
:01004F0000B0
:0100500006A9
:010051000CA2
:0100520001AC
:0100530007A5
:010054000D9E
:0100550003A7
:0100560008A1
:010057000E9A
:0100580004A3
:010059000A9C
:01005A0000A5
:01005B00069E
:01005C000C97
:01005D0002A0
:01005E000899
:01005F000E92
:01006000049B
:010061000A94
:01006200009D
:010063000696
:010064000C8F
:010065000298
:010066000891
:010067000E8A
:010068000493
:010069000A8C
:01006A000194
:01006B00078D
:01006C000D86
:01006D00038F
:01006E000A87
:01006F000090
:010070000689
:010071000C82
:01007200038A
:010073000983
:010074000F7C
:010075000684
:010076000C7D
:010077000385
:01007800097E
:010079000086
:01007A00067F
:01007B000D77
:01007C000380
:01007D000A78
:01007E000081
:01007F000779
:010080000D72
:01008100047A
:010082000A73
:01008300017B
:010084000873
:010085000E6C
:010086000574
:010087000C6C
:010088000275
:01008900096D
:01008A000075
:01008B00076D
:01008C000D66
:01008D00046E
:01008E000B66
:01008F00026E
:010090000966
:01009100006E
:010092000766
:010093000D5F
:010094000467
:010095000B5F
:010096000267
:01009700095F
:010098000067
:01009900075F
:01009A000E57
:01009B00055F
:01009C000C57
:01009D00035F
:01009E000A57
:01009F00015F
:0100A0000956
:0100A100005E
:0100A2000756
:0100A3000E4E
:0100A4000556
:0100A5000C4E
:0100A6000455
:0100A7000B4D
:0100A8000255
:0100A900094D
:0100AA000154
:0100AB00084C
:0100AC000F44
:0100AD00064C
:0100AE000E43
:0100AF00054B
:0100B0000C43
:0100B100044A
:0100B2000B42
:0100B3000349
:0100B4000A41
:0100B5000248
:0100B6000940
:0100B7000048
:0100B800083F
:0100B9000F37
:0100BA00073E
:0100BB000E36
:0100BC00063D
:0100BD000E34
:0100BE00053C
:0100BF000D33
:0100C000043B
:0100C1000C32
:0100C2000439
:0100C3000B31
:0100C4000338
:0100C5000B2F
:0100C6000237
:0100C7000A2E
:0100C8000235
:0100C9000A2C
:0100CA000134
:0100CB00092B
:0100CC000132
:0100CD000929
:0100CE000031
:0100CF000828
:0100D000002F
:0100D1000826
:0100D200002D
:0100D3000824
:0100D400002B
:0100D5000822
:0100D6000F1A
:0100D7000721
:0100D8000F18
:0100D900071F
:0100DA000F16
:0100DB00071D
:0100DC000F14
:0100DD00071B
:0100DE000F12
:0100DF000719
:0100E000001F
:0100E1000816
:0100E200001D
:0100E3000814
:0100E400001B
:0100E5000812
:0100E6000019
:0100E7000810
:0100E8000116
:0100E900090D
:0100EA000114
:0100EB00090B
:0100EC000112
:0100ED000A08
:0100EE00020F
:0100EF000A06
:0100F000030C
:0100F1000B03
:0100F200030A
:0100F3000C00
:0100F4000407
:0100F5000CFE
:0100F6000504
:0100F7000DFB
:0100F8000502
:0100F9000EF8
:0100FA0006FF
:0100FB000FF5
:0100FC0007FC
:0100FD000002
:0100FE0008F9
:0100FF0001FF
:0101000009F5
:0101010002FB
:010102000AF2
:0101030003F8
:010104000BEF
:0101050004F5
:010106000CEC
:0101070005F2
:010108000DE9
:0101090006EF
:01010A000FE5
:01010B0007EC
:01010C0000F2
:01010D0009E8
:01010E0001EF
:01010F000AE5
:0101100003EB
:010111000CE1
:0101120004E8
:010113000DDE
:0101140006E4
:010115000FDA
:0101160007E1
:0101170000E7
:0101180009DD
:0101190002E3
:01011A000BD9
:01011B0003E0
:01011C000CD6
:01011D0005DC
:01011E000ED2
:01011F0007D8
:0101200000DE
:0101210009D4
:0101220002DA
:010123000BD0
:0101240004D6
:010125000CCD
:0101260005D3
:010127000EC9
:0101280007CF
:0101290000D5
:01012A0009CB
:01012B0003D0
:01012C000CC6
:01012D0005CC
:01012E000EC2
:01012F0007C8
:0101300000CE
:0101310009C4
:0101320002CA
:010133000BC0
:0101340004C6
:010135000EBB
:0101360007C1
:0101370000C7
:0101380009BD
:0101390002C3
:01013A000BB9
:01013B0005BE
:01013C000EB4
:01013D0007BA
:01013E0000C0
:01013F000AB5
:0101400003BB
:010141000CB1
:0101420006B6
:010143000FAC
:0101440008B2
:0101450002B7
:010146000BAD
:0101470004B3
:010148000EA8
:0101490007AE
:01014A0000B4
:01014B000AA9
:01014C0003AF
:01014D000DA4
:01014E0006AA
:01014F0000AF
:0101500009A5
:0101510002AB
:010152000CA0
:0101530005A6
:010154000F9B
:0101550008A1
:0101560002A6
:010157000C9B
:0101580005A1
:010159000F96
:01015A00089C
:01015B0002A1
:01015C000B97
:01015D00059C
:01015E000F91
:01015F000897
:01016000029C
:010161000B92
:010162000597
:010163000F8C
:010164000892
:010165000297
:010166000C8C
:010167000691
:010168000F87
:01016900098C
:01016A000391
:01016B000C87
:01016C00068C
:01016D000091
:01016E000A86
:01016F00048B
:010170000D81
:010171000786
:01017200018B
:010173000B80
:010174000585
:010175000F7A
:010176000880
:010177000285
:010178000C7A
:01017900067F
:01017A000084
:01017B000A79
:01017C00047E
:01017D000E73
:01017E000878
:01017F00027D
:010180000C72
:010181000677
:010182000F6D
:010183000972
:010184000377
:010185000D6C
:010186000870
:010187000275
:010188000C6A
:01018900066F
:01018A000074
:01018B000A69
:01018C00046E
:01018D000E63
:01018E000868
:01018F00026D
:010190000C62
:010191000667
:01019200006C
:010193000B60
:010194000565
:010195000F5A
:01019600095F
:010197000364
:010198000E58
:01019900085D
:01019A000262
:01019B000C57
:01019C00065C
:01019D000160
:01019E000B55
:01019F00055A
:0101A0000F4F
:0101A1000A53
:0101A2000458
:0101A3000E4D
:0101A4000951
:0101A5000356
:0101A6000D4B
:0101A700084F
:0101A8000254
:0101A9000C49
:0101AA00074D
:0101AB000152
:0101AC000B47
:0101AD00064B
:0101AE000050
:0101AF000B44
:0101B0000549
:0101B1000F3E
:0101B2000A42
:0101B3000447
:0101B4000F3B
:0101B5000940
:0101B6000444
:0101B7000E39
:0101B800093D
:0101B9000342
:0101BA000E36
:0101BB00083B
:0101BC00033F
:0101BD000D34
:0101BE000838
:0101BF00023D
:0101C0000D31
:0101C1000736
:0101C200023A
:0101C3000D2E
:0101C4000733
:0101C5000237
:0101C6000C2C
:0101C7000730
:0101C8000234
:0101C9000C29
:0101CA00072D
:0101CB000132
:0101CC000C26
:0101CD00072A
:0101CE00012F
:0101CF000C23
:0101D0000727
:0101D100022B
:0101D2000C20
:0101D3000724
:0101D4000228
:0101D5000C1D
:0101D6000721
:0101D7000225
:0101D8000D19
:0101D900071E
:0101DA000222
:0101DB000D16
:0101DC00081A
:0101DD00031E
:0101DE000D13
:0101DF000817
:0101E000031B
:0101E1000E0F
:0101E2000913
:0101E3000417
:0101E4000E0C
:0101E5000910
:0101E6000414
:0101E7000F08
:0101E8000A0C
:0101E9000510
:0101EA000014
:0101EB000B08
:0101EC00060C
:0101ED000110
:0101EE000C04
:0101EF000609
:0101F000010D
:0101F1000C01
:0101F2000705
:0101F3000209
:0101F4000DFD
:0101F5000801
:0101F6000305
:0101F7000EF9
:0101F80009FD
:0101F9000401
:0101FA000FF5
:0101FB000AF9
:0101FC0006FC
:0101FD000100
:0101FE000CF4
:0101FF0007F8
:0102000002FB
:010201000DEF
:0102020008F3
:0102030003F7
:010204000EEB
:0102050009EF
:0102060004F3
:0102070000F6
:010208000BEA
:0102090006EE
:01020A0001F2
:01020B000CE6
:01020C0007EA
:01020D0003ED
:01020E000EE1
:01020F0009E5
:0102100004E9
:010211000FDD
:010212000BE0
:0102130006E4
:0102140001E8
:010215000CDC
:0102160008DF
:0102170003E3
:010218000ED7
:0102190009DB
:01021A0005DE
:01021B0000E2
:01021C000BD6
:01021D0006DA
:01021E0002DD
:01021F000DD1
:0102200008D5
:0102210004D8
:010222000FCC
:010223000AD0
:0102240006D3
:0102250001D7
:010226000CCB
:0102270008CE
:0102280003D2
:010229000FC5
:01022A000AC9
:01022B0005CD
:01022C0001D0
:01022D000CC4
:01022E0008C7
:01022F0003CB
:010230000EBF
:010231000AC2
:0102320005C6
:0102330001C9
:010234000CBD
:0102350008C0
:0102360003C4
:010237000FB7
:010238000ABB
:0102390006BE
:01023A0001C2
:01023B000DB5
:01023C0008B9
:01023D0004BC
:01023E000FB0
:01023F000BB3
:0102400006B7
:0102410002BA
:010242000DAE
:0102430009B1
:0102440005B4
:0102450000B8
:010246000CAB
:0102470007AF
:0102480003B2
:010249000FA5
:01024A000AA9
:01024B0006AC
:01024C0001B0
:01024D000DA3
:01024E0009A6
:01024F0004AA
:0102500000AD
:010251000CA0
:0102520007A4
:0102530003A7
:010254000F9A
:010255000A9E
:0102560006A1
:0102570002A4
:010258000D98
:01025900099B
:01025A00059E
:01025B0001A1
:01025C000C95
:01025D000898
:01025E00049B
:01025F000F8F
:010260000B92
:010261000795
:010262000398
:010263000F8B
:010264000A8F
:010265000692
:010266000295
:010267000E88
:010268000A8B
:01026900058F
:01026A000192
:01026B000D85
:01026C000988
:01026D00058B
:01026E00008F
:01026F000C82
:010270000885
:010271000488
:01027200008B
:010273000C7E
:010274000881
:010275000484
:010276000F78
:010277000B7B
:01027800077E
:010279000381
:01027A000F74
:01027B000B77
:01027C00077A
:01027D00037D
:01027E000F70
:01027F000B73
:010280000776
:010281000379
:010282000F6C
:010283000B6F
:010284000772
:010285000375
:010286000F68
:010287000B6B
:01028800076E
:010289000371
:01028A000F64
:01028B000B67
:01028C00076A
:01028D00036D
:01028E000F60
:01028F000B63
:010290000766
:010291000369
:010292000F5C
:010293000B5F
:010294000762
:010295000365
:010296000F58
:010297000B5B
:01029800075E
:010299000361
:01029A000063
:01029B000C56
:01029C000859
:01029D00045C
:01029E00005F
:01029F000C52
:0102A0000855
:0102A1000458
:0102A200015A
:0102A3000D4D
:0102A4000950
:0102A5000553
:0102A6000156
:0102A7000D49
:0102A8000A4B
:0102A900064E
:0102AA000251
:0102AB000E44
:0102AC000A47
:0102AD000749
:0102AE00034C
:0102AF000F3F
:0102B0000B42
:0102B1000844
:0102B2000447
:0102B300004A
:0102B4000C3D
:0102B500093F
:0102B6000542
:0102B7000145
:0102B8000D38
:0102B9000A3A
:0102BA00063D
:0102BB000240
:0102BC000F32
:0102BD000B35
:0102BE000738
:0102BF00033B
:0102C000003D
:0102C1000C30
:0102C2000833
:0102C3000535
:0102C4000138
:0102C5000D2B
:0102C6000A2D
:0102C7000630
:0102C8000233
:0102C9000F25
:0102CA000B28
:0102CB00082A
:0102CC00042D
:0102CD000030
:0102CE000D22
:0102CF000925
:0102D0000627
:0102D100022A
:0102D2000E1D
:0102D3000B1F
:0102D4000722
:0102D5000424
:0102D6000027
:0102D7000C1A
:0102D800091C
:0102D900051F
:0102DA000221
:0102DB000E14
:0102DC000B16
:0102DD000719
:0102DE00041B
:0102DF00001E
:0102E0000D10
:0102E1000913
:0102E2000615
:0102E3000218
:0102E4000F0A
:0102E5000B0D
:0102E600080F
:0102E7000412
:0102E8000114
:0102E9000D07
:0102EA000A09
:0102EB00060C
:0102EC00030E
:0102ED000F01
:0102EE000C03
:0102EF000905
:0102F0000508
:0102F100020A
:0102F2000EFD
:0102F3000BFF
:0102F4000702
:0102F5000404
:0102F6000106
:0102F7000DF9
:0102F8000AFB
:0102F90006FE
:0102FA000300
:0102FB000002
:0102FC000CF5
:0102FD0009F7
:0102FE0005FA
:0102FF0002FC
:010300000FED
:010301000BF0
:0103020008F2
:0103030005F4
:0103040001F7
:010305000EE9
:010306000BEB
:0103070007EE
:0103080004F0
:0103090001F2
:01030A000DE5
:01030B000AE7
:01030C0007E9
:01030D0003EC
:01030E0000EE
:01030F000DE0
:010310000AE2
:0103110006E5
:0103120003E7
:0103130000E9
:010314000DDB
:0103150009DE
:0103160006E0
:0103170003E2
:0103180000E4
:010319000CD7
:01031A0009D9
:01031B0006DB
:01031C0003DD
:01031D000FD0
:01031E000CD2
:01031F0009D4
:0103200006D6
:0103210003D8
:010322000FCB
:010323000CCD
:0103240009CF
:0103250006D1
:0103260003D3
:010327000FC6
:010328000CC8
:0103290009CA
:01032A0006CC
:01032B0003CE
:01032C0000D0
:01032D000CC3
:01032E0009C5
:01032F0006C7
:0103300003C9
:0103310000CB
:010332000DBD
:010333000ABF
:0103340006C2
:0103350003C4
:0103360000C6
:010337000DB8
:010338000ABA
:0103390007BC
:01033A0004BE
:01033B0001C0
:01033C000EB2
:01033D000BB4
:01033E0007B7
:01033F0004B9
:0103400001BB
:010341000EAD
:010342000BAF
:0103430008B1
:0103440005B3
:0103450002B5
:010346000FA7
:010347000CA9
:0103480009AB
:0103490006AD
:01034A0003AF
:01034B0000B1
:01034C000DA3
:01034D000AA5
:01034E0007A7
:01034F0004A9
:0103500001AB
:010351000E9D
:010352000B9F
:0103530008A1
:0103540005A3
:0103550002A5
:010356000F97
:010357000C99
:01035800099B
:01035900069D
:01035A00039F
:01035B0000A1
:01035C000D93
:01035D000A95
:01035E000797
:01035F000499
:01036000019B
:010361000E8D
:010362000B8F
:010363000891
:010364000692
:010365000394
:010366000096
:010367000D88
:010368000A8A
:01036900078C
:01036A00048E
:01036B000190
:01036C000E82
:01036D000B84
:01036E000985
:01036F000687
:010370000389
:01037100008B
:010372000D7D
:010373000A7F
:010374000781
:010375000483
:010376000284
:010377000F76
:010378000C78
:01037900097A
:01037A00067C
:01037B00037E
:01037C00017F
:01037D000E71
:01037E000B73
:01037F000875
:010380000577
:010381000378
:01038200007A
:010383000D6C
:010384000A6E
:010385000770
:010386000571
:010387000273
:010388000F65
:010389000C67
:01038A000969
:01038B00076A
:01038C00046C
:01038D00016E
:01038E000E60
:01038F000C61
:010390000963
:010391000665
:010392000367
:010393000168
:010394000E5A
:010395000B5C
:01039600085E
:01039700065F
:010398000361
:010399000063
:01039A000E54
:01039B000B56
:01039C000858
:01039D00055A
:01039E00035B
:01039F00005D
:0103A0000D4F
:0103A1000B50
:0103A2000852
:0103A3000554
:0103A4000355
:0103A5000057
:0103A6000D49
:0103A7000B4A
:0103A800084C
:0103A900054E
:0103AA00034F
:0103AB000051
:0103AC000D43
:0103AD000B44
:0103AE000846
:0103AF000548
:0103B0000349
:0103B100004B
:0103B2000D3D
:0103B3000B3E
:0103B4000840
:0103B5000641
:0103B6000343
:0103B7000045
:0103B8000E36
:0103B9000B38
:0103BA000939
:0103BB00063B
:0103BC00033D
:0103BD00013E
:0103BE000E30
:0103BF000C31
:0103C0000933
:0103C1000635
:0103C2000436
:0103C3000138
:0103C4000F29
:0103C5000C2B
:0103C6000A2C
:0103C700072E
:0103C8000430
:0103C9000231
:0103CA000F23
:0103CB000D24
:0103CC000A26
:0103CD000827
:0103CE000529
:0103CF00032A
:0103D000002C
:0103D1000E1D
:0103D2000B1F
:0103D3000920
:0103D4000622
:0103D5000423
:0103D6000125
:0103D7000F16
:0103D8000C18
:0103D9000A19
:0103DA00071B
:0103DB00051C
:0103DC00021E
:0103DD00001F
:0103DE000D11
:0103DF000B12
:0103E0000814
:0103E1000615
:0103E2000317
:0103E3000118
:0103E4000E0A
:0103E5000C0B
:0103E600090D
:0103E700070E
:0103E800050F
:0103E9000211
:0103EA000012
:0103EB000D04
:0103EC000B05
:0103ED000807
:0103EE000608
:0103EF000409
:0103F000010B
:0103F1000FFC
:0103F2000CFE
:0103F3000AFF
:0103F4000701
:0103F5000502
:0103F6000303
:0103F7000005
:0103F8000EF6
:0103F9000BF8
:0103FA0009F9
:0103FB0007FA
:0103FC0004FC
:0103FD0002FD
:0103FE0000FE
:0103FF000DF0
:010400000BF0
:0104010008F2
:0104020006F3
:0104030004F4
:0104040001F6
:010405000FE7
:010406000DE8
:010407000AEA
:0104080008EB
:0104090006EC
:01040A0003EE
:01040B0001EF
:01040C000FE0
:01040D000CE2
:01040E000AE3
:01040F0008E4
:0104100005E6
:0104110003E7
:0104120001E8
:010413000EDA
:010414000CDB
:010415000ADC
:0104160007DE
:0104170005DF
:0104180003E0
:0104190000E2
:01041A000ED3
:01041B000CD4
:01041C000AD5
:01041D0007D7
:01041E0005D8
:01041F0003D9
:0104200000DB
:010421000ECC
:010422000CCD
:010423000ACE
:0104240007D0
:0104250005D1
:0104260003D2
:0104270001D3
:010428000EC5
:010429000CC6
:01042A000AC7
:01042B0008C8
:01042C0005CA
:01042D0003CB
:01042E0001CC
:01042F000FBD
:010430000CBF
:010431000AC0
:0104320008C1
:0104330006C2
:0104340004C3
:0104350001C5
:010436000FB6
:010437000DB7
:010438000BB8
:0104390009B9
:01043A0006BB
:01043B0004BC
:01043C0002BD
:01043D0000BE
:01043E000EAF
:01043F000BB1
:0104400009B2
:0104410007B3
:0104420005B4
:0104430003B5
:0104440000B7
:010445000EA8
:010446000CA9
:010447000AAA
:0104480008AB
:0104490006AC
:01044A0003AE
:01044B0001AF
:01044C000FA0
:01044D000DA1
:01044E000BA2
:01044F0009A3
:0104500007A4
:0104510004A6
:0104520002A7
:0104530000A8
:010454000E99
:010455000C9A
:010456000A9B
:01045700089C
:01045800069D
:01045900039F
:01045A0001A0
:01045B000F91
:01045C000D92
:01045D000B93
:01045E000994
:01045F000795
:010460000596
:010461000397
:010462000198
:010463000E8A
:010464000C8B
:010465000A8C
:01046600088D
:01046700068E
:01046800048F
:010469000290
:01046A000091
:01046B000E82
:01046C000C83
:01046D000A84
:01046E000885
:01046F000686
:010470000487
:010471000189
:010472000F7A
:010473000D7B
:010474000B7C
:01047500097D
:01047600077E
:01047700057F
:010478000380
:010479000181
:01047A000F72
:01047B000D73
:01047C000B74
:01047D000975
:01047E000776
:01047F000577
:010480000378
:010481000179
:010482000F6A
:010483000D6B
:010484000B6C
:01048500096D
:01048600076E
:01048700056F
:010488000370
:010489000171
:01048A000F62
:01048B000D63
:01048C000B64
:01048D000965
:01048E000766
:01048F000567
:010490000368
:010491000169
:010492000F5A
:010493000D5B
:010494000B5C
:01049500095D
:01049600075E
:01049700055F
:010498000360
:010499000161
:01049A000F52
:01049B000E52
:01049C000C53
:01049D000A54
:01049E000855
:01049F000656
:0104A0000457
:0104A1000258
:0104A2000059
:0104A3000E4A
:0104A4000C4B
:0104A5000A4C
:0104A600084D
:0104A700064E
:0104A800044F
:0104A900034F
:0104AA000150
:0104AB000F41
:0104AC000D42
:0104AD000B43
:0104AE000944
:0104AF000745
:0104B0000546
:0104B1000347
:0104B2000148
:0104B3000F39
:0104B4000E39
:0104B5000C3A
:0104B6000A3B
:0104B700083C
:0104B800063D
:0104B900043E
:0104BA00023F
:0104BB000040
:0104BC000F30
:0104BD000D31
:0104BE000B32
:0104BF000933
:0104C0000734
:0104C1000535
:0104C2000336
:0104C3000236
:0104C4000037
:0104C5000E28
:0104C6000C29
:0104C7000A2A
:0104C800082B
:0104C900062C
:0104CA00052C
:0104CB00032D
:0104CC00012E
:0104CD000F1F
:0104CE000D20
:0104CF000B21
:0104D0000A21
:0104D1000822
:0104D2000623
:0104D3000424
:0104D4000225
:0104D5000125
:0104D6000F16
:0104D7000D17
:0104D8000B18
:0104D9000919
:0104DA000819
:0104DB00061A
:0104DC00041B
:0104DD00021C
:0104DE00001D
:0104DF000F0D
:0104E0000D0E
:0104E1000B0F
:0104E2000910
:0104E3000711
:0104E4000611
:0104E5000412
:0104E6000213
:0104E7000014
:0104E8000F04
:0104E9000D05
:0104EA000B06
:0104EB000907
:0104EC000708
:0104ED000608
:0104EE000409
:0104EF00020A
:0104F000000B
:0104F1000FFB
:0104F2000DFC
:0104F3000BFD
:0104F40009FE
:0104F50008FE
:0104F60006FF
:0104F7000400
:0104F8000201
:0104F9000101
:0104FA000FF2
:0104FB000DF3
:0104FC000CF3
:0104FD000AF4
:0104FE0008F5
:0104FF0006F6
:0105000005F5
:0105010003F6
:0105020001F7
:010503000FE8
:010504000EE8
:010505000CE9
:010506000AEA
:0105070009EA
:0105080007EB
:0105090005EC
:01050A0003ED
:01050B0002ED
:01050C0000EE
:01050D000EDF
:01050E000DDF
:01050F000BE0
:0105100009E1
:0105110008E1
:0105120006E2
:0105130004E3
:0105140003E3
:0105150001E4
:010516000FD5
:010517000ED5
:010518000CD6
:010519000AD7
:01051A0009D7
:01051B0007D8
:01051C0005D9
:01051D0004D9
:01051E0002DA
:01051F0000DB
:010520000FCB
:010521000DCC
:010522000BCD
:010523000ACD
:0105240008CE
:0105250006CF
:0105260005CF
:0105270003D0
:0105280001D1
:0105290000D1
:01052A000EC2
:01052B000CC3
:01052C000BC3
:01052D0009C4
:01052E0008C4
:01052F0006C5
:0105300004C6
:0105310003C6
:0105320001C7
:010533000FB8
:010534000EB8
:010535000CB9
:010536000BB9
:0105370009BA
:0105380007BB
:0105390006BB
:01053A0004BC
:01053B0003BC
:01053C0001BD
:01053D000FAE
:01053E000EAE
:01053F000CAF
:010540000BAF
:0105410009B0
:0105420007B1
:0105430006B1
:0105440004B2
:0105450003B2
:0105460001B3
:010547000FA4
:010548000EA4
:010549000CA5
:01054A000BA5
:01054B0009A6
:01054C0008A6
:01054D0006A7
:01054E0004A8
:01054F0003A8
:0105500001A9
:0105510000A9
:010552000E9A
:010553000D9A
:010554000B9B
:01055500099C
:01055600089C
:01055700069D
:01055800059D
:01055900039E
:01055A00029E
:01055B00009F
:01055C000F8F
:01055D000D90
:01055E000C90
:01055F000A91
:010560000892
:010561000792
:010562000593
:010563000493
:010564000294
:010565000194
:010566000F85
:010567000E85
:010568000C86
:010569000B86
:01056A000987
:01056B000887
:01056C000688
:01056D000588
:01056E000389
:01056F000289
:01057000008A
:010571000F7A
:010572000D7B
:010573000C7B
:010574000A7C
:01057500097C
:01057600077D
:01057700067D
:01057800047E
:01057900037E
:01057A00017F
:01057B00007F
:01057C000E70
:01057D000D70
:01057E000B71
:01057F000A71
:010580000872
:010581000772
:010582000573
:010583000473
:010584000274
:010585000174
:010586000F65
:010587000E65
:010588000C66
:010589000B66
:01058A000A66
:01058B000867
:01058C000767
:01058D000568
:01058E000468
:01058F000269
:010590000169
:010591000F5A
:010592000E5A
:010593000C5B
:010594000B5B
:010595000A5B
:01059600085C
:01059700075C
:01059800055D
:01059900045D
:01059A00025E
:01059B00015E
:01059C000F4F
:01059D000E4F
:01059E000D4F
:01059F000B50
:0105A0000A50
:0105A1000851
:0105A2000751
:0105A3000552
:0105A4000452
:0105A5000352
:0105A6000153
:0105A7000053
:0105A8000E44
:0105A9000D44
:0105AA000C44
:0105AB000A45
:0105AC000945
:0105AD000746
:0105AE000646
:0105AF000546
:0105B0000347
:0105B1000247
:0105B2000048
:0105B3000F38
:0105B4000E38
:0105B5000C39
:0105B6000B39
:0105B700093A
:0105B800083A
:0105B900073A
:0105BA00053B
:0105BB00043B
:0105BC00023C
:0105BD00013C
:0105BE00003C
:0105BF000E2D
:0105C0000D2D
:0105C1000C2D
:0105C2000A2E
:0105C300092E
:0105C400072F
:0105C500062F
:0105C600052F
:0105C7000330
:0105C8000230
:0105C9000130
:0105CA000F21
:0105CB000E21
:0105CC000D21
:0105CD000B22
:0105CE000A22
:0105CF000823
:0105D0000723
:0105D1000623
:0105D2000424
:0105D3000324
:0105D4000224
:0105D5000025
:0105D6000F15
:0105D7000E15
:0105D8000C16
:0105D9000B16
:0105DA000A16
:0105DB000817
:0105DC000717
:0105DD000617
:0105DE000418
:0105DF000318
:0105E0000218
:0105E1000019
:0105E2000F09
:0105E3000E09
:0105E4000C0A
:0105E5000B0A
:0105E6000A0A
:0105E700080B
:0105E800070B
:0105E900060B
:0105EA00050B
:0105EB00030C
:0105EC00020C
:0105ED00010C
:0105EE000FFD
:0105EF000EFD
:0105F0000DFD
:0105F1000BFE
:0105F2000AFE
:0105F30009FE
:0105F40007FF
:0105F50006FF
:0105F60005FF
:0105F70004FF
:0105F8000200
:0105F9000100
:0105FA000000
:0105FB000EF1
:0105FC000DF1
:0105FD000CF1
:0105FE000BF1
:0105FF0009F2
:0106000008F1
:0106010007F1
:0106020005F2
:0106030004F2
:0106040003F2
:0106050002F2
:0106060000F3
:010607000FE3
:010608000EE3
:010609000DE3
:01060A000BE4
:01060B000AE4
:01060C0009E4
:01060D0008E4
:01060E0006E5
:01060F0005E5
:0106100004E5
:0106110002E6
:0106120001E6
:0106130000E6
:010614000FD6
:010615000DD7
:010616000CD7
:010617000BD7
:010618000AD7
:0106190008D8
:01061A0007D8
:01061B0006D8
:01061C0005D8
:01061D0004D8
:01061E0002D9
:01061F0001D9
:0106200000D9
:010621000FC9
:010622000DCA
:010623000CCA
:010624000BCA
:010625000ACA
:0106260008CB
:0106270007CB
:0106280006CB
:0106290005CB
:01062A0004CB
:01062B0002CC
:01062C0001CC
:01062D0000CC
:01062E000FBC
:01062F000DBD
:010630000CBD
:010631000BBD
:010632000ABD
:0106330009BD
:0106340007BE
:0106350006BE
:0106360005BE
:0106370004BE
:0106380003BE
:0106390001BF
:01063A0000BF
:01063B000FAF
:01063C000EAF
:01063D000DAF
:01063E000BB0
:01063F000AB0
:0106400009B0
:0106410008B0
:0106420007B0
:0106430005B1
:0106440004B1
:0106450003B1
:0106460002B1
:0106470001B1
:010648000FA2
:010649000EA2
:01064A000DA2
:01064B000CA2
:01064C000BA2
:01064D000AA2
:01064E0008A3
:01064F0007A3
:0106500006A3
:0106510005A3
:0106520004A3
:0106530003A3
:0106540001A4
:0106550000A4
:010656000F94
:010657000E94
:010658000D94
:010659000C94
:01065A000A95
:01065B000995
:01065C000895
:01065D000795
:01065E000695
:01065F000595
:010660000495
:010661000296
:010662000196
:010663000096
:010664000F86
:010665000E86
:010666000D86
:010667000B87
:010668000A87
:010669000987
:01066A000887
:01066B000787
:01066C000687
:01066D000587
:01066E000487
:01066F000288
:010670000188
:010671000088
:010672000F78
:010673000E78
:010674000D78
:010675000C78
:010676000A79
:010677000979
:010678000879
:010679000779
:01067A000679
:01067B000579
:01067C000479
:01067D000379
:01067E000279
:01067F00007A
:010680000F6A
:010681000E6A
:010682000D6A
:010683000C6A
:010684000B6A
:010685000A6A
:01068600096A
:01068700086A
:01068800066B
:01068900056B
:01068A00046B
:01068B00036B
:01068C00026B
:01068D00016B
:01068E00006B
:01068F000F5B
:010690000E5B
:010691000D5B
:010692000B5C
:010693000A5C
:01069400095C
:01069500085C
:01069600075C
:01069700065C
:01069800055C
:01069900045C
:01069A00035C
:01069B00025C
:01069C00015C
:01069D00005C
:01069E000E4D
:01069F000D4D
:0106A0000C4D
:0106A1000B4D
:0106A2000A4D
:0106A300094D
:0106A400084D
:0106A500074D
:0106A600064D
:0106A700054D
:0106A800044D
:0106A900034D
:0106AA00024D
:0106AB00014D
:0106AC00004D
:0106AD000E3E
:0106AE000D3E
:0106AF000C3E
:0106B0000B3E
:0106B1000A3E
:0106B200093E
:0106B300083E
:0106B400073E
:0106B500063E
:0106B600053E
:0106B700043E
:0106B800033E
:0106B900023E
:0106BA00013E
:0106BB00003E
:0106BC000F2E
:0106BD000E2E
:0106BE000D2E
:0106BF000C2E
:0106C0000B2E
:0106C100092F
:0106C200082F
:0106C300072F
:0106C400062F
:0106C500052F
:0106C600042F
:0106C700032F
:0106C800022F
:0106C900012F
:0106CA00002F
:0106CB000F1F
:0106CC000E1F
:0106CD000D1F
:0106CE000C1F
:0106CF000B1F
:0106D0000A1F
:0106D100091F
:0106D200081F
:0106D300071F
:0106D400061F
:0106D500051F
:0106D600041F
:0106D700031F
:0106D800021F
:0106D900011F
:0106DA00001F
:0106DB000F0F
:0106DC000E0F
:0106DD000D0F
:0106DE000C0F
:0106DF000B0F
:0106E0000A0F
:0106E100090F
:0106E200080F
:0106E300070F
:0106E400060F
:0106E500050F
:0106E600040F
:0106E700030F
:0106E800020F
:0106E900010F
:0106EA00000F
:0106EB000FFF
:0106EC000EFF
:0106ED000DFF
:0106EE000CFF
:0106EF000BFF
:0106F0000AFF
:0106F10009FF
:0106F20008FF
:0106F30007FF
:0106F40006FF
:0106F50005FF
:0106F60004FF
:0106F70003FF
:0106F80002FF
:0106F90001FF
:0106FA0000FF
:0106FB000FEF
:0106FC000EEF
:0106FD000DEF
:0106FE000CEF
:0106FF000BEF
:010700000AEE
:0107010009EE
:0107020008EE
:0107030007EE
:0107040006EE
:0107050005EE
:0107060004EE
:0107070003EE
:0107080003ED
:0107090002ED
:01070A0001ED
:01070B0000ED
:01070C000FDD
:01070D000EDD
:01070E000DDD
:01070F000CDD
:010710000BDD
:010711000ADD
:0107120009DD
:0107130008DD
:0107140007DD
:0107150006DD
:0107160005DD
:0107170004DD
:0107180003DD
:0107190002DD
:01071A0001DD
:01071B0000DD
:01071C000FCD
:01071D000FCC
:01071E000ECC
:01071F000DCC
:010720000CCC
:010721000BCC
:010722000ACC
:0107230009CC
:0107240008CC
:0107250007CC
:0107260006CC
:0107270005CC
:0107280004CC
:0107290003CC
:01072A0002CC
:01072B0001CC
:01072C0000CC
:01072D0000CB
:01072E000FBB
:01072F000EBB
:010730000DBB
:010731000CBB
:010732000BBB
:010733000ABB
:0107340009BB
:0107350008BB
:0107360007BB
:0107370006BB
:0107380005BB
:0107390005BA
:01073A0004BA
:01073B0003BA
:01073C0002BA
:01073D0001BA
:01073E0000BA
:01073F000FAA
:010740000EAA
:010741000DAA
:010742000CAA
:010743000BAA
:010744000BA9
:010745000AA9
:0107460009A9
:0107470008A9
:0107480007A9
:0107490006A9
:01074A0005A9
:01074B0004A9
:01074C0003A9
:01074D0002A9
:01074E0002A8
:01074F0001A8
:0107500000A8
:010751000F98
:010752000E98
:010753000D98
:010754000C98
:010755000B98
:010756000A98
:010757000998
:010758000997
:010759000897
:01075A000797
:01075B000697
:01075C000597
:01075D000497
:01075E000397
:01075F000297
:010760000296
:010761000196
:010762000096
:010763000F86
:010764000E86
:010765000D86
:010766000C86
:010767000B86
:010768000B85
:010769000A85
:01076A000985
:01076B000885
:01076C000785
:01076D000685
:01076E000585
:01076F000485
:010770000484
:010771000384
:010772000284
:010773000184
:010774000084
:010775000F74
:010776000E74
:010777000E73
:010778000D73
:010779000C73
:01077A000B73
:01077B000A73
:01077C000973
:01077D000873
:01077E000872
:01077F000772
:010780000672
:010781000572
:010782000472
:010783000372
:010784000272
:010785000271
:010786000171
:010787000071
:010788000F61
:010789000E61
:01078A000D61
:01078B000D60
:01078C000C60
:01078D000B60
:01078E000A60
:01078F000960
:010790000860
:010791000760
:01079200075F
:01079300065F
:01079400055F
:01079500045F
:01079600035F
:01079700025F
:01079800025E
:01079900015E
:01079A00005E
:01079B000F4E
:01079C000E4E
:01079D000D4E
:01079E000D4D
:01079F000C4D
:0107A0000B4D
:0107A1000A4D
:0107A200094D
:0107A300094C
:0107A400084C
:0107A500074C
:0107A600064C
:0107A700054C
:0107A800044C
:0107A900044B
:0107AA00034B
:0107AB00024B
:0107AC00014B
:0107AD00004B
:0107AE00004A
:0107AF000F3A
:0107B0000E3A
:0107B1000D3A
:0107B2000C3A
:0107B3000B3A
:0107B4000B39
:0107B5000A39
:0107B6000939
:0107B7000839
:0107B8000739
:0107B9000738
:0107BA000638
:0107BB000538
:0107BC000438
:0107BD000338
:0107BE000337
:0107BF000237
:0107C0000137
:0107C1000037
:0107C2000F27
:0107C3000F26
:0107C4000E26
:0107C5000D26
:0107C6000C26
:0107C7000B26
:0107C8000B25
:0107C9000A25
:0107CA000925
:0107CB000825
:0107CC000824
:0107CD000724
:0107CE000624
:0107CF000524
:0107D0000424
:0107D1000423
:0107D2000323
:0107D3000223
:0107D4000123
:0107D5000023
:0107D6000022
:0107D7000F12
:0107D8000E12
:0107D9000D12
:0107DA000D11
:0107DB000C11
:0107DC000B11
:0107DD000A11
:0107DE000911
:0107DF000910
:0107E0000810
:0107E1000710
:0107E2000610
:0107E300060F
:0107E400050F
:0107E500040F
:0107E600030F
:0107E700020F
:0107E800020E
:0107E900010E
:0107EA00000E
:0107EB000FFE
:0107EC000FFD
:0107ED000EFD
:0107EE000DFD
:0107EF000CFD
:0107F0000CFC
:0107F1000BFC
:0107F2000AFC
:0107F30009FC
:0107F40009FB
:0107F50008FB
:0107F60007FB
:0107F70006FB
:0107F80006FA
:0107F90005FA
:0107FA0004FA
:0107FB0003FA
:0107FC0003F9
:0107FD0002F9
:0107FE0001F9
:0107FF0000F9
:00000001ff
