:020000040000FA
:020000000004FA
:020001000104F8
:020002000013E9
:0200030001B941
:020004000000FA
:020005000033C6
:020006000150A7
:020007000120D6
:020008000007EF
:02000900017A7A
:02000A000122D1
:02000B0000AB48
:02000C00003DB5
:02000D00019A56
:02000E0001E708
:02000F000014DB
:0200100001F4F9
:0200110001EB01
:02001200014E9D
:02001300015397
:0200140000B238
:0200150001DB0D
:0200160001CE19
:02001700018C5A
:02001800002FB7
:02001900018C58
:02001A0001845F
:02001B0001D70B
:02001C0000A53D
:02001D0001766A
:02001E0000DE02
:02001F0000BB24
:0200200000FCE2
:020021000104D8
:02002200019C3F
:02002300017664
:02002400004199
:02002500004B8E
:0200260000AF29
:02002700001BBC
:020028000013C3
:0200290000CA0B
:02002A0001844F
:02002B00017D55
:02002C00016170
:02002D00014090
:02002E000118B7
:02002F0001D7F7
:0200300000E9E5
:02003100004D80
:020032000125A6
:0200330000D4F7
:0200340000903A
:02003500018345
:02003600015F68
:02003700017F47
:0200380000794D
:0200390000378E
:02003A0000873D
:02003B00002E95
:02003C00006C56
:02003D000104BC
:02003E0000BA06
:02003F00004679
:0200400001C7F6
:0200410000A716
:0200420001F5C6
:02004300013B7F
:0200440001C4F5
:02004500005762
:02004600016552
:0200470001AC0A
:02004800014D68
:02004900014A6A
:02004A0001842F
:02004B00011B97
:02004C0001446D
:02004D00008D24
:02004E00008E22
:02004F000005AA
:0200500001604D
:0200510001B9F3
:02005200002C80
:0200530001AFFB
:02005400013A6F
:02005500007138
:0200560000A008
:02005700002F78
:02005800007630
:0200590001F5AF
:02005A0000FAAA
:02005B0000A102
:02005C0000445E
:02005D0001455B
:02005E0001425D
:02005F0000A9F6
:0200600001ACF1
:02006100019903
:02006200009309
:0200630001AAF0
:02006400015148
:02006500003762
:02006600007A1E
:02006700013A5C
:02006800008A0C
:0200690001BCD8
:02006A0000078D
:02006B00019101
:02006C0000C7CB
:02006D00001A77
:02006E0000127E
:02006F0001B8D6
:02007000015E2F
:0200710001B8D4
:02007200015338
:02007300006328
:0200740000DFAB
:0200750000FE8B
:02007600000286
:02007700015D29
:02007800002462
:0200790000DEA7
:02007A00019FE4
:02007B00007A09
:02007C0000443E
:02007D0001ABD5
:02007E00009AE6
:02007F0001F28C
:020080000192EB
:0200810000ACD1
:0200820000720A
:02008300010476
:0200840000BCBE
:0200850001BCBC
:0200860001D0A7
:020087000098DF
:0200880000076F
:02008900012450
:02008A00011B58
:02008B00009ED5
:02008C000189E8
:02008D0000D1A0
:02008E0000C8A8
:02008F000196D8
:0200900000125C
:0200910000D09D
:020092000184E7
:0200930000A6C5
:02009400016108
:0200950001C4A4
:02009600014027
:02009700016600
:0200980000ED79
:0200990000FF66
:02009A0000C79D
:02009B0001461C
:02009C00016BF6
:02009D00006DF4
:02009E00006DF3
:02009F0001530B
:0200A00001F667
:0200A100017FDD
:0200A20001114A
:0200A30001B1A9
:0200A400006FEB
:0200A50000CF8A
:0200A6000175E2
:0200A700010A4C
:0200A8000169EC
:0200A900010153
:0200AA000080D4
:0200AB0000B3A0
:0200AC0000A8AA
:0200AD00001140
:0200AE0001DC73
:0200AF00010D41
:0200B00001D479
:0200B10000DD70
:0200B20000DE6E
:0200B300005FEC
:0200B40001BE8B
:0200B500016ADE
:0200B600005EEA
:0200B70000D176
:0200B800012421
:0200B900010440
:0200BA0000CA7A
:0200BB00011032
:0200BC000081C1
:0200BD0001DF61
:0200BE000041FF
:0200BF000189B5
:0200C00001112C
:0200C100008FAE
:0200C200012C0F
:0200C30000D566
:0200C40001C475
:0200C500003405
:0200C6000058E0
:0200C700007CBB
:0200C800015DD8
:0200C90000BB7A
:0200CA0000191B
:0200CB0001B082
:0200CC00019998
:0200CD00012B05
:0200CE000084AC
:0200CF00004FE0
:0200D00001B479
:0200D100007EAF
:0200D200016FBC
:0200D30000CE5D
:0200D400011910
:0200D50001F038
:0200D6000135F2
:0200D700004ED9
:0200D80001A481
:0200D900004DD8
:0200DA0001E53E
:0200DB00009390
:0200DC000147DA
:0200DD00001A07
:0200DE0000E63A
:0200DF00000718
:0200E000014CD1
:0200E100011408
:0200E200019982
:0200E3000069B2
:0200E400000E0C
:0200E50001D840
:0200E60001E235
:0200E700013BDB
:0200E8000038DE
:0200E90000F91C
:0200EA000015FF
:0200EB000171A1
:0200EC000144CD
:0200ED000143CD
:0200EE0001FB14
:0200EF00004FC0
:0200F0000128E5
:0200F1000147C5
:0200F2000147C4
:0200F30001C446
:0200F40001AB5E
:0200F50000B455
:0200F600000701
:0200F700010402
:0200F8000037CF
:0200F900007491
:0200FA000016EE
:0200FB00006D96
:0200FC00014DB4
:0200FD0000C43D
:0200FE0000FF01
:0200FF000048B7
:020100000137C5
:020101000104F7
:0201020001FCFE
:020103000020DA
:0201040001EA0E
:020105000134C3
:020106000044B3
:020107000104F1
:020108000053A2
:0201090001876C
:02010A000007EC
:02010B000116DB
:02010C0001B63A
:02010D0000B838
:02010E0000E906
:02010F00016588
:020110000011DC
:02011100002EBE
:02011200011CCE
:020113000132B7
:0201140000C425
:020115000143A4
:02011600008463
:020117000027BF
:02011800011FC5
:02011900015C87
:02011A00019B47
:02011B00014B96
:02011C0000A23F
:02011D0000C818
:02011E000026B9
:02011F0000D905
:02012000013CA0
:02012100009F3D
:020122000010CB
:02012300015287
:0201240001E5F3
:0201250000399F
:0201260000FDDA
:02012700008650
:02012800006471
:020129000104CF
:02012A00017F53
:02012B00017E53
:02012C0001448C
:02012D0001CF00
:02012E00011BB3
:02012F0000814D
:02013000013894
:0201310000ECE0
:02013200007754
:0201330000B812
:02013400018642
:0201350000BD0B
:02013600016B5B
:02013700011BAA
:0201380001368E
:0201390000893B
:02013A0000DCE7
:02013B0000B50D
:02013C0001229E
:02013D0001B30C
:02013E0000843B
:02013F0000625C
:020140000110AC
:0201410001A813
:02014200010FAB
:02014300008E2C
:02014400007C3D
:02014500010CAB
:02014600012F87
:02014700018E27
:0201480001A90B
:020149000104AF
:02014A0000753E
:02014B00018A27
:02014C000007AA
:02014D00017F30
:02014E000108A6
:02014F000104A9
:020150000107A5
:0201510001D3D8
:0201520001703A
:02015300015950
:0201540000C4E5
:020155000104A3
:0201560001FEA8
:0201570000BBEB
:02015800001095
:02015900016043
:02015A00017131
:02015B00016140
:02015C0001A7F9
:02015D00013867
:02015E0000BAE5
:02015F0001D1CC
:02016000008716
:0201610000C5D7
:0201620001E5B5
:02016300005E3C
:02016400018117
:02016500015344
:02016600007423
:0201670000286E
:02016800006E27
:02016900003064
:02016A0001840E
:02016B00001082
:02016C0001721E
:02016D0001CCC3
:02016E00005F30
:02016F00003B53
:02017000010785
:0201710001DCAF
:02017200003952
:02017300010485
:0201740001AADE
:02017500014D3A
:02017600000582
:02017700003E48
:02017800002461
:02017900012360
:02017A00017E04
:02017B0001F988
:02017C000199E7
:02017D0001750A
:02017E00009AE5
:02017F00000876
:0201800000BEBF
:0201810001DC9F
:0201820000D6A5
:0201830001BDBC
:02018400019ADE
:0201850000DD9B
:0201860001DD99
:02018700016D08
:020188000185EF
:0201890001F87B
:02018A0001472B
:02018B00017BF6
:02018C00011957
:02018D0000264A
:02018E0001402E
:02018F0000C4AA
:02019000000A63
:0201910000B3B9
:02019200000A61
:02019300006FFB
:0201940000E287
:020195000092D6
:020196000084E3
:02019700014E17
:0201980000DD88
:02019900005212
:02019A0001EB77
:02019B0001045D
:02019C0000233E
:02019D00011847
:02019E00012E30
:02019F000168F5
:0201A00000DC81
:0201A100010C4F
:0201A200005FFC
:0201A30000A3B7
:0201A40001A3B5
:0201A50001CB8C
:0201A60000D97E
:0201A70000ABAB
:0201A800000C49
:0201A90001A0B3
:0201AA0000D47F
:0201AB0000E66C
:0201AC0001FE52
:0201AD00004C04
:0201AE0001420C
:0201AF0000D579
:0201B00000D479
:0201B100004B01
:0201B20000F358
:0201B30000B694
:0201B400014206
:0201B50001A7A0
:0201B600000740
:0201B7000155F0
:0201B800012420
:0201B9000182C1
:0201BA0000E360
:0201BB00001C26
:0201BC00006BD6
:0201BD000191AE
:0201BE0001F24C
:0201BF0000D06E
:0201C000008AB3
:0201C10000EC50
:0201C2000193A7
:0201C3000057E3
:0201C40001C474
:0201C50001AC8B
:0201C60001B581
:0201C70000072F
:0201C80001F93B
:0201C90000D65E
:0201CA0000AD86
:0201CB0001270A
:0201CC000079B8
:0201CD000059D7
:0201CE0001022C
:0201CF000047E7
:0201D00000B479
:0201D10000BB71
:0201D20001EF3B
:0201D3000049E1
:0201D4000180A8
:0201D500006BBD
:0201D600006BBC
:0201D70000EE38
:0201D80000EF36
:0201D900009490
:0201DA0000CA59
:0201DB0000F42E
:0201DC0000AB76
:0201DD0001809F
:0201DE0000D748
:0201DF0001BF5E
:0201E00000E934
:0201E100009983
:0201E20000B269
:0201E30000C555
:0201E400002EEB
:0201E5000043D5
:0201E600008493
:0201E70000E333
:0201E800000F06
:0201E90001CD46
:0201EA000162B0
:0201EB00000210
:0201EC00014BC5
:0201ED0001D43B
:0201EE0001BC52
:0201EF00014DC0
:0201F00001A864
:0201F100017A91
:0201F20001C04A
:0201F300009476
:0201F400000702
:0201F500010403
:0201F6000042C5
:0201F700013CC9
:0201F8000138CC
:0201F9000057AD
:0201FA0000B152
:0201FB00017E83
:0201FC000041C0
:0201FD00000FF1
:0201FE0000CA35
:0201FF00007B83
:0202000000AF4D
:0202010001D624
:0202020000C03A
:02020300000FEA
:0202040001C433
:0202050000D027
:0202060000AC4A
:020207000102F2
:02020800015D96
:0202090000E112
:02020A000015DD
:02020B0000AA47
:02020C00015C93
:02020D0001D01E
:02020E0000846A
:02020F0000C32A
:0202100000A844
:020211000128C2
:02021200002AC0
:0202130000A049
:0202140000B236
:0202150001F1F5
:02021600019253
:0202170000B134
:0202180000A440
:02021900015092
:02021A00018B56
:02021B00018B55
:02021C0001548B
:02021D00013F9F
:02021E00007866
:02021F00019745
:020220000133A8
:02022100008B50
:02022200002EAC
:0202230000B326
:02022400017661
:02022500016175
:0202260001BC19
:020227000104D0
:0202280001D300
:0202290001C40E
:02022A00007062
:02022B00006170
:02022C000020B0
:02022D0001408E
:02022E00017459
:02022F0001B11B
:02023000015477
:02023100015674
:02023200018445
:0202330001BF09
:0202340001497E
:020235000017B0
:02023600002D99
:020237000100C4
:0202380000E1E3
:0202390000764D
:02023A00003290
:02023B0001D8E8
:02023C00000EB2
:02023D0001EDD1
:02023E00009F1F
:02023F000104B8
:0202400001605B
:02024100010FAB
:02024200004278
:0202430001C4F4
:0202440000C9EF
:0202450000BCFB
:02024600012590
:0202470001862E
:0202480001476C
:0202490001B002
:02024A0001DDD4
:02024B0000C5EC
:02024C0001446B
:02024D00002D82
:02024E0000624C
:02024F0000F9B4
:02025000016249
:02025100019614
:02025200005456
:02025300015850
:0202540001A8FF
:0202550001DFC7
:02025600008224
:02025700005C49
:0202580000E2C2
:02025900009E05
:02025A00019F02
:02025B0001F3AD
:02025C00002878
:02025D0001D3CB
:02025E00001985
:02025F00004E4F
:02026000008616
:02026100004358
:02026200011485
:02026300014F49
:0202640000C5D3
:02026500017E18
:02026600008412
:0202670000ABEA
:0202680001642F
:02026900019AF8
:02026A00008E04
:02026B0000C1D0
:02026C0000DFB1
:02026D0000B8D7
:02026E0000345A
:02026F00005934
:02027000005438
:0202710000800B
:02027200018405
:0202730001691F
:0202740000BBCD
:0202750001B6D0
:02027600016C19
:02027700010480
:0202780000EC98
:02027900002162
:02027A00017011
:02027B0000CAB7
:02027C000094EC
:02027D0001047A
:02027E00017EFF
:02027F0001FB81
:02028000007A02
:02028100006C0F
:0202820000304A
:020283000093E6
:02028400005028
:0202850001A0D6
:0202860001C6AF
:0202870000A8CD
:02028800006B09
:0202890001135F
:02028A00002F43
:02028B000082EF
:02028C0001BCB3
:02028D00002E41
:02028E00008DE1
:02028F0001B5B7
:020290000074F8
:02029100015C0E
:020292000094D6
:0202930001B9AF
:0202940001BCAB
:0202950000CA9D
:0202960000382E
:020297000072F3
:0202980000F76D
:02029900005310
:02029A00002240
:02029B0001164A
:02029C00010857
:02029D00010658
:02029E00016DF0
:02029F00000657
:0202A000002B31
:0202A10000E873
:0202A200013128
:0202A300000D4C
:0202A40000D385
:0202A5000163F3
:0202A600006AEC
:0202A70001A8AC
:0202A800004014
:0202A90001044E
:0202AA0000D082
:0202AB0000E46D
:0202AC0001440B
:0202AD0001212D
:0202AE0001410C
:0202AF00006FDE
:0202B00001F15A
:0202B100000348
:0202B2000053F7
:0202B3000087C2
:0202B40000C484
:0202B500003E09
:0202B60001C87D
:0202B700006BDA
:0202B80000063E
:0202B90001EB57
:0202BA000184BD
:0202BB0001033D
:0202BC00000B35
:0202BD000068D7
:0202BE0000C777
:0202BF000170CC
:0202C000010D2E
:0202C1000170CA
:0202C2000059E1
:0202C300004DEC
:0202C4000167D0
:0202C500002F08
:0202C600007FB7
:0202C700005CD9
:0202C80000E450
:0202C9000137FB
:0202CA000164CD
:0202CB000162CE
:0202CC0000062A
:0202CD0000012E
:0202CE0000E04E
:0202CF00001419
:0202D00001FB30
:0202D10000F03B
:0202D200005DCD
:0202D30001D256
:0202D400002404
:0202D5000087A0
:0202D60001B76E
:0202D700012202
:0202D800000D17
:0202D90000CF54
:0202DA0001FF22
:0202DB0001AF71
:0202DC0000AC74
:0202DD0001BE60
:0202DE0000ED31
:0202DF0000CD50
:0202E00001CC4F
:0202E100018298
:0202E200000911
:0202E3000157C1
:0202E40000A078
:0202E50001AF67
:0202E6000059BD
:0202E70001DC38
:0202E8000055BF
:0202E9000030E3
:0202EA00019E73
:0202EB00000F02
:0202EC0001B25D
:0202ED0000F51A
:0202EE00000B03
:0202EF00007B92
:0202F00000A567
:0202F100015CAE
:0202F200017495
:0202F3000162A6
:0202F40000D533
:0202F5000058AF
:0202F60000F610
:0202F70001E222
:0202F8000026DE
:0202F900004FB4
:0202FA000023DF
:0202FB000056AB
:0202FC000048B8
:0202FD0001C03E
:0202FE0000B24C
:0202FF000102FA
:02030000004DAE
:0203010001BA3F
:0203020001C731
:02030300001DDB
:02030400016B8B
:02030500013FB6
:0203060001E50F
:02030700004BA9
:0203080001E40E
:0203090000965C
:02030A0000A150
:02030B0000955B
:02030C000144AA
:02030D0001B736
:02030E00012BC1
:02030F00010FDC
:020310000106E4
:0203110000EBFF
:0203120000D811
:020313000134B3
:0203140000C423
:0203150000B72F
:0203160000C124
:020317000133B0
:020318000115CD
:02031900004999
:02031A0001AD33
:02031B00013DA2
:02031C0000449B
:02031D0001825B
:02031E00015E7E
:02031F00001CC0
:02032000000DCE
:0203210001D009
:02032200008752
:02032300001FB9
:02032400018A4C
:02032500010DC8
:02032600008451
:0203270001B221
:02032800008C47
:0203290001923F
:02032A00001DB4
:02032B0000BD13
:02032C0001943A
:02032D0000B41A
:02032E0000804D
:02032F000012BA
:0203300001A228
:0203310000F3D7
:0203320001BD0B
:020333000022A6
:02033400011FA7
:020335000104C1
:0203360001EDD7
:02033700003E86
:0203380001249E
:020339000118A9
:02033A0000625F
:02033B0001A11E
:02033C00005A65
:02033D0001833A
:02033E000012AB
:02033F00019526
:0203400000C6F5
:02034100002595
:02034200009227
:0203430001F0C7
:0203440001C4F2
:0203450001D9DC
:0203460000E8CD
:0203470001446F
:0203480001852D
:0203490001347D
:02034A0001862A
:02034B000008A8
:02034C00015B53
:02034D0001F0BD
:02034E0000C0ED
:02034F0000119B
:02035000003477
:02035100004D5D
:02035200011A8E
:0203530001BCEB
:02035400008720
:0203550001CDD8
:0203560000B5F0
:02035700000D97
:02035800012181
:0203590000980A
:02035A00014D53
:02035B0001306F
:02035C00002778
:02035D0000F2AC
:02035E00001588
:02035F0000BAE2
:0203600001A5F5
:02036100001B7F
:0203620000D9C0
:02036300010493
:02036400011D79
:0203650001FE97
:0203660001D0C4
:02036700010A89
:02036800017121
:02036900011B76
:02036A00016F21
:02036B0000315F
:02036C00008708
:02036D00000985
:02036E0001C9C3
:02036F00016922
:02037000002B60
:02037100000684
:0203720000BFCA
:02037300010285
:02037400017C0A
:0203750001FC89
:020376000094F1
:0203770000BBC9
:02037800007112
:02037900016A17
:02037A0000354C
:02037B00016817
:02037C0000D3AC
:02037D0000ABD3
:02037E0000C0BD
:02037F0001B1CA
:02038000002655
:02038100000674
:0203820001B6C2
:02038300015423
:0203840001FB7B
:02038500010471
:0203860001482C
:02038700006C08
:0203880000244F
:020389000184ED
:02038A00004B26
:02038B0000313F
:02038C00003936
:02038D00000866
:02038E00013933
:02038F0000B1BB
:0203900000006B
:0203910000B9B1
:0203920001D098
:0203930000FF69
:02039400002047
:02039500009CCA
:0203960000C99C
:0203970001560D
:0203980000B7AC
:02039900008FD3
:02039A0001213F
:02039B0000BFA1
:02039C00013E20
:02039D00016CF1
:02039E000084D9
:02039F0001A8B3
:0203A000015CFE
:0203A100010455
:0203A2000061F8
:0203A300011146
:0203A400001641
:0203A500015401
:0203A600011F35
:0203A70001BE95
:0203A80000F65D
:0203A900019BB6
:0203AA00011838
:0203AB0001044B
:0203AC0000B29D
:0203AD0000C688
:0203AE0000C885
:0203AF0000C389
:0203B00000D477
:0203B10000D179
:0203B20001DC6C
:0203B300000C3C
:0203B400000641
:0203B50000A4A2
:0203B600009AAB
:0203B700001B29
:0203B8000082C1
:0203B90001FF42
:0203BA00013E02
:0203BB00011827
:0203BC000044FB
:0203BD00010637
:0203BE0000E35A
:0203BF000056E6
:0203C0000088B3
:0203C100010831
:0203C2000184B4
:0203C3000188AF
:0203C400003700
:0203C500001323
:0203C60000B580
:0203C70000969E
:0203C80000D261
:0203C90000EE44
:0203CA0000A48D
:0203CB0001A689
:0203CC000170BE
:0203CD00011419
:0203CE00010527
:0203CF0000EF3D
:0203D0000181A9
:0203D1000049E1
:0203D2000184A4
:0203D30001F92E
:0203D40000D057
:0203D500016EB7
:0203D6000150D4
:0203D70001EA39
:0203D80000879C
:0203D9000029F9
:0203DA00016DB3
:0203DB000070B0
:0203DC0000B36C
:0203DD00010419
:0203DE000168B4
:0203DF00010417
:0203E000000C0F
:0203E10001AF6A
:0203E200000712
:0203E300000B0D
:0203E400018294
:0203E50000F620
:0203E60001A96B
:0203E700019281
:0203E800014EC4
:0203E9000021F1
:0203EA0001EE22
:0203EB000137D8
:0203EC00011DF1
:0203ED00015BB2
:0203EE00004FBE
:0203EF0000FA12
:0203F000010604
:0203F10000CB3F
:0203F200015BAD
:0203F300008880
:0203F40000EE19
:0203F5000007FF
:0203F600002FD6
:0203F70000BB49
:0203F8000006FD
:0203F90001877A
:0203FA0001DF21
:0203FB0000F709
:0203FC00000CF3
:0203FD0001D12C
:0203FE00008479
:0203FF000008F4
:00000001ff
