:020000040000FA
:020000000012EC
:020001000117E5
:02000200004FAD
:02000300008774
:02000400000AF0
:02000500014AAE
:020006000153A4
:0200070000CC2B
:02000800006393
:0200090001965E
:02000A00016B88
:02000B00010DE5
:02000C00006A88
:02000D0000E40D
:02000E0001E906
:02000F0001C826
:02001000000BE3
:02001100007479
:02001200012DBE
:0200130001EEFC
:02001400002DBD
:0200150001F4F4
:02001600006385
:02001700008A5D
:02001800019A4B
:020019000004E1
:02001A0001756E
:02001B00001AC9
:02001C0000A73B
:02001D0001419F
:02001E00000BD5
:02001F00018559
:0200200001607D
:0200210000F4E9
:0200220001D209
:02002300005388
:020024000025B5
:0200250000E3F6
:0200260000C414
:0200270000C611
:02002800019E37
:02002900001BBA
:02002A00019E35
:02002B0000D5FE
:02002C0001FED3
:02002D0001C709
:02002E0001715E
:02002F0001A12D
:0200300000D4FA
:0200310001C606
:020032000024A8
:0200330000C704
:0200340000903A
:02003500009732
:0200360000FBCD
:020037000101C5
:0200380001E4E1
:0200390001269E
:02003A00013093
:02003B00018E34
:02003C0001BF02
:02003D00016E52
:02003E0000F6CA
:02003F000002BD
:0200400001CAF3
:0200410001A913
:0200420001AF0C
:0200430000E3D8
:0200440001CAEF
:0200450000E2D7
:02004600011D9A
:02004700004374
:0200480001486D
:02004900011B99
:02004A0000A410
:02004B00017F33
:02004C0000555D
:02004D00014769
:02004E00004D63
:02004F0001C4EA
:0200500000E0CE
:0200510001BCF0
:02005200006349
:02005300008229
:02005400008D1D
:02005500017335
:0200560001A304
:02005700010A9C
:02005800019A0B
:0200590001CCD8
:02005A0000C7DD
:02005B0001168C
:02005C0000BDE5
:02005D0001D8C8
:02005E0000DDC3
:02005F0000F9A6
:0200600000900E
:02006100019309
:0200620001D1CA
:02006300015D3D
:0200640000FD9D
:02006500006E2B
:0200660000DDBB
:0200670001395D
:0200680000880E
:02006900004550
:02006A0000E5AF
:02006B0001D5BD
:02006C0000385A
:02006D0001137D
:02006E000197F8
:02006F0001A5E9
:0200700001F796
:0200710000A6E7
:02007200016F1C
:0200730001DDAD
:0200740001F693
:02007500004A3F
:02007600007216
:02007700013B4B
:02007800013154
:0200790000BACB
:02007A000091F3
:02007B0000097A
:02007C00016A17
:02007D0000275A
:02007E00014F30
:02007F0001D0AE
:0200800000BDC1
:0200810001C6B6
:02008200013744
:0200830000B6C5
:02008400012653
:02008500013741
:020086000195E2
:02008700015A1C
:0200880000185E
:02008900005E17
:02008A00000B69
:02008B0000581B
:02008C0000551D
:02008D00014F21
:02008E0000A8C8
:02008F0000C1AE
:0200900000A3CB
:0200910000C6A7
:02009200010764
:02009300011C4E
:0200940000B6B4
:0200950001FB6D
:020096000198CF
:02009700012442
:02009800016AFB
:020099000090D5
:02009A00007AEA
:02009B0000FD66
:02009C00002240
:02009D000084DD
:02009E000163FC
:02009F00011D41
:0200A00001431A
:0200A10000ED70
:0200A20000FB61
:0200A300005CFF
:0200A400004317
:0200A500007BDE
:0200A600017CDB
:0200A70000E770
:0200A800017FD6
:0200A90001B89C
:0200AA0001A5AE
:0200AB000174DE
:0200AC00019BB6
:0200AD0000EF62
:0200AE0001113E
:0200AF000095BA
:0200B000014904
:0200B1000067E6
:0200B20000DA72
:0200B3000167E3
:0200B40000EE5C
:0200B50000BF8A
:0200B60000AE9A
:0200B700016FD7
:0200B80000A6A0
:0200B900014FF5
:0200BA0001D073
:0200BB00004FF4
:0200BC0000D36F
:0200BD000187B9
:0200BE0000F848
:0200BF00003F00
:0200C000013B02
:0200C10000C07D
:0200C20000E656
:0200C300013DFD
:0200C40000C971
:0200C5000094A5
:0200C600018EA9
:0200C70000EE49
:0200C800007DB9
:0200C900008EA7
:0200CA000047ED
:0200CB0001F43E
:0200CC0001260B
:0200CD0000BE73
:0200CE000174BB
:0200CF0001BA74
:0200D000001816
:0200D100014FDD
:0200D20000AB81
:0200D30001E446
:0200D40001A782
:0200D50001B672
:0200D60000C95F
:0200D700012CFA
:0200D80000B571
:0200D90000ED38
:0200DA00014BD8
:0200DB00018A98
:0200DC0001879A
:0200DD0001BC64
:0200DE00013DE2
:0200DF0001FE20
:0200E00000F42A
:0200E100004BD2
:0200E20001A07B
:0200E300001605
:0200E400006AB0
:0200E500017A9E
:0200E600001BFD
:0200E7000150C6
:0200E80000AA6C
:0200E9000042D3
:0200EA0000EB29
:0200EB0000789B
:0200EC0001C54C
:0200ED0000F918
:0200EE00019778
:0200EF0000D53A
:0200F000019479
:0200F10000B15C
:0200F200010CFF
:0200F30001BD4D
:0200F4000051B9
:0200F50000E623
:0200F6000042C6
:0200F7000016F1
:0200F8000113F2
:0200F9000114F0
:0200FA00015CA7
:0200FB0000986B
:0200FC00011BE6
:0200FD00011FE1
:0200FE0000A15F
:0200FF0001E816
:02010000016399
:0201010001D823
:0201020000A952
:0201030001F108
:02010400008B6E
:020105000053A5
:02010600005D9A
:0201070000DD19
:02010800018F65
:0201090001A251
:02010A00001ED5
:02010B0001B73A
:02010C000139B7
:02010D00017A75
:02010E00019C52
:02010F000130BD
:020110000033BA
:0201110001717A
:02011200005794
:02011300016B7E
:02011400002ABF
:02011500015394
:0201160000FAED
:0201170000A244
:02011800017272
:0201190000568E
:02011A0001EAF8
:02011B0000FFE3
:02011C0000627F
:02011D000125BA
:02011E0000C916
:02011F00012BB2
:0201200000FAE3
:02012100017467
:0201220000E4F7
:02012300006179
:02012400005089
:02012500004791
:02012600011CBA
:02012700015D78
:0201280000F0E5
:0201290001A52E
:02012A00010EC4
:02012B0000C60C
:02012C00006A67
:02012D0001CE01
:02012E000120AE
:02012F000102CB
:02013000008746
:02013100017B50
:02013200008249
:020133000113B6
:02013400019E2A
:0201350001BE09
:02013600005077
:02013700016D58
:0201380000BB0A
:0201390001566D
:02013A00003390
:02013B0001C8F9
:02013C0000BC05
:02013D00018639
:02013E0000B20D
:02013F000115A8
:0201400001E1DB
:02014100008C30
:02014200013981
:02014300008F2B
:020144000011A8
:0201450001FEB9
:02014600017B3B
:0201470000EBCB
:0201480001A113
:02014900004E66
:02014A0000F0C3
:02014B0000F5BD
:02014C00015C54
:02014D0000D5DB
:02014E0001B6F8
:02014F0000436B
:0201500000A00D
:02015100010AA1
:0201520001D2D8
:02015300019019
:02015400013474
:020155000003A5
:0201560001D6D0
:02015700012580
:02015800011E86
:0201590001ACF7
:02015A0001B7EB
:02015B0000FBA7
:02015C0000772A
:02015D00003070
:02015E00017A24
:02015F0001128B
:02016000010A92
:02016100010398
:0201620000504B
:0201630001DDBC
:02016400007425
:0201650000A7F1
:0201660001276F
:02016700009EF8
:0201680001D1C3
:0201690001BCD7
:02016A0001DEB4
:02016B0001D7BA
:02016C0001F39D
:02016D0000FD93
:02016E0000602F
:02016F0000513D
:0201700001CEBE
:0201710000CBC1
:02017200001774
:0201730001BDCC
:0201740000C9C0
:02017500018205
:0201760001A2E4
:02017700002C5A
:02017800018CF8
:0201790001D2B1
:02017A0000A8DB
:02017B0001740D
:02017C0001562A
:02017D0001403F
:02017E0000344B
:02017F00012459
:0201800001215B
:02018100015823
:02018200014436
:0201830000AFCB
:0201840001C4B4
:02018500012255
:0201860001FB7B
:02018700001E58
:02018800000075
:0201890000F87C
:02018A00010270
:02018B0001274A
:02018C0001630D
:02018D0000CBA5
:02018E000175F9
:02018F0000C1AD
:02019000015616
:02019100012B40
:020192000188E2
:02019300016207
:02019400010860
:020195000079EF
:020196000178EE
:020197000168FD
:02019800018DD7
:0201990001085B
:02019A00010062
:02019B000093CF
:02019C0000F36E
:02019D000182DD
:02019E0001C995
:02019F0001D08D
:0201A00001A9B3
:0201A10000114B
:0201A200002734
:0201A30001A2B7
:0201A40000C297
:0201A5000073E5
:0201A6000090C7
:0201A700017DD8
:0201A80000ACA9
:0201A9000059FB
:0201AA0001DA78
:0201AB000199B8
:0201AC0000EE63
:0201AD00008CC4
:0201AE00004906
:0201AF000162EB
:0201B000005EEF
:0201B100011D2E
:0201B200011832
:0201B300014EFB
:0201B400004306
:0201B500002B1D
:0201B60000FE49
:0201B7000076D0
:0201B80000182D
:0201B900014EF5
:0201BA00017EC4
:0201BB00000C36
:0201BC000072CF
:0201BD00002818
:0201BE00010935
:0201BF0001003D
:0201C000004DF0
:0201C10001A299
:0201C20001ED4D
:0201C300009AA0
:0201C40001C870
:0201C50001DD5A
:0201C600001E19
:0201C700004DE9
:0201C80001072D
:0201C90001A48F
:0201CA000037FC
:0201CB0001F73A
:0201CC0000DD54
:0201CD0001DD52
:0201CE00010727
:0201CF000185A8
:0201D00001A686
:0201D10000EC40
:0201D200000922
:0201D300012405
:0201D40001A682
:0201D5000050D8
:0201D6000181A5
:0201D70000EC3A
:0201D80000061F
:0201D90001AF74
:0201DA000083A0
:0201DB0000EF33
:0201DC0000F130
:0201DD0000829E
:0201DE00013BE3
:0201DF0000E737
:0201E000010319
:0201E1000138E3
:0201E2000120FA
:0201E3000073A7
:0201E4000121F7
:0201E5000127F0
:0201E60000E334
:0201E70000DE38
:0201E80001FB19
:0201E90001977C
:0201EA000158BA
:0201EB000160B1
:0201EC00007998
:0201ED0001CD42
:0201EE00013DD1
:0201EF00014BC2
:0201F0000119F3
:0201F100009B71
:0201F200008289
:0201F300005AB0
:0201F400008980
:0201F500006A9E
:0201F6000036D1
:0201F7000132D3
:0201F80001B153
:0201F900011CE7
:0201FA00000300
:0201FB000006FC
:0201FC000037CA
:0201FD0000936D
:0201FE0000B649
:0201FF00017687
:0202000000E11B
:0202010000C13A
:020202000009F1
:02020300016791
:020204000103F4
:02020500008572
:020206000154A1
:0202070000767F
:02020800009F55
:02020900005D96
:02020A0001D51C
:02020B000145AB
:02020C0000915F
:02020D0001A04E
:02020E000034BA
:02020F000026C7
:020210000149A2
:02021100018E5C
:0202120000D416
:0202130001499F
:020214000143A4
:020215000142A4
:020216000001E5
:0202170000A045
:02021800007173
:020219000137AB
:02021A000122BF
:02021B0000B62B
:02021C00011CC3
:02021D0001C816
:02021E0000F3EB
:02021F00013BA1
:020220000005D7
:02022100013E9C
:02022200019940
:02022300007861
:020224000006D2
:020225000133A3
:0202260001C114
:0202270000686D
:0202280000A034
:020229000106CC
:02022A0000E9E9
:02022B0000E2EF
:02022C0000666A
:02022D000001CE
:02022E00016B62
:02022F00017359
:020230000026A6
:0202310000B318
:02023200018049
:02023300005574
:0202340000398F
:02023500019036
:02023600000ABC
:0202370000CEF7
:02023800008B39
:0202390001388A
:02023A00005C66
:02023B00012D93
:02023C0000437D
:02023D0001DAE4
:02023E0001DAE3
:02023F0001D1EB
:0202400000F7C5
:02024100004279
:02024200006C4E
:0202430001F8C0
:02024400011F98
:02024500002F88
:020246000113A2
:0202470001BDF7
:0202480000258F
:02024900000BA8
:02024A00014F62
:02024B0001D1DF
:02024C00017A35
:02024D00004966
:02024E00006E40
:02024F0000218C
:0202500001D1DA
:02025100003477
:02025200000D9D
:02025300009712
:02025400013D6A
:0202550001B8EE
:02025600001F87
:0202570000EDB8
:0202580000FFA5
:02025900019A08
:02025A0000841E
:02025B0000049D
:02025C0000D3CD
:02025D00002B74
:02025E0000118D
:02025F0000D4C9
:0202600001ADEE
:02026100003368
:0202620000F0AA
:0202630000F8A1
:02026400001781
:0202650000FE99
:02026600010194
:0202670000563F
:02026800001084
:0202690000088B
:02026A0001127F
:02026B0000DDB4
:02026C00001F71
:02026D00005A35
:02026E00003C52
:02026F00016626
:02027000006824
:02027100012466
:02027200005B2F
:0202730001FC8C
:02027400012E59
:02027500001671
:02027600005234
:02027700006B1A
:02027800006222
:02027900014B37
:02027A0001BDC4
:02027B0001760A
:02027C00019EE1
:02027D0000A3DC
:02027E00006B13
:02027F00005924
:02028000010774
:0202810000B5C6
:02028200011564
:02028300014434
:02028400000870
:020285000197DF
:0202860001CEA7
:02028700001D58
:020288000189EA
:0202890000D2A1
:02028A00004C26
:02028B0000155C
:02028C0001DF90
:02028D00013C32
:02028E00016706
:02028F000175F7
:02029000003D2F
:02029100005B10
:02029200006BFF
:0202930000C7A2
:0202940001B9AE
:02029500016BFB
:0202960001F372
:02029700017DE7
:02029800000B59
:0202990001B1B1
:02029A000075ED
:02029B000089D8
:02029C0000015F
:02029D00012836
:02029E000060FE
:02029F00002B32
:0202A00001114A
:0202A10001FF5B
:0202A20001D980
:0202A30001E276
:0202A4000171E6
:0202A500003D1A
:0202A600003125
:0202A7000196BE
:0202A80000DC78
:0202A90000EE65
:0202AA0000FC56
:0202AB00009AB7
:0202AC0001C986
:0202AD0000DB74
:0202AE00009FAF
:0202AF000059F4
:0202B00001C685
:0202B100010F3B
:0202B20000EB5F
:0202B3000097B2
:0202B40001DB6C
:0202B500010442
:0202B60000FE48
:0202B700015DE7
:0202B800003311
:0202B900004201
:0202BA00011031
:0202BB0000A39E
:0202BC0001D36C
:0202BD0000221D
:0202BE0001BE7F
:0202BF0001C07C
:0202C00001E457
:0202C100009E9D
:0202C2000163D6
:0202C3000053E6
:0202C4000065D3
:0202C5000194A2
:0202C600007BBB
:0202C70000D85D
:0202C800012C07
:0202C90000E44F
:0202CA000083AF
:0202CB00015DD3
:0202CC0001D05F
:0202CD00012E00
:0202CE0001E24B
:0202CF00014FDD
:0202D00001EF3C
:0202D1000143E7
:0202D20001E643
:0202D300019296
:0202D400010324
:0202D5000043E4
:0202D6000071B5
:0202D70001B173
:0202D800019F84
:0202D90000C75C
:0202DA0001071A
:0202DB00018B95
:0202DC0000A37D
:0202DD0001E935
:0202DE00004BD3
:0202DF0001F923
:0202E0000065B7
:0202E1000073A8
:0202E2000052C8
:0202E300019682
:0202E400010710
:0202E5000124F2
:0202E60001789D
:0202E7000149CB
:0202E8000122F1
:0202E900010B07
:0202EA00007E94
:0202EB0000858C
:0202EC0001957A
:0202ED0001B25C
:0202EE00007D91
:0202EF0000E528
:0202F00001AF5C
:0202F10000F912
:0202F20000B05A
:0202F3000035D4
:0202F400009078
:0202F500006A9D
:0202F600001AEC
:0202F70001AD57
:0202F80000BC48
:0202F90000AB58
:0202FA0000887A
:0202FB00012BD5
:0202FC000112ED
:0202FD0000946B
:0202FE0001B24B
:0202FF000040BD
:0203000001ED0D
:02030100001BDF
:020302000007F2
:0203030000D721
:02030400017581
:0203050000AC4A
:020306000134C0
:0203070001955E
:0203080000589B
:0203090001CF22
:02030A00006988
:02030B0000638D
:02030C0001EB03
:02030D000141AC
:02030E00009D50
:02030F00002EBE
:020310000027C4
:0203110000B931
:02031200003BAE
:020313000108DF
:02031400016581
:0203150001DE07
:020316000102E2
:02031700017271
:020318000004DF
:02031900019E43
:02031A00013AA6
:02031B00002FB1
:02031C0001C01E
:02031D00018855
:02031E00014E8E
:02031F0000F4E8
:0203200000C01B
:020321000101D8
:02032200007960
:0203230001EEE9
:0203240000A82F
:02032500000FC7
:0203260001E6EE
:02032700002EA6
:02032800015A78
:0203290001FED3
:02032A00013898
:02032B00006E62
:02032C00015A74
:02032D000013BB
:02032E000122AA
:02032F00017358
:02033000005F6C
:02033100019831
:02033200016068
:02033300004E7A
:0203340001784E
:02033500006C5A
:02033600013094
:0203370000576D
:0203380000EDD6
:02033900006F53
:02033A0000F4CD
:02033B00012A95
:02033C00002F90
:02033D0001AF0E
:02033E00000FAE
:02033F00002597
:02034000016654
:0203410001E2D7
:02034200005960
:020343000012A6
:0203440000F9BE
:0203450001B203
:0203460001892B
:02034700006054
:0203480000C7EC
:02034900002C86
:02034A0000723F
:02034B00005E52
:02034C00016846
:02034D0001A706
:02034E00001994
:02034F00005755
:0203500000DCCF
:0203510000DECC
:02035200005554
:02035300001494
:0203540001A402
:02035500018124
:0203560000DBCA
:0203570001C7DC
:02035800013B67
:0203590000F0B2
:02035A00018C14
:02035B00009808
:02035C00007F20
:02035D0000940A
:02035E0000F4A9
:02035F0000D9C3
:02036000003C5F
:02036100002F6B
:02036200009405
:02036300004355
:0203640001296D
:0203650000098D
:0203660000B7DE
:02036700000B89
:0203680001D1C1
:0203690000CBC7
:02036A0000E0B1
:02036B0000E4AC
:02036C0000CBC4
:02036D00017617
:02036E0001018B
:02036F00007A12
:02037000000E7D
:02037100010089
:0203720001A5E3
:02037300016621
:0203740000E4A3
:0203750001D4B1
:02037600010084
:02037700005C28
:0203780001136F
:02037900015E23
:02037A0000B0D1
:02037B0001BDC2
:02037C00003A45
:02037D00012D50
:02037E0000CFAE
:02037F000094E8
:02038000010F6B
:02038100002852
:0203820000F287
:0203830001D89F
:02038400006E09
:020385000186EF
:02038600015A1A
:02038700014132
:02038800000D66
:0203890001B8B9
:02038A000187E9
:02038B0000224E
:02038C000191DD
:02038D0001105D
:02038E00012F3D
:02038F00000765
:0203900000E08B
:02039100006802
:0203920000C4A5
:0203930001481F
:0203940000F077
:0203950001DA8B
:0203960001B1B3
:02039700018FD4
:0203980001DF83
:020399000093CF
:02039A0000FA67
:02039B0001E877
:02039C00019BC3
:02039D0001B7A6
:02039E000167F5
:02039F00015803
:0203A00001ADAD
:0203A10001FC5D
:0203A2000160F8
:0203A300008ACE
:0203A4000185D1
:0203A500001442
:0203A600015004
:0203A70001F45F
:0203A800005AF9
:0203A900003D15
:0203AA00010E42
:0203AB0001BC93
:0203AC0000CB84
:0203AD000050FE
:0203AE00001736
:0203AF00014308
:0203B00000E16A
:0203B1000152F7
:0203B20000D673
:0203B300011037
:0203B400016ED8
:0203B50000FA4C
:0203B600005AEB
:0203B70001E85B
:0203B80001A89A
:0203B900012C15
:0203BA0001D46C
:0203BB0000B28E
:0203BC00006AD5
:0203BD000166D7
:0203BE0001C379
:0203BF00015AE1
:0203C00001AE8C
:0203C10001FC3D
:0203C200014BED
:0203C3000049EF
:0203C400018DA9
:0203C500012D08
:0203C6000137FD
:0203C700016CC7
:0203C800014FE3
:0203C900003DF5
:0203CA00012C04
:0203CB00011B14
:0203CC0000B17E
:0203CD00005DD1
:0203CE000082AB
:0203CF00012209
:0203D0000049E2
:0203D10001AE7B
:0203D20000F336
:0203D300018C9B
:0203D40000C661
:0203D50001C560
:0203D60001998B
:0203D700012BF8
:0203D800013AE8
:0203D900007AA8
:0203DA000173AD
:0203DB00008E92
:0203DC000028F7
:0203DD00008797
:0203DE0001D14B
:0203DF000025F7
:0203E00001809A
:0203E10001D544
:0203E200010E0A
:0203E300010116
:0203E400016CAA
:0203E500000F07
:0203E60000B560
:0203E70000EC28
:0203E8000072A1
:0203E90000DB37
:0203EA0001D43C
:0203EB0000FA16
:0203EC0001D03E
:0203ED000015F9
:0203EE00015DAF
:0203EF00014FBC
:0203F000018F7B
:0203F10001E227
:0203F20001F414
:0203F300018780
:0203F400008E79
:0203F50000BF47
:0203F6000022E3
:0203F70000AF55
:0203F800007F84
:0203F90001A160
:0203FA00006A97
:0203FB000103FC
:0203FC0001F40A
:0203FD0001AF4E
:0203FE0000C13C
:0203FF0001ED0E
:00000001ff
