:020000040000FA
:0200000001936A
:02000100008F6E
:02000200018774
:0200030000A655
:0200040001DF1A
:0200050000F702
:020006000027D1
:02000700014FA7
:0200080000777F
:0200090001C034
:02000A000115DE
:02000B00006F84
:02000C0001C031
:02000D000111DF
:02000E00007779
:02000F0001D915
:0200100001618C
:0200110000C02D
:02001200005E8E
:0200130001D812
:02001400016584
:0200150000E702
:02001600009355
:02001700002ABD
:0200180001E500
:02001900016E76
:02001A000134AF
:02001B0000E5FE
:02001C0000A939
:02001D00007B66
:02001E00003CA4
:02001F00000BD4
:0200200001E7F6
:0200210001CB11
:0200220001A13A
:02002300018159
:02002400017A5F
:02002500018355
:02002600016D6A
:02002700017462
:02002800017B5A
:02002900017D57
:02002A00019B38
:02002B0001AD25
:02002C0001D7FA
:02002D0001EDE3
:02002E000016BA
:02002F00004A85
:0200300000834B
:0200310000C30A
:0200320000E7E5
:02003300012B9F
:02003400017158
:0200350001D2F6
:020036000019AF
:02003700007453
:0200380000D3F3
:02003900014381
:02003A00019F24
:02003B00001FA4
:02003C00008E34
:02003D000103BD
:02003E00018837
:02003F0001F7C7
:02004000007648
:020041000116A6
:0200420001A615
:02004300003487
:0200440000D4E6
:02004500017B3D
:020046000018A0
:0200470000A90E
:0200480001694C
:020049000011A4
:02004A0000CAEA
:02004B0001852D
:02004C0000446E
:02004D0000F4BD
:02004E0001BFF0
:02004F0000A10E
:02005000015558
:02005100004766
:020052000107A4
:020053000006A5
:0200540000CBDF
:0200550001D0D8
:0200560000B0F8
:0200570001990D
:02005800008F17
:0200590001762E
:02005A00008222
:02005B00017A28
:02005C0000831F
:02005D00018D13
:02005E00008E12
:02005F0001A1FD
:0200600000C3DB
:0200610001DAC2
:0200620000F4A8
:02006300001289
:02006400012E6B
:02006500005D3C
:02006600018A0D
:0200670000B6E1
:0200680001E6AF
:02006900013460
:02006A00005242
:02006B000196FC
:02006C0000E4AE
:02006D00001A77
:02006E00016E21
:02006F0000B8D7
:02007000000E80
:0200710001721A
:0200720000B6D6
:02007300001D6E
:02007400017613
:0200750000E6A3
:02007600004147
:0200770001B9CD
:02007800011F66
:020079000094F1
:02007A00000480
:02007B000183FF
:02007C0000F48E
:02007D00006D14
:02007E0001F48B
:02007F0001720C
:02008000010578
:02008100007D00
:02008200002557
:0200830001B0CA
:02008400014633
:0200850000DB9E
:020086000081F7
:02008700001067
:0200880001AFC6
:0200890001660E
:02008A00010073
:02008B0000ACC7
:02008C00007101
:02008D00000968
:02008E0001D699
:02008F00017BF3
:02009000014924
:0200910001006C
:0200920000BFAD
:020093000070FB
:02009400004129
:02009500000A5F
:0200960001D394
:0200970001AABC
:020098000175F0
:02009900015212
:02009A0001263D
:02009B0000FB68
:02009C0000E181
:02009D0000BEA3
:02009E0000AAB6
:02009F000095CA
:0200A0000072EC
:0200A100005706
:0200A200004D0F
:0200A300003A21
:0200A400003B1F
:0200A500002633
:0200A600002236
:0200A700000A4D
:0200A800001442
:0200A900000A4B
:0200AA0000163E
:0200AB0000252E
:0200AC0000242E
:0200AD00002928
:0200AE00002729
:0200AF00004609
:0200B0000059F5
:0200B100007FCE
:0200B2000089C3
:0200B300009BB0
:0200B40000BE8C
:0200B50000D673
:0200B600010344
:0200B700011F27
:0200B8000148FD
:0200B9000164E0
:0200BA000192B1
:0200BB0001BF83
:0200BC0001F24F
:0200BD00002D14
:0200BE00005DE3
:0200BF000089B6
:0200C00000B985
:0200C10000F449
:0200C2000144F7
:0200C300016FCB
:0200C40001B881
:0200C50001F246
:0200C600003503
:0200C7000094A3
:0200C80000DE58
:0200C90001171D
:0200CA00016FC4
:0200CB0001C46E
:0200CC0001FF32
:0200CD000063CE
:0200CE0000B27E
:0200CF00010826
:0200D0000163CA
:0200D10001C963
:0200D200001616
:0200D300007CAF
:0200D40000F238
:0200D500013CEC
:0200D60001A582
:0200D70000180F
:0200D8000077AF
:0200D90000E441
:0200DA000161C2
:0200DB0001CF53
:0200DC000045DD
:0200DD0000B170
:0200DE000126F9
:0200DF00019787
:0200E000000F0F
:0200E100009A83
:0200E20001110A
:0200E300017F9B
:0200E400000F0B
:0200E500008F8A
:0200E60001090E
:0200E70001997D
:0200E8000023F3
:0200E900009F76
:0200EA00013AD9
:0200EB0001C44E
:0200EC00004CC6
:0200ED0000D43D
:0200EE0001749B
:0200EF000010FF
:0200F00000A767
:0200F1000136D6
:0200F20001C14A
:0200F3000066A5
:0200F400010702
:0200F50001A761
:0200F600004BBD
:0200F70000E225
:0200F80001887D
:0200F900002DD8
:0200FA0000CB39
:0200FB00017191
:0200FC00002AD8
:0200FD0000CF32
:0200FE0001956A
:0200FF000044BB
:0201000000E716
:0201010001916A
:020102000050AB
:0201030000F802
:0201040001A94F
:02010500006D8B
:020106000123D3
:0201070001DB1A
:0201080000975E
:0201090001698A
:02010A00001AD9
:02010B0000E012
:02010C0001A050
:02010D00006888
:02010E000132BC
:02010F0001FBF2
:0201100000CA23
:02011100017F6C
:02011200005497
:02011300011ECB
:0201140001EDFB
:0201150000BF29
:0201160001895D
:02011700006680
:02011800013CA8
:0201190001FDE6
:02011A0000DD06
:02011B0001BB26
:02011C00008F52
:02011D00016F70
:02011E0000409F
:02011F00012FAE
:020120000003DA
:0201210000EAF2
:0201220001B723
:0201230000A931
:02012400019345
:02012500006375
:02012600016274
:0201270000399D
:020128000128AC
:020129000012C2
:02012A0000FFD4
:02012B0001ECE5
:02012C0000D100
:02012D0001CC03
:02012E0000BF10
:02012F0001A12C
:0201300000923B
:02013100019B30
:02013200008D3E
:02013300017F4A
:02013400007C4D
:02013500017A4D
:02013600006661
:02013700015A6B
:02013800005372
:02013900015C67
:02013A0000467D
:02013B0001665B
:02013C00006160
:02013D00015C63
:02013E0000605F
:02013F00017449
:02014000006855
:02014100017447
:02014200007645
:02014300018C2D
:02014400008C2D
:02014500018C2B
:0201460000B205
:0201470001AC09
:0201480000C5F0
:0201490001CDE6
:02014A0000DBD8
:02014B0001EAC7
:02014C00010CA4
:02014D000010A0
:02014E0001327C
:02014F00003D71
:02015000015854
:0201510000703C
:02015200019317
:0201530000B3F7
:0201540001C2E6
:0201550000D6D2
:0201560001FCAA
:02015700011D88
:0201580000376E
:0201590001574C
:02015A00006241
:02015B0001930E
:02015C0000AFF2
:02015D0001D6C9
:02015E00010896
:02015F00002777
:02016000014A52
:02016100008517
:0201620001A5F5
:0201630000CCCE
:0201640001EEAA
:02016500012473
:02016600005344
:02016700016B2A
:02016800009203
:0201690001E3B0
:02016A0001058D
:02016B00003A58
:02016C00016927
:02016D000095FB
:02016E0001CBC3
:02016F0000FC92
:02017000003C51
:02017100016427
:0201720000AEDD
:0201730001D4B5
:02017400010A7E
:0201750000592F
:020176000194F2
:0201770000B6D0
:0201780001FB89
:0201790001394A
:02017A00007E05
:02017B0001B6CB
:02017C0000E29F
:02017D0000314F
:02017E00017509
:02017F0000C0BE
:0201800001F389
:02018100013F3C
:020182000087F4
:0201830001C5B4
:02018400010A6E
:02018500005523
:020186000199DD
:0201870000E88E
:0201880000363F
:0201890001670C
:02018A0000BAB9
:02018B00000969
:02018C0001620E
:02018D00009AD6
:02018E0001F37B
:02018F00014B22
:020190000099D4
:0201910001DD8E
:02019200013D2D
:020193000080EA
:0201940001CE9A
:02019500013235
:02019600007AED
:0201970001C79E
:02019800011C48
:02019900007BE9
:02019A0001D58D
:02019B00012140
:02019C000074ED
:02019D0001C49B
:02019E00013727
:02019F000074EA
:0201A00001DF7D
:0201A100013E1D
:0201A20000A0BB
:0201A30001EC6D
:0201A400014315
:0201A50000C296
:0201A600000C4B
:0201A700016EE7
:0201A80000C392
:0201A90000292B
:0201AA000197BB
:0201AB0000E56D
:0201AC00005001
:0201AD0001AFA0
:0201AE00012C22
:0201AF000092BC
:0201B00001E26A
:0201B1000150FB
:0201B20000BC8F
:0201B300001238
:0201B400016FD9
:0201B50000E860
:0201B6000053F4
:0201B70001B78E
:0201B800012222
:0201B9000095AF
:0201BA0000053E
:0201BB000173CE
:0201BC0000C978
:0201BD00004CF4
:0201BE0001B08E
:0201BF00011D20
:0201C000009DA0
:0201C10001F645
:0201C200015CDE
:0201C30000EE4C
:0201C4000046F3
:0201C50001C96E
:0201C6000138FE
:0201C70000AD89
:0201C80000181D
:0201C900017BB8
:0201CA0001141E
:0201CB000082B0
:0201CC0001E44C
:0201CD00015AD5
:0201CE0000CF60
:0201CF00004AE4
:0201D00001C963
:0201D1000133F8
:0201D20000CA61
:0201D3000044E6
:0201D40001AB7D
:0201D500012AFD
:0201D600009C8B
:0201D700002204
:0201D800019292
:0201D900010D16
:0201DA0000A87B
:0201DB0000170B
:0201DC0001A080
:0201DD0001031C
:0201DE0000A07F
:0201DF0000130B
:0201E000019686
:0201E10001100B
:0201E20000908B
:0201E300001CFE
:0201E400019C7C
:0201E500011FF8
:0201E60000A077
:0201E700001FF7
:0201E80001B460
:0201E900012AE9
:0201EA0000A66D
:0201EB000045CD
:0201EC0001C64A
:0201ED000150BF
:0201EE0000D837
:0201EF00004EC0
:0201F00001D933
:0201F100015DAE
:0201F20000EF1C
:0201F300008189
:0201F4000013F6
:0201F500018D7A
:0201F600010CFA
:0201F700009F67
:0201F8000029DC
:0201F90001BE45
:0201FA000140C2
:0201FB0000E41E
:0201FC000052AF
:0201FD0001F906
:0201FE0001916D
:0201FF000100FD
:0202000000AC50
:02020100002CCF
:0202020001C633
:02020300016395
:0202040000E117
:02020500007681
:020206000005F1
:0202070001985C
:020208000135BE
:0202090000B43F
:02020A0000668C
:02020B0001ED03
:02020C0001816E
:02020D000105E9
:02020E0000AA44
:02020F00003FAE
:0202100001E00B
:02021100015991
:020212000104E5
:0202130000A841
:02021400003BAD
:0202150001CB1B
:02021600016D78
:0202170000F7EE
:0202180000974D
:020219000034AF
:02021A0001C918
:02021B00016977
:02021C0000F4EC
:02021D0000A03F
:02021E000034AA
:02021F0001DA02
:02022000017863
:02022100011BBF
:0202220000BB1F
:02022300005188
:0202240001EDEA
:0202250001884E
:020226000127AE
:0202270000BE17
:02022800007361
:0202290001F6DC
:02022A0001AB26
:02022B0001428E
:02022C0000DDF3
:02022D0000834C
:02022E000026A8
:02022F0001CDFF
:02023000016B60
:0202310000FFCC
:0202320000B119
:02023300005A6F
:020234000004C4
:02023500019432
:02023600013C89
:0202370000FCC9
:02023800008C38
:0202390000289B
:02023A0001E8D9
:02023B00018A36
:02023C00011CA3
:02023D0000CAF5
:02023E0000704E
:02023F000016A7
:0202400001C3F8
:0202410001704A
:020242000119A0
:0202430000B207
:02024400007642
:02024500000BAC
:0202460001B8FD
:02024700016C48
:02024800010DA6
:0202490000B102
:02024A00005F53
:02024B00000BA6
:02024C0001BAF5
:02024D00017836
:02024E00011B92
:02024F0000C9E4
:02025000007B31
:0202510000119A
:0202520001D2D7
:02025300018E1A
:0202540001386F
:0202550000E0C7
:0202560000990D
:02025700004065
:0202580001EEB5
:02025900019D05
:02025A0001544D
:02025B0000F7AA
:02025C00009B05
:02025D00006837
:02025E00000797
:02025F0001C5D7
:02026000015F3C
:02026100012872
:0202620000DBBF
:02026300008316
:02026400003C5C
:0202650001E6B0
:0202660001A0F5
:02026700015341
:0202680001068D
:0202690000C3D0
:02026A0000751D
:02026B0000375A
:02026C0001DAB5
:02026D000198F6
:02026E00014A43
:02026F0000F09D
:0202700000C1CB
:02027100006B20
:02027200001F6B
:0202730001DAAE
:02027400017E09
:02027500015432
:0202760000F195
:0202770000B5D0
:02027800005C28
:0202790000354E
:02027A0001EA97
:02027B0001A2DE
:02027C00014738
:02027D00010579
:02027E0000D5A9
:02027F0000730A
:02028000003C40
:0202810001FF7B
:0202820001AFCA
:02028300016D0B
:02028400012651
:0202850000E493
:0202860000A7CF
:0202870000581D
:0202880000165E
:0202890001D999
:02028A00019CD5
:02028B00014B25
:02028C0001155A
:02028D0000C9A6
:02028E000099D5
:02028F00004A23
:0202900000026A
:0202910001D694
:02029200018EDB
:02029300014C1C
:0202940000FC6C
:0202950000B4B3
:02029600008BDB
:0202970000461F
:02029800001054
:0202990001BFA3
:02029A000190D1
:02029B0001332D
:02029C0000FD63
:02029D0000C897
:02029E00008BD3
:02029F00003B22
:0202A00000124A
:0202A10001CB8F
:0202A2000195C4
:0202A300014216
:0202A400011245
:0202A50000D483
:0202A60000A8AE
:0202A7000056FF
:0202A800001E36
:0202A90001E171
:0202AA0001ADA4
:0202AB000170E0
:0202AC00012A25
:0202AD0000F956
:0202AE0000C18D
:0202AF000091BC
:0202B0000052FA
:0202B100001437
:0202B20001DF6A
:0202B3000199AF
:0202B4000158EF
:0202B500012620
:0202B60000F452
:0202B70000AE97
:0202B800006CD8
:0202B9000045FE
:0202BA0000053D
:0202BB0001D070
:0202BC00019AA5
:0202BD000155E9
:0202BE00013706
:0202BF0000F647
:0202C00000AE8E
:0202C1000089B2
:0202C200004BEF
:0202C300000534
:0202C40001E651
:0202C50001A096
:0202C6000178BD
:0202C7000139FB
:0202C80000FF35
:0202C90000E053
:0202CA00009C96
:0202CB000064CD
:0202CC0000240C
:0202CD0001FD31
:0202CE0001C865
:0202CF00019A92
:0202D0000165C6
:0202D1000132F8
:0202D20000F832
:0202D30000B772
:0202D400009692
:0202D5000065C2
:0202D60000170F
:0202D70001FF25
:0202D80001BB68
:0202D900017EA4
:0202DA000163BE
:0202DB00012CF4
:0202DC0000FA26
:0202DD0000C857
:0202DE0000918D
:0202DF00004FCE
:0202E0000031EB
:0202E10001FF1B
:0202E20001D247
:0202E300018C8C
:0202E40001799E
:0202E500012AEC
:0202E6000118FD
:0202E70000DC39
:0202E80000AA6A
:0202E9000068AB
:0202EA000047CB
:0202EB00001100
:0202EC0001E42B
:0202ED0001C44A
:0202EE00017598
:0202EF000156B6
:0202F0000115F6
:0202F100010109
:0202F20000D337
:0202F300009871
:0202F400005FA9
:0202F500003ACD
:0202F6000018EE
:0202F70001DA2A
:0202F80001AB58
:0202F900017F83
:0202FA00015CA5
:0202FB00012DD3
:0202FC00010DF2
:0202FD0000D728
:0202FE0000A757
:0202FF0000807D
:02030000004EAD
:020301000019E1
:0203020001F305
:0203030001C235
:02030400019462
:02030500017481
:020306000142B2
:020307000118DB
:0203080000E80B
:0203090000D41E
:02030A00009E53
:02030B00005F91
:02030C000041AE
:02030D00001FCF
:02030E0001EDFF
:02030F0001C526
:02031000018C5E
:02031100017475
:02031200014F99
:02031300010BDC
:0203140000EAFD
:0203150000C422
:0203160000984D
:02031700007E66
:02031800005390
:020319000016CC
:02031A000006DB
:02031B0001C51A
:02031C0001AB33
:02031D00017E5F
:02031E0001518B
:02031F000139A2
:020320000105D5
:0203210000F0EA
:0203220000AE2B
:02032300009A3E
:02032400007265
:02032500004294
:020326000019BC
:0203270001FAD9
:0203280001BC16
:0203290001A829
:02032A00018848
:02032B00015976
:02032C000124AA
:02032D0000FBD3
:02032E0000E0ED
:02032F0000BD0F
:0203300000913A
:02033100007E4C
:02033200005178
:020333000021A7
:0203340001F9CD
:0203350001D2F3
:0203360001BA0A
:0203370001972C
:0203380001665C
:0203390001467B
:02033A00012D93
:02033B000104BB
:02033C0000CCF3
:02033D0000C2FC
:02033E00009429
:02033F00006557
:02034000004675
:02034100002595
:0203420001FBBD
:0203430001CBEC
:0203440001B9FD
:0203450001A015
:02034600016E46
:02034700014271
:0203480001337F
:020349000108A9
:02034A0000EAC7
:02034B0000CAE6
:02034C00009A15
:02034D0000812D
:02034E00004C61
:02034F0000317B
:02035000001893
:0203510001EBBE
:0203520001CDDB
:0203530001A205
:02035400018B1B
:02035500016045
:0203560001455F
:02035700012C77
:020358000100A2
:0203590000D7CB
:02035A0000C4DD
:02035B0000ACF4
:02035C00008817
:02035D00005B43
:02035E00004459
:02035F00001D7F
:02036000000992
:0203610001DEBB
:0203620001AFE9
:02036300019AFD
:02036400017323
:0203650001593C
:02036600014A4A
:0203670001266D
:0203680000FF94
:0203690000E1B1
:02036A0000BCD5
:02036B0000A0F0
:02036C00007916
:02036D00006C22
:02036E00004D40
:02036F0000325A
:02037000000784
:0203710001E3A6
:0203720001B9CF
:0203730001A5E2
:020374000190F6
:02037500016520
:0203760001493B
:0203770001364D
:0203780001077B
:0203790000EA98
:02037A0000DDA4
:02037B0000ACD4
:02037C000087F8
:02037D00007707
:02037E00006518
:02037F00003646
:02038000001B60
:0203810001FD7C
:0203820001EC8C
:0203830001C8AF
:02038400019DD9
:020385000191E4
:0203860001690B
:02038700016310
:02038800013F33
:02038900011160
:02038A0000FA77
:02038B0000EF81
:02038C0000C6A9
:02038D00009BD3
:02038E00009ECF
:02038F00007DEF
:02039000005A11
:02039100004C1E
:02039200001554
:02039300000B5D
:0203940001DB8B
:0203950001BAAB
:0203960001AFB5
:020397000189DA
:020398000178EA
:02039900015C05
:02039A0001530D
:02039B0001332C
:02039C0001045A
:02039D0000E17D
:02039E0000D687
:02039F0000BBA1
:0203A000009DBE
:0203A1000088D2
:0203A200007BDE
:0203A300005107
:0203A400003F18
:0203A500001145
:0203A60001F75D
:0203A70001ED66
:0203A80001C58D
:0203A90001B39E
:0203AA000197B9
:0203AB000178D7
:0203AC000160EE
:0203AD00015BF2
:0203AE00012923
:0203AF00012229
:0203B00000F853
:0203B10000EF5B
:0203B20000C683
:0203B30000AB9D
:0203B4000095B2
:0203B5000080C6
:0203B6000074D1
:0203B7000059EB
:0203B800002A19
:0203B90000172B
:0203BA00000F32
:0203BB0001E857
:0203BC0001D46A
:0203BD0001BD80
:0203BE0001B18B
:0203BF00018CAF
:0203C0000170CA
:0203C1000159E0
:0203C2000140F8
:0203C3000138FF
:0203C400010630
:0203C50000F83E
:0203C60000EB4A
:0203C70000D064
:0203C80000C66D
:0203C9000091A1
:0203CA0000939E
:0203CB000079B7
:0203CC00005AD5
:0203CD00004BE3
:0203CE0000210C
:0203CF00001C10
:0203D00000002B
:0203D10001E445
:0203D20001D256
:0203D30001B176
:0203D400019393
:0203D500018E97
:0203D600017EA6
:0203D7000160C3
:0203D8000158CA
:0203D9000131F0
:0203DA00011010
:0203DB0000FA26
:0203DC0000E936
:0203DD0000D648
:0203DE0000C05D
:0203DF0000A478
:0203E00000908B
:0203E100007F9B
:0203E2000069B0
:0203E3000042D6
:0203E4000030E7
:0203E5000032E4
:0203E600000B0A
:0203E70000050F
:0203E80001E72B
:0203E90001E22F
:0203EA0001C64A
:0203EB00019877
:0203EC00019C72
:0203ED00017C91
:0203EE000168A4
:0203EF000149C2
:0203F000013FCB
:0203F1000121E8
:0203F200010800
:0203F300010DFA
:0203F40000D92E
:0203F50000D531
:0203F60000C83D
:0203F70000B84C
:0203F80000956E
:0203F900009072
:0203FA0000649D
:0203FB0000629E
:0203FC000049B6
:0203FD000025D9
:0203FE00001CE1
:0203FF000008F4
:00000001ff
