:020000040000FA
:0100000000FF
:010001000FEF
:010002000FEE
:010003000FED
:010004000FEC
:010005000EEC
:010006000CED
:010007000AEE
:0100080008EF
:0100090004F2
:01000A0000F5
:01000B000BE9
:01000C0005EE
:01000D000DE5
:01000E0005EC
:01000F000BE5
:0100100000EF
:0100110003EB
:0100120005E8
:0100130005E7
:0100140004E7
:0100150000EA
:010016000BDE
:0100170004E4
:010018000ADD
:010019000ED8
:01001A0000E5
:01001B0000E4
:01001C000DD6
:01001D0008DA
:01001E0000E1
:01001F0005DB
:0100200007D8
:0100210007D7
:0100220003DA
:010023000DCF
:0100240003D8
:0100250006D4
:0100260006D3
:0100270002D6
:010028000BCC
:0100290000D6
:01002A0001D4
:01002B000FC5
:01002C0008CB
:01002D000EC4
:01002E0000D1
:01002F000EC2
:0100300007C8
:010031000CC2
:010032000DC0
:0100330009C3
:0100340001CA
:0100350004C6
:0100360002C7
:010037000CBC
:0100380001C6
:0100390000C6
:01003A000BBA
:01003B0000C4
:01003C0001C2
:01003D000CB6
:01003E0001C0
:01003F0001BF
:010040000CB3
:0100410000BE
:0100420000BD
:0100430009B3
:010044000CAF
:010045000AB0
:0100460001B8
:0100470003B5
:010048000EA9
:0100490002B4
:01004A0001B4
:01004B0009AB
:01004C000AA9
:01004D0005AD
:01004E0009A8
:01004F0006AA
:010050000CA3
:010051000CA2
:0100520004A9
:0100530005A7
:010054000F9C
:0100550002A8
:010056000E9B
:0100570002A6
:010058000E99
:0100590003A3
:01005A0000A5
:01005B00069E
:01005C00049F
:01005D000999
:01005E00079A
:01005F000D93
:010060000A95
:01006100009E
:010062000D90
:01006300029A
:010064000E8D
:010065000298
:010066000D8C
:010067000F89
:01006800098E
:010069000A8C
:01006A000293
:01006B000193
:01006C00068D
:01006D00038F
:01006E00078A
:01006F00018F
:01007000028D
:010071000985
:010072000786
:010073000B81
:010074000685
:010075000783
:010076000E7B
:010077000B7D
:010078000E79
:01007900077F
:01007A00067F
:01007B000B79
:01007C00057E
:01007D00057D
:01007E000B76
:01007F00067A
:010080000778
:010081000D71
:010082000875
:010083000973
:010084000F6C
:010085000971
:010086000970
:010087000E6A
:010088000770
:010089000571
:01008A00086D
:01008B000074
:01008C000C67
:01008D000C66
:01008E00026F
:01008F000B65
:010090000867
:010091000A64
:01009200006D
:010093000A62
:010094000863
:010095000A60
:010096000069
:01009700095F
:010098000760
:01009900085E
:01009A000C59
:01009B000460
:01009C000F54
:01009D000E54
:01009E000061
:01009F00055B
:0100A0000D52
:0100A1000955
:0100A2000756
:0100A3000854
:0100A4000C4F
:0100A5000357
:0100A6000D4C
:0100A700094F
:0100A800084F
:0100A9000A4C
:0100AA000E47
:0100AB000450
:0100AC000D46
:0100AD00074B
:0100AE00044D
:0100AF00044C
:0100B000054A
:0100B1000846
:0100B2000D40
:0100B3000448
:0100B4000C3F
:0100B5000743
:0100B6000346
:0100B7000147
:0100B8000047
:0100B9000046
:0100BA000243
:0100BB00053F
:0100BC000A39
:0100BD000F33
:0100BE00063B
:0100BF000E32
:0100C0000738
:0100C100013D
:0100C2000B32
:0100C3000636
:0100C4000239
:0100C5000F2B
:0100C6000C2D
:0100C7000A2E
:0100C800082F
:0100C900072F
:0100CA00062F
:0100CB00052F
:0100CC00052E
:0100CD00042E
:0100CE00042D
:0100CF00042C
:0100D000032C
:0100D100032B
:0100D200022B
:0100D300012B
:0100D400002B
:0100D5000E1C
:0100D6000C1D
:0100D7000A1E
:0100D8000720
:0100D9000323
:0100DA000E17
:0100DB00091B
:0100DC000320
:0100DD000C16
:0100DE00041D
:0100DF000C14
:0100E000021D
:0100E1000717
:0100E2000B12
:0100E3000D0F
:0100E4000E0D
:0100E5000E0C
:0100E6000D0C
:0100E7000A0E
:0100E8000512
:0100E9000F07
:0100EA00070E
:0100EB000D07
:0100EC000211
:0100ED00040E
:0100EE00050C
:0100EF00040C
:0100F000010E
:0100F1000C02
:0100F2000409
:0100F3000A02
:0100F4000EFD
:0100F500000A
:0100F6000FFA
:0100F7000CFC
:0100F8000601
:0100F9000EF8
:0100FA000302
:0100FB0005FF
:0100FC0005FE
:0100FD000200
:0100FE000CF5
:0100FF0003FD
:0101000007F7
:0101010008F5
:0101020005F7
:0101030000FB
:0101040007F3
:010105000CED
:010106000CEC
:010107000AED
:0101080004F2
:010109000AEB
:01010A000DE7
:01010B000CE7
:01010C0008EA
:01010D0000F1
:01010E0004EC
:01010F0004EB
:0101100000EE
:0101110008E5
:010112000CE0
:010113000DDE
:0101140008E2
:0101150000E9
:0101160004E4
:0101170003E4
:010118000ED8
:0101190004E1
:01011A0006DE
:01011B0004DF
:01011C000CD6
:01011D0000E1
:01011E0000E0
:01011F000BD4
:0101200000DE
:0101210001DC
:010122000DCF
:0101230004D7
:0101240007D3
:0101250003D6
:010126000BCD
:010127000EC9
:010128000BCB
:0101290003D2
:01012A0006CE
:01012B0003D0
:01012C000BC7
:01012D000DC4
:01012E000AC6
:01012F0001CE
:0101300002CC
:010131000DC0
:0101320003C9
:0101330003C8
:010134000DBD
:0101350001C8
:010136000FB9
:0101370007C0
:0101380009BD
:0101390005C0
:01013A000ABA
:01013B0009BA
:01013C0002C0
:01013D0004BD
:01013E0000C0
:01013F0006B9
:0101400005B9
:010141000DB0
:010142000FAD
:010143000AB1
:010144000EAC
:010145000BAE
:0101460002B6
:0101470002B5
:010148000AAC
:010149000CA9
:01014A0007AD
:01014B000AA9
:01014C0006AC
:01014D000BA6
:01014E0009A7
:01014F0000AF
:010150000F9F
:0101510007A6
:0101520007A5
:0101530000AB
:0101540001A9
:010155000A9F
:010156000C9C
:0101570006A1
:01015800089E
:0101590003A2
:01015A00069E
:01015B0000A3
:01015C00039F
:01015D000D94
:01015E0000A0
:01015F000A95
:010160000D91
:010161000796
:010162000894
:010163000299
:010164000397
:010165000C8D
:010166000C8C
:010167000394
:010168000294
:01016900098C
:01016A00068E
:01016B000B88
:01016C00078B
:01016D000B86
:01016E00058B
:01016F000788
:01017000008E
:010171000F7E
:010172000686
:010173000388
:010174000783
:010175000386
:010176000484
:010177000D7A
:010178000C7A
:010179000283
:01017A000E76
:01017B000182
:01017C000A78
:01017D000A77
:01017E000080
:01017F000C73
:010180000F6F
:010181000776
:010182000676
:010183000C6F
:010184000773
:010185000871
:010186000F69
:010187000C6B
:010188000F67
:01018900086D
:01018A00076D
:01018B000B68
:01018C00066C
:01018D00056C
:01018E000B65
:01018F000669
:010190000668
:010191000C61
:010192000864
:010193000863
:010194000E5C
:010195000A5F
:010196000B5D
:010197000067
:010198000B5B
:010199000C59
:01019A000163
:01019B000B58
:01019C000A58
:01019D000E53
:01019E000759
:01019F00055A
:0101A0000856
:0101A1000F4E
:0101A2000B51
:0101A3000C4F
:0101A4000159
:0101A5000B4E
:0101A6000A4E
:0101A7000C4B
:0101A8000452
:0101A9000055
:0101AA000054
:0101AB00044F
:0101AC000D45
:0101AD000A47
:0101AE000B45
:0101AF00004F
:0101B0000945
:0101B1000746
:0101B2000844
:0101B3000D3E
:0101B4000644
:0101B5000346
:0101B6000444
:0101B700093E
:0101B8000145
:0101B9000D38
:0101BA000D37
:0101BB000142
:0101BC00083A
:0101BD00023F
:0101BE000040
:0101BF00013E
:0101C0000638
:0101C1000E2F
:0101C2000A32
:0101C3000833
:0101C4000A30
:0101C5000F2A
:0101C6000830
:0101C7000334
:0101C8000135
:0101C9000332
:0101CA00072D
:0101CB000F24
:0101CC000929
:0101CD00062B
:0101CE00062A
:0101CF000827
:0101D0000E20
:0101D1000627
:0101D200012B
:0101D3000E1D
:0101D4000E1C
:0101D5000029
:0101D6000523
:0101D7000C1B
:0101D8000620
:0101D9000223
:0101DA000024
:0101DB000122
:0101DC00041E
:0101DD000918
:0101DE000020
:0101DF000916
:0101E0000519
:0101E100021B
:0101E200021A
:0101E3000318
:0101E4000614
:0101E5000B0E
:0101E6000216
:0101E7000B0C
:0101E8000511
:0101E9000213
:0101EA000F05
:0101EB000F04
:0101EC000012
:0101ED00030E
:0101EE000709
:0101EF000C03
:0101F000030B
:0101F1000C01
:0101F2000507
:0101F300000B
:0101F4000DFD
:0101F5000AFF
:0101F60009FF
:0101F70009FE
:0101F8000AFC
:0101F9000CF9
:0101FA000FF5
:0101FB0004FF
:0101FC0009F9
:0101FD000FF2
:0101FE0006FA
:0101FF000DF2
:0102000006F7
:010201000FED
:0102020009F2
:0102030004F6
:010204000FEA
:010205000CEC
:0102060008EF
:0102070005F1
:0102080003F2
:0102090001F3
:01020A0000F3
:01020B000EE4
:01020C000EE3
:01020D000DE3
:01020E000DE2
:01020F000DE1
:010210000EDF
:010211000EDE
:010212000FDC
:010213000FDB
:0102140000E9
:0102150001E7
:0102160001E6
:0102170002E4
:0102180002E3
:0102190003E1
:01021A0003E0
:01021B0003DF
:01021C0003DE
:01021D0002DE
:01021E0002DD
:01021F0000DE
:010220000FCE
:010221000DCF
:010222000AD1
:0102230007D3
:0102240004D5
:0102250000D8
:010226000BCC
:0102270005D1
:010228000FC6
:0102290009CB
:01022A0001D2
:01022B0009C9
:01022C0000D1
:01022D0006CA
:01022E000BC4
:01022F000FBF
:0102300002CB
:0102310004C8
:0102320005C6
:0102330005C5
:0102340004C5
:0102350002C6
:010236000FB8
:010237000ABC
:0102380004C1
:010239000DB7
:01023A0004BF
:01023B000AB8
:01023C000FB2
:01023D0002BE
:01023E0004BB
:01023F0005B9
:0102400003BA
:0102410001BB
:010242000CAF
:0102430006B4
:010244000FAA
:0102450005B3
:010246000AAD
:010247000DA9
:010248000EA7
:010249000EA6
:01024A000BA8
:01024B0007AB
:01024C0000B1
:01024D0008A8
:01024E000EA1
:01024F0001AD
:0102500003AA
:0102510002AA
:010252000F9C
:010253000AA0
:0102540003A6
:010255000A9E
:010256000E99
:0102570000A6
:0102580000A5
:010259000D97
:01025A00089B
:01025B0000A2
:01025C00069B
:01025D000997
:01025E000A95
:01025F000896
:01026000039A
:010261000C90
:010262000299
:010263000694
:010264000792
:010265000494
:010266000F88
:01026700088E
:010268000D88
:010269000F85
:01026A000F84
:01026B000B87
:01026C00058C
:01026D000B85
:01026E000E81
:01026F000F7F
:010270000C81
:010271000686
:010272000C7F
:01027300008A
:010274000089
:010275000C7C
:010276000681
:010277000C7A
:010278000F76
:010279000E76
:01027A000A79
:01027B000280
:01027C00077A
:01027D000878
:01027E00057A
:01027F000F6F
:010280000677
:010281000874
:010282000774
:010283000278
:010284000970
:010285000D6B
:010286000D6A
:01028700086E
:010288000075
:010289000470
:01028A00046F
:01028B000072
:01028C000869
:01028D000C64
:01028E000B64
:01028F000767
:010290000E5F
:01029100016B
:01029200006B
:010293000B5F
:010294000267
:010295000464
:010296000166
:010297000B5B
:010298000065
:010299000064
:01029A000D56
:01029B00045E
:01029C00075A
:01029D00065A
:01029E00005F
:01029F000559
:0102A0000657
:0102A100015B
:0102A2000952
:0102A3000B4F
:0102A4000950
:0102A5000256
:0102A6000651
:0102A7000551
:0102A8000055
:0102A900054F
:0102AA00064D
:0102AB000151
:0102AC00074A
:0102AD000947
:0102AE00054A
:0102AF000D41
:0102B0000F3E
:0102B1000C40
:0102B2000447
:0102B3000644
:0102B4000346
:0102B5000C3C
:0102B6000E39
:0102B7000C3A
:0102B8000441
:0102B900073D
:0102BA00043F
:0102BB000C36
:0102BC000E33
:0102BD000B35
:0102BE00023D
:0102BF00043A
:0102C000003D
:0102C1000636
:0102C2000734
:0102C3000238
:0102C4000831
:0102C5000830
:0102C6000235
:0102C7000630
:0102C8000431
:0102C9000D27
:0102CA000F24
:0102CB000C26
:0102CC00032E
:0102CD00032D
:0102CE000E21
:0102CF00032B
:0102D000022B
:0102D1000A22
:0102D2000D1E
:0102D3000921
:0102D4000029
:0102D5000028
:0102D6000A1D
:0102D7000D19
:0102D8000A1B
:0102D9000123
:0102DA000221
:0102DB000C16
:0102DC000021
:0102DD000E12
:0102DE00051A
:0102DF000618
:0102E000001D
:0102E1000319
:0102E200011A
:0102E3000713
:0102E4000712
:0102E5000018
:0102E6000314
:0102E7000F07
:0102E8000411
:0102E9000212
:0102EA000A09
:0102EB000B07
:0102EC00050C
:0102ED000808
:0102EE00050A
:0102EF000A04
:0102F0000904
:0102F100000C
:0102F200010A
:0102F3000A00
:0102F4000DFC
:0102F5000800
:0102F6000DFA
:0102F7000AFC
:0102F8000005
:0102F9000FF5
:0102FA0007FC
:0102FB0007FB
:0102FC000100
:0102FD0003FD
:0102FE000DF2
:0102FF0001FD
:010300000DEF
:0103010001FA
:010302000EEC
:0103030004F5
:0103040003F5
:0103050009EE
:0103060009ED
:0103070001F4
:0103080001F3
:0103090009EA
:01030A000AE8
:01030B0004ED
:01030C0006EA
:01030D0000EF
:01030E0002EC
:01030F000DE0
:010310000FDD
:010311000AE1
:010312000EDC
:0103130009E0
:010314000CDC
:0103150008DF
:010316000BDB
:0103170007DE
:010318000BD9
:0103190007DC
:01031A000AD8
:01031B0006DB
:01031C000AD6
:01031D0005DA
:01031E0008D6
:01031F0004D9
:0103200007D5
:0103210001DA
:0103220004D6
:010323000ECB
:0103240000D8
:010325000ACD
:010326000BCB
:0103270005D0
:0103280005CF
:010329000EC5
:01032A000DC5
:01032B0005CC
:01032C0004CC
:01032D000AC5
:01032E0008C6
:01032F000EBF
:010330000AC2
:010331000FBC
:010332000AC0
:010333000DBC
:0103340007C1
:0103350009BE
:0103360002C4
:0103370002C3
:0103380009BB
:0103390008BB
:01033A000DB5
:01033B000AB7
:01033C000EB2
:01033D0009B6
:01033E000CB2
:01033F0005B8
:0103400005B7
:010341000DAE
:010342000BAF
:0103430000B9
:010344000CAC
:010345000FA8
:010346000AAC
:010347000AAB
:0103480002B2
:0103490001B2
:01034A0006AC
:01034B0002AF
:01034C0005AB
:01034D000FA0
:01034E000F9F
:01034F0006A7
:0103500004A8
:0103510008A3
:0103520003A7
:0103530005A4
:010354000D9B
:010355000B9C
:0103560000A6
:010357000C99
:010358000E96
:01035900079C
:01035A00069C
:01035B000B96
:01035C000799
:01035D000996
:01035E00019D
:01035F00009D
:010360000597
:01036100009B
:010362000298
:010363000A8F
:010364000890
:010365000C8B
:010366000690
:01036700068F
:010368000D87
:010369000A89
:01036A000C86
:01036B00058C
:01036C00048C
:01036D000887
:01036E00038B
:01036F000489
:010370000A82
:010371000784
:010372000981
:010373000188
:010374000F79
:010375000384
:010376000C7A
:010377000C79
:010378000183
:010379000C77
:01037A000C76
:01037B00027F
:01037C000E72
:01037D00007F
:01037E000777
:01037F000479
:010380000676
:010381000E6D
:010382000B6F
:010383000E6B
:010384000672
:010385000473
:01038600076F
:010387000075
:010388000E66
:010389000172
:01038A000A68
:01038B000869
:01038C000B65
:01038D00046B
:01038E00026C
:01038F000568
:010390000D5F
:010391000B60
:010392000E5C
:010393000564
:010394000365
:010395000562
:010396000C5A
:01039700085D
:010398000A5A
:010399000063
:01039A000B57
:01039B000C55
:01039C00015F
:01039D000B54
:01039E000B53
:01039F000F4E
:0103A0000854
:0103A1000556
:0103A2000852
:0103A3000059
:0103A4000C4C
:0103A5000D4A
:0103A6000353
:0103A7000D48
:0103A8000D47
:0103A9000053
:0103AA000949
:0103AB00064B
:0103AC000848
:0103AD000F40
:0103AE000A44
:0103AF000A43
:0103B0000E3E
:0103B1000645
:0103B2000446
:0103B3000544
:0103B4000C3C
:0103B5000641
:0103B6000541
:0103B700093C
:0103B8000044
:0103B9000D36
:0103BA000D35
:0103BB00023F
:0103BC000B35
:0103BD000936
:0103BE000A34
:0103BF00003D
:0103C0000A32
:0103C1000932
:0103C2000B2F
:0103C3000237
:0103C4000D2B
:0103C5000C2B
:0103C6000F27
:0103C700062F
:0103C8000133
:0103C9000033
:0103CA00042E
:0103CB000B26
:0103CC00062A
:0103CD00052A
:0103CE000826
:0103CF000F1E
:0103D0000A22
:0103D1000922
:0103D2000C1E
:0103D3000227
:0103D4000D1B
:0103D5000B1C
:0103D6000D19
:0103D7000223
:0103D8000C18
:0103D900091A
:0103DA000A18
:0103DB000E13
:0103DC000719
:0103DD00021D
:0103DE00021C
:0103DF000518
:0103E0000C10
:0103E1000615
:0103E2000416
:0103E3000514
:0103E4000A0E
:0103E5000215
:0103E6000E08
:0103E7000D08
:0103E8000014
:0103E900060D
:0103EA000F03
:0103EB000C05
:0103EC000D03
:0103ED00000F
:0103EE000707
:0103EF00010C
:0103F0000FFD
:0103F1000FFC
:0103F2000307
:0103F3000AFF
:0103F4000503
:0103F5000205
:0103F6000303
:0103F70007FE
:0103F8000EF6
:0103F90008FB
:0103FA0006FC
:0103FB0006FB
:0103FC0009F7
:0103FD0000FF
:0103FE0009F5
:0103FF0005F8
:0104000005F6
:0104010007F3
:010402000DEC
:0104030005F3
:0104040000F7
:010405000EE8
:010406000FE6
:0104070003F1
:0104080009EA
:0104090003EF
:01040A000FE2
:01040B000EE2
:01040C0000EF
:01040D0004EA
:01040E000BE2
:01040F0005E7
:0104100002E9
:0104110001E9
:0104120003E6
:0104130007E1
:010414000FD8
:0104150008DE
:0104160005E0
:0104170004E0
:0104180005DE
:0104190009D9
:01041A0000E1
:01041B0009D7
:01041C0004DB
:01041D0002DC
:01041E0002DB
:01041F0005D7
:010420000AD1
:0104210002D8
:010422000CCD
:0104230008D0
:0104240007D0
:0104250007CF
:010426000BCA
:0104270000D4
:0104280008CB
:0104290002D0
:01042A000EC3
:01042B000CC4
:01042C000DC2
:01042D0000CE
:01042E0005C8
:01042F000CC0
:0104300005C6
:0104310000CA
:010432000DBC
:010433000DBB
:010434000EB9
:0104350002C4
:0104360007BE
:010437000FB5
:0104380008BB
:0104390004BE
:01043A0001C0
:01043B0000C0
:01043C0002BD
:01043D0005B9
:01043E000AB3
:01043F0001BB
:0104400009B2
:0104410004B6
:0104420000B9
:010443000EAA
:010444000EA9
:0104450000B6
:0104460003B2
:0104470008AC
:010448000FA4
:0104490008AA
:01044A0002AF
:01044B000EA2
:01044C000BA4
:01044D000AA4
:01044E000BA2
:01044F000D9F
:0104500001AA
:0104510007A3
:010452000E9B
:0104530006A2
:0104540000A7
:010455000C9A
:01045600099C
:01045700079D
:01045800079C
:01045900089A
:01045A000B96
:01045B000F91
:01045C00049B
:01045D000B93
:01045E00039A
:01045F000D8F
:010460000893
:010461000496
:010462000198
:010463000098
:010464000F88
:010465000096
:010466000392
:01046700068E
:010468000B88
:010469000191
:01046A000889
:01046B000090
:01046C000986
:01046D00038B
:01046E000F7E
:01046F000B81
:010470000883
:010471000783
:010472000683
:010473000781
:01047400087F
:010475000B7B
:010476000E77
:010477000381
:01047800087B
:010479000E74
:01047A00057C
:01047B000D73
:01047C000679
:01047D00007E
:01047E000A73
:01047F000577
:01048000017A
:010481000E6C
:010482000C6D
:010483000A6E
:01048400096E
:01048500096D
:010486000A6B
:010487000B69
:010488000D66
:010489000F63
:01048A00026F
:01048B00066A
:01048C000A65
:01048D000F5F
:01048E000568
:01048F000B61
:01049000016A
:010491000961
:010492000069
:010493000860
:010494000166
:010495000A5C
:010496000461
:010497000E56
:01049800085B
:01049900035F
:01049A000E53
:01049B000A56
:01049C000659
:01049D00025C
:01049E000F4E
:01049F000C50
:0104A0000952
:0104A1000654
:0104A2000455
:0104A3000256
:0104A4000057
:0104A5000F47
:0104A6000E47
:0104A7000D47
:0104A8000C47
:0104A9000B47
:0104AA000A47
:0104AB000A46
:0104AC000946
:0104AD000945
:0104AE000944
:0104AF000943
:0104B0000942
:0104B1000941
:0104B2000940
:0104B300093F
:0104B400093E
:0104B500093D
:0104B600093C
:0104B700093B
:0104B800093A
:0104B9000939
:0104BA000938
:0104BB000838
:0104BC000837
:0104BD000737
:0104BE000736
:0104BF000636
:0104C0000536
:0104C1000337
:0104C2000237
:0104C3000038
:0104C4000E29
:0104C5000C2A
:0104C6000A2B
:0104C700072D
:0104C800042F
:0104C9000032
:0104CA000D24
:0104CB000927
:0104CC00052A
:0104CD00002E
:0104CE000B22
:0104CF000527
:0104D0000F1C
:0104D1000921
:0104D2000227
:0104D3000B1D
:0104D4000423
:0104D5000C1A
:0104D6000322
:0104D7000A1A
:0104D8000023
:0104D900061C
:0104DA000B16
:0104DB000020
:0104DC00041B
:0104DD000816
:0104DE000B12
:0104DF000D0F
:0104E0000F0C
:0104E100001A
:0104E2000019
:0104E3000018
:0104E4000F08
:0104E5000D09
:0104E6000B0A
:0104E700080C
:0104E800040F
:0104E9000F03
:0104EA000A07
:0104EB00040C
:0104EC000D02
:0104ED000509
:0104EE000C01
:0104EF000309
:0104F0000902
:0104F1000DFD
:0104F2000108
:0104F3000404
:0104F4000700
:0104F50008FE
:0104F60008FD
:0104F70007FD
:0104F80006FD
:0104F90003FF
:0104FA000001
:0104FB000BF5
:0104FC0005FA
:0104FD000FEF
:0104FE0007F6
:0104FF000EEE
:0105000004F6
:010501000AEF
:010502000EEA
:0105030000F7
:0105040002F4
:0105050003F2
:0105060002F2
:0105070001F2
:010508000EE4
:010509000AE7
:01050A0004EC
:01050B000EE1
:01050C0006E8
:01050D000DE0
:01050E0003E9
:01050F0007E4
:010510000BDF
:010511000CDD
:010512000DDB
:010513000CDB
:010514000ADC
:0105150007DE
:0105160002E2
:010517000CD7
:0105180004DE
:010519000BD6
:01051A0001DF
:01051B0005DA
:01051C0008D6
:01051D0009D4
:01051E0009D3
:01051F0008D3
:0105200004D6
:0105210000D9
:010522000ACE
:0105230002D5
:0105240009CD
:010525000EC7
:0105260001D3
:0105270004CF
:0105280004CE
:0105290003CE
:01052A0000D0
:01052B000CC3
:01052C0005C9
:01052D000EBF
:01052E0004C8
:01052F0009C2
:010530000CBE
:010531000EBB
:010532000EBA
:010533000CBB
:0105340008BE
:0105350003C2
:010536000BB9
:0105370002C1
:0105380007BB
:010539000BB6
:01053A000CB4
:01053B000CB3
:01053C000AB4
:01053D0006B7
:01053E0000BC
:01053F0008B3
:010540000EAC
:0105410003B6
:0105420005B3
:0105430006B1
:0105440004B2
:0105450001B4
:010546000BA9
:0105470004AF
:010548000BA7
:010549000FA2
:01054A0002AE
:01054B0003AC
:01054C0001AD
:01054D000DA0
:01054E0008A4
:01054F0000AB
:0105500006A4
:010551000A9F
:010552000C9C
:010553000C9B
:010554000A9C
:0105550005A0
:010556000F95
:01055700069D
:010558000B97
:010559000E93
:01055A000E92
:01055B000C93
:01055C000995
:01055D00029B
:01055E000A92
:01055F000F8C
:010560000298
:010561000396
:010562000197
:010563000D8A
:01056400078F
:010565000E87
:010566000391
:01056700068D
:01056800068C
:01056900048D
:01056A000F81
:01056B000887
:01056C000E80
:01056D00028B
:01056E000488
:01056F000388
:01057000008A
:010571000A7F
:010572000286
:010573000780
:01057400097D
:01057500097C
:01057600077D
:010577000281
:010578000A78
:010579000081
:01057A00037D
:01057B00047B
:01057C00027C
:01057D000D70
:01057E000676
:01057F000C6F
:010580000F6B
:010581000079
:010582000E6A
:01058300096E
:010584000175
:01058500076E
:010586000A6A
:010587000A69
:01058800086A
:01058900036E
:01058A000B65
:01058B00006F
:01058C00026C
:01058D00026B
:01058E000F5D
:01058F000962
:01059000006A
:010591000465
:010592000563
:010593000364
:010594000F57
:01059500085D
:010596000D57
:010597000063
:010598000062
:010599000D54
:01059A000759
:01059B000D52
:01059C00015D
:01059D00025B
:01059E00005C
:01059F000B50
:0105A0000357
:0105A1000851
:0105A200094F
:0105A300084F
:0105A4000452
:0105A5000C49
:0105A6000252
:0105A700044F
:0105A800034F
:0105A9000F42
:0105AA000848
:0105AB000E41
:0105AC00004E
:0105AD00004D
:0105AE000C40
:0105AF000546
:0105B0000B3F
:0105B1000D3C
:0105B2000D3B
:0105B300093E
:0105B4000244
:0105B500073E
:0105B6000A3A
:0105B700093A
:0105B800043E
:0105B9000D34
:0105BA00023E
:0105BB00043B
:0105BC00023C
:0105BD000D30
:0105BE000537
:0105BF000932
:0105C0000A30
:0105C1000831
:0105C2000236
:0105C300082F
:0105C4000C2A
:0105C5000C29
:0105C600082C
:0105C7000132
:0105C800062C
:0105C9000829
:0105CA000729
:0105CB00022D
:0105CC000925
:0105CD000D20
:0105CE000E1E
:0105CF000B20
:0105D0000426
:0105D1000A1F
:0105D2000C1C
:0105D3000B1C
:0105D4000620
:0105D5000D18
:0105D6000123
:0105D7000122
:0105D8000E14
:0105D900071A
:0105DA000C14
:0105DB000D12
:0105DC000B13
:0105DD000518
:0105DE000C10
:0105DF000F0C
:0105E0000E0C
:0105E1000910
:0105E2000018
:0105E3000413
:0105E4000412
:0105E5000114
:0105E600090B
:0105E7000E05
:0105E8000F03
:0105E9000C05
:0105EA00050B
:0105EB000A05
:0105EC000C02
:0105ED000A03
:0105EE000408
:0105EF000A01
:0105F0000CFE
:0105F1000AFF
:0105F2000404
:0105F3000AFD
:0105F4000DF9
:0105F5000BFA
:0105F60006FE
:0105F7000DF6
:0105F8000FF3
:0105F9000EF3
:0105FA0008F8
:0105FB000FF0
:0105FC0002FC
:0105FD0000FD
:0105FE000BF1
:0105FF0002F9
:0106000004F5
:0106010003F5
:010602000DEA
:0106030003F3
:0106040005F0
:0106050004F0
:010606000EE5
:0106070004EE
:0106080005EC
:0106090003ED
:01060A000CE3
:01060B0002EC
:01060C0003EA
:01060D0000EC
:01060E0009E2
:01060F000DDD
:010610000EDB
:010611000ADE
:0106120002E5
:0106130005E1
:0106140005E0
:0106150000E4
:0106160007DC
:010617000AD8
:0106180008D9
:0106190002DE
:01061A0008D7
:01061B0009D5
:01061C0007D6
:01061D000FCD
:01061E0004D7
:01061F0004D6
:0106200000D9
:0106210007D1
:010622000ACD
:0106230009CD
:0106240003D2
:0106250009CB
:010626000AC9
:0106270007CB
:0106280000D1
:0106290004CC
:01062A0003CC
:01062B000EC0
:01062C0005C8
:01062D0007C5
:01062E0005C6
:01062F000EBC
:0106300003C6
:0106310003C5
:010632000EB9
:0106330005C1
:0106340008BD
:0106350006BE
:010636000FB4
:0106370004BE
:0106380004BD
:0106390000C0
:01063A0007B8
:01063B0009B5
:01063C0007B6
:01063D0000BC
:01063E0004B7
:01063F0004B6
:010640000FAA
:0106410005B3
:0106420007B0
:0106430004B2
:010644000CA9
:0106450000B4
:010646000FA4
:0106470009A9
:010648000FA2
:010649000FA1
:01064A000BA4
:01064B0002AC
:01064C0005A8
:01064D0002AA
:01064E000BA0
:01064F000F9B
:010650000E9B
:01065100099F
:010652000E99
:010653000F97
:010654000B9A
:0106550002A2
:01065600049F
:0106570001A1
:010658000998
:010659000D93
:01065A000B94
:01065B000599
:01065C000A93
:01065D000993
:01065E000497
:01065F000A90
:010660000B8E
:010661000791
:010662000E89
:010663000096
:010664000D88
:01066500058F
:01066600088B
:01066700068C
:010668000F82
:01066900028E
:01066A00018E
:01066B000B83
:01066C00008D
:01066D000F7D
:01066E000A81
:01066F000F7B
:010670000089
:010671000B7D
:010672000186
:010673000284
:010674000E77
:010675000480
:01067600067D
:010677000280
:010678000978
:010679000C74
:01067A000877
:01067B00007E
:01067C00027B
:01067D00007C
:01067E000873
:01067F000A70
:010680000871
:010681000078
:010682000374
:010683000175
:01068400096C
:010685000C68
:010686000A69
:01068700036F
:01068800066B
:01068900046C
:01068A000C63
:01068B00006E
:01068C000E5F
:01068D000666
:01068E000962
:01068F000763
:010690000069
:010691000365
:010692000067
:01069300095D
:010694000B5A
:01069500095B
:010696000162
:01069700035F
:010698000061
:010699000858
:01069A000A55
:01069B000757
:01069C000E4F
:01069D00005C
:01069E000C4F
:01069F000357
:0106A0000455
:0106A1000058
:0106A2000651
:0106A3000650
:0106A4000154
:0106A500074D
:0106A600074C
:0106A7000151
:0106A800064B
:0106A900054B
:0106AA000F40
:0106AB00024C
:0106AC00014C
:0106AD000A42
:0106AE000D3E
:0106AF000A40
:0106B0000247
:0106B1000444
:0106B2000047
:0106B300073F
:0106B400083D
:0106B5000440
:0106B600093A
:0106B7000939
:0106B800043D
:0106B9000838
:0106BA000738
:0106BB00003E
:0106BC000439
:0106BD00013B
:0106BE000932
:0106BF000B2F
:0106C0000732
:0106C1000E2A
:0106C2000F28
:0106C300092D
:0106C4000F26
:0106C5000E26
:0106C600072C
:0106C7000B27
:0106C8000829
:0106C9000030
:0106CA00022D
:0106CB000F1F
:0106CC000528
:0106CD000527
:0106CE00002B
:0106CF000426
:0106D0000326
:0106D1000C1C
:0106D2000F18
:0106D3000C1A
:0106D4000322
:0106D5000420
:0106D6000F14
:0106D700041E
:0106D800031E
:0106D9000C14
:0106DA000F10
:0106DB000C12
:0106DC00031A
:0106DD000517
:0106DE00001B
:0106DF000515
:0106E0000415
:0106E1000D0B
:0106E2000017
:0106E3000D09
:0106E4000312
:0106E5000410
:0106E6000F04
:0106E700040E
:0106E800020F
:0106E9000A06
:0106EA000D02
:0106EB000905
:0106EC000FFE
:0106ED000FFD
:0106EE000803
:0106EF000CFE
:0106F0000900
:0106F1000107
:0106F2000205
:0106F3000DF9
:0106F4000104
:0106F5000004
:0106F60008FB
:0106F7000AF8
:0106F80006FB
:0106F9000CF4
:0106FA000BF4
:0106FB0004FA
:0106FC0007F6
:0106FD0004F8
:0106FE000AF1
:0106FF000AF0
:0107000004F4
:0107010007F0
:0107020004F2
:010703000BEA
:010704000CE8
:0107050006ED
:010706000AE8
:0107070008E9
:010708000FE1
:0107090000EF
:01070A000AE4
:01070B000FDE
:01070C000CE0
:01070D0004E7
:01070E0005E5
:01070F0000E9
:0107100004E4
:0107110002E5
:0107120009DD
:010713000ADB
:0107140004E0
:0107150009DA
:0107160006DC
:010717000DD4
:010718000ED2
:0107190008D7
:01071A000CD2
:01071B000AD3
:01071C0000DC
:01071D0001DA
:01071E000AD0
:01071F000ECB
:010720000ACE
:0107210001D6
:0107220000D6
:010723000ACB
:010724000CC8
:0107250008CB
:010726000EC4
:010727000DC4
:0107280005CB
:0107290007C8
:01072A0002CC
:01072B0006C7
:01072C0004C8
:01072D000CBF
:01072E000CBE
:01072F0006C3
:010730000ABE
:0107310006C1
:010732000DB9
:010733000CB9
:0107340005BF
:0107350007BC
:0107360002C0
:0107370007BA
:0107380005BB
:010739000CB3
:01073A000DB1
:01073B0007B6
:01073C000AB2
:01073D0007B4
:01073E000CAE
:01073F000BAE
:0107400003B5
:0107410005B2
:0107420000B6
:0107430003B2
:0107440001B3
:0107450007AC
:0107460006AC
:010747000FA2
:0107480001AF
:010749000CA3
:01074A0001AD
:01074B000E9F
:01074C0005A7
:01074D0004A7
:01074E000D9D
:01074F000F9A
:010750000B9D
:010751000F98
:010752000C9A
:0107530003A2
:0107540003A1
:010755000B98
:010756000D95
:010757000899
:010758000C94
:010759000996
:01075A000F8F
:01075B000E8F
:01075C000795
:01075D000893
:01075E000298
:01075F000693
:010760000296
:01076100088F
:010762000690
:010763000D88
:010764000E86
:01076500078C
:010766000A88
:01076700058C
:010768000987
:010769000689
:01076A000D81
:01076B000C81
:01076C000488
:01076D000586
:01076E000F7B
:01076F000287
:010770000E7A
:010771000285
:010772000086
:01077300077E
:01077400067E
:010775000E75
:010776000F73
:010777000978
:010778000C74
:010779000877
:01077A000D71
:01077B000A73
:01077C00007C
:01077D000F6C
:01077E000773
:01077F000871
:010780000276
:010781000473
:010782000F67
:010783000372
:010784000074
:01078500056E
:01078600036F
:010787000A67
:010788000A66
:01078900026D
:01078A00046A
:01078B000E5F
:01078C00006C
:01078D000C5F
:01078E00006A
:01078F000D5C
:010790000266
:010791000067
:01079200075F
:01079300075E
:010794000F55
:010795000063
:010796000A58
:010797000C55
:010798000759
:010799000A55
:01079A000658
:01079B000B52
:01079C000953
:01079D000F4C
:01079E000D4D
:01079F000455
:0107A0000454
:0107A1000D4A
:0107A2000E48
:0107A300074E
:0107A400094B
:0107A500044F
:0107A600074B
:0107A700034E
:0107A8000848
:0107A900054A
:0107AA000A44
:0107AB000845
:0107AC000E3E
:0107AD000D3E
:0107AE000545
:0107AF000544
:0107B0000D3B
:0107B1000E39
:0107B200083E
:0107B3000A3B
:0107B4000440
:0107B500073C
:0107B600033F
:0107B700063B
:0107B800033D
:0107B9000738
:0107BA00043A
:0107BB000A33
:0107BC000834
:0107BD000E2D
:0107BE000D2D
:0107BF000435
:0107C0000434
:0107C1000C2B
:0107C2000C2A
:0107C3000530
:0107C400062E
:0107C5000F24
:0107C6000131
:0107C7000B26
:0107C8000D23
:0107C9000827
:0107CA000B23
:0107CB000726
:0107CC000B21
:0107CD000724
:0107CE000B1F
:0107CF000821
:0107D0000D1B
:0107D1000A1D
:0107D2000026
:0107D3000D18
:0107D4000420
:0107D5000221
:0107D6000919
:0107D700071A
:0107D8000F11
:0107D9000E11
:0107DA000618
:0107DB000518
:0107DC000D0F
:0107DD000E0D
:0107DE000614
:0107DF000712
:0107E0000018
:0107E1000116
:0107E2000A0C
:0107E3000B0A
:0107E400050F
:0107E500070C
:0107E6000111
:0107E700030E
:0107E8000D03
:0107E9000F00
:0107EA000A04
:0107EB000D00
:0107EC000705
:0107ED000A01
:0107EE000505
:0107EF000801
:0107F0000404
:0107F1000700
:0107F2000204
:0107F30006FF
:0107F4000103
:0107F50005FE
:0107F6000002
:0107F70004FD
:0107F8000000
:0107F90004FB
:0107FA0000FE
:0107FB0004F9
:0107FC0000FC
:0107FD0004F7
:0107FE0000FA
:0107FF0004F5
:00000001ff
