:020000040000FA
:0100000000FF
:010001000FEF
:010002000FEE
:010003000FED
:010004000FEC
:010005000EEC
:010006000EEB
:010007000DEB
:010008000DEA
:010009000CEA
:01000A000BEA
:01000B000AEA
:01000C0009EA
:01000D0008EA
:01000E0006EB
:01000F0005EB
:0100100004EB
:0100110002EC
:0100120000ED
:010013000FDD
:010014000DDE
:010015000BDF
:0100160009E0
:0100170007E1
:0100180005E2
:0100190003E3
:01001A0000E5
:01001B000ED6
:01001C000BD8
:01001D0009D9
:01001E0006DB
:01001F0003DD
:0100200000DF
:010021000ED0
:010022000AD3
:0100230007D5
:0100240004D7
:0100250001D9
:010026000DCC
:010027000ACE
:0100280006D1
:0100290003D3
:01002A000FC6
:01002B000BC9
:01002C0007CC
:01002D0003CF
:01002E000FC2
:01002F000BC5
:0100300007C8
:0100310002CC
:010032000EBF
:010033000AC2
:0100340005C6
:0100350000CA
:010036000BBE
:0100370007C1
:0100380002C5
:010039000DB9
:01003A0008BD
:01003B0002C2
:01003C000DB6
:01003D0008BA
:01003E0002BF
:01003F000DB3
:0100400007B8
:0100410002BC
:010042000CB1
:0100430006B6
:0100440000BB
:010045000AB0
:0100460004B5
:010047000EAA
:0100480007B0
:0100490001B5
:01004A000BAA
:01004B0004B0
:01004C000EA5
:01004D0007AB
:01004E0000B1
:01004F0009A7
:0100500002AD
:010051000BA3
:0100520004A9
:010053000D9F
:0100540006A5
:010055000F9B
:0100560007A2
:0100570000A8
:01005800089F
:0100590001A5
:01005A00099C
:01005B0001A3
:01005C00099A
:01005D0001A1
:01005E000998
:01005F00019F
:010060000996
:01006100019D
:010062000895
:01006300009C
:010064000893
:010065000F8B
:010066000693
:010067000E8A
:010068000592
:010069000C8A
:01006A000392
:01006B000A8A
:01006C000192
:01006D00088A
:01006E000E83
:01006F00058B
:010070000C83
:01007100028C
:010072000984
:010073000F7D
:010074000586
:010075000B7F
:010076000287
:010077000880
:010078000E79
:010079000482
:01007A00097C
:01007B000F75
:01007C00057E
:01007D000A78
:01007E000081
:01007F00057B
:010080000B74
:01008100007E
:010082000578
:010083000B71
:01008400007B
:010085000575
:010086000A6F
:010087000F69
:010088000374
:01008900086E
:01008A000D68
:01008B000173
:01008C00066D
:01008D000A68
:01008E000F62
:01008F00036D
:010090000768
:010091000B63
:010092000F5E
:010093000468
:010094000764
:010095000B5F
:010096000F5A
:010097000365
:010098000760
:010099000A5C
:01009A000E57
:01009B000163
:01009C00055E
:01009D00085A
:01009E000B56
:01009F000E52
:0100A000015E
:0100A100045A
:0100A2000756
:0100A3000A52
:0100A4000D4E
:0100A500005A
:0100A6000356
:0100A7000553
:0100A800084F
:0100A9000A4C
:0100AA000D48
:0100AB000F45
:0100AC000152
:0100AD00034F
:0100AE00064B
:0100AF000848
:0100B0000A45
:0100B1000C42
:0100B2000D40
:0100B3000F3D
:0100B400014A
:0100B5000347
:0100B6000445
:0100B7000642
:0100B8000740
:0100B900093D
:0100BA000A3B
:0100BB000B39
:0100BC000D36
:0100BD000E34
:0100BE000F32
:0100BF000040
:0100C000013E
:0100C100023C
:0100C200023B
:0100C3000339
:0100C4000437
:0100C5000535
:0100C6000534
:0100C7000632
:0100C8000631
:0100C9000630
:0100CA00072E
:0100CB00072D
:0100CC00072C
:0100CD00072B
:0100CE00072A
:0100CF000729
:0100D0000728
:0100D1000727
:0100D2000726
:0100D3000626
:0100D4000625
:0100D5000624
:0100D6000524
:0100D7000523
:0100D8000423
:0100D9000323
:0100DA000322
:0100DB000222
:0100DC000122
:0100DD000022
:0100DE000F12
:0100DF000E12
:0100E0000D12
:0100E1000C12
:0100E2000B12
:0100E3000913
:0100E4000813
:0100E5000713
:0100E6000514
:0100E7000414
:0100E8000215
:0100E9000016
:0100EA000F06
:0100EB000D07
:0100EC000B08
:0100ED000909
:0100EE00070A
:0100EF00050B
:0100F000030C
:0100F100010D
:0100F2000FFE
:0100F3000DFF
:0100F4000A01
:0100F5000802
:0100F6000603
:0100F7000305
:0100F8000007
:0100F9000EF8
:0100FA000BFA
:0100FB0008FC
:0100FC0006FD
:0100FD0003FF
:0100FE000001
:0100FF000DF3
:010100000AF4
:0101010007F6
:0101020004F8
:0101030001FA
:010104000DED
:010105000AEF
:0101060007F1
:0101070003F4
:0101080000F6
:010109000CE9
:01010A0009EB
:01010B0005EE
:01010C0001F1
:01010D000DE4
:01010E000AE6
:01010F0006E9
:0101100002EC
:010111000EDF
:010112000AE2
:0101130006E5
:0101140001E9
:010115000DDC
:0101160009DF
:0101170005E2
:0101180000E6
:010119000CD9
:01011A0007DD
:01011B0003E0
:01011C000ED4
:01011D0009D8
:01011E0005DB
:01011F0000DF
:010120000BD3
:0101210006D7
:0101220001DB
:010123000CCF
:0101240007D3
:0101250002D7
:010126000DCB
:0101270007D0
:0101280002D4
:010129000DC8
:01012A0007CD
:01012B0002D1
:01012C000CC6
:01012D0007CA
:01012E0001CF
:01012F000CC3
:0101300006C8
:0101310000CD
:010132000AC2
:0101330004C7
:010134000FBB
:0101350009C0
:0101360002C6
:010137000CBB
:0101380006C0
:0101390000C5
:01013A000ABA
:01013B0003C0
:01013C000DB5
:01013D0007BA
:01013E0000C0
:01013F000AB5
:0101400003BB
:010141000DB0
:0101420006B6
:010143000FAC
:0101440008B2
:0101450002B7
:010146000BAD
:0101470004B3
:010148000DA9
:0101490006AF
:01014A000FA5
:01014B0007AC
:01014C0000B2
:01014D0009A8
:01014E0002AE
:01014F000AA5
:0101500003AB
:010151000BA2
:0101520004A8
:010153000C9F
:0101540005A5
:010155000D9C
:0101560005A3
:010157000E99
:0101580006A0
:010159000E97
:01015A00069E
:01015B000E95
:01015C00069C
:01015D000E93
:01015E00069A
:01015F000E91
:010160000698
:010161000D90
:010162000597
:010163000D8E
:010164000496
:010165000C8D
:010166000395
:010167000B8C
:010168000294
:010169000A8B
:01016A000193
:01016B00088B
:01016C000F83
:01016D00068B
:01016E000E82
:01016F00058A
:010170000C82
:01017100038A
:010172000983
:01017300008B
:010174000783
:010175000E7B
:010176000583
:010177000B7C
:010178000284
:01017900097C
:01017A000F75
:01017B00067D
:01017C000C76
:01017D00027F
:01017E000977
:01017F000F70
:010180000579
:010181000B72
:01018200027A
:010183000873
:010184000E6C
:010185000475
:010186000A6E
:010187000077
:010188000571
:010189000B6A
:01018A000173
:01018B00076C
:01018C000C66
:01018D00026F
:01018E000868
:01018F000D62
:01019000036B
:010191000865
:010192000E5E
:010193000368
:010194000862
:010195000E5B
:010196000365
:01019700085F
:010198000D59
:010199000263
:01019A00075D
:01019B000C57
:01019C000161
:01019D00065B
:01019E000B55
:01019F00005F
:0101A0000559
:0101A1000954
:0101A2000E4E
:0101A3000358
:0101A4000753
:0101A5000C4D
:0101A6000058
:0101A7000552
:0101A800094D
:0101A9000D48
:0101AA000252
:0101AB00064D
:0101AC000A48
:0101AD000E43
:0101AE00034D
:0101AF000748
:0101B0000B43
:0101B1000F3E
:0101B2000349
:0101B3000744
:0101B4000B3F
:0101B5000E3B
:0101B6000246
:0101B7000641
:0101B8000A3C
:0101B9000D38
:0101BA000143
:0101BB00053E
:0101BC00083A
:0101BD000C35
:0101BE000F31
:0101BF00033C
:0101C0000638
:0101C1000934
:0101C2000D2F
:0101C300003B
:0101C4000337
:0101C5000633
:0101C600092F
:0101C7000C2B
:0101C8000F27
:0101C9000233
:0101CA00052F
:0101CB00082B
:0101CC000B27
:0101CD000E23
:0101CE00012F
:0101CF00042B
:0101D0000628
:0101D1000924
:0101D2000C20
:0101D3000E1D
:0101D4000129
:0101D5000326
:0101D6000622
:0101D700081F
:0101D8000A1C
:0101D9000D18
:0101DA000F15
:0101DB000122
:0101DC00031F
:0101DD00061B
:0101DE000818
:0101DF000A15
:0101E0000C12
:0101E1000E0F
:0101E200001C
:0101E3000219
:0101E4000416
:0101E5000613
:0101E6000711
:0101E700090E
:0101E8000B0B
:0101E9000D08
:0101EA000E06
:0101EB000013
:0101EC000111
:0101ED00030E
:0101EE00040C
:0101EF000609
:0101F0000707
:0101F1000904
:0101F2000A02
:0101F3000B00
:0101F4000CFE
:0101F5000EFB
:0101F6000FF9
:0101F7000007
:0101F8000105
:0101F9000203
:0101FA000301
:0101FB0004FF
:0101FC0005FD
:0101FD0006FB
:0101FE0007F9
:0101FF0008F7
:0102000008F5
:0102010009F3
:010202000AF1
:010203000BEF
:010204000BEE
:010205000CEC
:010206000CEB
:010207000DE9
:010208000DE8
:010209000EE6
:01020A000EE5
:01020B000FE3
:01020C000FE2
:01020D000FE1
:01020E000FE0
:01020F0000EE
:0102100000ED
:0102110000EC
:0102120000EB
:0102130000EA
:0102140000E9
:0102150000E8
:0102160000E7
:0102170000E6
:0102180000E5
:0102190000E4
:01021A0000E3
:01021B000FD3
:01021C000FD2
:01021D000FD1
:01021E000ED1
:01021F000ED0
:010220000ECF
:010221000DCF
:010222000DCE
:010223000CCE
:010224000CCD
:010225000BCD
:010226000ACD
:010227000ACC
:0102280009CC
:0102290008CC
:01022A0008CB
:01022B0007CB
:01022C0006CB
:01022D0005CB
:01022E0004CB
:01022F0003CB
:0102300002CB
:0102310001CB
:0102320000CB
:010233000FBB
:010234000EBB
:010235000DBB
:010236000BBC
:010237000ABC
:0102380009BC
:0102390008BC
:01023A0006BD
:01023B0005BD
:01023C0004BD
:01023D0002BE
:01023E0001BE
:01023F000FAF
:010240000EAF
:010241000CB0
:010242000AB1
:0102430009B1
:0102440007B2
:0102450005B3
:0102460003B4
:0102470002B4
:0102480000B5
:010249000EA6
:01024A000CA7
:01024B000AA8
:01024C0008A9
:01024D0006AA
:01024E0004AB
:01024F0002AC
:0102500000AD
:010251000E9E
:010252000C9F
:0102530009A1
:0102540007A2
:0102550005A3
:0102560003A4
:0102570000A6
:010258000E97
:010259000B99
:01025A00099A
:01025B00079B
:01025C00049D
:01025D00029E
:01025E000F90
:01025F000C92
:010260000A93
:010261000795
:010262000497
:010263000298
:010264000F8A
:010265000C8C
:01026600098E
:010267000690
:010268000392
:010269000094
:01026A000D86
:01026B000A88
:01026C00078A
:01026D00048C
:01026E00018E
:01026F000E80
:010270000B82
:010271000884
:010272000586
:010273000189
:010274000E7B
:010275000B7D
:010276000780
:010277000482
:010278000085
:010279000D77
:01027A000A79
:01027B00067C
:01027C00027F
:01027D000F71
:01027E000B74
:01027F000876
:010280000479
:01028100007C
:010282000C6F
:010283000971
:010284000574
:010285000177
:010286000D6A
:01028700096D
:010288000570
:010289000173
:01028A000D66
:01028B000969
:01028C00056C
:01028D00016F
:01028E000D62
:01028F000965
:010290000568
:01029100016B
:010292000C5F
:010293000862
:010294000465
:010295000F59
:010296000B5C
:01029700075F
:010298000263
:010299000E56
:01029A00095A
:01029B00055D
:01029C000061
:01029D000C54
:01029E000758
:01029F00025C
:0102A0000E4F
:0102A1000953
:0102A2000457
:0102A300005A
:0102A4000B4E
:0102A5000652
:0102A6000156
:0102A7000C4A
:0102A800074E
:0102A9000252
:0102AA000D46
:0102AB00084A
:0102AC00034E
:0102AD000E42
:0102AE000946
:0102AF00044A
:0102B0000F3E
:0102B1000A42
:0102B2000546
:0102B3000F3B
:0102B4000A3F
:0102B5000543
:0102B6000047
:0102B7000A3C
:0102B8000540
:0102B9000F35
:0102BA000A39
:0102BB00053D
:0102BC000F32
:0102BD000A36
:0102BE00043B
:0102BF000E30
:0102C0000934
:0102C1000339
:0102C2000E2D
:0102C3000832
:0102C4000237
:0102C5000C2C
:0102C6000730
:0102C7000135
:0102C8000B2A
:0102C900052F
:0102CA000F24
:0102CB000929
:0102CC00032E
:0102CD000D23
:0102CE000728
:0102CF00012D
:0102D0000B22
:0102D1000527
:0102D2000F1C
:0102D3000921
:0102D4000326
:0102D5000C1C
:0102D6000621
:0102D7000026
:0102D8000A1B
:0102D9000321
:0102DA000D16
:0102DB00071B
:0102DC000021
:0102DD000A16
:0102DE00031C
:0102DF000D11
:0102E0000617
:0102E100001C
:0102E2000912
:0102E3000317
:0102E4000C0D
:0102E5000513
:0102E6000F08
:0102E700080E
:0102E8000114
:0102E9000B09
:0102EA00040F
:0102EB000D05
:0102EC00060B
:0102ED000F01
:0102EE000807
:0102EF00010D
:0102F0000B02
:0102F1000408
:0102F2000DFE
:0102F3000604
:0102F4000FFA
:0102F5000701
:0102F6000007
:0102F70009FD
:0102F8000203
:0102F9000BF9
:0102FA0004FF
:0102FB000CF6
:0102FC0005FC
:0102FD000EF2
:0102FE0007F8
:0102FF000FEF
:0103000008F4
:0103010000FB
:0103020009F1
:0103030002F7
:010304000AEE
:0103050003F4
:010306000BEB
:0103070004F1
:010308000CE8
:0103090004EF
:01030A000DE5
:01030B0005EC
:01030C000DE3
:01030D0006E9
:01030E000EE0
:01030F0006E7
:010310000EDE
:0103110007E4
:010312000FDB
:0103130007E2
:010314000FD9
:0103150007E0
:010316000FD7
:0103170007DE
:010318000FD5
:0103190007DC
:01031A000FD3
:01031B0007DA
:01031C000FD1
:01031D0007D8
:01031E000FCF
:01031F0007D6
:010320000ECE
:0103210006D5
:010322000ECC
:0103230006D3
:010324000DCB
:0103250005D2
:010326000DC9
:0103270004D1
:010328000CC8
:0103290004CF
:01032A000BC7
:01032B0003CE
:01032C000AC6
:01032D0002CD
:01032E0009C5
:01032F0001CC
:0103300008C4
:010331000FBC
:0103320007C3
:010333000EBB
:0103340005C3
:010335000DBA
:0103360004C2
:010337000BBA
:0103380002C2
:010339000AB9
:01033A0001C1
:01033B0008B9
:01033C000FB1
:01033D0006B9
:01033E000DB1
:01033F0004B9
:010340000BB1
:0103410002B9
:0103420009B1
:0103430000B9
:0103440007B1
:010345000EA9
:0103460005B1
:010347000CA9
:0103480003B1
:0103490009AA
:01034A0000B2
:01034B0007AA
:01034C000EA2
:01034D0004AB
:01034E000BA3
:01034F0002AB
:0103500008A4
:010351000F9C
:0103520006A4
:010353000C9D
:0103540003A5
:01035500099E
:0103560000A6
:01035700069F
:010358000D97
:0103590003A0
:01035A000A98
:01035B0000A1
:01035C00069A
:01035D000D92
:01035E00039B
:01035F000994
:01036000009C
:010361000695
:010362000C8E
:010363000297
:01036400098F
:010365000F88
:010366000591
:010367000B8A
:010368000193
:01036900078C
:01036A000D85
:01036B00038E
:01036C000987
:01036D000F80
:01036E000589
:01036F000B82
:01037000018B
:010371000784
:010372000D7D
:010373000386
:010374000880
:010375000E79
:010376000482
:010377000A7B
:010378000F75
:01037900057E
:01037A000B77
:01037B000180
:01037C00067A
:01037D000C73
:01037E00017D
:01037F000776
:010380000D6F
:010381000279
:010382000872
:010383000D6C
:010384000375
:01038500086F
:010386000D69
:010387000372
:01038800086C
:010389000E65
:01038A00036F
:01038B000869
:01038C000E62
:01038D00036C
:01038E000866
:01038F000D60
:01039000026A
:010391000863
:010392000D5D
:010393000267
:010394000761
:010395000C5B
:010396000165
:01039700065F
:010398000B59
:010399000063
:01039A00055D
:01039B000A57
:01039C000F51
:01039D00045B
:01039E000955
:01039F000E4F
:0103A0000359
:0103A1000853
:0103A2000D4D
:0103A3000158
:0103A4000652
:0103A5000B4C
:0103A6000056
:0103A7000451
:0103A800094B
:0103A9000E45
:0103AA000250
:0103AB00074A
:0103AC000C44
:0103AD00004F
:0103AE000549
:0103AF000944
:0103B0000E3E
:0103B1000249
:0103B2000743
:0103B3000B3E
:0103B4000048
:0103B5000443
:0103B600093D
:0103B7000D38
:0103B8000242
:0103B900063D
:0103BA000A38
:0103BB000F32
:0103BC00033D
:0103BD000738
:0103BE000B33
:0103BF00003D
:0103C0000438
:0103C1000833
:0103C2000C2E
:0103C3000039
:0103C4000434
:0103C500082F
:0103C6000D29
:0103C7000134
:0103C800052F
:0103C900092A
:0103CA000D25
:0103CB000130
:0103CC00052B
:0103CD000926
:0103CE000D21
:0103CF00002D
:0103D0000428
:0103D1000823
:0103D2000C1E
:0103D3000029
:0103D4000424
:0103D500081F
:0103D6000B1B
:0103D7000F16
:0103D8000321
:0103D900071C
:0103DA000A18
:0103DB000E13
:0103DC00021E
:0103DD00051A
:0103DE000915
:0103DF000C11
:0103E000001C
:0103E1000417
:0103E2000713
:0103E3000B0E
:0103E4000E0A
:0103E5000215
:0103E6000511
:0103E700080D
:0103E8000C08
:0103E9000F04
:0103EA00030F
:0103EB00060B
:0103EC000907
:0103ED000D02
:0103EE00000E
:0103EF00030A
:0103F0000705
:0103F1000A01
:0103F2000DFD
:0103F3000009
:0103F4000305
:0103F5000700
:0103F6000AFC
:0103F7000DF8
:0103F8000004
:0103F9000300
:0103FA0006FC
:0103FB0009F8
:0103FC000CF4
:0103FD000FF0
:0103FE0002FC
:0103FF0005F8
:0104000008F3
:010401000BEF
:010402000EEB
:0104030001F7
:0104040004F3
:0104050007EF
:010406000AEB
:010407000DE7
:0104080000F3
:0104090002F0
:01040A0005EC
:01040B0008E8
:01040C000BE4
:01040D000DE1
:01040E0000ED
:01040F0003E9
:0104100005E6
:0104110008E2
:010412000BDE
:010413000DDB
:0104140000E7
:0104150003E3
:0104160005E0
:0104170008DC
:010418000AD9
:010419000DD5
:01041A000FD2
:01041B0002DE
:01041C0004DB
:01041D0007D7
:01041E0009D4
:01041F000BD1
:010420000ECD
:0104210000DA
:0104220003D6
:0104230005D3
:0104240007D0
:010425000ACC
:010426000CC9
:010427000EC6
:0104280000D3
:0104290003CF
:01042A0005CC
:01042B0007C9
:01042C0009C6
:01042D000BC3
:01042E000DC0
:01042F0000CC
:0104300002C9
:0104310004C6
:0104320006C3
:0104330008C0
:010434000ABD
:010435000CBA
:010436000EB7
:0104370000C4
:0104380002C1
:0104390004BE
:01043A0006BB
:01043B0008B8
:01043C000AB5
:01043D000CB2
:01043E000DB0
:01043F000FAD
:0104400001BA
:0104410003B7
:0104420005B4
:0104430007B1
:0104440008AF
:010445000AAC
:010446000CA9
:010447000DA7
:010448000FA4
:0104490001B1
:01044A0003AE
:01044B0004AC
:01044C0006A9
:01044D0007A7
:01044E0009A4
:01044F000BA1
:010450000C9F
:010451000E9C
:010452000F9A
:0104530001A7
:0104540002A5
:0104550004A2
:0104560005A0
:01045700079D
:01045800089B
:010459000999
:01045A000B96
:01045B000C94
:01045C000E91
:01045D000F8F
:01045E00009D
:01045F00029A
:010460000398
:010461000496
:010462000594
:010463000791
:01046400088F
:01046500098D
:010466000A8B
:010467000C88
:010468000D86
:010469000E84
:01046A000F82
:01046B000090
:01046C00018E
:01046D00028C
:01046E00038A
:01046F000488
:010470000586
:010471000783
:010472000881
:01047300097F
:01047400097E
:010475000A7C
:010476000B7A
:010477000C78
:010478000D76
:010479000E74
:01047A000F72
:01047B000080
:01047C00017E
:01047D00027C
:01047E00027B
:01047F000379
:010480000477
:010481000575
:010482000574
:010483000672
:010484000770
:01048500086E
:01048600086D
:01048700096B
:010488000A69
:010489000A68
:01048A000B66
:01048B000C64
:01048C000C63
:01048D000D61
:01048E000D60
:01048F000E5E
:010490000E5D
:010491000F5B
:010492000F5A
:010493000068
:010494000067
:010495000165
:010496000164
:010497000262
:010498000261
:01049900035F
:01049A00035E
:01049B00035D
:01049C00045B
:01049D00045A
:01049E000459
:01049F000557
:0104A0000556
:0104A1000555
:0104A2000554
:0104A3000652
:0104A4000651
:0104A5000650
:0104A600064F
:0104A700064E
:0104A800074C
:0104A900074B
:0104AA00074A
:0104AB000749
:0104AC000748
:0104AD000747
:0104AE000746
:0104AF000745
:0104B0000744
:0104B1000842
:0104B2000841
:0104B3000840
:0104B400083F
:0104B500083E
:0104B600073E
:0104B700073D
:0104B800073C
:0104B900073B
:0104BA00073A
:0104BB000739
:0104BC000738
:0104BD000737
:0104BE000736
:0104BF000735
:0104C0000635
:0104C1000634
:0104C2000633
:0104C3000632
:0104C4000532
:0104C5000531
:0104C6000530
:0104C700052F
:0104C800042F
:0104C900042E
:0104CA00042D
:0104CB00032D
:0104CC00032C
:0104CD00032B
:0104CE00022B
:0104CF00022A
:0104D000012A
:0104D1000129
:0104D2000128
:0104D3000028
:0104D4000027
:0104D5000F17
:0104D6000F16
:0104D7000E16
:0104D8000E15
:0104D9000D15
:0104DA000D14
:0104DB000C14
:0104DC000B14
:0104DD000B13
:0104DE000A13
:0104DF000A12
:0104E0000912
:0104E1000812
:0104E2000811
:0104E3000711
:0104E4000611
:0104E5000511
:0104E6000510
:0104E7000410
:0104E8000310
:0104E900030F
:0104EA00020F
:0104EB00010F
:0104EC00000F
:0104ED000FFF
:0104EE000EFF
:0104EF000EFE
:0104F0000DFE
:0104F1000CFE
:0104F2000BFE
:0104F3000AFE
:0104F40009FE
:0104F50008FE
:0104F60007FE
:0104F70006FE
:0104F80005FE
:0104F90004FE
:0104FA0003FE
:0104FB0002FE
:0104FC0001FE
:0104FD0000FE
:0104FE000FEE
:0104FF000EEE
:010500000DED
:010501000CED
:010502000BED
:010503000AED
:0105040009ED
:0105050008ED
:0105060006EE
:0105070005EE
:0105080004EE
:0105090003EE
:01050A0002EE
:01050B0000EF
:01050C000FDF
:01050D000EDF
:01050E000DDF
:01050F000BE0
:010510000AE0
:0105110009E0
:0105120007E1
:0105130006E1
:0105140005E1
:0105150003E2
:0105160002E2
:0105170001E2
:010518000FD3
:010519000ED3
:01051A000CD4
:01051B000BD4
:01051C000AD4
:01051D0008D5
:01051E0007D5
:01051F0005D6
:0105200004D6
:0105210002D7
:0105220001D7
:010523000FC8
:010524000DC9
:010525000CC9
:010526000ACA
:0105270009CA
:0105280007CB
:0105290006CB
:01052A0004CC
:01052B0002CD
:01052C0001CD
:01052D000FBE
:01052E000DBF
:01052F000CBF
:010530000AC0
:0105310008C1
:0105320006C2
:0105330005C2
:0105340003C3
:0105350001C4
:010536000FB5
:010537000EB5
:010538000CB6
:010539000AB7
:01053A0008B8
:01053B0006B9
:01053C0004BA
:01053D0003BA
:01053E0001BB
:01053F000FAC
:010540000DAD
:010541000BAE
:0105420009AF
:0105430007B0
:0105440005B1
:0105450003B2
:0105460001B3
:010547000FA4
:010548000DA5
:010549000BA6
:01054A0009A7
:01054B0007A8
:01054C0005A9
:01054D0003AA
:01054E0001AB
:01054F000F9C
:010550000D9D
:010551000B9E
:0105520008A0
:0105530006A1
:0105540004A2
:0105550002A3
:0105560000A4
:010557000E95
:010558000B97
:010559000998
:01055A000799
:01055B00059A
:01055C00029C
:01055D00009D
:01055E000E8E
:01055F000C8F
:010560000991
:010561000792
:010562000593
:010563000295
:010564000096
:010565000E87
:010566000B89
:01056700098A
:01056800068C
:01056900048D
:01056A00028E
:01056B000F80
:01056C000D81
:01056D000A83
:01056E000884
:01056F000586
:010570000387
:010571000089
:010572000E7A
:010573000B7C
:01057400097D
:01057500067F
:010576000480
:010577000182
:010578000F73
:010579000C75
:01057A000977
:01057B000778
:01057C00047A
:01057D00017C
:01057E000F6D
:01057F000C6F
:010580000971
:010581000772
:010582000474
:010583000176
:010584000F67
:010585000C69
:01058600096B
:01058700066D
:01058800046E
:010589000170
:01058A000E62
:01058B000B64
:01058C000866
:01058D000667
:01058E000369
:01058F00006B
:010590000D5D
:010591000A5F
:010592000761
:010593000463
:010594000264
:010595000F56
:010596000C58
:01059700095A
:01059800065C
:01059900035E
:01059A000060
:01059B000D52
:01059C000A54
:01059D000756
:01059E000458
:01059F00015A
:0105A0000E4C
:0105A1000B4E
:0105A2000850
:0105A3000552
:0105A4000254
:0105A5000E47
:0105A6000B49
:0105A700084B
:0105A800054D
:0105A900024F
:0105AA000F41
:0105AB000C43
:0105AC000846
:0105AD000548
:0105AE00024A
:0105AF000F3C
:0105B0000C3E
:0105B1000841
:0105B2000543
:0105B3000245
:0105B4000F37
:0105B5000B3A
:0105B600083C
:0105B700053E
:0105B8000240
:0105B9000E33
:0105BA000B35
:0105BB000837
:0105BC00043A
:0105BD00013C
:0105BE000E2E
:0105BF000A31
:0105C0000733
:0105C1000336
:0105C2000038
:0105C3000D2A
:0105C400092D
:0105C500062F
:0105C6000232
:0105C7000F24
:0105C8000B27
:0105C9000829
:0105CA00042C
:0105CB00012E
:0105CC000D21
:0105CD000A23
:0105CE000626
:0105CF000328
:0105D0000F1B
:0105D1000B1E
:0105D2000820
:0105D3000423
:0105D4000125
:0105D5000D18
:0105D600091B
:0105D700061D
:0105D8000220
:0105D9000F12
:0105DA000B15
:0105DB000718
:0105DC00041A
:0105DD00001D
:0105DE000C10
:0105DF000813
:0105E0000515
:0105E1000118
:0105E2000D0B
:0105E300090E
:0105E4000610
:0105E5000213
:0105E6000E06
:0105E7000A09
:0105E800060C
:0105E900030E
:0105EA000F01
:0105EB000B04
:0105EC000707
:0105ED00030A
:0105EE000FFD
:0105EF000CFF
:0105F0000802
:0105F1000405
:0105F2000008
:0105F3000CFB
:0105F40008FE
:0105F5000401
:0105F6000004
:0105F7000CF7
:0105F80008FA
:0105F90004FD
:0105FA000000
:0105FB000CF3
:0105FC0008F6
:0105FD0004F9
:0105FE0000FC
:0105FF000CEF
:0106000008F1
:0106010004F4
:0106020000F7
:010603000CEA
:0106040008ED
:0106050004F0
:010606000FE4
:010607000BE7
:0106080007EA
:0106090003ED
:01060A000FE0
:01060B000BE3
:01060C0007E6
:01060D0002EA
:01060E000EDD
:01060F000AE0
:0106100006E3
:0106110002E6
:010612000DDA
:0106130009DD
:0106140005E0
:0106150001E3
:010616000CD7
:0106170008DA
:0106180004DD
:010619000FD1
:01061A000BD4
:01061B0007D7
:01061C0002DB
:01061D000ECE
:01061E000AD1
:01061F0005D5
:0106200001D8
:010621000DCB
:0106220008CF
:0106230004D2
:010624000FC6
:010625000BC9
:0106260007CC
:0106270002D0
:010628000EC3
:0106290009C7
:01062A0005CA
:01062B0000CE
:01062C000CC1
:01062D0007C5
:01062E0003C8
:01062F000EBC
:010630000ABF
:0106310005C3
:0106320001C6
:010633000CBA
:0106340008BD
:0106350003C1
:010636000FB4
:010637000AB8
:0106380005BC
:0106390001BF
:01063A000CB3
:01063B0008B6
:01063C0003BA
:01063D000EAE
:01063E000AB1
:01063F0005B5
:0106400000B9
:010641000CAC
:0106420007B0
:0106430002B4
:010644000DA8
:0106450009AB
:0106460004AF
:010647000FA3
:010648000BA6
:0106490006AA
:01064A0001AE
:01064B000CA2
:01064C0007A6
:01064D0003A9
:01064E000E9D
:01064F0009A1
:0106500004A5
:010651000F99
:010652000B9C
:0106530006A0
:0106540001A4
:010655000C98
:01065600079C
:0106570002A0
:010658000D94
:010659000898
:01065A00049B
:01065B000F8F
:01065C000A93
:01065D000597
:01065E00009B
:01065F000B8F
:010660000693
:010661000197
:010662000C8B
:01066300078F
:010664000293
:010665000D87
:01066600088B
:01066700038F
:010668000E83
:010669000987
:01066A00048B
:01066B000F7F
:01066C000A83
:01066D000587
:01066E000F7C
:01066F000A80
:010670000584
:010671000088
:010672000B7C
:010673000680
:010674000184
:010675000C78
:01067600067D
:010677000181
:010678000C75
:010679000779
:01067A00027D
:01067B000D71
:01067C000776
:01067D00027A
:01067E000D6E
:01067F000872
:010680000277
:010681000D6B
:01068200086F
:010683000373
:010684000D68
:01068500086C
:010686000370
:010687000D65
:010688000869
:01068900036D
:01068A000D62
:01068B000866
:01068C00036A
:01068D000D5F
:01068E000863
:01068F000367
:010690000D5C
:010691000860
:010692000265
:010693000D59
:01069400085D
:010695000262
:010696000D56
:01069700075B
:01069800025F
:010699000C54
:01069A000758
:01069B00015D
:01069C000C51
:01069D000656
:01069E00015A
:01069F000B4F
:0106A0000653
:0106A1000058
:0106A2000B4C
:0106A3000551
:0106A4000055
:0106A5000A4A
:0106A600054E
:0106A7000F43
:0106A8000948
:0106A900044C
:0106AA000E41
:0106AB000945
:0106AC00034A
:0106AD000D3F
:0106AE000843
:0106AF000248
:0106B0000C3D
:0106B1000741
:0106B2000146
:0106B3000B3B
:0106B400063F
:0106B5000044
:0106B6000A39
:0106B700053D
:0106B8000F32
:0106B9000937
:0106BA00033C
:0106BB000E30
:0106BC000835
:0106BD00023A
:0106BE000C2F
:0106BF000733
:0106C0000138
:0106C1000B2D
:0106C2000532
:0106C3000F27
:0106C4000A2B
:0106C5000430
:0106C6000E25
:0106C700082A
:0106C800022F
:0106C9000C24
:0106CA000728
:0106CB00012D
:0106CC000B22
:0106CD000527
:0106CE000F1C
:0106CF000921
:0106D0000326
:0106D1000D1B
:0106D2000720
:0106D3000125
:0106D4000B1A
:0106D500061E
:0106D6000023
:0106D7000A18
:0106D800041D
:0106D9000E12
:0106DA000817
:0106DB00021C
:0106DC000C11
:0106DD000616
:0106DE00001B
:0106DF000A10
:0106E0000415
:0106E1000D0B
:0106E2000710
:0106E3000115
:0106E4000B0A
:0106E500050F
:0106E6000F04
:0106E7000909
:0106E800030E
:0106E9000D03
:0106EA000708
:0106EB00010D
:0106EC000A03
:0106ED000408
:0106EE000EFD
:0106EF000802
:0106F0000207
:0106F1000CFC
:0106F2000502
:0106F3000FF7
:0106F40009FC
:0106F5000301
:0106F6000DF6
:0106F70006FC
:0106F8000001
:0106F9000AF6
:0106FA0004FB
:0106FB000EF0
:0106FC0007F6
:0106FD0001FB
:0106FE000BF0
:0106FF0004F6
:010700000EEA
:0107010008EF
:0107020002F4
:010703000BEA
:0107040005EF
:010705000FE4
:0107060008EA
:0107070002EF
:010708000CE4
:0107090005EA
:01070A000FDF
:01070B0008E5
:01070C0002EA
:01070D000CDF
:01070E0005E5
:01070F000FDA
:0107100009DF
:0107110002E5
:010712000CDA
:0107130005E0
:010714000FD5
:0107150008DB
:0107160002E0
:010717000BD6
:0107180005DB
:010719000FD0
:01071A0008D6
:01071B0002DB
:01071C000BD1
:01071D0005D6
:01071E000ECC
:01071F0008D1
:0107200001D7
:010721000ACD
:0107220004D2
:010723000DC8
:0107240007CD
:0107250000D3
:010726000AC8
:0107270003CE
:010728000DC3
:0107290006C9
:01072A000FBF
:01072B0009C4
:01072C0002CA
:01072D000BC0
:01072E0005C5
:01072F000EBB
:0107300008C0
:0107310001C6
:010732000ABC
:0107330004C1
:010734000DB7
:0107350006BD
:0107360000C2
:0107370009B8
:0107380002BE
:010739000BB4
:01073A0005B9
:01073B000EAF
:01073C0007B5
:01073D0001BA
:01073E000AB0
:01073F0003B6
:010740000CAC
:0107410006B1
:010742000FA7
:0107430008AD
:0107440001B3
:010745000AA9
:0107460004AE
:010747000DA4
:0107480006AA
:010749000FA0
:01074A0008A6
:01074B0002AB
:01074C000BA1
:01074D0004A7
:01074E000D9D
:01074F0006A3
:010750000F99
:01075100089F
:0107520001A5
:010753000B9A
:0107540004A0
:010755000D96
:01075600069C
:010757000F92
:010758000898
:01075900019E
:01075A000A94
:01075B00039A
:01075C000C90
:01075D000596
:01075E000E8C
:01075F000792
:010760000098
:01076100098E
:010762000294
:010763000B8A
:010764000490
:010765000D86
:01076600068C
:010767000F82
:010768000888
:01076900018E
:01076A000A84
:01076B00038A
:01076C000C80
:01076D000586
:01076E000E7C
:01076F000782
:010770000088
:01077100097E
:010772000284
:010773000A7B
:010774000381
:010775000C77
:01077600057D
:010777000E73
:010778000779
:01077900007F
:01077A000975
:01077B00017C
:01077C000A72
:01077D000378
:01077E000C6E
:01077F000574
:010780000D6B
:010781000671
:010782000F67
:01078300086D
:010784000173
:01078500096A
:010786000270
:010787000B66
:01078800046C
:010789000C63
:01078A000569
:01078B000E5F
:01078C000765
:01078D000F5C
:01078E000862
:01078F000168
:01079000095F
:010791000265
:010792000B5B
:010793000362
:010794000C58
:01079500055E
:010796000D55
:01079700065B
:010798000F51
:010799000758
:01079A00005E
:01079B000954
:01079C00015B
:01079D000A51
:01079E000258
:01079F000B4E
:0107A0000454
:0107A1000C4B
:0107A2000551
:0107A3000D48
:0107A400064E
:0107A5000F44
:0107A600074B
:0107A7000051
:0107A8000848
:0107A900014E
:0107AA000945
:0107AB00024B
:0107AC000A42
:0107AD000348
:0107AE000B3F
:0107AF000445
:0107B0000C3C
:0107B1000542
:0107B2000D39
:0107B300063F
:0107B4000E36
:0107B500073C
:0107B6000F33
:0107B7000839
:0107B8000040
:0107B9000837
:0107BA00013D
:0107BB000934
:0107BC00023A
:0107BD000A31
:0107BE000238
:0107BF000B2E
:0107C0000335
:0107C1000C2B
:0107C2000432
:0107C3000C29
:0107C400052F
:0107C5000D26
:0107C600052D
:0107C7000E23
:0107C800062A
:0107C9000E21
:0107CA000727
:0107CB000F1E
:0107CC000725
:0107CD00002B
:0107CE000822
:0107CF000029
:0107D000091F
:0107D1000126
:0107D200091D
:0107D3000124
:0107D4000A1A
:0107D5000221
:0107D6000A18
:0107D700031E
:0107D8000B15
:0107D900031C
:0107DA000B13
:0107DB00031A
:0107DC000C10
:0107DD000417
:0107DE000C0E
:0107DF000415
:0107E0000C0C
:0107E1000512
:0107E2000D09
:0107E3000510
:0107E4000D07
:0107E500050E
:0107E6000E04
:0107E700060B
:0107E8000E02
:0107E9000609
:0107EA000E00
:0107EB000607
:0107EC000EFE
:0107ED000605
:0107EE000FFB
:0107EF000702
:0107F0000FF9
:0107F1000700
:0107F2000FF7
:0107F30007FE
:0107F4000FF5
:0107F50007FC
:0107F6000FF3
:0107F70007FA
:0107F8000FF1
:0107F90007F8
:0107FA000FEF
:0107FB0007F6
:0107FC000FED
:0107FD0007F4
:0107FE000FEB
:0107FF0007F2
:00000001ff
