:020000040000FA
:020000000000FE
:0200010001FA02
:0200020001E813
:0200030001CA30
:0200040001A059
:02000500016A8E
:020006000129CE
:0200070000DC1B
:02000800008373
:02000900001FD6
:02000A0001AF44
:02000B000134BE
:02000C0000AD45
:02000D00001AD7
:02000E00017D72
:02000F0000D31C
:02001000001FCF
:02001100015F8D
:02001200009458
:0200130001BE2C
:0200140000DD0D
:0200150001F0F8
:0200160000F9EF
:0200170001F6F0
:0200180000E8FE
:0200190001D014
:02001A0000AD37
:02001B00017E64
:02001C0000459D
:02001D000102DE
:02001E0001B32C
:02001F00005A85
:0200200000F6E8
:02002100018755
:02002200000ECE
:02002300008B50
:0200240000FDDD
:02002500016474
:0200260001C116
:020027000014C3
:02002800005C7A
:02002900009A3B
:02002A0000CE06
:02002B0000F8DB
:02002C000117BA
:02002D00012CA4
:02002E00013798
:02002F00013995
:0200300001309D
:02003100011DAF
:020032000100CB
:0200330000D9F2
:0200340000A822
:02003500006E5B
:0200360000299F
:0200370001DBEB
:02003800018342
:020039000122A2
:02003A0000B70D
:02003B00004281
:02003C0001C4FD
:02003D00013C84
:02003E0000AA16
:02003F00000FB0
:02004000016B52
:0200410000BD00
:020042000006B6
:02004300014575
:02004400007B3F
:0200450001A810
:0200460000CCEC
:0200470001E6D0
:0200480000F7BF
:0200490001FFB5
:02004A0000FEB6
:02004B0001F4BE
:02004C0000E1D1
:02004D0001C5EB
:02004E0000A010
:02004F0001713D
:02005000003A74
:0200510000FBB2
:0200520001B2F9
:0200530000604B
:020054000106A3
:0200550001A305
:02005600003771
:0200570000C2E5
:02005800014560
:0200590001BFE5
:02005A00003173
:02005B00009A09
:02005C0000FAA8
:02005D0001524E
:02005E0001A2FD
:02005F0001E9B5
:02006000002876
:02006100005E3F
:02006200008C10
:0200630000B1EA
:0200640000CFCB
:0200650000E4B5
:0200660000F0A8
:0200670000F5A2
:0200680000F1A5
:0200690000E6AF
:02006A0000D2C2
:02006B0000B6DD
:02006C00009200
:02006D0000662B
:02006E0000325E
:02006F0001F698
:0200700001B1DC
:02007100016626
:02007200011279
:0200730000B6D5
:02007400005337
:0200750001E7A1
:02007600017413
:0200770000F98E
:0200780000770F
:0200790001EC98
:02007A00015A29
:02007B0000C1C2
:02007C00001F63
:02007D0001760A
:02007E0000C6BA
:02007F00000E71
:02008000014F2E
:020081000088F5
:0200820001B9C2
:0200830000E398
:02008400000674
:02008500012157
:02008600003543
:02008700014234
:0200880000472F
:0200890001452F
:02008A00003C38
:02008B00012B47
:02008C0000145E
:02008D0000F57C
:02008E0001CFA0
:02008F0000A1CE
:02009000016D00
:0200910000323B
:0200920000EF7D
:0200930001A6C4
:02009400005515
:0200950000FE6B
:02009600019FC8
:02009700003A2D
:0200980000CD99
:02009900015A0A
:02009A0001E083
:02009B00005F04
:02009C0000D78B
:02009D00014917
:02009E0001B3AC
:02009F00001748
:0200A0000074EA
:0200A10000CB92
:0200A200011A41
:0200A3000163F7
:0200A40001A6B3
:0200A50001E177
:0200A600001741
:0200A700004512
:0200A800006DE9
:0200A900008FC6
:0200AA0000AAAA
:0200AB0000BE95
:0200AC0000CC86
:0200AD0000D47D
:0200AE0000D57B
:0200AF0000D07F
:0200B00000C48A
:0200B10000B29B
:0200B200009AB2
:0200B300007BD0
:0200B4000056F4
:0200B500002B1E
:0200B60001F94E
:0200B70001C185
:0200B8000184C1
:0200B900013F05
:0200BA0000F54F
:0200BB0000A59E
:0200BC00004EF4
:0200BD0001F14F
:0200BE00018EB1
:0200BF00012519
:0200C00000B688
:0200C1000041FC
:0200C20001C675
:0200C3000145F5
:0200C40000BE7C
:0200C500003207
:0200C600019F98
:0200C700010630
:0200C8000067CF
:0200C90001C371
:0200CA0001181B
:0200CB000068CB
:0200CC0001B27F
:0200CD0000F63B
:0200CE000034FC
:0200CF00016DC1
:0200D00000A08E
:0200D10001CD5F
:0200D20000F438
:0200D300001615
:0200D4000132F7
:0200D5000048E1
:0200D6000159CE
:0200D7000064C3
:0200D8000169BC
:0200D9000069BC
:0200DA000164BF
:0200DB000059CA
:0200DC000148D9
:0200DD000032EF
:0200DE00011609
:0200DF0001F529
:0200E00000CE50
:0200E10001A27A
:0200E2000071AB
:0200E300013AE0
:0200E40001FD1C
:0200E50000BC5D
:0200E6000175A2
:0200E7000028EF
:0200E80000D73F
:0200E900018094
:0200EA000024F0
:0200EB0000C251
:0200EC00015BB6
:0200ED0001EF21
:0200EE00007E92
:0200EF00010806
:0200F000018C81
:0200F100000B02
:0200F200008587
:0200F30000FA11
:0200F400016A9F
:0200F50001D533
:0200F600003ACE
:0200F700009B6C
:0200F80000F610
:0200F900014DB7
:0200FA00019E65
:0200FB0001EB17
:0200FC000032D0
:0200FD0000758C
:0200FE0000B24E
:0200FF0000EB14
:02010000011EDE
:02010100014DAE
:02010200017783
:02010300019C5D
:0201040001BC3C
:0201050001D720
:0201060001ED09
:0201070001FFF6
:02010800000BEA
:020109000013E1
:02010A000017DC
:02010B000015DD
:02010C00000FE2
:02010D000003ED
:02010E0001F4FA
:02010F0001DF0E
:0201100001C626
:0201110001A843
:02011200018565
:02011300015E8B
:020114000132B6
:020115000102E5
:0201160000CD1A
:02011700009353
:02011800005590
:020119000012D2
:02011A0001CB17
:02011B00017F62
:02011C00012EB2
:02011D0000DA06
:02011E0000805F
:02011F000022BC
:0201200001C01C
:02012100015982
:0201220000EEED
:02012300007E5C
:02012400000ACF
:02012500019245
:020126000115C1
:02012700009343
:02012800000EC7
:0201290001844F
:02012A0000F6DD
:02012B0000636F
:02012C0001CC04
:02012D0001319E
:02012E0000913E
:02012F0001EEDF
:02013000014686
:02013100009933
:0201320001E9E1
:02013300013495
:02013400007B4E
:0201350001BE09
:0201360000FDCA
:0201370000388E
:02013800016E56
:0201390000A024
:02013A0001CEF4
:02013B0000F8CA
:02013C00001EA3
:02013D0001407F
:02013E00005E61
:02013F00017845
:02014000008D30
:02014100019F1C
:0201420000AC0F
:0201430001B603
:0201440000BBFE
:0201450001BDFA
:0201460000BAFD
:0201470001B401
:0201480000AA0B
:02014900019B18
:02014A0000892A
:02014B0001733E
:02014C00005958
:02014D00013B74
:02014E00001996
:02014F0000F3BB
:0201500001C9E3
:02015100009C10
:02015200016A40
:02015300003575
:0201540000FCAD
:0201550001BFE8
:02015600007F28
:02015700013A6B
:0201580001F2B2
:0201590000A6FE
:02015A0001564C
:02015B0000039F
:02015C0000ACF5
:02015D0001514E
:02015E0001F2AC
:02015F0000900E
:02016000012A72
:0201610001C0DB
:02016200005348
:0201630000E2B8
:02016400016D2B
:0201650001F5A2
:0201660000791E
:0201670000F99D
:0201680001761E
:0201690001EFA4
:02016A0000652E
:02016B0000D7BB
:02016C0001454B
:02016D0001B0DF
:02016E00001877
:02016F00007B13
:0201700000DCB1
:02017100013952
:020172000192F8
:0201730001E8A1
:02017400003A4F
:020175000089FF
:0201760000D4B3
:02017700011C69
:02017800016123
:0201790001A2E1
:02017A0001E0A2
:02017B00001A68
:02017C00005130
:02017D000084FC
:02017E0000B4CB
:02017F0000E19D
:02018000010A72
:0201810001304B
:02018200015327
:02018300017207
:02018400018EEA
:0201850001A6D1
:0201860001BCBA
:0201870001CEA7
:0201880001DC98
:0201890001E88B
:02018A0001F082
:02018B0001F57C
:02018C0001F779
:02018D0001F57A
:02018E0001F07E
:02018F0001E885
:0201900001DD8F
:0201910001CE9D
:0201920001BDAD
:0201930001A8C1
:020194000190D8
:020195000174F3
:02019600015610
:02019700013431
:02019800011054
:0201990000E87C
:02019A0000BDA6
:02019B00008FD3
:02019C00005E03
:02019D00002937
:02019E0001F26C
:02019F0001B7A6
:0201A000017AE2
:0201A100013922
:0201A20000F566
:0201A30000AFAB
:0201A4000065F4
:0201A500001840
:0201A60001C88E
:0201A7000175E0
:0201A800011F35
:0201A90000C78D
:0201AA00006BE8
:0201AB00000C46
:0201AC0001AAA6
:0201AD0001450A
:0201AE0000DD72
:0201AF000073DB
:0201B000000548
:0201B1000194B7
:0201B200012129
:0201B30000AB9F
:0201B400003118
:0201B50001B592
:0201B600013610
:0201B70000B492
:0201B800002F16
:0201B90001A79C
:0201BA00011C26
:0201BB00008FB3
:0201BC0001FE42
:0201BD00016BD4
:0201BE0000D56A
:0201BF00003C02
:0201C00001A19B
:0201C100010239
:0201C2000061DA
:0201C30001BD7C
:0201C400011622
:0201C500006CCC
:0201C60001C076
:0201C700011124
:0201C800005FD6
:0201C90001AA89
:0201CA0000F340
:0201CB000038FA
:0201CC00017BB5
:0201CD0000BC74
:0201CE0001F935
:0201CF000134F9
:0201D000006DC0
:0201D10001A289
:0201D20000D556
:0201D300000525
:0201D4000133F5
:0201D500005ECA
:0201D6000186A0
:0201D70000AB7B
:0201D80001CE56
:0201D90000EF35
:0201DA00000C17
:0201DB000127FA
:0201DC000040E1
:0201DD000156C9
:0201DE000069B6
:0201DF00017AA3
:0201E000008895
:0201E100019388
:0201E200009C7F
:0201E30001A277
:0201E40000A673
:0201E50001A770
:0201E60000A671
:0201E70001A273
:0201E800009C79
:0201E900019380
:0201EA0000878C
:0201EB00017998
:0201EC000069A8
:0201ED000156B9
:0201EE000041CE
:0201EF000129E4
:0201F000000EFF
:0201F10000F11B
:0201F20001D238
:0201F30000B05A
:0201F400018C7C
:0201F5000065A3
:0201F600013CCA
:0201F7000011F5
:0201F80000E322
:0201F90001B251
:0201FA00007F84
:0201FB00014AB7
:0201FC000012EF
:0201FD0000D828
:0201FE00019C62
:0201FF00005DA1
:02020000011CDF
:0202010001D822
:02020200009268
:02020300014AAE
:020204000000F8
:0202050000B344
:02020600016392
:020207000012E3
:0202080000BE36
:0202090001678B
:02020A00000FE3
:02020B0000B43D
:02020C00015798
:02020D0001F7F7
:02020E00009559
:02020F000131BB
:0202100001CB20
:02021100006289
:0202120000F7F3
:02021300018A5E
:02021400001BCD
:0202150000A93E
:020216000135B0
:0202170001BF25
:0202180000469E
:0202190000CC17
:02021A00014F92
:02021B0001D010
:02021C00004E92
:02021D0000CB14
:02021E00014598
:02021F0001BD1F
:020220000033A9
:0202210000A734
:020222000119C0
:02022300018850
:0202240001F5E2
:02022500006077
:0202260000C90D
:020227000130A4
:0202280001953E
:0202290001F7DB
:02022A0000577B
:02022B0000B61B
:02022C000112BD
:02022D00016C62
:02022E0001C409
:02022F000019B4
:02023000006D5F
:0202310000BF0C
:02023200010EBB
:02023300015B6D
:0202340001A720
:0202350001F0D6
:0202360000378F
:02023700007C49
:0202380000BF05
:020239000100C2
:02023A00013F82
:02023B00017C44
:02023C0001B708
:02023D0001F0CE
:02023E00002797
:02023F00005B62
:02024000008E2E
:0202410000BFFC
:0202420000EECC
:02024300011A9E
:02024400014572
:02024500016E48
:02024600019421
:0202470001B9FB
:0202480001DCD7
:0202490001FDB5
:02024A00001C96
:02024B00003978
:02024C0000535D
:02024D00006C43
:02024E0000832B
:02024F00009815
:0202500000AC00
:0202510000BDEE
:0202520000CCDE
:0202530000D9D0
:0202540000E5C3
:0202550000EEB9
:0202560000F6B0
:0202570000FCA9
:0202580000FFA5
:020259000101A1
:02025A000101A0
:02025B0000FFA2
:02025C0000FCA4
:02025D0000F6A9
:02025E0000EEB0
:02025F0000E5B8
:0202600000DAC2
:0202610000CDCE
:0202620000BEDC
:0202630000ADEC
:02026400009AFE
:02026500008611
:02026600006F27
:0202670000573E
:02026800003D57
:02026900002172
:02026A0000048E
:02026B0001E4AC
:02026C0001C3CC
:02026D0001A0EE
:02026E00017B12
:02026F00015438
:02027000012C5F
:02027100010288
:0202720000D5B5
:0202730000A8E1
:02027400007810
:02027500004740
:02027600001373
:0202770001DFA5
:0202780001A8DB
:02027900016F13
:02027A0001354C
:02027B0000F988
:02027C0000BCC4
:02027D00007C03
:02027E00003B43
:02027F0001F884
:0202800001B4C7
:02028100016D0D
:02028200012554
:0202830000DC9D
:020284000090E8
:02028500004334
:0202860001F481
:0202870001A4D0
:02028800015122
:0202890000FE75
:02028A0000A8CA
:02028B00005120
:02028C0001F877
:02028D00019DD1
:02028E0001412C
:02028F0000E38A
:020290000083E9
:02029100002249
:0202920001BFAA
:02029300015A0E
:0202940000F474
:02029500008CDB
:02029600002343
:0202970001B8AC
:02029800014B18
:0202990000DC87
:02029A00006CF6
:02029B0001FB65
:02029C000187D8
:02029D0001134B
:02029E00009CC2
:02029F00002439
:0202A00001AAB1
:0202A100012F2B
:0202A20000B2A8
:0202A300003425
:0202A40001B4A3
:0202A500013224
:0202A60000AFA7
:0202A700002A2B
:0202A80001A4AF
:0202A900011C36
:0202AA000093BF
:0202AB00000849
:0202AC00017BD4
:0202AD0000ED62
:0202AE00005DF1
:0202AF0001CC80
:0202B000013912
:0202B10000A5A6
:0202B200000F3B
:0202B3000178D0
:0202B40000DF69
:0202B500004502
:0202B60001A99C
:0202B700010B39
:0202B800006CD8
:0202B90001CC76
:0202BA00012A17
:0202BB000087BA
:0202BC0001E25D
:0202BD00013B03
:0202BE000093AB
:0202BF0001EA52
:0202C000013FFC
:0202C1000093A8
:0202C20001E554
:0202C300013602
:0202C4000085B3
:0202C50001D264
:0202C600011F16
:0202C700006ACB
:0202C80001B380
:0202C90000FB38
:0202CA000041F1
:0202CB000186AA
:0202CC0000CA66
:0202CD00000C23
:0202CE00014DE0
:0202CF00008CA1
:0202D00001CA61
:0202D100010624
:0202D2000041E9
:0202D300017BAD
:0202D40000B375
:0202D50001EA3C
:0202D600011F06
:0202D7000053D2
:0202D80001869D
:0202D90000B76C
:0202DA0001E63B
:0202DB0001150B
:0202DC000042DE
:0202DD00016DB1
:0202DE00009787
:0202DF0001C05C
:0202E00000E834
:0202E100000E0D
:0202E2000132E7
:0202E3000056C3
:0202E4000177A0
:0202E50000987F
:0202E60001B75E
:0202E70000D540
:0202E80001F221
:0202E900010D05
:0202EA000026EC
:0202EB00013FD1
:0202EC000056BA
:0202ED00016CA2
:0202EE0000808E
:0202EF00019379
:0202F00000A567
:0202F10001B654
:0202F20000C545
:0202F30001D335
:0202F40000DF29
:0202F50001EA1C
:0202F60000F412
:0202F70001FD07
:0202F8000104FF
:0202F900000AF9
:0202FA00010EF3
:0202FB000012EF
:0202FC000114EB
:0202FD000015EA
:0202FE000114E9
:0202FF000012EB
:02030000010FEB
:02030100000BEF
:020302000105F3
:0203030001FEF9
:0203040000F601
:0203050001ED08
:0203060000E213
:0203070001D61D
:0203080000C92A
:0203090001BA37
:02030A0000AA47
:02030B00019956
:02030C00008768
:02030D00017479
:02030E00005F8E
:02030F000149A2
:020310000032B9
:020311000119D0
:0203120001FFE9
:0203130000E503
:0203140001C81E
:0203150000AB3B
:02031600018C58
:02031700006D77
:02031800014C96
:020319000029B9
:02031A000106DA
:02031B0001E1FE
:02031C0000BB24
:02031D00019449
:02031E00006C71
:02031F00014398
:020320000018C3
:0203210000ECEE
:0203220001BF19
:02032300009147
:02032400016175
:020325000031A5
:0203260000FFD6
:0203270001CC07
:0203280000983B
:0203290001636E
:02032A00002CA5
:02032B0000F5DB
:02032C0001BC12
:02032D0000824C
:02032E00014785
:02032F00000AC2
:0203300000CDFE
:02033100018E3B
:02033200004F7A
:02033300010EB9
:0203340001CCFA
:0203350000893D
:02033600014480
:0203370001FFC4
:0203380000B80B
:02033900017150
:02033A00002899
:02033B0000DEE2
:02033C0001932B
:02033D00004777
:02033E0000F9C4
:02033F0001AB10
:02034000005B60
:02034100010BAE
:0203420001B9FF
:02034300006652
:020344000112A4
:0203450001BDF8
:0203460000674E
:020347000110A3
:0203480001B7FB
:02034900005E54
:02034A000103AD
:02034B0001A807
:02034C00004B64
:02034D0000EDC1
:02034E00018E1E
:02034F00002E7E
:0203500000CDDE
:02035100016B3E
:020352000008A1
:0203530000A404
:02035400013E68
:0203550001D8CD
:02035600007035
:0203570001089B
:02035800019E04
:0203590000346E
:02035A0000C8D9
:02035B00015B44
:02035C0001EDB1
:02035D00007F1F
:02035E00010F8D
:02035F00019EFD
:02036000002C6F
:0203610000B9E1
:02036200014553
:0203630001D0C7
:02036400005A3D
:0203650000E2B4
:02036600016A2A
:0203670001F1A2
:0203680000771C
:0203690000FC96
:02036A00017F11
:02036B0000028E
:02036C0000840B
:02036D00010489
:02036E00018408
:02036F00000389
:0203700000810A
:0203710000FD8D
:0203720001790F
:0203730001F493
:02037400006D1A
:0203750000E6A0
:02037600015E26
:0203770001D4AF
:02037800004A39
:0203790000BFC3
:02037A0001324E
:02037B0001A5DA
:02037C00001768
:02037D000088F6
:02037E0000F885
:02037F00016615
:0203800001D4A6
:02038100004139
:0203820000ADCC
:0203830001185F
:020384000182F4
:0203850001EB8A
:02038600005322
:0203870000BABA
:02038800012052
:020389000186EB
:02038A0001EA86
:02038B00004D23
:02038C0000AFC0
:02038D0001115C
:02038E000171FB
:02038F0001D19A
:02039000002F3C
:02039100008DDD
:0203920000EA7F
:02039300014522
:0203940001A0C6
:0203950001FA6B
:02039600005312
:0203970000ABB9
:02039800010260
:02039900015809
:02039A0001AEB2
:02039B0000025E
:02039C00005609
:02039D0000A8B6
:02039E0000FA63
:02039F00014A11
:0203A000019AC0
:0203A10001E970
:0203A200003722
:0203A3000084D4
:0203A40000D087
:0203A500011B3A
:0203A6000166EE
:0203A70001AFA4
:0203A80001F85A
:0203A900003F13
:0203AA000086CB
:0203AB0000CC84
:0203AC0001113D
:0203AD000155F8
:0203AE000198B4
:0203AF0001DB70
:0203B000001C2F
:0203B100005DED
:0203B200009CAD
:0203B30000DB6D
:0203B40001192D
:0203B5000156EF
:0203B6000192B2
:0203B70001CE75
:0203B80000083B
:0203B900004200
:0203BA00007BC6
:0203BB0000B28E
:0203BC0000E956
:0203BD0001201D
:0203BE000155E7
:0203BF000189B2
:0203C00001BD7D
:0203C10001F049
:0203C200002217
:0203C3000053E5
:0203C4000083B4
:0203C50000B284
:0203C60000E154
:0203C700010E25
:0203C800013BF7
:0203C9000167CA
:0203CA0001929E
:0203CB0001BD72
:0203CC0001E648
:0203CD00000F1F
:0203CE000037F6
:0203CF00005ECE
:0203D0000084A7
:0203D10000A981
:0203D20000CE5B
:0203D30000F137
:0203D400011412
:0203D5000136EF
:0203D6000157CD
:0203D7000178AB
:0203D80001978B
:0203D90001B66B
:0203DA0001D44C
:0203DB0001F12E
:0203DC00000E11
:0203DD000029F5
:0203DE000044D9
:0203DF00005EBE
:0203E0000077A4
:0203E10000908A
:0203E20000A772
:0203E30000BE5A
:0203E40000D443
:0203E50000E92D
:0203E60000FE17
:0203E700011102
:0203E8000124EE
:0203E9000136DB
:0203EA000147C9
:0203EB000158B7
:0203EC000168A6
:0203ED00017697
:0203EE00018587
:0203EF00019279
:0203F000019E6C
:0203F10001AA5F
:0203F20001B553
:0203F30001C047
:0203F40001C93D
:0203F50001D233
:0203F60001DA2A
:0203F70001E122
:0203F80001E71B
:0203F90001ED14
:0203FA0001F20E
:0203FB0001F609
:0203FC0001F905
:0203FD0001FC01
:0203FE0001FEFE
:0203FF0001FFFC
:00000001ff
