:020000040000FA
:0100000000FF
:010001000FEF
:010002000BF2
:0100030006F6
:0100040000FB
:010005000DED
:010006000CED
:0100070004F4
:0100080005F2
:0100090008EE
:01000A000DE8
:01000B000EE6
:01000C000DE6
:01000D0006EC
:01000E000CE5
:01000F000DE3
:010010000EE1
:010011000DE1
:0100120001EC
:010013000BE1
:0100140003E8
:010015000BDF
:010016000FDA
:0100170000E8
:010018000ED9
:010019000CDA
:01001A000ADB
:01001B0000E4
:01001C000DD6
:01001D000DD5
:01001E0001E0
:01001F0006DA
:0100200001DE
:0100210001DD
:010022000CD1
:0100230003D9
:0100240001DA
:0100250007D3
:0100260003D6
:010027000BCD
:010028000CCB
:010029000FC7
:01002A0005D0
:01002B000ACA
:01002C0002D1
:01002D0009C9
:01002E0008C9
:01002F000EC2
:0100300005CA
:0100310001CD
:010032000DC0
:0100330002CA
:010034000DBE
:0100350009C1
:0100360008C1
:0100370006C2
:010038000ABD
:0100390003C3
:01003A000BBA
:01003B0003C1
:01003C0009BA
:01003D0003BF
:01003E0001C0
:01003F000CB4
:0100400007B8
:010041000FAF
:010042000CB1
:010043000EAE
:010044000FAC
:0100450004B6
:010046000AAF
:0100470009AF
:0100480004B3
:0100490005B1
:01004A0002B3
:01004B000CA8
:01004C000AA9
:01004D0001B1
:01004E000EA3
:01004F0008A8
:0100500001AE
:0100510004AA
:0100520006A7
:0100530006A6
:010054000F9C
:0100550004A6
:0100560002A7
:0100570002A6
:0100580005A2
:01005900089E
:01005A0001A4
:01005B0000A4
:01005C0001A2
:01005D00079B
:01005E00039E
:01005F000D93
:010060000A95
:010061000797
:010062000D90
:010063000E8E
:010064000893
:01006500009A
:010066000A8F
:010067000197
:010068000C8B
:010069000B8B
:01006A000A8B
:01006B000E86
:01006C00088B
:01006D00038F
:01006E00028F
:01006F000789
:010070000B84
:01007100038B
:010072000F7E
:010073000785
:01007400018A
:010075000B7F
:010076000F7A
:010077000286
:010078000186
:01007900087E
:01007A00097C
:01007B000480
:01007C000281
:01007D000979
:01007E00057C
:01007F00037D
:01008000057A
:010081000C72
:01008200017C
:010083000A72
:010084000576
:010085000E6C
:010086000A6F
:010087000A6E
:010088000770
:01008900096D
:01008A000075
:01008B00096B
:01008C00096A
:01008D000270
:01008E00026F
:01008F000F61
:010090000D62
:010091000866
:010092000B62
:010093000765
:010094000C5F
:010095000466
:010096000366
:01009700095F
:010098000265
:010099000363
:01009A000D58
:01009B000D57
:01009C000A59
:01009D00075B
:01009E000160
:01009F00025E
:0100A0000E51
:0100A100045A
:0100A2000F4E
:0100A3000557
:0100A4000655
:0100A5000F4B
:0100A6000851
:0100A7000454
:0100A8000057
:0100A900074F
:0100AA000D48
:0100AB000252
:0100AC000350
:0100AD00064C
:0100AE000C45
:0100AF00054B
:0100B0000946
:0100B1000C42
:0100B2000F3E
:0100B3000D3F
:0100B4000C3F
:0100B5000F3B
:0100B6000544
:0100B7000543
:0100B8000443
:0100B9000442
:0100BA000F36
:0100BB000E36
:0100BC000241
:0100BD000B37
:0100BE00023F
:0100BF000E32
:0100C0000E31
:0100C100003E
:0100C2000D30
:0100C3000834
:0100C400013A
:0100C5000436
:0100C6000732
:0100C7000D2B
:0100C8000433
:0100C900082E
:0100CA000C29
:0100CB000331
:0100CC000A29
:0100CD000B27
:0100CE000928
:0100CF00052B
:0100D0000C23
:0100D1000628
:0100D2000627
:0100D3000C20
:0100D4000427
:0100D5000624
:0100D6000326
:0100D7000C1C
:0100D8000C1B
:0100D900081E
:0100DA000520
:0100DB000F15
:0100DC000320
:0100DD00061C
:0100DE000B16
:0100DF000020
:0100E0000F10
:0100E1000F0F
:0100E200021B
:0100E3000616
:0100E4000516
:0100E5000515
:0100E6000910
:0100E7000F09
:0100E8000116
:0100E9000610
:0100EA000015
:0100EB000D07
:0100EC00080B
:0100ED00080A
:0100EE000F02
:0100EF000C04
:0100F0000B04
:0100F100020C
:0100F2000409
:0100F300020A
:0100F4000605
:0100F5000901
:0100F6000DFC
:0100F7000503
:0100F8000BFC
:0100F90008FE
:0100FA000203
:0100FB0008FC
:0100FC0009FA
:0100FD000DF5
:0100FE000BF6
:0100FF0005FB
:0101000008F6
:0101010000FD
:0101020003F9
:0101030005F6
:0101040005F5
:010105000EEB
:010106000AEE
:010107000DEA
:0101080007EF
:0101090005F0
:01010A0003F1
:01010B0004EF
:01010C000DE5
:01010D000BE6
:01010E000BE5
:01010F0003EC
:0101100008E6
:010111000AE3
:0101120006E6
:0101130006E5
:010114000FDB
:0101150005E4
:0101160006E2
:010117000DDA
:0101180002E4
:0101190009DC
:01011A0005DF
:01011B0001E2
:01011C0008DA
:01011D0001E0
:01011E000ED2
:01011F0000DF
:0101200002DC
:010121000ECF
:0101220008D4
:0101230004D7
:010124000FCB
:0101250004D5
:010126000DCB
:010127000CCB
:0101280004D2
:0101290002D3
:01012A0001D3
:01012B0008CB
:01012C000BC7
:01012D000AC7
:01012E0003CD
:01012F000FC0
:0101300005C9
:0101310009C4
:010132000AC2
:0101330006C5
:0101340006C4
:0101350000C9
:0101360008C0
:010137000EB9
:010138000EB8
:0101390001C4
:01013A000EB6
:01013B0008BB
:01013C000FB3
:01013D000FB2
:01013E0003BD
:01013F000FB0
:0101400009B5
:010141000FAE
:010142000EAE
:0101430001BA
:010144000EAC
:0101450009B0
:0101460002B6
:0101470006B1
:0101480000B6
:0101490006AF
:01014A000EA6
:01014B0007AC
:01014C0001B1
:01014D0005AC
:01014E000CA4
:01014F000BA4
:0101500003AB
:0101510003AA
:0101520007A5
:0101530008A3
:010154000B9F
:0101550004A5
:0101560001A7
:0101570000A7
:010158000B9B
:01015900089D
:01015A000C98
:01015B00089B
:01015C000999
:01015D000A97
:01015E00049C
:01015F000C93
:010160000599
:010161000D90
:01016200029A
:010163000D8E
:010164000496
:010165000D8C
:010166000791
:010167000196
:010168000690
:010169000095
:01016A000292
:01016B000192
:01016C000C86
:01016D000190
:01016E000987
:01016F000C83
:01017000008E
:010171000687
:010172000D7F
:01017300018A
:010174000D7D
:010175000782
:010176000484
:010177000483
:010178000680
:01017900077E
:01017A000F75
:01017B00057E
:01017C000C76
:01017D00077A
:01017E00027E
:01017F000976
:010180000777
:01018100007D
:010182000874
:01018300017A
:010184000872
:010185000A6F
:010186000F69
:010187000D6A
:01018800086E
:010189000273
:01018A00086C
:01018B00076C
:01018C00076B
:01018D000071
:01018E00046C
:01018F000768
:010190000668
:010191000E5F
:010192000864
:010193000C5F
:010194000E5C
:010195000069
:010196000167
:010197000067
:010198000561
:01019900085D
:01019A000064
:01019B000F54
:01019C00055D
:01019D000061
:01019E000B55
:01019F00005F
:0101A000045A
:0101A1000B52
:0101A2000755
:0101A3000655
:0101A4000654
:0101A5000059
:0101A6000B4D
:0101A7000E49
:0101A800094D
:0101A9000E47
:0101AA000B49
:0101AB000B48
:0101AC00064C
:0101AD00044D
:0101AE000947
:0101AF000649
:0101B0000A44
:0101B1000449
:0101B2000C40
:0101B3000D3E
:0101B4000B3F
:0101B5000A3F
:0101B6000B3D
:0101B7000D3A
:0101B8000D39
:0101B9000441
:0101BA000B39
:0101BB00073C
:0101BC000B37
:0101BD00073A
:0101BE000B35
:0101BF00033C
:0101C0000836
:0101C100033A
:0101C2000834
:0101C3000A31
:0101C4000B2F
:0101C5000930
:0101C6000038
:0101C700092E
:0101C8000E28
:0101C9000332
:0101CA000B29
:0101CB00082B
:0101CC00082A
:0101CD00072A
:0101CE00012F
:0101CF000C23
:0101D000002E
:0101D1000F1E
:0101D2000C20
:0101D3000427
:0101D4000624
:0101D5000D1C
:0101D6000028
:0101D7000720
:0101D8000521
:0101D9000E17
:0101DA000024
:0101DB000B18
:0101DC000919
:0101DD00041D
:0101DE00041C
:0101DF000E11
:0101E0000519
:0101E1000A13
:0101E2000C10
:0101E3000813
:0101E4000911
:0101E5000613
:0101E6000711
:0101E7000017
:0101E8000412
:0101E9000213
:0101EA00080C
:0101EB00040F
:0101EC000E04
:0101ED000E03
:0101EE000C04
:0101EF000906
:0101F0000905
:0101F1000A03
:0101F2000B01
:0101F3000605
:0101F4000703
:0101F5000405
:0101F6000206
:0101F7000601
:0101F8000105
:0101F9000203
:0101FA0007FD
:0101FB000BF8
:0101FC0008FA
:0101FD0006FB
:0101FE0009F7
:0101FF0007F8
:010200000FEE
:0102010002FA
:010202000DEE
:010203000DED
:010204000AEF
:010205000DEB
:010206000BEC
:0102070009ED
:0102080008ED
:0102090008EC
:01020A0008EB
:01020B0003EF
:01020C0004ED
:01020D0003ED
:01020E0006E9
:01020F0003EB
:010210000BE2
:0102110000EC
:010212000FDC
:0102130007E3
:0102140002E7
:0102150009DF
:0102160003E4
:0102170007DF
:0102180007DE
:0102190005DF
:01021A0001E2
:01021B0009D9
:01021C0009D8
:01021D000CD4
:01021E0009D6
:01021F0007D7
:010220000CD1
:0102210009D3
:0102220001DA
:0102230002D8
:010224000ACF
:0102250004D4
:010226000BCC
:0102270006D0
:010228000CC9
:0102290000D4
:01022A0007CC
:01022B0000D2
:01022C000AC7
:01022D0004CC
:01022E0008C7
:01022F0000CE
:0102300005C8
:010231000CC0
:010232000AC1
:0102330001C9
:0102340003C6
:010235000FB9
:0102360002C5
:0102370009BD
:010238000CB9
:0102390004C0
:01023A0009BA
:01023B000EB4
:01023C0006BB
:01023D0004BC
:01023E0007B8
:01023F000CB2
:0102400000BD
:010241000EAE
:010242000FAC
:0102430009B1
:0102440002B7
:010245000FA9
:0102460000B7
:0102470007AF
:0102480002B3
:010249000EA6
:01024A0008AB
:01024B0008AA
:01024C0007AA
:01024D000BA5
:01024E0009A6
:01024F0004AA
:010250000E9F
:0102510007A5
:010252000D9E
:010253000D9D
:0102540001A8
:0102550003A5
:010256000A9D
:010257000E98
:0102580002A3
:01025900099B
:01025A00059E
:01025B00069C
:01025C000998
:01025D000B95
:01025E000699
:01025F000698
:01026000009D
:010261000C90
:010262000D8E
:010263000793
:010264000C8D
:010265000B8D
:010266000394
:010267000096
:010268000D88
:01026900058F
:01026A000F84
:01026B000290
:01026C00048D
:01026D000789
:01026E000D82
:01026F000787
:010270000489
:01027100018B
:010272000B80
:010273000B7F
:010274000A7F
:010275000F79
:010276000186
:010277000482
:010278000A7B
:01027900057F
:01027A00057E
:01027B00087A
:01027C000A77
:01027D000878
:01027E000B74
:01027F000B73
:010280000F6E
:010281000E6E
:010282000A71
:010283000773
:010284000574
:010285000474
:010286000275
:010287000C6A
:010288000E67
:010289000074
:01028A000B68
:01028B00076B
:01028C000968
:01028D00046C
:01028E000C63
:01028F00026C
:010290000568
:010291000468
:010292000C5F
:010293000862
:010294000267
:010295000464
:010296000463
:01029700095D
:01029800075E
:010299000163
:01029A00085B
:01029B000E54
:01029C000160
:01029D000F51
:01029E00045B
:01029F000A54
:0102A0000C51
:0102A100015B
:0102A200015A
:0102A3000F4B
:0102A4000158
:0102A500094F
:0102A600094E
:0102A7000056
:0102A8000D48
:0102A9000D47
:0102AA000C47
:0102AB00044E
:0102AC000F42
:0102AD00054B
:0102AE000D42
:0102AF000A44
:0102B000034A
:0102B1000844
:0102B2000B40
:0102B3000D3D
:0102B4000B3E
:0102B5000444
:0102B6000245
:0102B7000244
:0102B8000C39
:0102B900083C
:0102BA000E35
:0102BB000240
:0102BC000938
:0102BD00063A
:0102BE000B34
:0102BF000737
:0102C0000B32
:0102C1000339
:0102C2000D2E
:0102C3000337
:0102C4000039
:0102C5000C2C
:0102C6000F28
:0102C7000036
:0102C8000233
:0102C9000A2A
:0102CA000A29
:0102CB00042E
:0102CC00072A
:0102CD00022E
:0102CE00022D
:0102CF00042A
:0102D000032A
:0102D1000923
:0102D2000D1E
:0102D3000822
:0102D4000F1A
:0102D5000820
:0102D6000522
:0102D7000A1C
:0102D800071E
:0102D9000D17
:0102DA000A19
:0102DB000D15
:0102DC000021
:0102DD000020
:0102DE000619
:0102DF000B13
:0102E0000716
:0102E100011B
:0102E2000C0F
:0102E3000E0C
:0102E4000A0F
:0102E5000018
:0102E6000116
:0102E7000D09
:0102E8000213
:0102E9000D07
:0102EA00090A
:0102EB000111
:0102EC000F02
:0102ED000B05
:0102EE000C03
:0102EF000707
:0102F000030A
:0102F100020A
:0102F2000704
:0102F3000406
:0102F4000801
:0102F5000305
:0102F6000304
:0102F7000402
:0102F8000302
:0102F90009FB
:0102FA000102
:0102FB000200
:0102FC0004FD
:0102FD000CF4
:0102FE0001FE
:0102FF0004FA
:010300000BF1
:0103010005F6
:0103020003F7
:0103030005F4
:0103040009EF
:010305000CEB
:010306000AEC
:010307000FE6
:0103080003F1
:0103090001F2
:01030A000FE3
:01030B0004ED
:01030C0005EB
:01030D0008E7
:01030E0000EE
:01030F000EDF
:0103100004E8
:0103110001EA
:0103120006E4
:0103130000E9
:010314000CDC
:0103150006E1
:0103160009DD
:010317000DD8
:010318000DD7
:010319000FD4
:01031A000AD8
:01031B0004DD
:01031C0001DF
:01031D0004DB
:01031E0000DE
:01031F0006D7
:0103200007D5
:0103210001DA
:0103220003D7
:0103230009D0
:0103240001D7
:0103250005D2
:010326000FC7
:0103270008CD
:0103280008CC
:0103290007CC
:01032A000AC8
:01032B0006CB
:01032C000FC1
:01032D0008C7
:01032E0003CB
:01032F0001CC
:0103300001CB
:0103310003C8
:0103320005C5
:0103330002C7
:0103340008C0
:0103350002C5
:0103360008BE
:0103370004C1
:010338000EB6
:010339000DB6
:01033A0007BB
:01033B0000C1
:01033C000DB3
:01033D0001BE
:01033E000DB1
:01033F0003BA
:0103400003B9
:010341000CAF
:010342000CAE
:010343000FAA
:0103440004B4
:0103450003B4
:0103460009AD
:010347000EA7
:010348000AAA
:0103490005AE
:01034A0006AC
:01034B0001B0
:01034C000CA4
:01034D000AA5
:01034E000DA1
:01034F0008A5
:010350000AA2
:0103510005A6
:0103520006A4
:010353000C9D
:0103540003A5
:01035500099E
:01035600079F
:01035700099C
:01035800069E
:01035900099A
:01035A00089A
:01035B000A97
:01035C00049C
:01035D000B94
:01035E00039B
:01035F000F8E
:01036000009C
:010361000893
:010362000793
:010363000B8E
:010364000593
:010365000097
:01036600098D
:010367000C89
:010368000490
:010369000A89
:01036A00088A
:01036B00058C
:01036C000888
:01036D000986
:01036E000C82
:01036F000687
:010370000A82
:010371000B80
:010372000B7F
:010373000B7E
:010374000B7D
:010375000A7D
:01037600087E
:010377000085
:010378000084
:01037900047F
:01037A00067C
:01037B000081
:01037C000D73
:01037D00037C
:01037E000A74
:01037F000A73
:010380000874
:010381000873
:010382000F6B
:010383000079
:010384000D6B
:01038500096E
:010386000274
:010387000A6B
:010388000F65
:010389000073
:01038A000969
:01038B000869
:01038C000868
:01038D00036C
:01038E00046A
:01038F000469
:010390000B61
:01039100006B
:010392000B5F
:010393000168
:010394000860
:010395000364
:010396000561
:010397000362
:010398000C58
:010399000360
:01039A00075B
:01039B000859
:01039C00045C
:01039D000A55
:01039E000559
:01039F00025B
:0103A0000D4F
:0103A100005B
:0103A2000456
:0103A3000455
:0103A4000652
:0103A5000255
:0103A6000F47
:0103A7000253
:0103A8000153
:0103A9000053
:0103AA000250
:0103AB000A47
:0103AC000947
:0103AD00014E
:0103AE00024C
:0103AF000C41
:0103B0000D3F
:0103B1000447
:0103B2000D3D
:0103B3000544
:0103B4000840
:0103B5000047
:0103B600083E
:0103B7000A3B
:0103B8000C38
:0103B900093A
:0103BA00063C
:0103BB000A37
:0103BC000B35
:0103BD000D32
:0103BE00043A
:0103BF000538
:0103C000003C
:0103C1000932
:0103C2000139
:0103C3000732
:0103C4000B2D
:0103C5000C2B
:0103C600082E
:0103C7000D28
:0103C800072D
:0103C9000231
:0103CA000929
:0103CB00062B
:0103CC00042C
:0103CD000C23
:0103CE00042A
:0103CF000627
:0103D0000725
:0103D1000F1C
:0103D2000129
:0103D3000326
:0103D400091F
:0103D5000522
:0103D6000B1B
:0103D7000B1A
:0103D800081C
:0103D9000122
:0103DA00051D
:0103DB00051C
:0103DC000D13
:0103DD000B14
:0103DE000D11
:0103DF000D10
:0103E0000913
:0103E1000912
:0103E2000812
:0103E3000019
:0103E4000810
:0103E500090E
:0103E6000A0C
:0103E7000114
:0103E8000410
:0103E900080B
:0103EA000210
:0103EB00050C
:0103EC00040C
:0103ED00010E
:0103EE000FFF
:0103EF000D00
:0103F0000DFF
:0103F1000EFD
:0103F2000FFB
:0103F3000DFC
:0103F4000701
:0103F5000AFD
:0103F6000204
:0103F70009FC
:0103F8000CF8
:0103F90004FF
:0103FA000AF8
:0103FB0008F9
:0103FC0006FA
:0103FD000CF3
:0103FE000FEF
:0103FF0007F6
:0104000008F3
:0104010009F1
:010402000CED
:0104030006F2
:010404000AED
:0104050009ED
:0104060005F0
:010407000FE5
:0104080009EA
:0104090000F2
:01040A0004ED
:01040B0004EC
:01040C000DE2
:01040D000CE2
:01040E000EDF
:01040F000EDE
:0104100008E3
:0104110006E4
:0104120002E7
:0104130005E3
:0104140007E0
:0104150002E4
:010416000BDA
:010417000ADA
:0104180004DF
:0104190000E2
:01041A0001E0
:01041B000DD3
:01041C0006D9
:01041D000FCF
:01041E000CD1
:01041F000CD0
:0104200003D8
:010421000FCB
:0104220001D8
:0104230008D0
:0104240002D5
:010425000EC8
:0104260009CC
:010427000FC5
:010428000DC6
:010429000EC4
:01042A000DC4
:01042B0004CC
:01042C000EC1
:01042D0002CC
:01042E000AC3
:01042F000EBE
:0104300004C7
:0104310004C6
:0104320003C6
:0104330007C1
:0104340005C2
:0104350001C5
:010436000EB7
:0104370001C3
:010438000BB8
:010439000EB4
:01043A000BB6
:01043B0004BC
:01043C0008B7
:01043D0008B6
:01043E0001BC
:01043F0002BA
:010440000AB1
:0104410004B6
:010442000FAA
:0104430005B3
:0104440003B4
:0104450003B3
:0104460000B5
:0104470003B1
:0104480006AD
:0104490000B2
:01044A000BA6
:01044B000DA3
:01044C000DA2
:01044D0002AC
:01044E0002AB
:01044F0001AB
:0104500004A7
:0104510000AA
:0104520006A3
:010453000C9C
:0104540002A5
:010455000B9B
:01045600089D
:010457000A9A
:0104580000A3
:010459000A98
:01045A00079A
:01045B00069A
:01045C00059A
:01045D00009E
:01045E000598
:01045F00009C
:010460000C8F
:010461000496
:010462000495
:010463000593
:010464000196
:010465000096
:010466000C89
:010467000B89
:01046800068D
:010469000290
:01046A00078A
:01046B000A86
:01046C00008F
:01046D000D81
:01046E000687
:01046F000F7D
:010470000A81
:010471000A80
:010472000188
:010473000088
:01047400087F
:010475000A7C
:010476000580
:01047700087C
:01047800047F
:01047900057D
:01047A000978
:01047B000F71
:01047C00017E
:01047D000E70
:01047E000F6E
:01047F00017B
:010480000E6D
:010481000179
:010482000277
:010483000B6D
:010484000473
:010485000670
:01048600076E
:010487000074
:01048800076C
:010489000171
:01048A00046D
:01048B00056B
:01048C000966
:01048D00036B
:01048E000766
:01048F000963
:010490000A61
:010491000C5E
:010492000267
:010493000B5D
:01049400095E
:010495000B5B
:010496000164
:010497000A5A
:01049800055E
:010499000F53
:01049A00065B
:01049B000759
:01049C000E51
:01049D000856
:01049E00005D
:01049F00015B
:0104A0000556
:0104A1000852
:0104A2000257
:0104A3000C4C
:0104A4000057
:0104A5000452
:0104A6000253
:0104A7000054
:0104A800054E
:0104A900074B
:0104AA000B46
:0104AB000848
:0104AC00024D
:0104AD000D41
:0104AE000C41
:0104AF000547
:0104B0000843
:0104B1000A40
:0104B2000B3E
:0104B3000D3B
:0104B4000245
:0104B500093D
:0104B6000441
:0104B7000044
:0104B8000E35
:0104B9000D35
:0104BA000A37
:0104BB00033D
:0104BC000639
:0104BD000F2F
:0104BE000A33
:0104BF000537
:0104C0000932
:0104C1000337
:0104C2000C2D
:0104C3000E2A
:0104C4000433
:0104C500072F
:0104C6000E27
:0104C7000331
:0104C8000E25
:0104C900042E
:0104CA000E23
:0104CB00032D
:0104CC000728
:0104CD00002E
:0104CE000429
:0104CF000725
:0104D0000E1D
:0104D1000B1F
:0104D2000425
:0104D300091F
:0104D4000F18
:0104D5000620
:0104D6000025
:0104D7000F15
:0104D800041F
:0104D9000D15
:0104DA000C15
:0104DB000F11
:0104DC000619
:0104DD000E10
:0104DE000716
:0104DF000D0F
:0104E0000E0D
:0104E1000614
:0104E2000316
:0104E3000F09
:0104E4000611
:0104E5000313
:0104E6000114
:0104E7000B09
:0104E800090A
:0104E900050D
:0104EA000809
:0104EB000A06
:0104EC00040B
:0104ED000D01
:0104EE000C01
:0104EF000804
:0104F0000803
:0104F1000109
:0104F2000900
:0104F3000503
:0104F40009FE
:0104F5000BFB
:0104F6000DF8
:0104F7000301
:0104F8000102
:0104F90009F9
:0104FA000CF5
:0104FB000DF3
:0104FC000EF1
:0104FD000FEF
:0104FE0000FD
:0104FF0002FA
:0105000005F5
:0105010007F2
:0105020008F0
:0105030007F0
:0105040001F5
:0105050004F1
:010506000DE7
:0105070009EA
:0105080006EC
:010509000EE3
:01050A000DE3
:01050B000FE0
:01050C000FDF
:01050D0007E6
:01050E0002EA
:01050F0008E3
:0105100003E7
:010511000CDD
:010512000CDC
:010513000BDC
:0105140000E6
:0105150002E3
:010516000ADA
:010517000CD7
:010518000FD3
:010519000AD7
:01051A0001DF
:01051B0009D6
:01051C0007D7
:01051D000FCE
:01051E0005D7
:01051F000CCF
:0105200008D2
:010521000ACF
:0105220006D2
:010523000DCA
:0105240000D6
:0105250001D4
:0105260000D4
:010527000EC5
:010528000BC7
:0105290006CB
:01052A000FC1
:01052B0004CB
:01052C0003CB
:01052D000CC1
:01052E000BC1
:01052F000EBD
:0105300002C8
:0105310003C6
:010532000DBB
:010533000DBA
:010534000EB8
:010535000BBA
:010536000EB6
:0105370002C1
:0105380002C0
:0105390005BC
:01053A0007B9
:01053B000FB0
:01053C0006B8
:01053D0004B9
:01053E0002BA
:01053F0005B6
:0105400007B3
:010541000CAD
:010542000BAD
:010543000BAC
:0105440001B5
:0105450002B3
:0105460003B1
:0105470009AA
:0105480007AB
:0105490001B0
:01054A000CA4
:01054B0009A6
:01054C000CA2
:01054D0006A7
:01054E000BA1
:01054F000BA0
:0105500008A2
:0105510003A6
:010552000C9C
:0105530004A3
:010554000A9C
:010555000F96
:0105560000A4
:010557000D96
:01055800059D
:01055900069B
:01055A000C94
:01055B000798
:01055C00029C
:01055D000B92
:01055E000E8E
:01055F000794
:010560000199
:010561000990
:01056200098F
:010563000B8C
:010564000A8C
:010565000194
:01056600088C
:01056700098A
:010568000D85
:010569000D84
:01056A00018F
:01056B00008F
:01056C00028C
:01056D00008D
:01056E000F7D
:01056F000685
:010570000C7E
:010571000683
:010572000A7E
:010573000D7A
:010574000581
:010575000580
:010576000282
:010577000083
:01057800037F
:010579000E73
:01057A00047C
:01057B000778
:01057C000975
:01057D000E6F
:01057E000577
:01057F00017A
:010580000377
:010581000B6E
:010582000A6E
:010583000F68
:010584000B6B
:010585000C69
:010586000272
:010587000B68
:01058800066C
:010589000170
:01058A000967
:01058B000C63
:01058C000866
:01058D000865
:01058E000A62
:01058F000A61
:010590000367
:010591000069
:010592000E5A
:010593000760
:010594000660
:010595000560
:010596000D57
:01059700095A
:010598000161
:010599000061
:01059A000D53
:01059B00015E
:01059C00035B
:01059D000D50
:01059E000557
:01059F000259
:0105A0000B4F
:0105A1000851
:0105A2000D4B
:0105A3000156
:0105A400094D
:0105A5000C49
:0105A6000D47
:0105A7000251
:0105A8000F43
:0105A900074A
:0105AA000050
:0105AB000C43
:0105AC000E40
:0105AD000A43
:0105AE00014B
:0105AF000744
:0105B0000D3D
:0105B1000544
:0105B2000048
:0105B3000047
:0105B4000541
:0105B5000F36
:0105B6000F35
:0105B700053E
:0105B8000042
:0105B9000041
:0105BA00033D
:0105BB000936
:0105BC00003E
:0105BD000538
:0105BE000735
:0105BF000437
:0105C0000832
:0105C1000039
:0105C2000A2E
:0105C3000136
:0105C4000234
:0105C500082D
:0105C6000F25
:0105C7000231
:0105C8000D25
:0105C9000928
:0105CA00012F
:0105CB000F20
:0105CC000D21
:0105CD000528
:0105CE000F1D
:0105CF000526
:0105D0000F1B
:0105D1000524
:0105D2000127
:0105D300081F
:0105D4000422
:0105D5000B1A
:0105D6000420
:0105D700061D
:0105D800071B
:0105D9000E13
:0105DA000F11
:0105DB00021D
:0105DC000A14
:0105DD000D10
:0105DE00001C
:0105DF000813
:0105E0000713
:0105E1000316
:0105E2000F09
:0105E3000D0A
:0105E4000214
:0105E5000015
:0105E6000A0A
:0105E7000112
:0105E800080A
:0105E9000110
:0105EA000C04
:0105EB000B04
:0105EC00000E
:0105ED000904
:0105EE000903
:0105EF000FFC
:0105F0000A00
:0105F1000BFE
:0105F2000008
:0105F30009FE
:0105F4000402
:0105F5000005
:0105F6000BF9
:0105F7000201
:0105F80005FD
:0105F9000FF2
:0105FA000EF2
:0105FB000FF0
:0105FC000FEF
:0105FD000AF3
:0105FE000CF0
:0105FF0000FB
:0106000003F6
:0106010000F8
:0106020002F5
:0106030003F3
:010604000EE7
:010605000DE7
:010606000AE9
:0106070000F2
:0106080007EA
:0106090009E7
:01060A000EE1
:01060B0000EE
:01060C0007E6
:01060D000AE2
:01060E0003E8
:01060F0008E2
:0106100002E7
:0106110007E1
:010612000DDA
:010613000DD9
:010614000CD9
:0106150000E4
:0106160000E3
:0106170000E2
:0106180007DA
:010619000AD6
:01061A000DD2
:01061B0005D9
:01061C0006D7
:01061D0005D7
:01061E0006D5
:01061F000BCF
:010620000ACF
:0106210004D4
:010622000CCB
:0106230006D0
:0106240004D1
:0106250007CD
:0106260003D0
:0106270007CB
:0106280007CA
:0106290003CD
:01062A000BC4
:01062B0002CC
:01062C0007C6
:01062D000AC2
:01062E000BC0
:01062F000AC0
:0106300008C1
:0106310001C7
:0106320007C0
:0106330007BF
:0106340001C4
:0106350001C3
:0106360008BB
:0106370001C1
:010638000BB6
:0106390004BC
:01063A0007B8
:01063B0003BB
:01063C0003BA
:01063D0004B8
:01063E0002B9
:01063F000AB0
:0106400006B3
:0106410003B5
:010642000BAC
:0106430009AD
:0106440008AD
:0106450003B1
:0106460003B0
:0106470004AE
:010648000EA3
:010649000CA4
:01064A0006A9
:01064B0005A9
:01064C0003AA
:01064D0009A3
:01064E000E9D
:01064F000AA0
:0106500007A2
:010651000B9D
:010652000D9A
:0106530006A0
:010654000D98
:01065500079D
:010656000C97
:0106570002A0
:010658000F92
:010659000997
:01065A000699
:01065B000A94
:01065C000D90
:01065D00019B
:01065E000D8E
:01065F000496
:010660000C8D
:010661000791
:010662000B8C
:010663000A8C
:01066400098C
:010665000A8A
:010666000093
:010667000E84
:01066800078A
:010669000D83
:01066A00028D
:01066B000886
:01066C00018C
:01066D000E7E
:01066E00008B
:01066F000981
:010670000881
:010671000088
:010672000087
:01067300087E
:01067400087D
:010675000183
:010676000182
:01067700077B
:01067800047D
:01067900057B
:01067A000976
:01067B000F6F
:01067C000677
:01067D000A72
:01067E000A71
:01067F000377
:010680000376
:010681000771
:010682000B6C
:010683000E68
:010684000A6B
:010685000C68
:010686000271
:01068700056D
:01068800026F
:01068900056B
:01068A000966
:01068B000965
:01068C000F5E
:01068D000765
:01068E000A61
:01068F000367
:010690000C5D
:010691000F59
:010692000661
:01069300095D
:010694000263
:010695000A5A
:010696000A59
:010697000A58
:01069800035E
:010699000D53
:01069A000F50
:01069B00025C
:01069C000E4F
:01069D000854
:01069E000A51
:01069F000951
:0106A0000C4D
:0106A1000B4D
:0106A2000A4D
:0106A3000155
:0106A400064F
:0106A5000D47
:0106A6000E45
:0106A7000C46
:0106A8000D44
:0106A9000749
:0106AA000D42
:0106AB000549
:0106AC00024B
:0106AD000A42
:0106AE000F3C
:0106AF000644
:0106B0000346
:0106B1000840
:0106B200083F
:0106B300083E
:0106B400093C
:0106B5000E36
:0106B6000A39
:0106B7000F33
:0106B8000E33
:0106B9000A36
:0106BA00043B
:0106BB000E30
:0106BC000835
:0106BD000537
:0106BE000437
:0106BF000733
:0106C0000E2B
:0106C100092F
:0106C200082F
:0106C3000B2B
:0106C4000233
:0106C5000D27
:0106C6000A29
:0106C7000929
:0106C8000928
:0106C9000828
:0106CA000629
:0106CB00002E
:0106CC000429
:0106CD00022A
:0106CE000625
:0106CF000E1C
:0106D0000722
:0106D1000028
:0106D2000423
:0106D3000224
:0106D4000421
:0106D500091B
:0106D6000C17
:0106D7000A18
:0106D8000E13
:0106D900051B
:0106DA000916
:0106DB000618
:0106DC000815
:0106DD000A12
:0106DE000615
:0106DF000713
:0106E0000811
:0106E1000216
:0106E2000116
:0106E3000D09
:0106E4000114
:0106E500070D
:0106E600070C
:0106E7000B07
:0106E8000C05
:0106E900040C
:0106EA000906
:0106EB000608
:0106EC00030A
:0106ED000606
:0106EE000A01
:0106EF000505
:0106F0000FFA
:0106F1000FF9
:0106F2000DFA
:0106F3000006
:0106F4000EF7
:0106F5000FF5
:0106F60009FA
:0106F70003FF
:0106F80002FF
:0106F9000CF4
:0106FA0009F6
:0106FB000CF2
:0106FC000CF1
:0106FD000FED
:0106FE0008F3
:0106FF000EEC
:0107000005F3
:0107010001F6
:0107020008EE
:010703000DE8
:0107040004F0
:0107050003F0
:010706000BE7
:0107070002EF
:010708000AE6
:0107090007E8
:01070A000BE3
:01070B000AE3
:01070C0007E5
:01070D0004E7
:01070E0003E7
:01070F0007E2
:0107100002E6
:0107110005E2
:0107120003E3
:010713000DD8
:0107140005DF
:010715000BD8
:0107160002E0
:0107170009D8
:0107180001DF
:010719000CD3
:01071A0009D5
:01071B0008D5
:01071C000BD1
:01071D0000DB
:01071E0008D2
:01071F0001D8
:010720000CCC
:0107210008CF
:0107220004D2
:010723000EC7
:0107240006CE
:010725000AC9
:0107260009C9
:0107270000D1
:010728000EC2
:0107290002CD
:01072A0007C7
:01072B000DC0
:01072C0001CB
:01072D0000CB
:01072E0007C3
:01072F0003C6
:0107300001C7
:010731000EB9
:0107320006C0
:0107330005C0
:0107340009BB
:010735000BB8
:0107360009B9
:010737000FB2
:0107380007B9
:010739000DB2
:01073A000DB1
:01073B0001BC
:01073C0005B7
:01073D0003B8
:01073E0005B5
:01073F0006B3
:0107400001B7
:0107410000B7
:010742000BAB
:010743000FA6
:0107440003B1
:0107450002B1
:0107460004AE
:0107470004AD
:0107480009A7
:010749000DA2
:01074A000AA4
:01074B0006A7
:01074C000BA1
:01074D0001AA
:01074E000F9B
:01074F000F9A
:0107500008A0
:0107510001A6
:0107520002A4
:0107530002A3
:01075400099B
:010755000D96
:01075600059D
:010757000998
:010758000E92
:010759000C93
:01075A000896
:01075B000895
:01075C000498
:01075D000F8C
:01075E000199
:01075F000E8B
:010760000C8C
:010761000196
:010762000195
:010763000194
:01076400068E
:01076500058E
:01076600038F
:01076700028F
:010768000987
:010769000A85
:01076A000A84
:01076B000D80
:01076C000686
:01076D000883
:01076E000783
:01076F000782
:01077000097F
:010771000285
:010772000383
:010773000F76
:01077400097B
:01077500047F
:010776000082
:010777000180
:010778000878
:010779000778
:01077A000F6F
:01077B00027B
:01077C00017B
:01077D000E6D
:01077E000971
:01077F000376
:010780000D6B
:01078100086F
:010782000373
:010783000075
:010784000F65
:010785000F64
:010786000072
:01078700026F
:01078800056B
:010789000867
:01078A000B63
:01078B000C61
:01078C000B61
:01078D000665
:01078E000D5D
:01078F000E5B
:010790000761
:010791000760
:010792000C5A
:010793000461
:010794000D57
:01079500045F
:010796000959
:01079700075A
:010798000C54
:010799000659
:01079A00025C
:01079B000C51
:01079C00025A
:01079D00005B
:01079E000357
:01079F000653
:0107A0000850
:0107A1000354
:0107A2000353
:0107A3000550
:0107A4000450
:0107A5000D46
:0107A6000949
:0107A700054C
:0107A8000C44
:0107A9000946
:0107AA000747
:0107AB00014C
:0107AC00014B
:0107AD000249
:0107AE000F3B
:0107AF000148
:0107B0000345
:0107B1000F38
:0107B2000E38
:0107B3000B3A
:0107B4000F35
:0107B500043F
:0107B6000240
:0107B700043D
:0107B800023E
:0107B900053A
:0107BA000638
:0107BB000E2F
:0107BC000537
:0107BD000437
:0107BE000436
:0107BF000B2E
:0107C0000335
:0107C1000334
:0107C2000333
:0107C3000B2A
:0107C4000331
:0107C5000132
:0107C6000C26
:0107C7000E23
:0107C8000B25
:0107C9000B24
:0107CA000628
:0107CB00002D
:0107CC00022A
:0107CD00012A
:0107CE000426
:0107CF000128
:0107D0000E1A
:0107D1000027
:0107D2000E18
:0107D3000E17
:0107D4000321
:0107D500051E
:0107D600081A
:0107D700021F
:0107D8000719
:0107D9000D12
:0107DA000816
:0107DB000C11
:0107DC000F0D
:0107DD000417
:0107DE000119
:0107DF000811
:0107E0000F09
:0107E100090E
:0107E200090D
:0107E3000411
:0107E4000D07
:0107E500080B
:0107E600070B
:0107E7000E03
:0107E8000010
:0107E900000F
:0107EA00000E
:0107EB000409
:0107EC000EFE
:0107ED00000B
:0107EE000CFE
:0107EF000603
:0107F0000EFA
:0107F1000700
:0107F2000303
:0107F3000302
:0107F4000AFA
:0107F50008FB
:0107F6000FF3
:0107F7000FF2
:0107F8000BF5
:0107F90004FB
:0107FA0009F5
:0107FB000CF1
:0107FC000EEE
:0107FD000FEC
:0107FE000FEB
:0107FF0000F9
:00000001ff
