:020000040000FA
:020000000012EC
:020001000043BA
:0200020000E616
:02000300017981
:02000400006C8E
:0200050000F504
:02000600005E9A
:02000700017383
:020008000036C0
:02000900005F96
:02000A00007B79
:02000B0000F003
:02000C00001FD3
:02000D000020D1
:02000E0000C030
:02000F0000BF30
:0200100001915C
:0200110000B538
:0200120000B438
:02001300015496
:0200140001FFEA
:020015000147A1
:02001600008C5C
:020017000121C5
:020018000027BF
:0200190001558F
:02001A0000F6EE
:02001B0000AE35
:02001C0001F1F0
:02001D000108D8
:02001E0000BA26
:02001F00009946
:0200200000EDF1
:020021000000DD
:02002200004894
:0200230001AA30
:02002400000DCD
:0200250001AC2C
:0200260001A82F
:02002700011ABC
:0200280000A234
:02002900009342
:02002A00008C48
:02002B00016B67
:02002C0000AC26
:02002D0001547C
:02002E0000D5FB
:02002F00017B53
:0200300001A528
:02003100015F6D
:0200320001705B
:0200330000FAD1
:0200340000BD0D
:02003500006069
:020036000108BF
:020037000008BF
:0200380001D3F2
:02003900005A6B
:02003A00006B59
:02003B0001378B
:02003C0001C5FC
:02003D0001F3CD
:02003E0001A41B
:02003F0001A816
:0200400001912C
:02004100012F8D
:02004200017B40
:02004300006952
:0200440001CFEA
:0200450001EFC9
:02004600013E79
:0200470001F4C2
:02004800012F86
:02004900005164
:02004A0000C9EB
:02004B0000F1C2
:02004C0000F8BA
:02004D0001436D
:02004E00014C63
:02004F00014866
:0200500000802E
:02005100014666
:0200520001A605
:0200530001D6D4
:0200540001FAAF
:02005500004168
:02005600005B4D
:0200570001C9DD
:02005800008422
:02005900013173
:02005A00011093
:02005B00012F73
:02005C0001158C
:02005D0001326E
:02005E0001CAD5
:02005F0000811E
:02006000018D10
:02006100017725
:0200620000316B
:0200630001C5D5
:02006400007B1F
:02006500001584
:0200660000FF99
:02006700016135
:02006800014055
:02006900005045
:02006A0001F3A0
:02006B0000E1B2
:02006C0001B0E1
:02006D0000FD94
:02006E00001A76
:02006F0001BFCF
:0200700001A0ED
:0200710001EE9E
:02007200017B10
:02007300014347
:02007400002E5C
:0200750001D1B7
:0200760000EE9A
:0200770000DBAC
:02007800007313
:02007900014B39
:02007A0001C0C3
:02007B0001B3CF
:02007C0001AFD2
:02007D00016F11
:02007E0001027D
:02007F0000CFB0
:02008000007806
:0200810000EA93
:0200820000FD7F
:02008300001566
:02008400019DDC
:0200850001E296
:0200860000AFC9
:0200870000D5A2
:0200880001BABB
:0200890001551F
:02008A0000A7CD
:02008B0001046E
:02008C0000581A
:02008D0001F47C
:02008E00003D33
:02008F0000EC83
:0200900000BDB1
:0200910000CBA2
:0200920000B4B8
:0200930000E784
:0200940000C2A8
:02009500010266
:02009600018FD8
:02009700004F18
:0200980001CB9A
:0200990001A4C0
:02009A00004C18
:02009B0001B9A9
:02009C0001B9A8
:02009D0000DC85
:02009E0000C49C
:02009F0001E37B
:0200A000006BF3
:0200A10000233A
:0200A20000FB61
:0200A3000164F6
:0200A400011148
:0200A50000C198
:0200A60001DC7B
:0200A700011D39
:0200A80001B0A5
:0200A900008DC8
:0200AA0001163D
:0200AB0001AFA3
:0200AC0000D280
:0200AD00001E33
:0200AE0001D57A
:0200AF000185C9
:0200B00001DA73
:0200B1000089C4
:0200B200004DFF
:0200B30000BD8E
:0200B40001B198
:0200B50001B296
:0200B600005FE9
:0200B7000063E4
:0200B8000149FC
:0200B9000192B2
:0200BA0000DA6A
:0200BB000182C0
:0200BC00017EC3
:0200BD0000D26F
:0200BE0001DE61
:0200BF0000A39C
:0200C00001132A
:0200C100010C30
:0200C200008EAE
:0200C3000093A8
:0200C40000102A
:0200C50001E058
:0200C60001A295
:0200C700011620
:0200C800012F06
:0200C90001DC58
:0200CA000070C4
:0200CB00017FB3
:0200CC000186AB
:0200CD000177B9
:0200CE000065CB
:0200CF0001EF3F
:0200D000002A04
:0200D100010329
:0200D2000145E6
:0200D300000A21
:0200D400019495
:0200D50000F732
:0200D60000F434
:0200D700000B1C
:0200D80000B96D
:0200D900009095
:0200DA000176AD
:0200DB00002AF9
:0200DC000034EE
:0200DD0000021F
:0200DE000159C6
:0200DF000073AC
:0200E000012EEF
:0200E100016CB0
:0200E20001DB40
:0200E3000076A5
:0200E400006CAE
:0200E50000B960
:0200E600014BCC
:0200E700019F77
:0200E8000047CF
:0200E900016AAA
:0200EA000071A3
:0200EB00001DF6
:0200EC00003FD3
:0200ED0000EA27
:0200EE0001BA55
:0200EF000140CE
:0200F000017499
:0200F10000917C
:0200F200008785
:0200F30000E724
:0200F4000029E1
:0200F5000069A0
:0200F600018F78
:0200F70001EF17
:0200F8000137CE
:0200F90001956F
:0200FA000149BA
:0200FB00001CE7
:0200FC0001E31E
:0200FD0001629E
:0200FE0001B04F
:0200FF0001CF2F
:0201000001A755
:0201010000DE1E
:02010200015F9B
:0201030001E118
:0201040001EC0C
:02010500015F98
:0201060000E512
:020107000021D5
:02010800013CB8
:0201090001DF14
:02010A000104EE
:02010B0001DB16
:02010C0000DF12
:02010D0001D619
:02010E0000E20D
:02010F00003EB0
:0201100001AD3F
:0201110001DA11
:0201120001D911
:02011300006B7F
:02011400014D9B
:02011500009B4D
:02011600008A5D
:0201170000C026
:0201180001A143
:02011900019053
:02011A00019A48
:02011B00007D65
:02011C00003EA3
:02011D00009F41
:02011E000024BB
:02011F000005D9
:02012000014E8E
:020121000139A2
:0201220000A239
:02012300007A60
:02012400018F49
:020125000031A7
:02012600013F97
:02012700003D99
:02012800000BCA
:02012900013C97
:02012A0001AE24
:02012B0001973A
:02012C0000FED3
:02012D00018847
:02012E0001A925
:02012F0001A528
:0201300000F0DD
:02013100017259
:0201320001F4D6
:02013300003496
:0201340001FCCC
:02013500017D4A
:02013600011FA7
:0201370000695D
:02013800018C38
:02013900004183
:02013A00017D45
:02013B0001C8F9
:02013C0000B30E
:02013D0001BB04
:02013E0000A21D
:02013F00016756
:0201400000DEDF
:02014100001CA0
:0201420001C5F5
:02014300015A5F
:02014400019D1B
:02014500003C7C
:02014600008D2A
:0201470001F8BD
:02014800015F55
:0201490001793A
:02014A000003B0
:02014B000106AB
:02014C0000535E
:02014D0000AC04
:02014E00013B73
:02014F0000C4EA
:0201500000C0ED
:02015100018A21
:0201520000E6C5
:02015300011594
:02015400006742
:02015500007236
:02015600011E88
:0201570000C2E4
:02015800018024
:0201590001178C
:02015A00001093
:02015B0001732E
:02015C0000435E
:02015D0001FAA5
:02015E00009E01
:02015F0000C4DA
:02016000000598
:0201610000207C
:0201620001EAB0
:0201630000DFBB
:02016400014058
:02016500009206
:02016600016B2B
:02016700000591
:0201680001D1C3
:02016900005D37
:02016A00013062
:02016B00012A67
:02016C0000CFC2
:02016D0000157B
:02016E0000C5CA
:02016F0001226B
:0201700000EBA2
:0201710000C6C6
:0201720001C7C3
:02017300011574
:0201740001EE9A
:02017500001672
:0201760000691E
:0201770000F690
:0201780000D8AD
:0201790000ADD7
:02017A0000542F
:02017B00002B57
:02017C00002859
:02017D00018EF1
:02017E00012658
:02017F0000B3CB
:0201800000AAD3
:02018100005A22
:02018200003447
:02018300005822
:020184000096E3
:0201850000EA8E
:02018600018AEC
:02018700004C2A
:02018800014133
:02018900010B68
:02018A000097DC
:02018B00007EF4
:02018C00009FD2
:02018D0001A8C7
:02018E00009CD3
:02018F0001F875
:0201900001F775
:0201910000A4C8
:02019200014D1D
:02019300010366
:02019400011256
:02019500015710
:0201960000ADBA
:020197000089DD
:0201980000EA7B
:0201990001C49F
:02019A00016FF3
:02019B0000035F
:02019C0001352B
:02019D0001332C
:02019E00015FFF
:02019F00014617
:0201A000013824
:0201A10000322A
:0201A20001FD5D
:0201A300010554
:0201A40000C792
:0201A50000CB8D
:0201A60000A2B5
:0201A70001094C
:0201A80000AAAB
:0201A90000F95B
:0201AA00003320
:0201AB00010F42
:0201AC000077DA
:0201AD00011F30
:0201AE000070DF
:0201AF0001410C
:0201B0000194B8
:0201B1000096B6
:0201B20000CF7C
:0201B300009BAF
:0201B4000182C6
:0201B500013A0D
:0201B6000064E3
:0201B70000FC4A
:0201B80000CE77
:0201B90001CC77
:0201BA00002C17
:0201BB0001F34E
:0201BC00017FC1
:0201BD0001B689
:0201BE0001DC62
:0201BF00014DF0
:0201C00001E557
:0201C100009BA1
:0201C2000097A4
:0201C300015DDC
:0201C400009B9E
:0201C50000B286
:0201C60000BC7B
:0201C700003204
:0201C8000171C3
:0201C9000077BD
:0201CA000038FB
:0201CB000055DD
:0201CC000055DC
:0201CD0001B57A
:0201CE0000C06F
:0201CF000172BB
:0201D00001DD4F
:0201D1000053D9
:0201D20001DE4C
:0201D30001AB7E
:0201D400019890
:0201D50000ED3B
:0201D6000060C7
:0201D700014BDA
:0201D8000083A2
:0201D9000163C0
:0201DA0001AA78
:0201DB0000958D
:0201DC00010B15
:0201DD00001709
:0201DE000029F6
:0201DF0000EA34
:0201E000015EBE
:0201E100000814
:0201E20000A17A
:0201E300011207
:0201E40001D840
:0201E500008E8A
:0201E600018195
:0201E700008E88
:0201E800015FB5
:0201E90000D93B
:0201EA00005FB4
:0201EB0001828F
:0201EC00015EB2
:0201ED000140CF
:0201EE000169A5
:0201EF00001BF3
:0201F00000B558
:0201F10001AA61
:0201F20000B259
:0201F300000802
:0201F40001AB5D
:0201F5000009FF
:0201F60000A760
:0201F7000155B0
:0201F80000768F
:0201F90001D72C
:0201FA0001E919
:0201FB0001D130
:0201FC000115EB
:0201FD0001CF30
:0201FE000147B7
:0201FF0001E11C
:0202000001F308
:020201000146B4
:02020200009763
:02020300007980
:02020400015C9B
:02020500006A8D
:020206000020D6
:02020700006491
:02020800010BE8
:0202090000CF24
:02020A0000549E
:02020B000132BE
:02020C0000836D
:02020D0000BA35
:02020E000118D5
:02020F00005796
:020210000023C9
:02021100014AA0
:0202120000608A
:020213000040A9
:020214000126C1
:0202150000DF08
:020216000110D5
:02021700007273
:0202180000489C
:0202190000EFF4
:02021A0000944E
:02021B0000CD14
:02021C00004898
:02021D00000BD4
:02021E000116C7
:02021F0000AA33
:02022000015487
:0202210000C615
:020222000134A5
:0202230000AE2B
:020224000111C6
:02022500006671
:02022600008E48
:0202270001E5EF
:0202280001B51E
:0202290001577B
:02022A000124AD
:02022B00007B56
:02022C0000CF01
:02022D0001F5D9
:02022E0000349A
:02022F00016A62
:0202300001EBE0
:0202310001A624
:0202320001FACF
:02023300018E3A
:02023400004385
:02023500007E49
:02023600017B4A
:02023700013F85
:0202380000F5CF
:02023900019F23
:02023A0000DEE4
:02023B0001DDE3
:02023C00004080
:02023D0001724C
:02023E0001F6C7
:02023F0001BEFE
:0202400000A814
:0202410000D0EB
:02024200004F6B
:02024300015761
:0202440000F1C7
:0202450000A512
:02024600014273
:020247000103B1
:02024800007F35
:02024900012E84
:02024A0001169B
:02024B0000644D
:02024C000101AE
:02024D0000C0EF
:02024E0000545A
:02024F00012686
:02025000014368
:02025100014565
:0202520001FBAE
:02025300004267
:02025400003E6A
:0202550001ADF9
:02025600005E48
:0202570000C4E1
:0202580000960E
:0202590001D1D1
:02025A00007230
:02025B0000EFB2
:02025C0000EBB5
:02025D0001BBE3
:02025E0000E4BA
:02025F0001019B
:0202600001514A
:02026100006635
:02026200017524
:02026300004257
:02026400005048
:02026500004651
:020266000198FD
:02026700009401
:0202680001444F
:02026900016230
:02026A00014D44
:02026B0000A5EC
:02026C00002C64
:02026D0000E2AD
:02026E00017B12
:02026F0001FB91
:02027000016C1F
:02027100013C4E
:0202720000A0EA
:020273000195F3
:0202740000A9DF
:0202750000A3E4
:02027600014C39
:0202770001156F
:0202780001176C
:02027900000E75
:02027A00016021
:02027B00007110
:02027C00019AE5
:02027D00002758
:02027E00003945
:02027F0000EE8F
:0202800000C4B8
:020281000087F4
:0202820000700A
:0202830001EA8E
:02028400016611
:0202850000A0D7
:0202860001B1C4
:0202870000E293
:0202880001B8BB
:02028900007201
:02028A0001056C
:02028B0001D898
:02028C0000224E
:02028D0000ADC2
:02028E0000C4AA
:02028F00013A32
:020290000195D6
:02029100016802
:0202920001A2C7
:0202930001C3A5
:02029400001355
:02029500003B2C
:0202960001D98C
:0202970001EF75
:0202980001D291
:02029900001B48
:02029A0001E77A
:02029B000070F1
:02029C000066FA
:02029D00005A05
:02029E00007BE3
:02029F0000FD60
:0202A00000E27A
:0202A1000164F6
:0202A20001A9B0
:0202A300007ADF
:0202A40000D484
:0202A5000177DF
:0202A60001F362
:0202A70001262E
:0202A800000450
:0202A900011C36
:0202AA00003220
:0202AB00017ED2
:0202AC0001222D
:0202AD00009AB5
:0202AE0000430B
:0202AF0001FE4E
:0202B000002626
:0202B100006EDD
:0202B20000C486
:0202B3000184C4
:0202B400006EDA
:0202B500014EF8
:0202B6000055F1
:0202B70001F153
:0202B80001A79C
:0202B90001261C
:0202BA000156EB
:0202BB000188B8
:0202BC00000739
:0202BD0000F946
:0202BE00018AB3
:0202BF0000EF4E
:0202C00000C27A
:0202C100003B00
:0202C2000067D3
:0202C30000F544
:0202C400013106
:0202C5000066D1
:0202C6000156DF
:0202C70000FC39
:0202C80000E54F
:0202C90000A88B
:0202CA000156DB
:0202CB00003100
:0202CC00017CB3
:0202CD0000B877
:0202CE00007FAF
:0202CF000085A8
:0202D000010922
:0202D10001E347
:0202D2000134F5
:0202D300010D1B
:0202D40000B771
:0202D500010D19
:0202D6000041E5
:0202D70000F530
:0202D80000D153
:0202D90000E53E
:0202DA0000E240
:0202DB0001BC64
:0202DC0000F42C
:0202DD00008E91
:0202DE0000B767
:0202DF00017CA0
:0202E0000020FC
:0202E100017B9F
:0202E2000143D6
:0202E30001F127
:0202E4000033E5
:0202E50001EF27
:0202E6000128ED
:0202E700018292
:0202E8000041D3
:0202E90001B062
:0202EA000123EE
:0202EB000164AC
:0202EC0001FF10
:0202ED0000E926
:0202EE000126E7
:0202EF000119F3
:0202F000001FED
:0202F10000F219
:0202F20000C545
:0202F3000151B7
:0202F400005EAA
:0202F50001AC5A
:0202F600017590
:0202F700004BBA
:0202F800016F94
:0202F900011AE8
:0202FA00012CD5
:0202FB000009F8
:0202FC000140BF
:0202FD00016C92
:0202FE000013EB
:0202FF00012AD2
:02030000011DDD
:0203010001AC4D
:02030200009267
:02030300004CAC
:02030400009C5B
:020305000155A0
:0203060000F6FF
:02030700010EE5
:0203080001F3FF
:020309000100F1
:02030A000147A9
:02030B00005A96
:02030C0001905E
:02030D00017875
:02030E00004CA1
:02030F0001B536
:0203100001FFEB
:02031100007179
:0203120001CD1B
:02031300006484
:02031400010ED8
:02031500008264
:0203160000C520
:0203170001746F
:020318000123BF
:0203190001CD14
:02031A0000776A
:02031B0000A63A
:02031C0000F4EB
:02031D00003AA4
:02031E0000518C
:02031F0000C21A
:02032000006F6C
:02032100005981
:0203220001BD1B
:020323000122B5
:0203240001A432
:020325000100D5
:020326000116BE
:0203270001B71C
:0203280001A72B
:0203290001AD24
:02032A0000B021
:02032B0000C30D
:02032C0001BB13
:02032D0001408D
:02032E00016468
:02032F00006C60
:02033000006F5C
:0203310000DAF0
:02033200008445
:02033300010ABD
:02033400004681
:02033500004F77
:0203360000EBDA
:02033700008E36
:02033800014C76
:0203390000932F
:02033A00009031
:02033B0001BB04
:02033C0001EDD1
:02033D0000447A
:02033E00000AB3
:02033F0000B408
:020340000004B7
:02034100002694
:02034200016355
:02034300019027
:0203440000288F
:0203450001BBFA
:02034600009D18
:02034700004B69
:02034800005A59
:0203490001DED3
:02034A0001FDB3
:02034B0001129D
:02034C0001624C
:02034D0000337B
:02034E0000624B
:02034F0001109B
:0203500000ADFE
:02035100017E2B
:020352000107A1
:0203530001B8EF
:0203540000FCAB
:02035500018C19
:0203560000D0D5
:0203570000FBA9
:02035800006F34
:0203590000BEE4
:02035A0001B2EE
:02035B0001AEF1
:02035C0000CFD0
:02035D00011E7F
:02035E0001F4A8
:02035F00001587
:0203600000DAC1
:02036100010792
:02036200003C5D
:0203630001FF98
:02036400010E88
:0203650000DFB7
:02036600018311
:02036700018211
:02036800009CF7
:02036900007E14
:02036A00018E02
:02036B00017916
:02036C00009EF1
:02036D00004C42
:02036E0001523A
:02036F0001503B
:02037000008EFD
:0203710000CBBF
:02037200002465
:02037300001D6B
:02037400013254
:0203750001AADB
:0203760000FA8B
:02037700012D56
:0203780000DAA9
:02037900014D34
:02037A000091F0
:02037B000185FA
:02037C00014638
:02037D0001CCB1
:02037E00016B11
:02037F000092EA
:02038000007A01
:020381000185F4
:02038200016C0C
:0203830000C1B7
:0203840001482E
:02038500006511
:02038600010B69
:02038700003A3A
:0203880001076B
:0203890001165B
:02038A0001DD93
:02038B00018CE3
:02038C0000DF90
:02038D0001531A
:02038E00002449
:02038F0000AAC2
:02039000005318
:0203910000CD9D
:02039200010F59
:0203930001B3B4
:02039400002740
:02039500016EF7
:020396000187DD
:02039700012E35
:0203980001A4BE
:02039900016BF6
:02039A0000124F
:02039B00003927
:02039C0001CD91
:02039D00004E10
:02039E00019AC2
:02039F00004814
:0203A000003823
:0203A100013227
:0203A200012B2D
:0203A30000D088
:0203A400013323
:0203A50001470E
:0203A600003025
:0203A70001FF54
:0203A8000182D0
:0203A90001D27F
:0203AA000180D0
:0203AB00006CE4
:0203AC00006FE0
:0203AD000153FA
:0203AE00002D20
:0203AF000176D5
:0203B0000097B4
:0203B100005BEF
:0203B20001EB5D
:0203B3000060E8
:0203B40001FC4A
:0203B50000D472
:0203B60000BC89
:0203B70000152F
:0203B800010240
:0203B90000AB97
:0203BA000166DA
:0203BB0001E05F
:0203BC00014AF4
:0203BD0001F14C
:0203BE0001B28A
:0203BF0001102B
:0203C0000192A8
:0203C100013207
:0203C200002316
:0203C300000335
:0203C40001E056
:0203C5000060D6
:0203C600002015
:0203C7000151E2
:0203C800018DA5
:0203C90001B978
:0203CA000046EB
:0203CB00008DA3
:0203CC000030FF
:0203CD0000CB63
:0203CE00012309
:0203CF00002408
:0203D00000D457
:0203D10000C268
:0203D20001DF49
:0203D3000077B1
:0203D400004CDB
:0203D50001081D
:0203D6000136EE
:0203D70000E53F
:0203D800019092
:0203D90001FC25
:0203DA0001AA76
:0203DB000072AE
:0203DC000070AF
:0203DD0001CC51
:0203DE000076A7
:0203DF0000928A
:0203E00001DE3C
:0203E1000068B2
:0203E200005FBA
:0203E30001E631
:0203E4000069AE
:0203E50001EF26
:0203E60001789C
:0203E70001C053
:0203E80001BF53
:0203E90000B260
:0203EA000157B9
:0203EB00019F70
:0203EC000068A7
:0203ED00011EEF
:0203EE00010507
:0203EF000066A6
:0203F00000C744
:0203F10000DD2D
:0203F200002BDE
:0203F3000057B1
:0203F40000CF38
:0203F50001D332
:0203F6000061A4
:0203F7000052B2
:0203F80001F30F
:0203F900006F93
:0203FA0000F110
:0203FB000014EC
:0203FC000103FB
:0203FD00017885
:0203FE0000DA23
:0203FF0001CA31
:00000001ff
