:020000040000FA
:010000000FF0
:0100010002FC
:010002000BF2
:010003000AF2
:010004000FEC
:010005000AF0
:010006000BEE
:0100070002F6
:010008000EE9
:0100090001F5
:01000A0009EC
:01000B0007ED
:01000C000BE8
:01000D0005ED
:01000E0005EC
:01000F000AE6
:0100100006E9
:0100110007E7
:010012000DE0
:010013000AE2
:010014000CDF
:0100150004E6
:0100160002E7
:0100170005E3
:010018000ED9
:010019000DD9
:01001A0001E4
:01001B000BD9
:01001C000BD8
:01001D0000E2
:01001E000BD6
:01001F000BD5
:0100200001DE
:010021000DD1
:010022000ECF
:0100230004D8
:0100240001DA
:0100250002D8
:0100260009D0
:0100270006D2
:0100280008CF
:010029000FC7
:01002A000CC9
:01002B000EC6
:01002C0006CD
:01002D0003CF
:01002E0006CB
:01002F000DC3
:010030000BC4
:010031000DC1
:0100320005C8
:0100330002CA
:0100340005C6
:010035000DBD
:010036000ABF
:010037000CBC
:0100380004C3
:0100390001C5
:01003A0003C2
:01003B000ABA
:01003C0006BD
:01003D0008BA
:01003E000FB2
:01003F000BB5
:010040000CB3
:0100410003BB
:010042000EAF
:010043000FAD
:0100440004B7
:010045000FAB
:010046000FAA
:0100470004B4
:010048000EA9
:010049000DA9
:01004A0001B4
:01004B000AAA
:01004C0008AB
:01004D000CA6
:01004E0004AD
:01004F0001AF
:0100500003AC
:010051000AA4
:0100520006A7
:0100530007A5
:010054000D9E
:0100550007A3
:0100560007A2
:010057000C9C
:0100580005A2
:0100590003A3
:01005A00069F
:01005B000E96
:01005C000B98
:01005D000C96
:01005E00039E
:01005F000E92
:010060000E91
:01006100039B
:010062000C91
:010063000A92
:010064000D8E
:010065000595
:010066000297
:010067000395
:01006800098E
:010069000393
:01006A000293
:01006B00068E
:01006C000F84
:01006D000C86
:01006E000D84
:01006F00048C
:010070000F80
:010071000E80
:01007200038A
:010073000B81
:010074000982
:010075000A80
:010076000188
:010077000C7C
:010078000B7C
:010079000F77
:01007A00087D
:01007B00057F
:01007C00067D
:01007D000C76
:01007E00077A
:01007F00057B
:010080000976
:01008100007E
:010082000D70
:010083000D6F
:010084000279
:010085000B6F
:010086000970
:010087000B6D
:010088000275
:010089000D69
:01008A000C69
:01008B000F65
:01008C00076C
:01008D00036F
:01008E00046D
:01008F000868
:01009000016E
:010091000E60
:01009200006D
:010093000666
:01009400006B
:010095000E5C
:010096000069
:010097000761
:010098000265
:010099000165
:01009A000461
:01009B000C58
:01009C00075C
:01009D00075B
:01009E000B56
:01009F00035D
:0100A0000F50
:0100A100005E
:0100A2000459
:0100A3000D4F
:0100A4000952
:0100A5000A50
:0100A6000F4A
:0100A7000751
:0100A8000453
:0100A9000551
:0100AA000A4B
:0100AB000351
:0100AC000053
:0100AD000151
:0100AE00064B
:0100AF000F41
:0100B0000C43
:0100B1000D41
:0100B200024B
:0100B3000B41
:0100B4000843
:0100B5000842
:0100B6000D3C
:0100B7000642
:0100B8000245
:0100B9000343
:0100BA00073E
:0100BB000F35
:0100BC000B38
:0100BD000B37
:0100BE000F32
:0100BF000739
:0100C000023D
:0100C100013D
:0100C2000538
:0100C3000C30
:0100C4000635
:0100C5000535
:0100C6000732
:0100C7000D2B
:0100C8000730
:0100C9000531
:0100CA00062F
:0100CB000C28
:0100CC00052E
:0100CD000131
:0100CE00022F
:0100CF00062A
:0100D0000E21
:0100D1000925
:0100D2000825
:0100D3000B21
:0100D4000229
:0100D5000C1E
:0100D6000A1F
:0100D7000B1D
:0100D8000126
:0100D900091D
:0100DA00061F
:0100DB00061E
:0100DC000A19
:0100DD000121
:0100DE000C15
:0100DF000A16
:0100E0000C13
:0100E100021C
:0100E2000B12
:0100E3000814
:0100E4000813
:0100E5000C0E
:0100E6000316
:0100E7000E0A
:0100E8000C0B
:0100E9000E08
:0100EA000411
:0100EB000C08
:0100EC00090A
:0100ED000909
:0100EE000C05
:0100EF00030D
:0100F0000D02
:0100F1000B03
:0100F2000C01
:0100F300000C
:0100F4000803
:0100F5000406
:0100F6000207
:0100F7000503
:0100F8000AFD
:0100F9000303
:0100FA000005
:0100FB000FF5
:0100FC000201
:0100FD0009F9
:0100FE0003FE
:0100FF000000
:0101000000FE
:0101010004F9
:010102000BF1
:0101030006F5
:0101040004F6
:0101050005F4
:0101060009EF
:0101070001F6
:010108000CEA
:010109000AEB
:01010A000BE9
:01010B0000F3
:01010C0008EA
:01010D0003EE
:01010E0002EE
:01010F0003EC
:0101100008E6
:0101110000ED
:010112000CE0
:010113000AE1
:010114000CDE
:0101150001E8
:0101160009DF
:0101170004E3
:0101180003E3
:0101190004E1
:01011A0009DB
:01011B0001E2
:01011C000CD6
:01011D000AD7
:01011E000CD4
:01011F0000DF
:0101200008D6
:0101210002DB
:0101220000DC
:0101230001DA
:0101240005D5
:010125000CCD
:0101260006D2
:0101270003D4
:0101280004D2
:0101290007CE
:01012A000DC7
:01012B0007CC
:01012C0003CF
:01012D0002CF
:01012E0005CB
:01012F000AC5
:0101300003CB
:010131000EBF
:010132000DBF
:010133000EBD
:0101340003C7
:010135000ABF
:0101360005C3
:0101370002C5
:0101380002C4
:0101390006BF
:01013A000CB8
:01013B0005BE
:01013C0001C1
:01013D0000C1
:01013E0002BE
:01013F0007B8
:010140000FAF
:010141000AB3
:0101420007B5
:0101430008B3
:010144000BAF
:0101450001B8
:010146000AAE
:0101470006B1
:0101480005B1
:0101490007AE
:01014A000BA9
:01014B0003B0
:01014C000DA5
:01014D000AA7
:01014E000AA6
:01014F000DA2
:0101500002AC
:010151000BA2
:0101520006A6
:0101530004A7
:0101540004A6
:0101550008A1
:010156000E9A
:0101570007A0
:0101580003A3
:0101590002A3
:01015A0003A1
:01015B00079C
:01015C000E94
:01015D00079A
:01015E00049C
:01015F00039C
:01016000049A
:010161000994
:01016200009C
:010163000A91
:010164000694
:010165000693
:010166000890
:010167000C8B
:010168000492
:010169000E87
:01016A000A8A
:01016B00098A
:01016C000B87
:01016D000091
:01016E000789
:01016F00018E
:010170000E80
:010171000D80
:010172000E7E
:010173000388
:010174000A80
:010175000386
:010176000088
:010177000E79
:010178000086
:010179000481
:01017A000A7A
:01017B000380
:01017C000F73
:01017D000D74
:01017E000E72
:01017F00017E
:010180000777
:01018100007D
:010182000A72
:010183000873
:010184000872
:010185000B6E
:010186000078
:010187000770
:010188000175
:010189000E67
:01018A000D67
:01018B000E65
:01018C000270
:01018D000968
:01018E00026E
:01018F000D62
:010190000B63
:010191000C61
:010192000E5E
:010193000467
:010194000B5F
:010195000663
:010196000266
:010197000166
:010198000363
:01019900065F
:01019A000D57
:01019B00055E
:01019C000161
:01019D000E53
:01019E000E52
:01019F00005F
:0101A0000559
:0101A1000C51
:0101A2000557
:0101A300015A
:0101A4000F4B
:0101A5000059
:0101A6000355
:0101A700084F
:0101A8000F47
:0101A900094C
:0101AA00064E
:0101AB00044F
:0101AC00054D
:0101AD000849
:0101AE000E42
:0101AF000649
:0101B000004E
:0101B1000C41
:0101B2000B41
:0101B3000C3F
:0101B4000F3B
:0101B5000544
:0101B6000D3B
:0101B7000740
:0101B8000442
:0101B9000243
:0101BA000341
:0101BB00073C
:0101BC000C36
:0101BD00043D
:0101BE000E32
:0101BF000A35
:0101C0000935
:0101C1000A33
:0101C2000C30
:0101C3000239
:0101C4000931
:0101C5000336
:0101C6000E2A
:0101C7000C2B
:0101C8000D29
:0101C9000F26
:0101CA000430
:0101CB000A29
:0101CC00032F
:0101CD000F22
:0101CE000C24
:0101CF000B24
:0101D0000D21
:0101D100012C
:0101D2000725
:0101D3000F1C
:0101D4000921
:0101D5000623
:0101D6000424
:0101D7000522
:0101D800081E
:0101D9000D18
:0101DA000420
:0101DB000D16
:0101DC00081A
:0101DD00061B
:0101DE00051B
:0101DF000718
:0101E0000B13
:0101E100001D
:0101E2000814
:0101E3000219
:0101E4000E0C
:0101E5000D0C
:0101E6000D0B
:0101E7000F08
:0101E8000412
:0101E9000A0B
:0101EA000212
:0101EB000D06
:0101EC000A08
:0101ED000809
:0101EE000907
:0101EF000C03
:0101F000000E
:0101F1000706
:0101F200000C
:0101F3000B00
:0101F4000703
:0101F5000603
:0101F6000701
:0101F7000AFD
:0101F8000FF7
:0101F90006FF
:0101FA000FF5
:0101FB0009FA
:0101FC0006FC
:0101FD0005FC
:0101FE0006FA
:0101FF0009F6
:010200000DF0
:0102010004F8
:010202000DEE
:0102030007F3
:0102040004F5
:0102050002F6
:0102060003F4
:0102070005F1
:010208000AEB
:0102090000F4
:01020A0008EB
:01020B0002F0
:01020C000EE3
:01020D000CE4
:01020E000CE3
:01020F000EE0
:0102100002EB
:0102110007E5
:010212000FDC
:0102130008E2
:0102140004E5
:0102150001E7
:0102160000E7
:0102170001E5
:0102180004E1
:0102190009DB
:01021A000FD4
:01021B0008DA
:01021C0002DF
:01021D000ED2
:01021E000CD3
:01021F000CD2
:010220000ECF
:0102210002DA
:0102220007D4
:010223000ECC
:0102240008D1
:0102250003D5
:010226000FC8
:010227000EC8
:010228000FC6
:0102290001D3
:01022A0005CE
:01022B000BC7
:01022C0003CE
:01022D000CC4
:01022E0007C8
:01022F0005C9
:0102300003CA
:0102310004C8
:0102320007C4
:010233000BBF
:0102340001C8
:0102350009BF
:0102360002C5
:010237000EB8
:010238000BBA
:010239000ABA
:01023A000BB8
:01023B000DB5
:01023C0001C0
:01023D0007B9
:01023E000FB0
:01023F0008B6
:0102400004B9
:0102410000BC
:010242000FAC
:010243000FAB
:0102440002B7
:0102450005B3
:010246000BAC
:0102470002B4
:010248000BAA
:0102490006AE
:01024A0002B1
:01024B0000B2
:01024C0000B1
:01024D0002AE
:01024E0005AA
:01024F000AA4
:0102500001AC
:0102510009A3
:0102520003A8
:010253000E9C
:010254000C9D
:010255000B9D
:010256000B9C
:010257000E98
:0102580002A3
:01025900079D
:01025A000F94
:01025B00089A
:01025C00029F
:01025D000E92
:01025E000C93
:01025F000C92
:010260000D90
:01026100009C
:010262000497
:010263000A90
:010264000297
:010265000B8D
:010266000691
:010267000393
:010268000194
:010269000193
:01026A000291
:01026B00058D
:01026C000A87
:01026D000090
:01026E000887
:01026F00018D
:010270000C81
:010271000983
:010272000784
:010273000783
:010274000881
:010275000B7D
:010276000087
:010277000680
:010278000D78
:01027900067E
:01027A000182
:01027B000D75
:01027C000B76
:01027D000B75
:01027E000C73
:01027F000E70
:01028000027B
:010281000874
:010282000F6C
:010283000773
:010284000277
:010285000D6B
:010286000A6D
:01028700096D
:010288000A6B
:010289000B69
:01028A000F64
:01028B00036F
:01028C000A67
:01028D00026E
:01028E000B64
:01028F000668
:01029000026B
:01029100006C
:010292000F5C
:01029300006A
:010294000267
:010295000662
:010296000B5C
:010297000264
:010298000A5B
:010299000460
:01029A000F54
:01029B000C56
:01029C000A57
:01029D000A56
:01029E000B54
:01029F000D51
:0102A000015C
:0102A1000656
:0102A2000D4E
:0102A3000654
:0102A4000F4A
:0102A5000A4E
:0102A6000750
:0102A7000551
:0102A8000550
:0102A900054F
:0102AA00084B
:0102AB000C46
:0102AC000150
:0102AD000749
:0102AE000F40
:0102AF000945
:0102B0000449
:0102B100004C
:0102B2000E3D
:0102B3000D3D
:0102B4000D3C
:0102B5000F39
:0102B6000245
:0102B700073F
:0102B8000D38
:0102B9000440
:0102BA000D36
:0102BB00083A
:0102BC00033E
:0102BD000040
:0102BE000E31
:0102BF000E30
:0102C0000F2E
:0102C100023A
:0102C2000635
:0102C3000B2F
:0102C4000138
:0102C500092F
:0102C6000334
:0102C7000D29
:0102C800092C
:0102C900072D
:0102CA00052E
:0102CB00052D
:0102CC00072A
:0102CD000927
:0102CE000D22
:0102CF00032B
:0102D0000A23
:0102D100022A
:0102D2000B20
:0102D3000624
:0102D4000227
:0102D5000F19
:0102D6000E19
:0102D7000E18
:0102D8000F16
:0102D9000222
:0102DA00061D
:0102DB000B17
:0102DC000120
:0102DD000917
:0102DE00021D
:0102DF000D11
:0102E0000815
:0102E1000517
:0102E2000417
:0102E3000317
:0102E4000415
:0102E5000612
:0102E6000A0D
:0102E7000F07
:0102E8000510
:0102E9000C08
:0102EA00040F
:0102EB000E04
:0102EC000908
:0102ED00060A
:0102EE00030C
:0102EF00020C
:0102F000020B
:0102F1000408
:0102F2000605
:0102F3000A00
:0102F4000FFA
:0102F5000602
:0102F6000DFA
:0102F7000600
:0102F8000005
:0102F9000CF8
:0102FA0008FB
:0102FB0006FC
:0102FC0005FC
:0102FD0005FB
:0102FE0007F8
:0102FF000AF4
:010300000EEE
:0103010003F8
:0103020009F1
:0103030001F8
:010304000AEE
:0103050004F3
:010306000FE7
:010307000BEA
:0103080009EB
:0103090008EB
:01030A0008EA
:01030B0009E8
:01030C000CE4
:01030D000FE0
:01030E0004EA
:01030F000AE3
:0103100002EA
:010311000AE1
:0103120004E6
:010313000EDB
:010314000ADE
:0103150007E0
:0103160006E0
:0103170005E0
:0103180006DE
:0103190008DB
:01031A000BD7
:01031B000FD2
:01031C0004DC
:01031D000BD4
:01031E0002DC
:01031F000BD2
:0103200005D7
:0103210000DB
:010322000DCD
:010323000ACF
:0103240009CF
:0103250008CF
:0103260009CD
:010327000BCA
:010328000EC6
:0103290003D0
:01032A0008CA
:01032B000FC2
:01032C0006CA
:01032D000FC0
:01032E0009C5
:01032F0004C9
:0103300000CC
:010331000EBD
:010332000CBE
:010333000CBD
:010334000CBC
:010335000EB9
:0103360001C5
:0103370005C0
:010338000ABA
:0103390000C3
:01033A0008BA
:01033B0000C1
:01033C000AB6
:01033D0004BB
:01033E0000BE
:01033F000DB0
:010340000BB1
:010341000AB1
:010342000AB0
:010343000BAE
:010344000DAB
:0103450001B6
:0103460005B1
:010347000BAA
:0103480001B3
:0103490009AA
:01034A0001B1
:01034B000BA6
:01034C0006AA
:01034D0002AD
:01034E000F9F
:01034F000DA0
:010350000CA0
:010351000D9E
:010352000E9C
:0103530000A9
:0103540004A4
:01035500089F
:010356000D99
:0103570004A1
:010358000C98
:01035900049F
:01035A000E94
:01035B000998
:01035C00049C
:01035D00019E
:01035E000F8F
:01035F000E8F
:010360000E8E
:010361000F8C
:010362000199
:010363000495
:010364000890
:010365000D8A
:010366000393
:010367000A8B
:010368000292
:010369000B88
:01036A00058D
:01036B000091
:01036C000D83
:01036D000A85
:01036E000886
:01036F000786
:010370000785
:010371000982
:010372000B7F
:010373000E7B
:010374000286
:010375000780
:010376000E78
:010377000580
:010378000D77
:01037900067D
:01037A000082
:01037B000C75
:01037C000878
:01037D00057A
:01037E00037B
:01037F00027B
:01038000027A
:010381000378
:010382000575
:010383000871
:010384000C6C
:010385000176
:01038600076F
:010387000E67
:01038800066E
:010389000F64
:01038A00086A
:01038B00036E
:01038C000F61
:01038D000C63
:01038E000965
:01038F000865
:010390000765
:010391000863
:010392000961
:010393000C5D
:010394000F59
:010395000364
:01039600085E
:010397000E57
:01039800065E
:010399000E55
:01039A00075B
:01039B000061
:01039C000B55
:01039D000758
:01039E00045A
:01039F00015C
:0103A000005C
:0103A1000F4C
:0103A200005A
:0103A3000158
:0103A4000355
:0103A5000750
:0103A6000B4B
:0103A7000055
:0103A800064E
:0103A9000C47
:0103AA00044E
:0103AB000D44
:0103AC00064A
:0103AD00014E
:0103AE000C42
:0103AF000845
:0103B0000646
:0103B1000447
:0103B2000347
:0103B3000346
:0103B4000345
:0103B5000542
:0103B600083E
:0103B7000B3A
:0103B8000F35
:0103B900053E
:0103BA000B37
:0103BB00023F
:0103BC000A36
:0103BD00033C
:0103BE000C32
:0103BF000736
:0103C000023A
:0103C1000E2D
:0103C2000C2E
:0103C3000A2F
:0103C400092F
:0103C500082F
:0103C600092D
:0103C7000B2A
:0103C8000D27
:0103C9000033
:0103CA00052D
:0103CB000A27
:0103CC000F21
:0103CD000629
:0103CE000E20
:0103CF000627
:0103D0000F1D
:0103D1000A21
:0103D2000525
:0103D3000128
:0103D4000D1B
:0103D5000B1C
:0103D600091D
:0103D700081D
:0103D800091B
:0103D900091A
:0103DA000B17
:0103DB000E13
:0103DC00011F
:0103DD000619
:0103DE000B13
:0103DF00011C
:0103E0000814
:0103E1000F0C
:0103E2000812
:0103E3000118
:0103E4000B0D
:0103E5000611
:0103E6000214
:0103E7000F06
:0103E8000C08
:0103E9000A09
:0103EA000909
:0103EB000908
:0103EC000A06
:0103ED000B04
:0103EE000E00
:0103EF00010C
:0103F0000507
:0103F1000A01
:0103F2000FFB
:0103F3000603
:0103F4000DFB
:0103F5000502
:0103F6000EF8
:0103F70007FE
:0103F8000202
:0103F9000DF6
:0103FA0009F9
:0103FB0006FB
:0103FC0003FD
:0103FD0002FD
:0103FE0001FD
:0103FF0001FC
:0104000002F9
:0104010003F7
:0104020006F3
:0104030009EF
:010404000DEA
:0104050002F4
:0104060007EE
:010407000DE7
:0104080005EE
:010409000CE6
:01040A0005EC
:01040B000EE2
:01040C0009E6
:01040D0004EA
:01040E000FDE
:01040F000CE0
:0104100009E2
:0104110007E3
:0104120006E3
:0104130006E2
:0104140006E1
:0104150007DF
:0104160009DC
:010417000CD8
:010418000FD4
:0104190003DF
:01041A0008D9
:01041B000ED2
:01041C0004DB
:01041D000BD3
:01041E0003DA
:01041F000CD0
:0104200005D6
:0104210000DA
:010422000BCE
:0104230006D2
:0104240003D4
:0104250000D6
:010426000EC7
:010427000DC7
:010428000CC7
:010429000CC6
:01042A000DC4
:01042B000FC1
:01042C0001CE
:01042D0004CA
:01042E0008C5
:01042F000DBF
:0104300002C9
:0104310008C2
:010432000FBA
:0104330006C2
:010434000EB9
:0104350007BF
:0104360001C4
:010437000BB9
:0104380007BC
:0104390002C0
:01043A000FB2
:01043B000CB4
:01043C000AB5
:01043D0009B5
:01043E0008B5
:01043F0009B3
:0104400009B2
:010441000BAF
:010442000DAC
:0104430000B8
:0104440004B3
:0104450008AE
:010446000EA7
:0104470003B1
:010448000AA9
:0104490001B1
:01044A0009A8
:01044B0002AE
:01044C000BA4
:01044D0005A9
:01044E0000AD
:01044F000BA1
:0104500007A4
:0104510004A6
:0104520002A7
:0104530000A8
:010454000F98
:010455000F97
:010456000F96
:0104570000A4
:0104580001A2
:01045900049E
:01045A00079A
:01045B000B95
:01045C000F90
:01045D00049A
:01045E000A93
:01045F00009C
:010460000794
:010461000F8B
:010462000891
:010463000197
:010464000B8C
:010465000591
:010466000095
:010467000C88
:01046800098A
:01046900068C
:01046A00048D
:01046B00028E
:01046C00018E
:01046D00018D
:01046E00028B
:01046F000389
:010470000586
:010471000783
:010472000A7F
:010473000E7A
:010474000384
:01047500087E
:010476000E77
:010477000480
:010478000B78
:01047900037F
:01047A000B76
:01047B00047C
:01047C000E71
:01047D000876
:01047E00037A
:01047F000F6D
:010480000B70
:010481000872
:010482000673
:010483000474
:010484000374
:010485000274
:010486000273
:010487000371
:01048800056E
:01048900076B
:01048A000968
:01048B000D63
:01048C00016E
:01048D000569
:01048E000A63
:01048F00006C
:010490000764
:010491000E5C
:010492000663
:010493000E5A
:010494000760
:010495000165
:010496000B5A
:01049700065E
:010498000162
:010499000D55
:01049A000A57
:01049B000759
:01049C00055A
:01049D00045A
:01049E00035A
:01049F000359
:0104A0000358
:0104A1000456
:0104A2000653
:0104A3000850
:0104A4000B4C
:0104A5000E48
:0104A6000253
:0104A700074D
:0104A8000C47
:0104A9000250
:0104AA000948
:0104AB000050
:0104AC000847
:0104AD00004E
:0104AE000944
:0104AF00024A
:0104B0000C3F
:0104B1000743
:0104B2000247
:0104B3000E3A
:0104B4000B3C
:0104B500083E
:0104B6000540
:0104B7000440
:0104B8000340
:0104B9000240
:0104BA00023F
:0104BB00033D
:0104BC00043B
:0104BD000638
:0104BE000835
:0104BF000B31
:0104C0000F2C
:0104C1000337
:0104C2000831
:0104C3000D2B
:0104C4000334
:0104C500092D
:0104C6000035
:0104C700082C
:0104C8000033
:0104C9000929
:0104CA00022F
:0104CB000C24
:0104CC000728
:0104CD00022C
:0104CE000D20
:0104CF000A22
:0104D0000625
:0104D1000426
:0104D2000227
:0104D3000028
:0104D4000F18
:0104D5000F17
:0104D6000F16
:0104D7000024
:0104D8000122
:0104D900031F
:0104DA00061B
:0104DB000917
:0104DC000C13
:0104DD00001E
:0104DE000518
:0104DF000A12
:0104E000001B
:0104E1000614
:0104E2000D0C
:0104E3000513
:0104E4000D0A
:0104E5000511
:0104E6000E07
:0104E700080C
:0104E8000211
:0104E9000D05
:0104EA000809
:0104EB00040C
:0104EC00010E
:0104ED000E00
:0104EE000B02
:0104EF000903
:0104F0000803
:0104F1000703
:0104F2000702
:0104F3000701
:0104F40008FF
:0104F50009FD
:0104F6000BFA
:0104F7000DF7
:0104F8000003
:0104F90003FF
:0104FA0007FA
:0104FB000CF4
:0104FC0001FE
:0104FD0006F8
:0104FE000DF0
:0104FF0003F9
:010500000AF0
:0105010002F7
:010502000AEE
:0105030003F4
:010504000CEA
:0105050006EF
:0105060001F3
:010507000BE8
:0105080007EB
:0105090003EE
:01050A000FE1
:01050B000CE3
:01050C000AE4
:01050D0008E5
:01050E0006E6
:01050F0005E6
:0105100005E5
:0105110005E4
:0105120005E3
:0105130006E1
:0105140008DE
:010515000ADB
:010516000DD7
:0105170000E3
:0105180004DE
:0105190008D9
:01051A000CD4
:01051B0002DD
:01051C0007D7
:01051D000ECF
:01051E0004D8
:01051F000CCF
:0105200003D7
:010521000BCE
:0105220004D4
:010523000DCA
:0105240007CF
:0105250001D4
:010526000CC8
:0105270007CC
:0105280003CF
:010529000FC2
:01052A000CC4
:01052B0009C6
:01052C0007C7
:01052D0005C8
:01052E0004C8
:01052F0003C8
:0105300003C7
:0105310003C6
:0105320004C4
:0105330005C2
:0105340007BF
:0105350009BC
:010536000CB8
:010537000FB4
:0105380002C0
:0105390007BA
:01053A000BB5
:01053B0000BF
:01053C0006B8
:01053D000CB1
:01053E0003B9
:01053F000AB1
:0105400001B9
:0105410009B0
:0105420002B6
:010543000BAC
:0105440004B2
:010545000EA7
:0105460008AC
:0105470003B0
:010548000EA4
:010549000AA7
:01054A0007A9
:01054B0003AC
:01054C0001AD
:01054D000E9F
:01054E000D9F
:01054F000BA0
:010550000AA0
:010551000A9F
:010552000A9E
:010553000B9C
:010554000C9A
:010555000D98
:010556000F95
:0105570001A2
:01055800049E
:010559000899
:01055A000B95
:01055B00009F
:01055C00049A
:01055D000A93
:01055E000F8D
:01055F000596
:010560000C8E
:010561000396
:010562000B8D
:010563000295
:010564000B8B
:010565000491
:010566000D87
:01056700078C
:010568000191
:010569000C85
:01056A000789
:01056B00038C
:01056C000F7F
:01056D000B82
:01056E000884
:01056F000586
:010570000387
:010571000287
:010572000088
:010573000F78
:010574000F77
:010575000F76
:010576000084
:010577000182
:010578000280
:01057900047D
:01057A00067A
:01057B000976
:01057C000C72
:01057D00007D
:01057E000478
:01057F000873
:010580000D6D
:010581000376
:01058200096F
:010583000F68
:010584000670
:010585000D68
:010586000470
:010587000C67
:01058800056D
:010589000E63
:01058A000769
:01058B00016E
:01058C000B63
:01058D000568
:01058E00006C
:01058F000C5F
:010590000862
:010591000465
:010592000167
:010593000E59
:010594000C5A
:010595000A5B
:01059600085C
:01059700075C
:01059800065C
:01059900065B
:01059A00065A
:01059B000758
:01059C000856
:01059D000954
:01059E000B51
:01059F000D4E
:0105A000005A
:0105A1000356
:0105A2000652
:0105A3000A4D
:0105A4000F47
:0105A5000352
:0105A600094B
:0105A7000E45
:0105A800044E
:0105A9000B46
:0105AA00014F
:0105AB000946
:0105AC00004E
:0105AD000845
:0105AE00014B
:0105AF000A41
:0105B0000347
:0105B1000D3C
:0105B2000741
:0105B3000146
:0105B4000C3A
:0105B500083D
:0105B6000440
:0105B7000043
:0105B8000C36
:0105B9000938
:0105BA000739
:0105BB00043B
:0105BC00023C
:0105BD00013C
:0105BE00003C
:0105BF000F2C
:0105C0000F2B
:0105C1000F2A
:0105C2000038
:0105C3000136
:0105C4000234
:0105C5000431
:0105C600062E
:0105C700092A
:0105C8000C26
:0105C9000F22
:0105CA00032D
:0105CB000728
:0105CC000C22
:0105CD00002D
:0105CE000626
:0105CF000C1F
:0105D0000228
:0105D1000821
:0105D2000F19
:0105D3000621
:0105D4000E18
:0105D500061F
:0105D6000E16
:0105D700071C
:0105D8000121
:0105D9000A17
:0105DA00041C
:0105DB000F10
:0105DC000915
:0105DD000419
:0105DE00001C
:0105DF000C0F
:0105E0000812
:0105E1000514
:0105E2000216
:0105E3000F08
:0105E4000D09
:0105E5000B0A
:0105E6000A0A
:0105E700090A
:0105E800080A
:0105E9000809
:0105EA000808
:0105EB000906
:0105EC000905
:0105ED000B02
:0105EE000C00
:0105EF000EFD
:0105F0000109
:0105F1000306
:0105F2000602
:0105F3000AFD
:0105F4000EF8
:0105F5000203
:0105F60007FD
:0105F7000CF7
:0105F8000101
:0105F90007FA
:0105FA000DF3
:0105FB0003FC
:0105FC000AF4
:0105FD0001FC
:0105FE0009F3
:0105FF0001FA
:0106000009F0
:0106010001F7
:010602000AED
:0106030004F2
:010604000EE7
:0106050008EC
:0106060002F1
:010607000DE5
:0106080008E9
:0106090004EC
:01060A0000EF
:01060B000CE2
:01060C0008E5
:01060D0005E7
:01060E0003E8
:01060F0001E9
:010610000FDA
:010611000DDB
:010612000CDB
:010613000BDB
:010614000ADB
:010615000ADA
:010616000AD9
:010617000BD7
:010618000CD5
:010619000DD3
:01061A000FD0
:01061B0001DD
:01061C0003DA
:01061D0006D6
:01061E0009D2
:01061F000CCE
:0106200000D9
:0106210004D4
:0106220008CF
:010623000DC9
:0106240002D3
:0106250008CC
:010626000EC5
:0106270004CE
:010628000AC7
:0106290001CF
:01062A0008C7
:01062B0000CE
:01062C0008C5
:01062D0000CC
:01062E0008C3
:01062F0001C9
:010630000BBE
:0106310004C4
:010632000EB9
:0106330008BE
:0106340003C2
:010635000EB6
:0106360009BA
:0106370005BD
:0106380001C0
:010639000DB3
:01063A000AB5
:01063B0007B7
:01063C0004B9
:01063D0002BA
:01063E0000BB
:01063F000EAC
:010640000DAC
:010641000CAC
:010642000BAC
:010643000BAB
:010644000BAA
:010645000BA9
:010646000CA7
:010647000DA5
:010648000EA3
:0106490000B0
:01064A0002AD
:01064B0004AA
:01064C0007A6
:01064D000AA2
:01064E000D9E
:01064F0001A9
:0106500005A4
:01065100099F
:010652000E99
:0106530003A3
:01065400089D
:010655000E96
:01065600049F
:010657000A98
:0106580001A0
:010659000799
:01065A000F90
:01065B000698
:01065C000E8F
:01065D000696
:01065E000F8C
:01065F000892
:010660000198
:010661000A8E
:010662000493
:010663000E88
:01066400098C
:010665000391
:010666000F84
:010667000A88
:01066800068B
:01066900028E
:01066A000E81
:01066B000B83
:01066C000885
:01066D000587
:01066E000388
:01066F00008A
:010670000F7A
:010671000D7B
:010672000C7B
:010673000B7B
:010674000B7A
:010675000B79
:010676000B78
:010677000B77
:010678000C75
:010679000D73
:01067A000E71
:01067B00007E
:01067C00027B
:01067D000478
:01067E000774
:01067F000A70
:010680000D6C
:010681000078
:010682000473
:01068300086E
:010684000D68
:010685000173
:01068600066D
:010687000C66
:010688000170
:010689000769
:01068A000E61
:01068B00046A
:01068C000B62
:01068D00026A
:01068E000A61
:01068F000169
:010690000960
:010691000266
:010692000A5D
:010693000363
:010694000D58
:01069500065E
:010696000063
:010697000A58
:01069800055C
:010699000F51
:01069A000A55
:01069B000658
:01069C00015C
:01069D000D4F
:01069E000A51
:01069F000654
:0106A0000356
:0106A1000058
:0106A2000D4A
:0106A3000B4B
:0106A400094C
:0106A500074D
:0106A600064D
:0106A700054D
:0106A800044D
:0106A900034D
:0106AA00034C
:0106AB00034B
:0106AC00034A
:0106AD000448
:0106AE000546
:0106AF000644
:0106B0000841
:0106B100093F
:0106B2000B3C
:0106B3000E38
:0106B4000045
:0106B5000341
:0106B600063D
:0106B7000A38
:0106B8000E33
:0106B900023E
:0106BA000639
:0106BB000B33
:0106BC000F2E
:0106BD000537
:0106BE000A31
:0106BF00003A
:0106C0000633
:0106C1000C2C
:0106C2000334
:0106C3000A2C
:0106C4000134
:0106C500082C
:0106C6000033
:0106C700082A
:0106C8000031
:0106C9000927
:0106CA00022D
:0106CB000B23
:0106CC000429
:0106CD000E1E
:0106CE000823
:0106CF000228
:0106D0000C1D
:0106D1000721
:0106D2000225
:0106D3000D19
:0106D400091C
:0106D500051F
:0106D6000122
:0106D7000D15
:0106D8000A17
:0106D9000719
:0106DA00041B
:0106DB00021C
:0106DC00001D
:0106DD000E0E
:0106DE000C0F
:0106DF000A10
:0106E0000910
:0106E1000810
:0106E200080F
:0106E300070F
:0106E400070E
:0106E500080C
:0106E600080B
:0106E7000909
:0106E8000A07
:0106E9000B05
:0106EA000D02
:0106EB000E00
:0106EC00000D
:0106ED000309
:0106EE000506
:0106EF000802
:0106F0000BFE
:0106F1000FF9
:0106F2000205
:0106F3000600
:0106F4000BFA
:0106F5000FF5
:0106F60004FF
:0106F70009F9
:0106F8000EF3
:0106F90003FD
:0106FA0009F6
:0106FB000FEF
:0106FC0006F7
:0106FD000CF0
:0106FE0003F8
:0106FF000AF0
:0107000001F7
:0107010009EE
:0107020001F5
:0107030009EC
:0107040001F3
:010705000AE9
:0107060003EF
:010707000CE5
:0107080005EB
:010709000FE0
:01070A0009E5
:01070B0003EA
:01070C000DDF
:01070D0008E3
:01070E0003E7
:01070F000EDB
:0107100009DF
:0107110005E2
:0107120001E5
:010713000DD8
:010714000ADA
:0107150006DD
:0107160003DF
:0107170000E1
:010718000ED2
:010719000BD4
:01071A0009D5
:01071B0008D5
:01071C0006D6
:01071D0005D6
:01071E0004D6
:01071F0003D6
:0107200002D6
:0107210002D5
:0107220002D4
:0107230002D3
:0107240003D1
:0107250003D0
:0107260004CE
:0107270005CC
:0107280007C9
:0107290008C7
:01072A000AC4
:01072B000CC1
:01072C000FBD
:01072D0002C9
:01072E0004C6
:01072F0008C1
:010730000BBD
:010731000FB8
:0107320002C4
:0107330007BE
:010734000BB9
:010735000FB4
:0107360004BE
:0107370009B8
:010738000FB1
:0107390004BB
:01073A000AB4
:01073B0000BD
:01073C0006B6
:01073D000DAE
:01073E0004B6
:01073F000BAE
:0107400002B6
:0107410009AE
:0107420001B5
:0107430009AC
:0107440001B3
:010745000AA9
:0107460002B0
:010747000BA6
:0107480004AC
:010749000EA1
:01074A0007A7
:01074B0001AC
:01074C000BA1
:01074D0005A6
:01074E0000AA
:01074F000B9E
:0107500006A2
:0107510001A6
:010752000C9A
:01075300089D
:0107540004A0
:0107550000A3
:010756000D95
:010757000998
:01075800069A
:01075900039C
:01075A00019D
:01075B000E8F
:01075C000C90
:01075D000A91
:01075E000892
:01075F000792
:010760000593
:010761000493
:010762000492
:010763000392
:010764000391
:010765000291
:010766000290
:01076700038E
:01076800038D
:01076900048B
:01076A000589
:01076B000687
:01076C000884
:01076D000982
:01076E000B7F
:01076F000D7C
:010770000088
:010771000285
:010772000581
:01077300087D
:010774000B79
:010775000F74
:010776000280
:01077700067B
:010778000A76
:010779000F70
:01077A00037B
:01077B000875
:01077C000D6F
:01077D000279
:01077E000872
:01077F000E6B
:010780000375
:010781000A6D
:010782000076
:01078300066F
:010784000D67
:01078500046F
:010786000B67
:01078700036E
:010788000A66
:01078900026D
:01078A000A64
:01078B00036A
:01078C000B61
:01078D000467
:01078E000D5D
:01078F000663
:010790000F59
:01079100095E
:010792000363
:010793000D58
:01079400075D
:010795000162
:010796000C56
:01079700075A
:01079800025E
:010799000D52
:01079A000955
:01079B000558
:01079C00015B
:01079D000D4E
:01079E000951
:01079F000653
:0107A0000256
:0107A1000F48
:0107A2000D49
:0107A3000A4B
:0107A400084C
:0107A500064D
:0107A600044E
:0107A700024F
:0107A8000050
:0107A9000F40
:0107AA000E40
:0107AB000D40
:0107AC000C40
:0107AD000C3F
:0107AE000C3E
:0107AF000B3E
:0107B0000C3C
:0107B1000C3B
:0107B2000D39
:0107B3000D38
:0107B4000E36
:0107B5000F34
:0107B6000141
:0107B700023F
:0107B800043C
:0107B9000639
:0107BA000836
:0107BB000B32
:0107BC000D2F
:0107BD00003B
:0107BE000337
:0107BF000633
:0107C0000A2E
:0107C1000D2A
:0107C2000135
:0107C3000530
:0107C400092B
:0107C5000E25
:0107C6000230
:0107C700072A
:0107C8000C24
:0107C900022D
:0107CA000727
:0107CB000D20
:0107CC00022A
:0107CD000922
:0107CE000F1B
:0107CF000524
:0107D0000C1C
:0107D1000324
:0107D2000A1C
:0107D3000124
:0107D400081C
:0107D5000023
:0107D600081A
:0107D7000021
:0107D8000818
:0107D900001F
:0107DA000915
:0107DB00021B
:0107DC000B11
:0107DD000417
:0107DE000D0D
:0107DF000712
:0107E0000117
:0107E1000B0C
:0107E2000511
:0107E3000F06
:0107E4000A0A
:0107E500050E
:0107E6000012
:0107E7000B06
:0107E800060A
:0107E900020D
:0107EA000D01
:0107EB000904
:0107EC000507
:0107ED000209
:0107EE000EFC
:0107EF000BFE
:0107F0000800
:0107F1000502
:0107F2000204
:0107F3000FF6
:0107F4000DF7
:0107F5000BF8
:0107F60009F9
:0107F70007FA
:0107F80006FA
:0107F90004FB
:0107FA0003FB
:0107FB0002FB
:0107FC0001FB
:0107FD0000FB
:0107FE0000FA
:0107FF0000F9
:00000001ff
