:020000040000FA
:020000000000FE
:020001000007F6
:02000200000FED
:020003000017E4
:02000400001FDB
:020005000027D2
:02000600002FC9
:020007000037C0
:02000800003FB7
:020009000047AE
:02000A00004EA6
:02000B0000569D
:02000C00005E94
:02000D0000668B
:02000E00006D83
:02000F0000757A
:02001000007D71
:02001100008469
:02001200008C60
:02001300009358
:02001400009B4F
:0200150000A247
:0200160000AA3E
:0200170000B136
:0200180000B92D
:0200190000C025
:02001A0000C81C
:02001B0000CF14
:02001C0000D70B
:02001D0000DE03
:02001E0000E5FB
:02001F0000EDF2
:0200200000F4EA
:0200210000FBE2
:020022000103D8
:02002300010AD0
:020024000111C8
:020025000118C0
:02002600011FB8
:020027000127AF
:02002800012EA7
:0200290001359F
:02002A00013C97
:02002B0001438F
:02002C00014A87
:02002D0001517F
:02002E00015877
:02002F00015F6F
:02003000016667
:02003100016D5F
:02003200017457
:02003300017B4F
:02003400018247
:0200350001893F
:02003600019037
:02003700019630
:02003800019D28
:0200390001A420
:02003A0001AB18
:02003B0001B210
:02003C0001B809
:02003D0001BF01
:02003E0001C6F9
:02003F0001CDF1
:0200400001D3EA
:0200410001DAE2
:0200420001E1DA
:0200430001E7D3
:0200440001EECB
:0200450001F4C4
:0200460001FBBC
:020047000001B6
:020048000008AE
:02004900000EA7
:02004A0000159F
:02004B00001B98
:02004C00002290
:02004D00002889
:02004E00002F81
:02004F0000357A
:02005000003C72
:0200510000426B
:02005200004864
:02005300004F5C
:02005400005555
:02005500005B4E
:02005600006246
:0200570000683F
:02005800006E38
:02005900007431
:02005A00007B29
:02005B00008122
:02005C0000871B
:02005D00008D14
:02005E0000930D
:02005F00009906
:0200600000A0FE
:0200610000A6F7
:0200620000ACF0
:0200630000B2E9
:0200640000B8E2
:0200650000BEDB
:0200660000C4D4
:0200670000CACD
:0200680000D0C6
:0200690000D6BF
:02006A0000DCB8
:02006B0000E2B1
:02006C0000E8AA
:02006D0000EEA3
:02006E0000F49C
:02006F0000F996
:0200700000FF8F
:02007100010587
:02007200010B80
:02007300011179
:02007400011772
:02007500011C6C
:02007600012265
:0200770001285E
:02007800012E57
:02007900013351
:02007A0001394A
:02007B00013F43
:02007C0001453C
:02007D00014A36
:02007E0001502F
:02007F00015628
:02008000015B22
:0200810001611B
:02008200016615
:02008300016C0E
:02008400017207
:02008500017701
:02008600017DFA
:020087000182F4
:020088000188ED
:02008900018DE7
:02008A000193E0
:02008B000198DA
:02008C00019ED3
:02008D0001A3CD
:02008E0001A8C7
:02008F0001AEC0
:0200900001B3BA
:0200910001B9B3
:0200920001BEAD
:0200930001C3A7
:0200940001C9A0
:0200950001CE9A
:0200960001D394
:0200970001D98D
:0200980001DE87
:0200990001E381
:02009A0001E87B
:02009B0001EE74
:02009C0001F36E
:02009D0001F868
:02009E0001FD62
:02009F0000035C
:0200A000000856
:0200A100000D50
:0200A20000124A
:0200A300001744
:0200A400001C3E
:0200A500002138
:0200A600002731
:0200A700002C2B
:0200A800003125
:0200A90000361F
:0200AA00003B19
:0200AB00004013
:0200AC0000450D
:0200AD00004A07
:0200AE00004F01
:0200AF000054FB
:0200B0000059F5
:0200B100005EEF
:0200B2000063E9
:0200B3000068E3
:0200B400006DDD
:0200B5000072D7
:0200B6000076D2
:0200B700007BCC
:0200B8000080C6
:0200B9000085C0
:0200BA00008ABA
:0200BB00008FB4
:0200BC000094AE
:0200BD000098A9
:0200BE00009DA3
:0200BF0000A29D
:0200C00000A797
:0200C10000AC91
:0200C20000B08C
:0200C30000B586
:0200C40000BA80
:0200C50000BF7A
:0200C60000C375
:0200C70000C86F
:0200C80000CD69
:0200C90000D164
:0200CA0000D65E
:0200CB0000DB58
:0200CC0000DF53
:0200CD0000E44D
:0200CE0000E947
:0200CF0000ED42
:0200D00000F23C
:0200D10000F637
:0200D20000FB31
:0200D30001002A
:0200D400010425
:0200D50001091F
:0200D600010D1A
:0200D700011214
:0200D80001160F
:0200D900011B09
:0200DA00011F04
:0200DB000124FE
:0200DC000128F9
:0200DD00012DF3
:0200DE000131EE
:0200DF000135E9
:0200E000013AE3
:0200E100013EDE
:0200E2000143D8
:0200E3000147D3
:0200E400014BCE
:0200E5000150C8
:0200E6000154C3
:0200E7000159BD
:0200E800015DB8
:0200E9000161B3
:0200EA000166AD
:0200EB00016AA8
:0200EC00016EA3
:0200ED0001729E
:0200EE00017798
:0200EF00017B93
:0200F000017F8E
:0200F100018488
:0200F200018883
:0200F300018C7E
:0200F400019079
:0200F500019474
:0200F60001996E
:0200F700019D69
:0200F80001A164
:0200F90001A55F
:0200FA0001A95A
:0200FB0001AD55
:0200FC0001B24F
:0200FD0001B64A
:0200FE0001BA45
:0200FF0001BE40
:0201000001C23A
:0201010001C635
:0201020001CA30
:0201030001CE2B
:0201040001D226
:0201050001D621
:0201060001DA1C
:0201070001DE17
:0201080001E311
:0201090001E70C
:02010A0001EB07
:02010B0001EF02
:02010C0001F3FD
:02010D0001F7F8
:02010E0001FAF4
:02010F0001FEEF
:020110000002EB
:020111000006E6
:02011200000AE1
:02011300000EDC
:020114000012D7
:020115000016D2
:02011600001ACD
:02011700001EC8
:020118000022C3
:020119000026BE
:02011A000029BA
:02011B00002DB5
:02011C000031B0
:02011D000035AB
:02011E000039A6
:02011F00003DA1
:0201200000409D
:02012100004498
:02012200004893
:02012300004C8E
:02012400005089
:02012500005385
:02012600005780
:02012700005B7B
:02012800005F76
:02012900006272
:02012A0000666D
:02012B00006A68
:02012C00006D64
:02012D0000715F
:02012E0000755A
:02012F00007856
:02013000007C51
:0201310000804C
:02013200008348
:02013300008743
:02013400008B3E
:02013500008E3A
:02013600009235
:02013700009630
:0201380000992C
:02013900009D27
:02013A0000A023
:02013B0000A41E
:02013C0000A819
:02013D0000AB15
:02013E0000AF10
:02013F0000B20C
:0201400000B607
:0201410000B903
:0201420000BDFE
:0201430000C0FA
:0201440000C4F5
:0201450000C7F1
:0201460000CBEC
:0201470000CEE8
:0201480000D2E3
:0201490000D5DF
:02014A0000D9DA
:02014B0000DCD6
:02014C0000E0D1
:02014D0000E3CD
:02014E0000E7C8
:02014F0000EAC4
:0201500000EDC0
:0201510000F1BB
:0201520000F4B7
:0201530000F8B2
:0201540000FBAE
:0201550000FEAA
:020156000102A4
:020157000105A0
:0201580001089C
:02015900010C97
:02015A00010F93
:02015B0001138E
:02015C0001168A
:02015D00011986
:02015E00011C82
:02015F0001207D
:02016000012379
:02016100012675
:02016200012A70
:02016300012D6C
:02016400013068
:02016500013364
:0201660001375F
:02016700013A5B
:02016800013D57
:02016900014053
:02016A0001444E
:02016B0001474A
:02016C00014A46
:02016D00014D42
:02016E0001513D
:02016F00015439
:02017000015735
:02017100015A31
:02017200015D2D
:02017300016029
:02017400016424
:02017500016720
:02017600016A1C
:02017700016D18
:02017800017014
:02017900017310
:02017A0001760C
:02017B00017A07
:02017C00017D03
:02017D000180FF
:02017E000183FB
:02017F000186F7
:020180000189F3
:02018100018CEF
:02018200018FEB
:020183000192E7
:020184000195E3
:020185000198DF
:02018600019BDB
:02018700019ED7
:0201880001A1D3
:0201890001A4CF
:02018A0001A7CB
:02018B0001AAC7
:02018C0001ADC3
:02018D0001B0BF
:02018E0001B3BB
:02018F0001B6B7
:0201900001B9B3
:0201910001BCAF
:0201920001BFAB
:0201930001C2A7
:0201940001C5A3
:0201950001C89F
:0201960001CB9B
:0201970001CE97
:0201980001D193
:0201990001D48F
:02019A0001D78B
:02019B0001DA87
:02019C0001DD83
:02019D0001E07F
:02019E0001E27C
:02019F0001E578
:0201A00001E874
:0201A10001EB70
:0201A20001EE6C
:0201A30001F168
:0201A40001F464
:0201A50001F760
:0201A60001F95D
:0201A70001FC59
:0201A80001FF55
:0201A900000252
:0201AA0000054E
:0201AB0000084A
:0201AC00000A47
:0201AD00000D43
:0201AE0000103F
:0201AF0000133B
:0201B000001637
:0201B100001834
:0201B200001B30
:0201B300001E2C
:0201B400002128
:0201B500002325
:0201B600002621
:0201B70000291D
:0201B800002C19
:0201B900002E16
:0201BA00003112
:0201BB0000340E
:0201BC0000360B
:0201BD00003907
:0201BE00003C03
:0201BF00003FFF
:0201C0000041FC
:0201C1000044F8
:0201C2000047F4
:0201C3000049F1
:0201C400004CED
:0201C500004FE9
:0201C6000051E6
:0201C7000054E2
:0201C8000057DE
:0201C9000059DB
:0201CA00005CD7
:0201CB00005FD3
:0201CC000061D0
:0201CD000064CC
:0201CE000066C9
:0201CF000069C5
:0201D000006CC1
:0201D100006EBE
:0201D2000071BA
:0201D3000074B6
:0201D4000076B3
:0201D5000079AF
:0201D600007BAC
:0201D700007EA8
:0201D8000080A5
:0201D9000083A1
:0201DA0000869D
:0201DB0000889A
:0201DC00008B96
:0201DD00008D93
:0201DE0000908F
:0201DF0000928C
:0201E000009588
:0201E100009785
:0201E200009A81
:0201E300009C7E
:0201E400009F7A
:0201E50000A177
:0201E60000A473
:0201E70000A670
:0201E80000A96C
:0201E90000AB69
:0201EA0000AE65
:0201EB0000B062
:0201EC0000B35E
:0201ED0000B55B
:0201EE0000B857
:0201EF0000BA54
:0201F00000BD50
:0201F10000BF4D
:0201F20000C14A
:0201F30000C446
:0201F40000C643
:0201F50000C93F
:0201F60000CB3C
:0201F70000CE38
:0201F80000D035
:0201F90000D232
:0201FA0000D52E
:0201FB0000D72B
:0201FC0000DA27
:0201FD0000DC24
:0201FE0000DE21
:0201FF0000E11D
:0202000000E319
:0202010000E516
:0202020000E812
:0202030000EA0F
:0202040000ED0B
:0202050000EF08
:0202060000F105
:0202070000F401
:0202080000F6FE
:0202090000F8FB
:02020A0000FBF7
:02020B0000FDF4
:02020C0000FFF1
:02020D000101ED
:02020E000104E9
:02020F000106E6
:020210000108E3
:02021100010BDF
:02021200010DDC
:02021300010FD9
:020214000112D5
:020215000114D2
:020216000116CF
:020217000118CC
:02021800011BC8
:02021900011DC5
:02021A00011FC2
:02021B000121BF
:02021C000124BB
:02021D000126B8
:02021E000128B5
:02021F00012AB2
:02022000012DAE
:02022100012FAB
:020222000131A8
:020223000133A5
:020224000135A2
:0202250001389E
:02022600013A9B
:02022700013C98
:02022800013E95
:02022900014092
:02022A0001438E
:02022B0001458B
:02022C00014788
:02022D00014985
:02022E00014B82
:02022F00014E7E
:0202300001507B
:02023100015278
:02023200015475
:02023300015672
:0202340001586F
:02023500015A6C
:02023600015D68
:02023700015F65
:02023800016162
:0202390001635F
:02023A0001655C
:02023B00016759
:02023C00016956
:02023D00016B53
:02023E00016E4F
:02023F0001704C
:02024000017249
:02024100017446
:02024200017643
:02024300017840
:02024400017A3D
:02024500017C3A
:02024600017E37
:02024700018034
:02024800018231
:0202490001842E
:02024A0001872A
:02024B00018927
:02024C00018B24
:02024D00018D21
:02024E00018F1E
:02024F0001911B
:02025000019318
:02025100019515
:02025200019712
:0202530001990F
:02025400019B0C
:02025500019D09
:02025600019F06
:0202570001A103
:0202580001A300
:0202590001A5FD
:02025A0001A7FA
:02025B0001A9F7
:02025C0001ABF4
:02025D0001ADF1
:02025E0001AFEE
:02025F0001B1EB
:0202600001B3E8
:0202610001B5E5
:0202620001B7E2
:0202630001B9DF
:0202640001BBDC
:0202650001BDD9
:0202660001BFD6
:0202670001C1D3
:0202680001C3D0
:0202690001C5CD
:02026A0001C7CA
:02026B0001C8C8
:02026C0001CAC5
:02026D0001CCC2
:02026E0001CEBF
:02026F0001D0BC
:0202700001D2B9
:0202710001D4B6
:0202720001D6B3
:0202730001D8B0
:0202740001DAAD
:0202750001DCAA
:0202760001DEA7
:0202770001DFA5
:0202780001E1A2
:0202790001E39F
:02027A0001E59C
:02027B0001E799
:02027C0001E996
:02027D0001EB93
:02027E0001ED90
:02027F0001EE8E
:0202800001F08B
:0202810001F288
:0202820001F485
:0202830001F682
:0202840001F87F
:0202850001FA7C
:0202860001FB7A
:0202870001FD77
:0202880001FF74
:02028900000172
:02028A0000036F
:02028B0000056C
:02028C0000066A
:02028D00000867
:02028E00000A64
:02028F00000C61
:02029000000E5E
:0202910000105B
:02029200001159
:02029300001356
:02029400001553
:02029500001750
:0202960000194D
:02029700001A4B
:02029800001C48
:02029900001E45
:02029A00002042
:02029B00002140
:02029C0000233D
:02029D0000253A
:02029E00002737
:02029F00002934
:0202A000002A32
:0202A100002C2F
:0202A200002E2C
:0202A300003029
:0202A400003127
:0202A500003324
:0202A600003521
:0202A70000371E
:0202A80000381C
:0202A900003A19
:0202AA00003C16
:0202AB00003E13
:0202AC00003F11
:0202AD0000410E
:0202AE0000430B
:0202AF00004409
:0202B000004606
:0202B100004803
:0202B200004A00
:0202B300004BFE
:0202B400004DFB
:0202B500004FF8
:0202B6000050F6
:0202B7000052F3
:0202B8000054F0
:0202B9000055EE
:0202BA000057EB
:0202BB000059E8
:0202BC00005AE6
:0202BD00005CE3
:0202BE00005EE0
:0202BF00005FDE
:0202C0000061DB
:0202C1000063D8
:0202C2000064D6
:0202C3000066D3
:0202C4000068D0
:0202C5000069CE
:0202C600006BCB
:0202C700006DC8
:0202C800006EC6
:0202C9000070C3
:0202CA000072C0
:0202CB000073BE
:0202CC000075BB
:0202CD000077B8
:0202CE000078B6
:0202CF00007AB3
:0202D000007BB1
:0202D100007DAE
:0202D200007FAB
:0202D3000080A9
:0202D4000082A6
:0202D5000083A4
:0202D6000085A1
:0202D70000879E
:0202D80000889C
:0202D900008A99
:0202DA00008B97
:0202DB00008D94
:0202DC00008F91
:0202DD0000908F
:0202DE0000928C
:0202DF0000938A
:0202E000009587
:0202E100009784
:0202E200009882
:0202E300009A7F
:0202E400009B7D
:0202E500009D7A
:0202E600009E78
:0202E70000A075
:0202E80000A173
:0202E90000A370
:0202EA0000A56D
:0202EB0000A66B
:0202EC0000A868
:0202ED0000A966
:0202EE0000AB63
:0202EF0000AC61
:0202F00000AE5E
:0202F10000AF5C
:0202F20000B159
:0202F30000B257
:0202F40000B454
:0202F50000B552
:0202F60000B74F
:0202F70000B84D
:0202F80000BA4A
:0202F90000BC47
:0202FA0000BD45
:0202FB0000BF42
:0202FC0000C040
:0202FD0000C23D
:0202FE0000C33B
:0202FF0000C538
:0203000000C635
:0203010000C832
:0203020000C930
:0203030000CA2E
:0203040000CC2B
:0203050000CD29
:0203060000CF26
:0203070000D024
:0203080000D221
:0203090000D31F
:02030A0000D51C
:02030B0000D61A
:02030C0000D817
:02030D0000D915
:02030E0000DB12
:02030F0000DC10
:0203100000DE0D
:0203110000DF0B
:0203120000E009
:0203130000E206
:0203140000E304
:0203150000E501
:0203160000E6FF
:0203170000E8FC
:0203180000E9FA
:0203190000EBF7
:02031A0000ECF5
:02031B0000EDF3
:02031C0000EFF0
:02031D0000F0EE
:02031E0000F2EB
:02031F0000F3E9
:0203200000F5E6
:0203210000F6E4
:0203220000F7E2
:0203230000F9DF
:0203240000FADD
:0203250000FCDA
:0203260000FDD8
:0203270000FED6
:020328000100D2
:020329000101D0
:02032A000103CD
:02032B000104CB
:02032C000105C9
:02032D000107C6
:02032E000108C4
:02032F00010AC1
:02033000010BBF
:02033100010CBD
:02033200010EBA
:02033300010FB8
:020334000110B6
:020335000112B3
:020336000113B1
:020337000114AF
:020338000116AC
:020339000117AA
:02033A000119A7
:02033B00011AA5
:02033C00011BA3
:02033D00011DA0
:02033E00011E9E
:02033F00011F9C
:02034000012199
:02034100012297
:02034200012395
:02034300012592
:02034400012690
:0203450001278E
:0203460001298B
:02034700012A89
:02034800012B87
:02034900012D84
:02034A00012E82
:02034B00012F80
:02034C0001317D
:02034D0001327B
:02034E00013379
:02034F00013576
:02035000013674
:02035100013772
:0203520001396F
:02035300013A6D
:02035400013B6B
:02035500013C69
:02035600013E66
:02035700013F64
:02035800014062
:0203590001425F
:02035A0001435D
:02035B0001445B
:02035C00014559
:02035D00014756
:02035E00014854
:02035F00014952
:02036000014B4F
:02036100014C4D
:02036200014D4B
:02036300014E49
:02036400015046
:02036500015144
:02036600015242
:02036700015340
:0203680001553D
:0203690001563B
:02036A00015739
:02036B00015936
:02036C00015A34
:02036D00015B32
:02036E00015C30
:02036F00015E2D
:02037000015F2B
:02037100016029
:02037200016127
:02037300016225
:02037400016422
:02037500016520
:0203760001661E
:0203770001671C
:02037800016919
:02037900016A17
:02037A00016B15
:02037B00016C13
:02037C00016E10
:02037D00016F0E
:02037E0001700C
:02037F0001710A
:02038000017208
:02038100017405
:02038200017503
:02038300017601
:020384000177FF
:020385000178FD
:02038600017AFA
:02038700017BF8
:02038800017CF6
:02038900017DF4
:02038A00017EF2
:02038B000180EF
:02038C000181ED
:02038D000182EB
:02038E000183E9
:02038F000184E7
:020390000186E4
:020391000187E2
:020392000188E0
:020393000189DE
:02039400018ADC
:02039500018BDA
:02039600018DD7
:02039700018ED5
:02039800018FD3
:020399000190D1
:02039A000191CF
:02039B000193CC
:02039C000194CA
:02039D000195C8
:02039E000196C6
:02039F000197C4
:0203A0000198C2
:0203A1000199C0
:0203A200019BBD
:0203A300019CBB
:0203A400019DB9
:0203A500019EB7
:0203A600019FB5
:0203A70001A0B3
:0203A80001A1B1
:0203A90001A3AE
:0203AA0001A4AC
:0203AB0001A5AA
:0203AC0001A6A8
:0203AD0001A7A6
:0203AE0001A8A4
:0203AF0001A9A2
:0203B00001AB9F
:0203B10001AC9D
:0203B20001AD9B
:0203B30001AE99
:0203B40001AF97
:0203B50001B095
:0203B60001B193
:0203B70001B291
:0203B80001B48E
:0203B90001B58C
:0203BA0001B68A
:0203BB0001B788
:0203BC0001B886
:0203BD0001B984
:0203BE0001BA82
:0203BF0001BB80
:0203C00001BC7E
:0203C10001BD7C
:0203C20001BF79
:0203C30001C077
:0203C40001C175
:0203C50001C273
:0203C60001C371
:0203C70001C46F
:0203C80001C56D
:0203C90001C66B
:0203CA0001C769
:0203CB0001C867
:0203CC0001C965
:0203CD0001CB62
:0203CE0001CC60
:0203CF0001CD5E
:0203D00001CE5C
:0203D10001CF5A
:0203D20001D058
:0203D30001D156
:0203D40001D254
:0203D50001D352
:0203D60001D450
:0203D70001D54E
:0203D80001D64C
:0203D90001D74A
:0203DA0001D848
:0203DB0001D946
:0203DC0001DB43
:0203DD0001DC41
:0203DE0001DD3F
:0203DF0001DE3D
:0203E00001DF3B
:0203E10001E039
:0203E20001E137
:0203E30001E235
:0203E40001E333
:0203E50001E431
:0203E60001E52F
:0203E70001E62D
:0203E80001E72B
:0203E90001E829
:0203EA0001E927
:0203EB0001EA25
:0203EC0001EB23
:0203ED0001EC21
:0203EE0001ED1F
:0203EF0001EE1D
:0203F00001EF1B
:0203F10001F019
:0203F20001F117
:0203F30001F215
:0203F40001F313
:0203F50001F411
:0203F60001F50F
:0203F70001F60D
:0203F80001F70B
:0203F90001F809
:0203FA0001F907
:0203FB0001FA05
:0203FC0001FB03
:0203FD0001FC01
:0203FE0001FDFF
:0203FF0001FEFD
:00000001ff
