:020000040000FA
:0100000000FF
:010001000FEF
:010002000FEE
:010003000FED
:010004000EED
:010005000EEC
:010006000DEC
:010007000CEC
:010008000BEC
:0100090009ED
:01000A0008ED
:01000B0006EE
:01000C0004EF
:01000D0002F0
:01000E0000F1
:01000F000EE2
:010010000CE3
:0100110009E5
:0100120007E6
:0100130004E8
:0100140001EA
:010015000EDC
:010016000BDE
:0100170007E1
:0100180004E3
:0100190000E6
:01001A000CD9
:01001B0008DC
:01001C0004DF
:01001D0000E2
:01001E000BD6
:01001F0007D9
:0100200002DD
:010021000DD1
:0100220008D5
:0100230003D9
:010024000ECD
:0100250008D2
:0100260003D6
:010027000DCB
:0100280007D0
:0100290001D5
:01002A000BCA
:01002B0005CF
:01002C000FC4
:01002D0008CA
:01002E0001D0
:01002F000BC5
:0100300004CB
:010031000DC1
:0100320005C8
:010033000EBE
:0100340007C4
:010035000FBB
:0100360007C2
:010037000FB9
:0100380007C0
:010039000FB7
:01003A0007BE
:01003B000EB6
:01003C0006BD
:01003D000DB5
:01003E0004BD
:01003F000CB4
:0100400002BD
:0100410009B5
:0100420000BD
:0100430007B5
:010044000DAE
:0100450003B7
:0100460009B0
:010047000FA9
:0100480005B2
:010049000BAB
:01004A0001B4
:01004B0006AE
:01004C000CA7
:01004D0001B1
:01004E0006AB
:01004F000BA5
:0100500000AF
:0100510005A9
:010052000AA3
:010053000E9E
:0100540002A9
:0100550007A3
:010056000B9E
:010057000F99
:0100580003A4
:01005900079F
:01005A000A9B
:01005B000E96
:01005C0001A2
:01005D00059D
:01005E000899
:01005F000B95
:010060000E91
:01006100019D
:01006200039A
:010063000696
:010064000992
:010065000B8F
:010066000D8C
:010067000F89
:010068000196
:010069000393
:01006A000590
:01006B00078D
:01006C00088B
:01006D000A88
:01006E000B86
:01006F000C84
:010070000D82
:010071000E80
:010072000F7E
:01007300008C
:01007400018A
:010075000189
:010076000188
:010077000286
:010078000285
:010079000284
:01007A000283
:01007B000282
:01007C000281
:01007D000181
:01007E000180
:01007F000080
:01008000007F
:010081000F6F
:010082000E6F
:010083000D6F
:010084000C6F
:010085000B6F
:010086000970
:010087000870
:010088000671
:010089000571
:01008A000372
:01008B000173
:01008C000F64
:01008D000D65
:01008E000B66
:01008F000967
:010090000669
:01009100046A
:01009200016C
:010093000E5E
:010094000C5F
:010095000961
:010096000663
:010097000365
:010098000F58
:010099000C5A
:01009A00095C
:01009B00055F
:01009C000261
:01009D000E54
:01009E000A57
:01009F00065A
:0100A000025D
:0100A1000E50
:0100A2000A53
:0100A3000557
:0100A400015A
:0100A5000C4E
:0100A6000851
:0100A7000355
:0100A8000E49
:0100A900094D
:0100AA000550
:0100AB000F45
:0100AC000A49
:0100AD00054D
:0100AE000051
:0100AF000A46
:0100B000054A
:0100B1000F3F
:0100B2000944
:0100B3000349
:0100B4000D3E
:0100B5000743
:0100B6000148
:0100B7000B3D
:0100B8000542
:0100B9000E38
:0100BA00083D
:0100BB000143
:0100BC000A39
:0100BD00033F
:0100BE000D34
:0100BF00063A
:0100C0000F30
:0100C1000737
:0100C200003D
:0100C3000933
:0100C400013A
:0100C5000A30
:0100C6000237
:0100C7000B2D
:0100C8000334
:0100C9000B2B
:0100CA000332
:0100CB000B29
:0100CC000330
:0100CD000A28
:0100CE00022F
:0100CF000A26
:0100D000012E
:0100D1000925
:0100D200002D
:0100D3000725
:0100D4000E1D
:0100D5000525
:0100D6000C1D
:0100D7000325
:0100D8000A1D
:0100D9000125
:0100DA00071E
:0100DB000E16
:0100DC00051E
:0100DD000B17
:0100DE000120
:0100DF000719
:0100E0000E11
:0100E100041A
:0100E2000A13
:0100E3000F0D
:0100E4000516
:0100E5000B0F
:0100E6000118
:0100E7000612
:0100E8000C0B
:0100E9000115
:0100EA00060F
:0100EB000B09
:0100EC000112
:0100ED00060C
:0100EE000B06
:0100EF000010
:0100F000040B
:0100F1000905
:0100F2000EFF
:0100F300020A
:0100F4000704
:0100F5000BFF
:0100F6000009
:0100F7000404
:0100F80008FF
:0100F9000CFA
:0100FA000005
:0100FB000400
:0100FC0008FB
:0100FD000CF6
:0100FE000FF2
:0100FF0003FD
:0101000007F7
:010101000AF3
:010102000DEF
:0101030001FA
:0101040004F6
:0101050007F2
:010106000AEE
:010107000DEA
:0101080000F6
:0101090003F2
:01010A0006EE
:01010B0009EA
:01010C000BE7
:01010D000EE3
:01010E0000F0
:01010F0003EC
:0101100005E9
:0101110007E6
:010112000AE2
:010113000CDF
:010114000EDC
:0101150000E9
:0101160002E6
:0101170003E4
:0101180005E1
:0101190007DE
:01011A0009DB
:01011B000AD9
:01011C000CD6
:01011D000DD4
:01011E000ED2
:01011F0000DF
:0101200001DD
:0101210002DB
:0101220003D9
:0101230004D7
:0101240005D5
:0101250006D3
:0101260006D2
:0101270007D0
:0101280008CE
:0101290008CD
:01012A0009CB
:01012B0009CA
:01012C0009C9
:01012D000AC7
:01012E000AC6
:01012F000AC5
:010130000AC4
:010131000AC3
:010132000AC2
:010133000AC1
:010134000AC0
:0101350009C0
:0101360009BF
:0101370009BE
:0101380008BE
:0101390008BD
:01013A0007BD
:01013B0006BD
:01013C0006BC
:01013D0005BC
:01013E0004BC
:01013F0003BC
:0101400002BC
:0101410001BC
:0101420000BC
:010143000FAC
:010144000DAD
:010145000CAD
:010146000BAD
:0101470009AE
:0101480008AE
:0101490006AF
:01014A0005AF
:01014B0003B0
:01014C0001B1
:01014D000FA2
:01014E000DA3
:01014F000BA4
:0101500009A5
:0101510007A6
:0101520005A7
:0101530003A8
:0101540001A9
:010155000E9B
:010156000C9C
:01015700099E
:01015800079F
:0101590004A1
:01015A0002A2
:01015B000F94
:01015C000C96
:01015D000998
:01015E00069A
:01015F00049B
:01016000019D
:010161000D90
:010162000A92
:010163000794
:010164000496
:010165000198
:010166000D8B
:010167000A8D
:010168000690
:010169000392
:01016A000F85
:01016B000B88
:01016C00088A
:01016D00048D
:01016E000090
:01016F000C83
:010170000886
:010171000489
:01017200008C
:010173000C7F
:010174000882
:010175000485
:010176000F79
:010177000B7C
:010178000680
:010179000283
:01017A000D77
:01017B00097A
:01017C00047E
:01017D000081
:01017E000B75
:01017F000679
:01018000017D
:010181000C71
:010182000775
:010183000279
:010184000D6D
:010185000871
:010186000375
:010187000D6A
:01018800086E
:010189000372
:01018A000D67
:01018B00086B
:01018C000270
:01018D000D64
:01018E000769
:01018F00016E
:010190000C62
:010191000667
:01019200006C
:010193000A61
:010194000466
:010195000E5B
:010196000860
:010197000265
:010198000C5A
:01019900065F
:01019A000F55
:01019B00095A
:01019C00035F
:01019D000C55
:01019E00065A
:01019F000F50
:0101A0000955
:0101A100025B
:0101A2000B51
:0101A3000556
:0101A4000E4C
:0101A5000752
:0101A6000058
:0101A700094E
:0101A8000254
:0101A9000B4A
:0101AA000450
:0101AB000D46
:0101AC00064C
:0101AD000E43
:0101AE000749
:0101AF00004F
:0101B0000846
:0101B100014C
:0101B2000943
:0101B3000249
:0101B4000A40
:0101B5000346
:0101B6000B3D
:0101B7000344
:0101B8000B3B
:0101B9000342
:0101BA000C38
:0101BB00043F
:0101BC000C36
:0101BD00043D
:0101BE000C34
:0101BF00033C
:0101C0000B33
:0101C100033A
:0101C2000B31
:0101C3000239
:0101C4000A30
:0101C5000237
:0101C600092F
:0101C7000136
:0101C800082E
:0101C9000035
:0101CA00072D
:0101CB000E25
:0101CC00062C
:0101CD000D24
:0101CE00042C
:0101CF000B24
:0101D000022C
:0101D1000924
:0101D200002C
:0101D3000724
:0101D4000E1C
:0101D5000524
:0101D6000C1C
:0101D7000225
:0101D800091D
:0101D9000025
:0101DA00061E
:0101DB000D16
:0101DC00031F
:0101DD000A17
:0101DE000020
:0101DF000718
:0101E0000D11
:0101E100031A
:0101E2000A12
:0101E300001B
:0101E4000614
:0101E5000C0D
:0101E6000216
:0101E700080F
:0101E8000E08
:0101E9000411
:0101EA000A0A
:0101EB000013
:0101EC00060C
:0101ED000C05
:0101EE00020E
:0101EF000708
:0101F0000D01
:0101F100030A
:0101F2000804
:0101F3000EFD
:0101F4000307
:0101F5000900
:0101F6000EFA
:0101F7000304
:0101F80009FD
:0101F9000EF7
:0101FA000301
:0101FB0008FB
:0101FC000EF4
:0101FD0003FE
:0101FE0008F8
:0101FF000DF2
:0102000002FB
:0102010007F5
:010202000CEF
:0102030000FA
:0102040005F4
:010205000AEE
:010206000FE8
:0102070004F2
:0102080008ED
:010209000DE7
:01020A0001F2
:01020B0006EC
:01020C000AE7
:01020D000FE1
:01020E0003EC
:01020F0008E6
:010210000CE1
:0102110000EC
:0102120005E6
:0102130009E1
:010214000DDC
:0102150001E7
:0102160005E2
:0102170009DD
:010218000DD8
:0102190001E3
:01021A0005DE
:01021B0009D9
:01021C000DD4
:01021D0001DF
:01021E0005DA
:01021F0009D5
:010220000CD1
:0102210000DC
:0102220004D7
:0102230007D3
:010224000BCE
:010225000ECA
:0102260002D5
:0102270005D1
:0102280009CC
:010229000CC8
:01022A0000D3
:01022B0003CF
:01022C0006CB
:01022D0009C7
:01022E000DC2
:01022F0000CE
:0102300003CA
:0102310006C6
:0102320009C2
:010233000CBE
:010234000FBA
:0102350002C6
:0102360005C2
:0102370008BE
:010238000BBA
:010239000DB7
:01023A0000C3
:01023B0003BF
:01023C0006BB
:01023D0008B8
:01023E000BB4
:01023F000DB1
:0102400000BD
:0102410003B9
:0102420005B6
:0102430007B3
:010244000AAF
:010245000CAC
:010246000FA8
:0102470001B5
:0102480003B2
:0102490005AF
:01024A0008AB
:01024B000AA8
:01024C000CA5
:01024D000EA2
:01024E0000AF
:01024F0002AC
:0102500004A9
:0102510006A6
:0102520008A3
:010253000AA0
:010254000C9D
:010255000E9A
:010256000F98
:0102570001A5
:0102580003A2
:01025900059F
:01025A00069D
:01025B00089A
:01025C000998
:01025D000B95
:01025E000D92
:01025F000E90
:01026000009D
:01026100019B
:010262000299
:010263000496
:010264000594
:010265000692
:01026600088F
:01026700098D
:010268000A8B
:010269000B89
:01026A000C87
:01026B000D85
:01026C000F82
:01026D000090
:01026E00018E
:01026F00028C
:01027000038A
:010271000389
:010272000487
:010273000585
:010274000683
:010275000781
:01027600087F
:01027700087E
:01027800097C
:010279000A7A
:01027A000A79
:01027B000B77
:01027C000B76
:01027D000C74
:01027E000C73
:01027F000D71
:010280000D70
:010281000E6E
:010282000E6D
:010283000F6B
:010284000F6A
:010285000F69
:010286000F68
:010287000076
:010288000075
:010289000074
:01028A000073
:01028B000072
:01028C000071
:01028D000070
:01028E00006F
:01028F00006E
:01029000006D
:01029100006C
:01029200006B
:01029300006A
:010294000069
:010295000068
:010296000067
:010297000F57
:010298000F56
:010299000F55
:01029A000E55
:01029B000E54
:01029C000E53
:01029D000D53
:01029E000D52
:01029F000C52
:0102A0000C51
:0102A1000B51
:0102A2000B50
:0102A3000A50
:0102A4000A4F
:0102A500094F
:0102A600084F
:0102A700084E
:0102A800074E
:0102A900064E
:0102AA00054E
:0102AB00054D
:0102AC00044D
:0102AD00034D
:0102AE00024D
:0102AF00014D
:0102B000004D
:0102B1000F3D
:0102B2000E3D
:0102B3000D3D
:0102B4000C3D
:0102B5000B3D
:0102B6000A3D
:0102B700093D
:0102B800083D
:0102B900063E
:0102BA00053E
:0102BB00043E
:0102BC00033E
:0102BD00013F
:0102BE00003F
:0102BF000F2F
:0102C0000D30
:0102C1000C30
:0102C2000A31
:0102C3000931
:0102C4000732
:0102C5000632
:0102C6000433
:0102C7000333
:0102C8000134
:0102C9000034
:0102CA000E25
:0102CB000C26
:0102CC000B26
:0102CD000927
:0102CE000728
:0102CF000529
:0102D0000429
:0102D100022A
:0102D200002B
:0102D3000E1C
:0102D4000C1D
:0102D5000A1E
:0102D600081F
:0102D7000620
:0102D8000421
:0102D9000222
:0102DA000023
:0102DB000E14
:0102DC000C15
:0102DD000A16
:0102DE000817
:0102DF000618
:0102E000031A
:0102E100011B
:0102E2000F0C
:0102E3000D0D
:0102E4000A0F
:0102E5000810
:0102E6000611
:0102E7000313
:0102E8000114
:0102E9000F05
:0102EA000C07
:0102EB000A08
:0102EC00070A
:0102ED00050B
:0102EE00020D
:0102EF000FFF
:0102F0000D00
:0102F1000A02
:0102F2000803
:0102F3000505
:0102F4000207
:0102F5000008
:0102F6000DFA
:0102F7000AFC
:0102F80007FE
:0102F90005FF
:0102FA000201
:0102FB000FF3
:0102FC000CF5
:0102FD0009F7
:0102FE0006F9
:0102FF0003FB
:0103000000FC
:010301000DEE
:010302000AF0
:0103030007F2
:0103040004F4
:0103050001F6
:010306000EE8
:010307000BEA
:0103080008EC
:0103090005EE
:01030A0001F1
:01030B000EE3
:01030C000BE5
:01030D0008E7
:01030E0004EA
:01030F0001EC
:010310000EDE
:010311000AE1
:0103120007E3
:0103130004E5
:0103140000E8
:010315000DDA
:0103160009DD
:0103170006DF
:0103180002E2
:010319000FD4
:01031A000BD7
:01031B0008D9
:01031C0004DC
:01031D0000DF
:01031E000DD1
:01031F0009D4
:0103200005D7
:0103210002D9
:010322000ECC
:010323000ACF
:0103240006D2
:0103250003D4
:010326000FC7
:010327000BCA
:0103280007CD
:0103290003D0
:01032A000FC3
:01032B000BC6
:01032C0008C8
:01032D0004CB
:01032E0000CE
:01032F000CC1
:0103300008C4
:0103310003C8
:010332000FBB
:010333000BBE
:0103340007C1
:0103350003C4
:010336000FB7
:010337000BBA
:0103380007BD
:0103390002C1
:01033A000EB4
:01033B000AB7
:01033C0006BA
:01033D0001BE
:01033E000DB1
:01033F0009B4
:0103400004B8
:0103410000BB
:010342000CAE
:0103430007B2
:0103440003B5
:010345000EA9
:010346000AAC
:0103470005B0
:0103480001B3
:010349000CA7
:01034A0008AA
:01034B0003AE
:01034C000FA1
:01034D000AA5
:01034E0005A9
:01034F0001AC
:010350000CA0
:0103510007A4
:0103520003A7
:010353000E9B
:01035400099F
:0103550004A3
:0103560000A6
:010357000B9A
:01035800069E
:0103590001A2
:01035A000C96
:01035B00079A
:01035C00029E
:01035D000E91
:01035E000995
:01035F000499
:010360000F8D
:010361000A91
:010362000595
:010363000099
:010364000B8D
:010365000592
:010366000096
:010367000B8A
:01036800068E
:010369000192
:01036A000C86
:01036B00078A
:01036C00018F
:01036D000C83
:01036E000787
:01036F00028B
:010370000C80
:010371000784
:010372000288
:010373000D7C
:010374000781
:010375000285
:010376000C7A
:01037700077E
:010378000282
:010379000C77
:01037A00077B
:01037B000180
:01037C000C74
:01037D000679
:01037E00017D
:01037F000B72
:010380000676
:01038100007B
:010382000A70
:010383000574
:010384000F69
:01038500096E
:010386000472
:010387000E67
:01038800086C
:010389000370
:01038A000D65
:01038B00076A
:01038C00016F
:01038D000C63
:01038E000668
:01038F00006D
:010390000A62
:010391000467
:010392000E5C
:010393000960
:010394000365
:010395000D5A
:01039600075F
:010397000164
:010398000B59
:01039900055E
:01039A000F53
:01039B000958
:01039C00035D
:01039D000D52
:01039E000757
:01039F00005D
:0103A0000A52
:0103A1000457
:0103A2000E4C
:0103A3000851
:0103A4000256
:0103A5000C4B
:0103A6000551
:0103A7000F46
:0103A800094B
:0103A9000350
:0103AA000C46
:0103AB00064B
:0103AC000050
:0103AD000946
:0103AE00034B
:0103AF000D40
:0103B0000646
:0103B100004B
:0103B2000941
:0103B3000346
:0103B4000D3B
:0103B5000641
:0103B6000046
:0103B700093C
:0103B8000341
:0103B9000C37
:0103BA00063C
:0103BB000F32
:0103BC000937
:0103BD00023D
:0103BE000B33
:0103BF000538
:0103C0000E2E
:0103C1000734
:0103C2000139
:0103C3000A2F
:0103C4000335
:0103C5000D2A
:0103C6000630
:0103C7000F26
:0103C800092B
:0103C9000231
:0103CA000B27
:0103CB00042D
:0103CC000D23
:0103CD000728
:0103CE00002E
:0103CF000924
:0103D000022A
:0103D1000B20
:0103D2000426
:0103D3000D1C
:0103D4000622
:0103D5000F18
:0103D600081E
:0103D7000124
:0103D8000A1A
:0103D9000320
:0103DA000C16
:0103DB00051C
:0103DC000E12
:0103DD000718
:0103DE00001E
:0103DF000914
:0103E000021A
:0103E1000B10
:0103E2000416
:0103E3000D0C
:0103E4000513
:0103E5000E09
:0103E600070F
:0103E7000015
:0103E800090B
:0103E9000112
:0103EA000A08
:0103EB00030E
:0103EC000B05
:0103ED00040B
:0103EE000D01
:0103EF000607
:0103F0000EFE
:0103F1000704
:0103F2000FFB
:0103F3000801
:0103F4000107
:0103F50009FE
:0103F6000204
:0103F7000AFB
:0103F8000301
:0103F9000BF8
:0103FA0004FE
:0103FB000DF4
:0103FC0005FB
:0103FD000DF2
:0103FE0006F8
:0103FF000EEF
:0104000007F4
:010401000FEB
:0104020008F1
:0104030000F8
:0104040008EF
:0104050001F5
:0104060009EC
:0104070001F3
:010408000AE9
:0104090002F0
:01040A000AE7
:01040B0003ED
:01040C000BE4
:01040D0003EB
:01040E000BE2
:01040F0004E8
:010410000CDF
:0104110004E6
:010412000CDD
:0104130004E4
:010414000DDA
:0104150005E1
:010416000DD8
:0104170005DF
:010418000DD6
:0104190005DD
:01041A000DD4
:01041B0005DB
:01041C000ED1
:01041D0006D8
:01041E000ECF
:01041F0006D6
:010420000ECD
:0104210006D4
:010422000ECB
:0104230006D2
:010424000EC9
:0104250005D1
:010426000DC8
:0104270005CF
:010428000DC6
:0104290005CD
:01042A000DC4
:01042B0005CB
:01042C000DC2
:01042D0005C9
:01042E000CC1
:01042F0004C8
:010430000CBF
:0104310004C6
:010432000CBD
:0104330003C5
:010434000BBC
:0104350003C3
:010436000BBA
:0104370002C2
:010438000AB9
:0104390002C0
:01043A0009B8
:01043B0001BF
:01043C0009B6
:01043D0000BE
:01043E0008B5
:01043F0000BC
:0104400007B4
:010441000FAB
:0104420006B3
:010443000EAA
:0104440006B1
:010445000DA9
:0104460005B0
:010447000CA8
:0104480004AF
:010449000BA7
:01044A0003AE
:01044B000AA6
:01044C0002AD
:01044D0009A5
:01044E0001AC
:01044F0008A4
:010450000F9C
:0104510007A3
:010452000E9B
:0104530006A2
:010454000D9A
:0104550004A2
:010456000C99
:0104570003A1
:010458000A99
:0104590002A0
:01045A000998
:01045B0000A0
:01045C000798
:01045D000F8F
:01045E000697
:01045F000D8F
:010460000497
:010461000C8E
:010462000396
:010463000A8E
:010464000196
:01046500088E
:010466000095
:01046700078D
:010468000E85
:01046900058D
:01046A000C85
:01046B00038D
:01046C000A85
:01046D00018D
:01046E000984
:01046F00008C
:010470000784
:010471000E7C
:010472000584
:010473000C7C
:010474000384
:010475000A7C
:010476000184
:01047700087C
:010478000F74
:01047900067C
:01047A000D74
:01047B00037D
:01047C000A75
:01047D00017D
:01047E000875
:01047F000F6D
:010480000675
:010481000D6D
:010482000475
:010483000A6E
:010484000176
:01048500086E
:010486000F66
:01048700066E
:010488000D66
:01048900036F
:01048A000A67
:01048B00016F
:01048C000867
:01048D000E60
:01048E000568
:01048F000C60
:010490000368
:010491000961
:010492000069
:010493000761
:010494000D5A
:010495000462
:010496000B5A
:010497000163
:01049800085B
:010499000E54
:01049A00055C
:01049B000C54
:01049C00025D
:01049D000955
:01049E000F4E
:01049F000656
:0104A0000C4F
:0104A1000357
:0104A2000A4F
:0104A3000058
:0104A4000750
:0104A5000D49
:0104A6000451
:0104A7000A4A
:0104A8000053
:0104A900074B
:0104AA000D44
:0104AB00044C
:0104AC000A45
:0104AD00014D
:0104AE000746
:0104AF000D3F
:0104B0000447
:0104B1000A40
:0104B2000148
:0104B3000741
:0104B4000D3A
:0104B5000442
:0104B6000A3B
:0104B7000044
:0104B800073C
:0104B9000D35
:0104BA00033E
:0104BB000937
:0104BC00003F
:0104BD000638
:0104BE000C31
:0104BF00023A
:0104C0000932
:0104C1000F2B
:0104C2000534
:0104C3000B2D
:0104C4000136
:0104C500082E
:0104C6000E27
:0104C7000430
:0104C8000A29
:0104C9000032
:0104CA00062B
:0104CB000C24
:0104CC00032C
:0104CD000925
:0104CE000F1E
:0104CF000527
:0104D0000B20
:0104D1000129
:0104D2000722
:0104D3000D1B
:0104D4000324
:0104D500091D
:0104D6000F16
:0104D700051F
:0104D8000B18
:0104D9000121
:0104DA00071A
:0104DB000D13
:0104DC00031C
:0104DD000915
:0104DE000F0E
:0104DF000517
:0104E0000B10
:0104E1000119
:0104E2000712
:0104E3000D0B
:0104E4000314
:0104E500090D
:0104E6000E07
:0104E7000410
:0104E8000A09
:0104E9000012
:0104EA00060B
:0104EB000C04
:0104EC00010E
:0104ED000707
:0104EE000D00
:0104EF000309
:0104F0000902
:0104F1000EFC
:0104F2000405
:0104F3000AFE
:0104F4000007
:0104F5000600
:0104F6000BFA
:0104F7000103
:0104F80007FC
:0104F9000CF6
:0104FA0002FF
:0104FB0008F8
:0104FC000EF1
:0104FD0003FB
:0104FE0009F4
:0104FF000FED
:0105000004F6
:010501000AEF
:010502000FE9
:0105030005F2
:010504000BEB
:0105050000F5
:0105060006EE
:010507000CE7
:0105080001F1
:0105090007EA
:01050A000CE4
:01050B0002ED
:01050C0007E7
:01050D000DE0
:01050E0002EA
:01050F0008E3
:010510000DDD
:0105110003E6
:0105120008E0
:010513000ED9
:0105140003E3
:0105150009DC
:010516000ED6
:0105170004DF
:0105180009D9
:010519000FD2
:01051A0004DC
:01051B000AD5
:01051C000FCF
:01051D0004D9
:01051E000AD2
:01051F000FCC
:0105200005D5
:010521000ACF
:010522000FC9
:0105230005D2
:010524000ACC
:010525000FC6
:0105260005CF
:010527000AC9
:010528000FC3
:0105290005CC
:01052A000AC6
:01052B000FC0
:01052C0005C9
:01052D000AC3
:01052E000FBD
:01052F0005C6
:010530000AC0
:010531000FBA
:0105320004C4
:010533000ABD
:010534000FB7
:0105350004C1
:0105360009BB
:010537000EB5
:0105380004BE
:0105390009B8
:01053A000EB2
:01053B0003BC
:01053C0008B6
:01053D000DB0
:01053E0003B9
:01053F0008B3
:010540000DAD
:0105410002B7
:0105420007B1
:010543000CAB
:0105440001B5
:0105450006AF
:010546000CA8
:0105470001B2
:0105480006AC
:010549000BA6
:01054A0000B0
:01054B0005AA
:01054C000AA4
:01054D000F9E
:01054E0004A8
:01054F0009A2
:010550000E9C
:0105510003A6
:0105520008A0
:010553000D9A
:0105540002A4
:01055500079E
:010556000C98
:0105570001A2
:01055800069C
:010559000B96
:01055A0000A0
:01055B00059A
:01055C000A94
:01055D000F8E
:01055E000498
:01055F000992
:010560000D8D
:010561000297
:010562000791
:010563000C8B
:010564000195
:01056500068F
:010566000B89
:010567000093
:01056800048E
:010569000988
:01056A000E82
:01056B00038C
:01056C000886
:01056D000D80
:01056E00018B
:01056F000685
:010570000B7F
:010571000089
:010572000484
:01057300097E
:010574000E78
:010575000382
:01057600087C
:010577000C77
:010578000181
:01057900067B
:01057A000A76
:01057B000F70
:01057C00047A
:01057D000974
:01057E000D6F
:01057F000279
:010580000773
:010581000B6E
:010582000078
:010583000572
:01058400096D
:010585000E67
:010586000371
:01058700076C
:010588000C66
:010589000071
:01058A00056B
:01058B000A65
:01058C000E60
:01058D00036A
:01058E000765
:01058F000C5F
:010590000169
:010591000564
:010592000A5E
:010593000E59
:010594000363
:01059500075E
:010596000C58
:010597000063
:01059800055D
:010599000958
:01059A000E52
:01059B00025D
:01059C000757
:01059D000B52
:01059E00005C
:01059F000457
:0105A0000951
:0105A1000D4C
:0105A2000256
:0105A3000651
:0105A4000B4B
:0105A5000F46
:0105A6000450
:0105A700084B
:0105A8000C46
:0105A9000150
:0105AA00054B
:0105AB000A45
:0105AC000E40
:0105AD00024B
:0105AE000745
:0105AF000B40
:0105B000004A
:0105B1000445
:0105B2000840
:0105B3000D3A
:0105B4000145
:0105B5000540
:0105B6000A3A
:0105B7000E35
:0105B8000240
:0105B900073A
:0105BA000B35
:0105BB000F30
:0105BC00033B
:0105BD000835
:0105BE000C30
:0105BF00003B
:0105C0000535
:0105C1000930
:0105C2000D2B
:0105C3000136
:0105C4000630
:0105C5000A2B
:0105C6000E26
:0105C7000231
:0105C800072B
:0105C9000B26
:0105CA000F21
:0105CB00032C
:0105CC000727
:0105CD000C21
:0105CE00002C
:0105CF000427
:0105D0000822
:0105D1000C1D
:0105D2000028
:0105D3000522
:0105D400091D
:0105D5000D18
:0105D6000123
:0105D700051E
:0105D8000919
:0105D9000D14
:0105DA00021E
:0105DB000619
:0105DC000A14
:0105DD000E0F
:0105DE00021A
:0105DF000615
:0105E0000A10
:0105E1000E0B
:0105E2000216
:0105E3000611
:0105E4000A0C
:0105E5000E07
:0105E6000212
:0105E700060D
:0105E8000B07
:0105E9000F02
:0105EA00030D
:0105EB000708
:0105EC000B03
:0105ED000FFE
:0105EE000309
:0105EF000704
:0105F0000BFF
:0105F1000FFA
:0105F2000305
:0105F3000700
:0105F4000BFB
:0105F5000EF7
:0105F6000202
:0105F70006FD
:0105F8000AF8
:0105F9000EF3
:0105FA0002FE
:0105FB0006F9
:0105FC000AF4
:0105FD000EEF
:0105FE0002FA
:0105FF0006F5
:010600000AEF
:010601000EEA
:0106020001F6
:0106030005F1
:0106040009EC
:010605000DE7
:0106060001F2
:0106070005ED
:0106080009E8
:010609000DE3
:01060A0000EF
:01060B0004EA
:01060C0008E5
:01060D000CE0
:01060E0000EB
:01060F0004E6
:0106100007E2
:010611000BDD
:010612000FD8
:0106130003E3
:0106140007DE
:010615000ADA
:010616000ED5
:0106170002E0
:0106180006DB
:010619000AD6
:01061A000DD2
:01061B0001DD
:01061C0005D8
:01061D0009D3
:01061E000CCF
:01061F0000DA
:0106200004D5
:0106210007D1
:010622000BCC
:010623000FC7
:0106240003D2
:0106250006CE
:010626000AC9
:010627000EC4
:0106280001D0
:0106290005CB
:01062A0009C6
:01062B000CC2
:01062C0000CD
:01062D0004C8
:01062E0007C4
:01062F000BBF
:010630000FBA
:0106310002C6
:0106320006C1
:010633000ABC
:010634000DB8
:0106350001C3
:0106360005BE
:0106370008BA
:010638000CB5
:010639000FB1
:01063A0003BC
:01063B0007B7
:01063C000AB3
:01063D000EAE
:01063E0001BA
:01063F0005B5
:0106400009B0
:010641000CAC
:0106420000B7
:0106430003B3
:0106440007AE
:010645000AAA
:010646000EA5
:0106470001B1
:0106480005AC
:0106490008A8
:01064A000CA3
:01064B000F9F
:01064C0003AA
:01064D0006A6
:01064E000AA1
:01064F000D9D
:0106500001A8
:0106510004A4
:01065200089F
:010653000B9B
:010654000F96
:0106550002A2
:01065600069D
:010657000999
:010658000D94
:0106590000A0
:01065A00049B
:01065B000797
:01065C000B92
:01065D000E8E
:01065E00019A
:01065F000595
:010660000891
:010661000C8C
:010662000F88
:010663000393
:01066400068F
:01066500098B
:010666000D86
:010667000092
:01066800038E
:010669000789
:01066A000A85
:01066B000E80
:01066C00018C
:01066D000488
:01066E000883
:01066F000B7F
:010670000E7B
:010671000286
:010672000582
:01067300087E
:010674000C79
:010675000F75
:010676000281
:01067700067C
:010678000978
:010679000C74
:01067A00007F
:01067B00037B
:01067C000677
:01067D000973
:01067E000D6E
:01067F00007A
:010680000376
:010681000771
:010682000A6D
:010683000D69
:010684000075
:010685000470
:01068600076C
:010687000A68
:010688000D64
:01068900016F
:01068A00046B
:01068B000767
:01068C000A63
:01068D000D5F
:01068E00016A
:01068F000466
:010690000762
:010691000A5E
:010692000D5A
:010693000165
:010694000461
:01069500075D
:010696000A59
:010697000D55
:010698000160
:01069900045C
:01069A000758
:01069B000A54
:01069C000D50
:01069D00005C
:01069E000358
:01069F000753
:0106A0000A4F
:0106A1000D4B
:0106A2000057
:0106A3000353
:0106A400064F
:0106A500094B
:0106A6000C47
:0106A7000052
:0106A800034E
:0106A900064A
:0106AA000946
:0106AB000C42
:0106AC000F3E
:0106AD00024A
:0106AE000546
:0106AF000842
:0106B0000B3E
:0106B1000E3A
:0106B2000146
:0106B3000541
:0106B400083D
:0106B5000B39
:0106B6000E35
:0106B7000141
:0106B800043D
:0106B9000739
:0106BA000A35
:0106BB000D31
:0106BC00003D
:0106BD000339
:0106BE000635
:0106BF000931
:0106C0000C2D
:0106C1000F29
:0106C2000235
:0106C3000531
:0106C400082D
:0106C5000B29
:0106C6000E25
:0106C7000131
:0106C800042D
:0106C9000729
:0106CA000A25
:0106CB000D21
:0106CC00002D
:0106CD000329
:0106CE000625
:0106CF000921
:0106D0000B1E
:0106D1000E1A
:0106D2000126
:0106D3000422
:0106D400071E
:0106D5000A1A
:0106D6000D16
:0106D7000022
:0106D800031E
:0106D900061A
:0106DA000916
:0106DB000C12
:0106DC000E0F
:0106DD00011B
:0106DE000417
:0106DF000713
:0106E0000A0F
:0106E1000D0B
:0106E2000017
:0106E3000313
:0106E400060F
:0106E500080C
:0106E6000B08
:0106E7000E04
:0106E8000110
:0106E900040C
:0106EA000708
:0106EB000905
:0106EC000C01
:0106ED000FFD
:0106EE000209
:0106EF000505
:0106F0000801
:0106F1000AFE
:0106F2000DFA
:0106F3000006
:0106F4000302
:0106F50006FE
:0106F60008FB
:0106F7000BF7
:0106F8000EF3
:0106F90001FF
:0106FA0004FB
:0106FB0006F8
:0106FC0009F4
:0106FD000CF0
:0106FE000FEC
:0106FF0002F8
:0107000004F4
:0107010007F0
:010702000AEC
:010703000DE8
:010704000FE5
:0107050002F1
:0107060005ED
:0107070008E9
:010708000AE6
:010709000DE2
:01070A0000EE
:01070B0002EB
:01070C0005E7
:01070D0008E3
:01070E000BDF
:01070F000DDC
:0107100000E8
:0107110003E4
:0107120005E1
:0107130008DD
:010714000BD9
:010715000DD6
:0107160000E2
:0107170003DE
:0107180006DA
:0107190008D7
:01071A000BD3
:01071B000ECF
:01071C0000DC
:01071D0003D8
:01071E0006D4
:01071F0008D1
:010720000BCD
:010721000EC9
:0107220000D6
:0107230003D2
:0107240005CF
:0107250008CB
:010726000BC7
:010727000DC4
:0107280000D0
:0107290003CC
:01072A0005C9
:01072B0008C5
:01072C000AC2
:01072D000DBE
:01072E0000CA
:01072F0002C7
:0107300005C3
:0107310007C0
:010732000ABC
:010733000DB8
:010734000FB5
:0107350002C1
:0107360004BE
:0107370007BA
:0107380009B7
:010739000CB3
:01073A000FAF
:01073B0001BC
:01073C0004B8
:01073D0006B5
:01073E0009B1
:01073F000BAE
:010740000EAA
:0107410000B7
:0107420003B3
:0107430006AF
:0107440008AC
:010745000BA8
:010746000DA5
:0107470000B1
:0107480002AE
:0107490005AA
:01074A0007A7
:01074B000AA3
:01074C000CA0
:01074D000F9C
:01074E0001A9
:01074F0004A5
:0107500006A2
:01075100099E
:010752000B9B
:010753000E97
:0107540000A4
:0107550003A0
:01075600059D
:010757000899
:010758000A96
:010759000C93
:01075A000F8F
:01075B00019C
:01075C000498
:01075D000695
:01075E000991
:01075F000B8E
:010760000E8A
:010761000097
:010762000393
:010763000590
:01076400078D
:010765000A89
:010766000C86
:010767000F82
:01076800018F
:01076900038C
:01076A000688
:01076B000885
:01076C000B81
:01076D000D7E
:01076E000F7B
:01076F000287
:010770000484
:010771000780
:01077200097D
:010773000B7A
:010774000E76
:010775000083
:01077600037F
:01077700057C
:010778000779
:010779000A75
:01077A000C72
:01077B000E6F
:01077C00017B
:01077D000378
:01077E000575
:01077F000871
:010780000A6E
:010781000D6A
:010782000F67
:010783000174
:010784000470
:01078500066D
:01078600086A
:010787000B66
:010788000D63
:010789000F60
:01078A00016D
:01078B000469
:01078C000666
:01078D000863
:01078E000B5F
:01078F000D5C
:010790000F59
:010791000265
:010792000462
:01079300065F
:01079400085C
:010795000B58
:010796000D55
:010797000F52
:01079800025E
:01079900045B
:01079A000658
:01079B000855
:01079C000B51
:01079D000D4E
:01079E000F4B
:01079F000158
:0107A0000454
:0107A1000651
:0107A200084E
:0107A3000A4B
:0107A4000D47
:0107A5000F44
:0107A6000151
:0107A700034E
:0107A800064A
:0107A9000847
:0107AA000A44
:0107AB000C41
:0107AC000F3D
:0107AD00014A
:0107AE000347
:0107AF000544
:0107B0000741
:0107B1000A3D
:0107B2000C3A
:0107B3000E37
:0107B4000044
:0107B5000241
:0107B600053D
:0107B700073A
:0107B8000937
:0107B9000B34
:0107BA000D31
:0107BB000F2E
:0107BC00023A
:0107BD000437
:0107BE000634
:0107BF000831
:0107C0000A2E
:0107C1000C2B
:0107C2000F27
:0107C3000134
:0107C4000331
:0107C500052E
:0107C600072B
:0107C7000928
:0107C8000C24
:0107C9000E21
:0107CA00002E
:0107CB00022B
:0107CC000428
:0107CD000625
:0107CE000822
:0107CF000B1E
:0107D0000D1B
:0107D1000F18
:0107D2000125
:0107D3000322
:0107D400051F
:0107D500071C
:0107D6000919
:0107D7000B16
:0107D8000E12
:0107D900001F
:0107DA00021C
:0107DB000419
:0107DC000616
:0107DD000813
:0107DE000A10
:0107DF000C0D
:0107E0000E0A
:0107E1000017
:0107E2000214
:0107E3000411
:0107E400070D
:0107E500090A
:0107E6000B07
:0107E7000D04
:0107E8000F01
:0107E900010E
:0107EA00030B
:0107EB000508
:0107EC000705
:0107ED000902
:0107EE000BFF
:0107EF000DFC
:0107F0000FF9
:0107F1000106
:0107F2000303
:0107F3000500
:0107F40007FD
:0107F50009FA
:0107F6000BF7
:0107F7000DF4
:0107F8000FF1
:0107F90001FE
:0107FA0003FB
:0107FB0005F8
:0107FC0007F5
:0107FD0009F2
:0107FE000CEE
:0107FF000EEB
:00000001ff
