:020000040000FA
:0200000001FFFE
:020001000005F8
:020002000017E5
:020003000035C6
:02000400005F9B
:02000500009465
:0200060000D523
:020007000122D4
:02000800017B7A
:0200090001DE16
:02000A00004EA6
:02000B0000C92A
:02000C00014FA2
:02000D0001E010
:02000E00007D73
:02000F000125C9
:0200100001D815
:02001100009756
:0200120001608B
:020013000034B7
:020014000114D5
:0200150001FEEA
:0200160000F3F5
:0200170001F3F3
:0200180000FDE9
:020019000012D3
:02001A000132B1
:02001B00005D86
:02001C0001924F
:02001D0000D110
:02001E00001BC5
:02001F00016F6F
:0200200000CE10
:020021000037A6
:0200220001AA31
:020023000127B3
:0200240000AF2B
:02002500004099
:0200260001DCFB
:02002700018254
:020028000131A4
:0200290000EBEA
:02002A0000AE26
:02002B00007B58
:02002C00005280
:02002D0000339E
:02002E00001DB3
:02002F000011BE
:02003000000FBF
:020031000016B7
:020032000026A6
:0200330000418A
:02003400006466
:02003500009138
:0200360000C701
:020037000106C0
:02003800014F76
:0200390001A123
:02003A0001FCC7
:02003B00006063
:02003C0000CDF5
:02003D0001447C
:02003E0001C3FC
:02003F00004B74
:0200400000DCE2
:02004100017646
:020042000019A3
:0200430000C4F7
:02004400017940
:02004500003683
:0200460000FBBD
:0200470001C9ED
:0200480000A016
:02004900018034
:02004A0000684C
:02004B0001585A
:02004C00005161
:02004D0001525E
:02004E00005B55
:02004F00016D41
:02005000008727
:0200510001AA02
:0200520000D4D8
:020053000007A4
:02005400014267
:02005500008524
:0200560001D0D7
:02005700012383
:02005800007E28
:0200590001E1C3
:02005A00014C57
:02005B0000BEE5
:02005C00003969
:02005D0001BBE5
:02005E0001455A
:02005F0000D7C8
:0200600000712D
:0200610000128B
:0200620001BBE0
:02006300016B2F
:02006400012376
:0200650000E3B6
:0200660000AAEE
:0200670000791E
:02006800004F47
:02006900002C69
:02006A00001183
:02006B0001FD95
:02006C0001F0A1
:02006D0001EBA5
:02006E0001EDA2
:02006F0001F698
:02007000000688
:02007100001D70
:02007200003C50
:0200730000612A
:02007400008EFC
:0200750000C2C7
:0200760000FC8C
:02007700013E48
:020078000186FF
:0200790001D6AE
:02007A00002C58
:02007B000089FA
:02007C0000ED95
:02007D00015828
:02007E0001C9B6
:02007F0000413E
:0200800000C0BE
:02008100014537
:0200820001D2A9
:02008300006417
:0200840000FE7C
:02008500019DDB
:02008600004434
:0200870000F186
:0200880001A4D1
:02008900005E17
:02008A00011E55
:02008B0001E48E
:02008C0000B1C1
:02008D000184EC
:02008E00005E12
:02008F00013E30
:0200900000244A
:0200910001105C
:0200920000026A
:0200930000FB70
:0200940001FA6F
:0200950000FE6B
:0200960000095F
:02009700011A4C
:02009800003135
:02009900014E16
:02009A000071F3
:02009B00019AC8
:02009C0000C999
:02009D0001FE62
:02009E00013827
:02009F000079E6
:0200A00001BF9E
:0200A100010B51
:0200A200005DFF
:0200A30001B5A5
:0200A400011247
:0200A5000075E4
:0200A60001DE79
:0200A700014D09
:0200A80000C195
:0200A900003B1A
:0200AA0001BA99
:0200AB00013F13
:0200AC0000C989
:0200AD000059F8
:0200AE0001EF60
:0200AF00018AC4
:0200B000012A23
:0200B10000D07D
:0200B200007BD1
:0200B300002C1F
:0200B40001E267
:0200B500019DAB
:0200B600015DEA
:0200B700012323
:0200B80000EF57
:0200B90000BF86
:0200BA000095AF
:0200BB000070D3
:0200BC000050F2
:0200BD0000350C
:0200BE00001F21
:0200BF00000F30
:0200C00000033B
:0200C10001FD3F
:0200C20001FC3F
:0200C30000003B
:0200C400000832
:0200C500001623
:0200C60000290F
:0200C7000041F6
:0200C800005DD9
:0200C900007FB6
:0200CA0000A58F
:0200CB0000D162
:0200CC00010130
:0200CD000136FA
:0200CE000170BF
:0200CF0001AF7F
:0200D00001F23B
:0200D100003AF3
:0200D2000087A5
:0200D30000D952
:0200D400012FFA
:0200D500018B9D
:0200D60001EA3D
:0200D700004FD8
:0200D80000B86E
:0200D9000125FF
:0200DA0001978C
:0200DB00000E15
:0200DC00008A98
:0200DD00010917
:0200DE00018E91
:0200DF00001708
:0200E00000A47A
:0200E1000136E6
:0200E20001CC4F
:0200E3000067B4
:0200E400010613
:0200E50001AA6E
:0200E6000051C7
:0200E70000FE19
:0200E80001AE67
:0200E9000063B2
:0200EA00011CF7
:0200EB0001DA38
:0200EC00009C76
:0200ED000162AE
:0200EE00002CE4
:0200EF0000FA15
:0200F00001CD40
:0200F10000A469
:0200F200017F8C
:0200F300005EAD
:0200F4000142C7
:0200F5000029E0
:0200F6000115F2
:0200F700000403
:0200F80000F80E
:0200F90001F014
:0200FA0000EB19
:0200FB0001EB17
:0200FC0000EF13
:0200FD0001F709
:0200FE000103FC
:0200FF000013EC
:020100000126D6
:02010100003EBE
:02010200015AA0
:02010300007981
:02010400019D5B
:0201050000C434
:0201060001EF07
:02010700011ED7
:020108000051A4
:0201090001876C
:02010A0000C231
:02010B000000F2
:02010C000142AE
:02010D00008769
:02010E0001D11D
:02010F00011ECF
:02011000006F7E
:0201110001C328
:02011200011CCE
:02011300007773
:0201140001D711
:02011500013AAD
:0201160000A146
:02011700000BDB
:0201180001796B
:0201190000EBF9
:02011A00006083
:02011B0001D908
:02011C0001558B
:02011D0000D50B
:02011E00005887
:02011F0001DFFE
:02012000016A72
:0201210000F7E5
:02012200008952
:02012300001DBD
:0201240001B523
:02012500015186
:0201260000F0E7
:02012700009244
:0201280000389D
:0201290001E1F2
:02012A00018E44
:02012B00013D94
:02012C0000F1E0
:02012D0000A729
:02012E0000616E
:02012F00001EB0
:0201300001DEEE
:0201310001A229
:02013200016961
:02013300013396
:020134000100C8
:0201350000D1F7
:0201360000A522
:02013700007C4A
:0201380000566F
:02013900003391
:02013A000014AF
:02013B0001F8C9
:02013C0001DEE2
:02013D0001C8F7
:02013E0001B509
:02013F0001A617
:02014000019923
:02014100018F2C
:02014200018931
:02014300018534
:02014400018533
:02014500018730
:02014600018D29
:02014700019520
:0201480001A113
:0201490001AF04
:02014A0001C1F1
:02014B0001D5DC
:02014C0001EDC3
:02014D000007A9
:02014E0000258A
:02014F00004569
:02015000006845
:02015100008E1E
:0201520000B7F4
:0201530000E3C7
:02015400011296
:02015500014463
:0201560001782E
:0201570001AFF6
:0201580001EABA
:0201590000277D
:02015A0000663D
:02015B0000A9F9
:02015C0000EEB3
:02015D00013669
:02015E0001811D
:02015F0001CFCE
:02016000001F7E
:02016100007329
:0201620000C8D3
:02016300012178
:02016400017C1C
:0201650001DABD
:02016600003B5C
:02016700009EF8
:0201680001058F
:02016900016D26
:02016A0001D9B9
:02016B0000474B
:02016C0000B7DA
:02016D00012B64
:02016E0001A0EE
:02016F00001975
:020170000094F9
:02017100011279
:020172000192F8
:02017300001575
:02017400009AEF
:02017500012265
:0201760001ACDA
:0201770000394D
:0201780000C9BC
:02017900015B28
:02017A0001EF93
:02017B000086FC
:02017C00012060
:02017D0001BCC3
:02017E00005A25
:02017F0000FB83
:02018000019FDD
:02018100004438
:0201820000ED8E
:020183000197E2
:02018400004435
:0201850000F484
:0201860001A6D0
:02018700005A1C
:02018800011163
:0201890001CAA9
:02018A000085EE
:02018B0001432E
:02018C0000036E
:02018D0000C5AB
:02018E00018AE4
:02018F0000511D
:02019000011A52
:0201910001E685
:0201920000B4B7
:020193000184E5
:02019400005712
:02019500012C3B
:02019600000364
:0201970000DC8A
:0201980001B8AC
:020199000096CE
:02019A000176EC
:02019B0000580A
:02019C00013D23
:02019D0000243C
:02019E00010D51
:02019F0001F865
:0201A00000E578
:0201A10001D586
:0201A20000C695
:0201A30001BA9F
:0201A40000B0A9
:0201A50001A8AF
:0201A60000A3B4
:0201A700019FB6
:0201A800009EB7
:0201A900019FB4
:0201AA0000A2B1
:0201AB0001A6AB
:0201AC0000AEA3
:0201AD0001B798
:0201AE0000C28D
:0201AF0001CF7E
:0201B00000DF6E
:0201B10001F05B
:0201B200010446
:0201B300001931
:0201B400013117
:0201B500004AFE
:0201B6000166E0
:0201B7000084C2
:0201B80001A3A1
:0201B90000C57F
:0201BA0001E959
:0201BB00010F32
:0201BC0000360B
:0201BD000160DF
:0201BE00008CB3
:0201BF0001B984
:0201C00000E954
:0201C100001A22
:0201C200014EEC
:0201C3000083B7
:0201C40001BB7D
:0201C50000F444
:0201C600002F08
:0201C700016CC9
:0201C80000AB8A
:0201C90001EC47
:0201CA00012F03
:0201CB000074BE
:0201CC0001BB75
:0201CD0001032C
:0201CE00004DE2
:0201CF00019A93
:0201D00000E845
:0201D1000038F4
:0201D2000189A1
:0201D30000DD4D
:0201D4000033F6
:0201D500018A9D
:0201D60000E344
:0201D700003EE8
:0201D800019B89
:0201D90000F92B
:0201DA000059CA
:0201DB0001BC65
:0201DC00011F01
:0201DD0000859B
:0201DE0001ED31
:0201DF000156C7
:0201E00000C15C
:0201E100002EEE
:0201E200019C7E
:0201E300010C0D
:0201E400007E9B
:0201E50001F225
:0201E6000167AF
:0201E70000DF37
:0201E8000057BE
:0201E90001D241
:0201EA00014EC4
:0201EB0000CC46
:0201EC00004CC5
:0201ED0001CD42
:0201EE000150BE
:0201EF0000D539
:0201F000005CB1
:0201F10001E427
:0201F200016D9D
:0201F30000F911
:0201F400008683
:0201F5000014F4
:0201F60001A561
:0201F7000137CE
:0201F80000CA3B
:0201F900005FA5
:0201FA0001F60C
:0201FB00018F72
:0201FC000129D7
:0201FD0000C43C
:0201FE0000619E
:0201FF000000FE
:0202000001A15A
:020201000143B7
:0202020000E614
:02020300008B6E
:020204000032C6
:0202050001DA1C
:02020600018471
:02020700012FC5
:0202080000DC18
:02020900008B68
:02020A00003BB7
:02020B0001EC04
:02020C00019F50
:02020D0001549A
:02020E00010AE3
:02020F0000C12C
:02021000007A72
:020211000035B6
:0202120001F1F8
:0202130001AF39
:02021400016E79
:02021500012EB8
:0202160000F0F6
:0202170000B431
:0202180000796B
:02021900003FA4
:02021A000007DB
:02021B0001D010
:02021C00019B44
:02021D00016777
:02021E000135A8
:02021F000104D8
:0202200000D408
:0202210000A635
:02022200007A60
:02022300004F8A
:020224000025B3
:0202250001FCDA
:0202260001D500
:0202270001B024
:02022800018B48
:02022900016969
:02022A0001478A
:02022B000127A9
:02022C000108C7
:02022D0000EBE4
:02022E0000CFFF
:02022F0000B518
:02023000009B31
:02023100008447
:02023200006D5D
:02023300005871
:02023400004484
:02023500003295
:020236000020A6
:020237000011B4
:020238000002C2
:0202390001F5CD
:02023A0001E9D8
:02023B0001DFE1
:02023C0001D5EA
:02023D0001CDF1
:02023E0001C7F6
:02023F0001C1FB
:0202400001BDFE
:0202410001BBFF
:0202420001B900
:0202430001B9FF
:0202440001BAFD
:0202450001BCFA
:0202460001C0F5
:0202470001C5EF
:0202480001CBE8
:0202490001D3DF
:02024A0001DBD6
:02024B0001E5CB
:02024C0001F0BF
:02024D0001FDB1
:02024E00000AA4
:02024F00001994
:02025000002983
:02025100003B70
:02025200004D5D
:02025300006148
:02025400007632
:02025500008C1B
:0202560000A402
:0202570000BCE9
:0202580000D6CE
:0202590000F1B2
:02025A00010D94
:02025B00012A76
:02025C00014956
:02025D00016935
:02025E00018A13
:02025F0001ACF0
:0202600001CFCC
:0202610001F4A6
:02026200001981
:02026300004059
:02026400006830
:02026500009106
:0202660000BBDB
:0202670000E6AF
:02026800011380
:02026900014151
:02026A00016F22
:02026B00019FF1
:02026C0001D0BF
:02026D0000038C
:02026E00003658
:02026F00006A23
:0202700000A0EC
:0202710000D6B5
:02027200010E7B
:02027300014741
:02027400018106
:0202750001BCCA
:0202760001F88D
:02027700003550
:02027800007410
:0202790000B3D0
:02027A0000F48E
:02027B0001354B
:02027C00017807
:02027D0001BBC3
:02027E0000007E
:02027F00004637
:02028000008DEF
:0202810000D5A6
:02028200011E5B
:02028300016810
:0202840001B3C4
:0202850001FF77
:02028600004D29
:02028700009BDA
:0202880000EA8A
:02028900013A38
:02028A00018CE5
:02028B0001DE92
:02028C0000323E
:02028D000086E9
:02028E0000DB93
:02028F0001323A
:020290000189E2
:0202910001E288
:02029200003B2F
:020293000096D3
:0202940000F177
:02029500014E18
:0202960001ABBA
:02029700000A5B
:020298000069FB
:0202990000CA99
:02029A00012B36
:02029B00018ED2
:02029C0001F16E
:02029D0000550A
:02029E0000BBA3
:02029F0001213B
:0202A0000188D3
:0202A10001F169
:0202A200005A00
:0202A30000C495
:0202A400012F28
:0202A500019BBB
:0202A60000084E
:0202A7000076DF
:0202A80000E56F
:0202A9000155FD
:0202AA0001C68B
:0202AB0000371A
:0202AC0000AAA6
:0202AD00011D31
:0202AE000192BB
:0202AF00000746
:0202B000007ECE
:0202B10000F556
:0202B200016DDC
:0202B30001E662
:0202B4000060E8
:0202B50000DB6C
:0202B6000157EE
:0202B70001D470
:0202B8000051F3
:0202B90000D073
:0202BA00014FF2
:0202BB0001D070
:0202BC000051EF
:0202BD0000D36C
:0202BE000156E7
:0202BF0001DA62
:0202C000005EDE
:0202C10000E457
:0202C200016BCE
:0202C30001F246
:0202C400007ABE
:0202C500010333
:0202C600018DA8
:0202C70000181D
:0202C80000A490
:0202C900013002
:0202CA0001BE73
:0202CB00004CE5
:0202CC0000DB55
:0202CD00016BC3
:0202CE0001FC31
:0202CF00008DA0
:0202D00001200B
:0202D10001B377
:0202D2000047E3
:0202D30000DC4D
:0202D4000172B5
:0202D50000081F
:0202D60000A086
:0202D7000138EC
:0202D80001D152
:0202D900006BB8
:0202DA0001061B
:0202DB0001A27E
:0202DC00003EE2
:0202DD0000DB44
:0202DE000179A4
:0202DF00001805
:0202E00000B765
:0202E1000158C2
:0202E20001F920
:0202E300009B7E
:0202E400013ED9
:0202E50001E135
:0202E600008690
:0202E700012BE9
:0202E80001D142
:0202E90000779C
:0202EA00011FF2
:0202EB0001C749
:0202EC000070A0
:0202ED00011AF4
:0202EE0001C449
:0202EF0000709D
:0202F000011CEF
:0202F10001C941
:0202F200007694
:0202F3000125E3
:0202F40001D433
:0202F500008483
:0202F6000134D1
:0202F70001E61E
:0202F80000986C
:0202F900014BB7
:0202FA0001FF02
:0202FB0000B34E
:0202FC00016897
:0202FD00001EE1
:0202FE0000D529
:0202FF00018C70
:020300000044B7
:0203010000FDFD
:0203020001B741
:02030300007187
:02030400012CCA
:0203050001E80D
:0203060000A451
:02030700016192
:02030800001FD4
:0203090000DE14
:02030A00019D53
:02030B00005D93
:02030C00011ED0
:02030D0001DF0E
:02030E0000A14C
:02030F00016487
:020310000028C3
:0203110000ECFE
:0203120001B137
:02031300007771
:02031400013DA9
:020315000004E2
:0203160000CC19
:0203170001944F
:02031800005D86
:020319000127BA
:02031A0001F1EF
:02031B0000BC24
:02031C00018856
:02031D00005589
:02031E000122BA
:02031F0001F0EB
:0203200000BE1D
:02032100018D4C
:02032200005D7C
:02032300012EA9
:0203240001FFD7
:0203250000D105
:0203260001A331
:0203270000765E
:02032800014A88
:02032900001FB3
:02032A0000F4DD
:02032B0001CA05
:02032C0000A02F
:02032D00017756
:02032E00004F7E
:02032F000127A4
:020330000000CB
:0203310000DAF0
:0203320001B414
:02033300008F39
:02033400016B5B
:0203350000477F
:020336000124A0
:020337000001C3
:0203380000DFE4
:0203390001BE03
:02033A00009D24
:02033B00017D42
:02033C00005E61
:02033D00013F7E
:02033E0000219C
:02033F000103B8
:0203400001E6D4
:0203410000CAF0
:0203420001AE0A
:02034300009325
:0203440001783E
:02034500005F57
:0203460001456F
:02034700002D87
:0203480001149E
:0203490001FDB4
:02034A0000E6CB
:02034B0001D0DF
:02034C0000BAF5
:02034D0001A508
:02034E0000901D
:02034F00017D2E
:02035000006942
:02035100015653
:02035200004465
:02035300013374
:02035400002285
:02035500011194
:020356000001A4
:0203570000F2B2
:0203580001E4BE
:0203590000D5CD
:02035A0001C8D8
:02035B0000BBE5
:02035C0001AFEF
:02035D0000A3FB
:02035E00019705
:02035F00008D0F
:02036000018317
:02036100007921
:02036200017028
:02036300006830
:02036400016036
:0203650000593D
:02036600015242
:02036700004C48
:0203680001464C
:02036900004151
:02036A00013C54
:02036B00003858
:02036C00013559
:02036D0000325C
:02036E0001305C
:02036F00002E5E
:02037000012C5E
:02037100002C5E
:02037200012B5D
:02037300002C5C
:02037400012D59
:02037500002E58
:02037600013054
:02037700003252
:0203780001354D
:02037900003949
:02037A00013D43
:02037B0000423E
:02037C00014737
:02037D00004C32
:02037E00015329
:02037F00005923
:0203800001601A
:02038100006812
:02038200017008
:020383000079FF
:020384000182F4
:02038500008CEA
:020386000196DE
:0203870000A1D3
:0203880001ACC6
:0203890000B8BA
:02038A0001C5AB
:02038B0000D19F
:02038C0001DF8F
:02038D0000EC82
:02038E0001FB71
:02038F00010A61
:02039000001952
:02039100012940
:02039200003930
:02039300014A1D
:02039400005B0C
:02039500016DF8
:02039600007FE6
:020397000192D1
:0203980000A5BE
:0203990001B9A8
:02039A0000CD94
:02039B0001E27D
:02039C0000F768
:02039D00000D51
:02039E00012339
:02039F00003A22
:0203A000015109
:0203A1000068F2
:0203A2000180D8
:0203A3000099BF
:0203A40001B2A4
:0203A50000CB8B
:0203A60001E56F
:0203A700010053
:0203A800001B38
:0203A90001361B
:0203AA000052FF
:0203AB00016EE1
:0203AC00008BC4
:0203AD0001A8A5
:0203AE0000C687
:0203AF0001E467
:0203B000010248
:0203B100002228
:0203B200014107
:0203B3000061E7
:0203B4000181C5
:0203B50000A2A4
:0203B60001C480
:0203B70000E55F
:0203B80000083B
:0203B900012A17
:0203BA00004DF4
:0203BB000171CE
:0203BC000095AA
:0203BD0001B984
:0203BE0000DE5F
:0203BF00000438
:0203C000012911
:0203C1000050EA
:0203C2000176C2
:0203C300009D9B
:0203C40001C571
:0203C50000ED49
:0203C600001520
:0203C700013EF5
:0203C8000067CC
:0203C9000191A0
:0203CA0000BB76
:0203CB0001E649
:0203CC0001111D
:0203CD00003CF2
:0203CE000168C4
:0203CF00009498
:0203D00001C169
:0203D10000EE3C
:0203D200001C0D
:0203D300014ADD
:0203D4000078AF
:0203D50001A77E
:0203D60000D64F
:0203D70000061E
:0203D8000136EC
:0203D9000066BC
:0203DA00019789
:0203DB0000C858
:0203DC0001FA24
:0203DD00012CF1
:0203DE00005EBF
:0203DF0001918A
:0203E00000C556
:0203E10001F821
:0203E200012CEC
:0203E3000061B7
:0203E400019680
:0203E50000CB4B
:0203E600000114
:0203E7000137DC
:0203E800006EA5
:0203E90001A56C
:0203EA0000DC35
:0203EB000014FC
:0203EC00014CC2
:0203ED0000848A
:0203EE0001BD4F
:0203EF0000F616
:0203F0000030DB
:0203F100016A9F
:0203F20000A564
:0203F30001E027
:0203F400011BEB
:0203F5000056B0
:0203F600019272
:0203F70000CF35
:0203F800000CF7
:0203F9000149B8
:0203FA0000867B
:0203FB0001C43B
:0203FC000103FB
:0203FD000041BD
:0203FE0001807C
:0203FF0000C03C
:00000001ff
