:020000040000FA
:020000000000FE
:020001000007F6
:02000200000FED
:020003000017E4
:02000400001FDB
:020005000027D2
:02000600002FC9
:020007000037C0
:02000800003EB8
:020009000046AF
:02000A00004EA6
:02000B0000559E
:02000C00005D95
:02000D0000648D
:02000E00006C84
:02000F0000737C
:02001000007B73
:0200110000826B
:02001200008963
:0200130000915A
:02001400009852
:02001500009F4A
:0200160000A642
:0200170000AE39
:0200180000B531
:0200190000BC29
:02001A0000C321
:02001B0000CA19
:02001C0000D111
:02001D0000D809
:02001E0000DF01
:02001F0000E6F9
:0200200000EDF1
:0200210000F4E9
:0200220000FAE2
:020023000101D9
:020024000108D1
:02002500010FC9
:020026000115C2
:02002700011CBA
:020028000123B2
:020029000129AB
:02002A000130A3
:02002B0001369C
:02002C00013D94
:02002D0001438D
:02002E00014A85
:02002F0001507E
:02003000015677
:02003100015D6F
:02003200016368
:02003300016961
:02003400017059
:02003500017652
:02003600017C4B
:02003700018244
:0200380001883D
:02003900018E36
:02003A0001952E
:02003B00019B27
:02003C0001A120
:02003D0001A719
:02003E0001AD12
:02003F0001B30B
:0200400001B904
:0200410001BEFE
:0200420001C4F7
:0200430001CAF0
:0200440001D0E9
:0200450001D6E2
:0200460001DBDC
:0200470001E1D5
:0200480001E7CE
:0200490001EDC7
:02004A0001F2C1
:02004B0001F8BA
:02004C0001FDB4
:02004D000003AE
:02004E000009A7
:02004F00000EA1
:0200500000149A
:02005100001994
:02005200001F8D
:02005300002487
:02005400002981
:02005500002F7A
:02005600003474
:02005700003A6D
:02005800003F67
:02005900004461
:02005A0000495B
:02005B00004F54
:02005C0000544E
:02005D00005948
:02005E00005E42
:02005F0000633C
:02006000006836
:02006100006E2F
:02006200007329
:02006300007823
:02006400007D1D
:02006500008217
:02006600008711
:02006700008C0B
:02006800009105
:020069000096FF
:02006A00009AFA
:02006B00009FF4
:02006C0000A4EE
:02006D0000A9E8
:02006E0000AEE2
:02006F0000B3DC
:0200700000B7D7
:0200710000BCD1
:0200720000C1CB
:0200730000C6C5
:0200740000CAC0
:0200750000CFBA
:0200760000D4B4
:0200770000D8AF
:0200780000DDA9
:0200790000E1A4
:02007A0000E69E
:02007B0000EB98
:02007C0000EF93
:02007D0000F48D
:02007E0000F888
:02007F0000FC83
:0200800001017C
:02008100010577
:02008200010A71
:02008300010E6C
:02008400011366
:02008500011761
:02008600011B5C
:02008700012056
:02008800012451
:0200890001284C
:02008A00012C47
:02008B00013141
:02008C0001353C
:02008D00013937
:02008E00013D32
:02008F0001412D
:02009000014627
:02009100014A22
:02009200014E1D
:02009300015218
:02009400015613
:02009500015A0E
:02009600015E09
:02009700016204
:020098000166FF
:02009900016AFA
:02009A00016EF5
:02009B000172F0
:02009C000176EB
:02009D00017AE6
:02009E00017EE1
:02009F000182DC
:0200A0000186D7
:0200A100018AD2
:0200A200018DCE
:0200A3000191C9
:0200A4000195C4
:0200A5000199BF
:0200A600019DBA
:0200A70001A0B6
:0200A80001A4B1
:0200A90001A8AC
:0200AA0001ACA7
:0200AB0001AFA3
:0200AC0001B39E
:0200AD0001B799
:0200AE0001BA95
:0200AF0001BE90
:0200B00001C28B
:0200B10001C587
:0200B20001C982
:0200B30001CC7E
:0200B40001D079
:0200B50001D375
:0200B60001D770
:0200B70001DB6B
:0200B80001DE67
:0200B90001E262
:0200BA0001E55E
:0200BB0001E85A
:0200BC0001EC55
:0200BD0001EF51
:0200BE0001F34C
:0200BF0001F648
:0200C00001FA43
:0200C10001FD3F
:0200C20000003C
:0200C300000437
:0200C400000733
:0200C500000A2F
:0200C600000E2A
:0200C700001126
:0200C800001422
:0200C90000181D
:0200CA00001B19
:0200CB00001E15
:0200CC00002111
:0200CD0000240D
:0200CE00002808
:0200CF00002B04
:0200D000002E00
:0200D1000031FC
:0200D2000034F8
:0200D3000038F3
:0200D400003BEF
:0200D500003EEB
:0200D6000041E7
:0200D7000044E3
:0200D8000047DF
:0200D900004ADB
:0200DA00004DD7
:0200DB000050D3
:0200DC000053CF
:0200DD000056CB
:0200DE000059C7
:0200DF00005CC3
:0200E000005FBF
:0200E1000062BB
:0200E2000065B7
:0200E3000068B3
:0200E400006BAF
:0200E500006EAB
:0200E6000071A7
:0200E7000074A3
:0200E80000779F
:0200E900007A9B
:0200EA00007C98
:0200EB00007F94
:0200EC00008290
:0200ED0000858C
:0200EE00008888
:0200EF00008B84
:0200F000008D81
:0200F10000907D
:0200F200009379
:0200F300009675
:0200F400009872
:0200F500009B6E
:0200F600009E6A
:0200F70000A166
:0200F80000A363
:0200F90000A65F
:0200FA0000A95B
:0200FB0000AB58
:0200FC0000AE54
:0200FD0000B150
:0200FE0000B34D
:0200FF0000B649
:0201000000B944
:0201010000BB41
:0201020000BE3D
:0201030000C03A
:0201040000C336
:0201050000C632
:0201060000C82F
:0201070000CB2B
:0201080000CD28
:0201090000D024
:02010A0000D221
:02010B0000D51D
:02010C0000D71A
:02010D0000DA16
:02010E0000DC13
:02010F0000DF0F
:0201100000E10C
:0201110000E408
:0201120000E605
:0201130000E901
:0201140000EBFE
:0201150000EEFA
:0201160000F0F7
:0201170000F2F4
:0201180000F5F0
:0201190000F7ED
:02011A0000F9EA
:02011B0000FCE6
:02011C0000FEE3
:02011D000101DE
:02011E000103DB
:02011F000105D8
:020120000108D4
:02012100010AD1
:02012200010CCE
:02012300010ECB
:020124000111C7
:020125000113C4
:020126000115C1
:020127000118BD
:02012800011ABA
:02012900011CB7
:02012A00011EB4
:02012B000120B1
:02012C000123AD
:02012D000125AA
:02012E000127A7
:02012F000129A4
:02013000012CA0
:02013100012E9D
:0201320001309A
:02013300013297
:02013400013494
:02013500013691
:0201360001388E
:02013700013B8A
:02013800013D87
:02013900013F84
:02013A00014181
:02013B0001437E
:02013C0001457B
:02013D00014778
:02013E00014975
:02013F00014B72
:02014000014D6F
:02014100014F6C
:02014200015169
:02014300015366
:02014400015662
:0201450001585F
:02014600015A5C
:02014700015C59
:02014800015E56
:02014900016053
:02014A00016250
:02014B0001644D
:02014C0001654B
:02014D00016748
:02014E00016945
:02014F00016B42
:02015000016D3F
:02015100016F3C
:02015200017139
:02015300017336
:02015400017533
:02015500017730
:0201560001792D
:02015700017B2A
:02015800017D27
:02015900017E25
:02015A00018022
:02015B0001821F
:02015C0001841C
:02015D00018619
:02015E00018816
:02015F00018A13
:02016000018B11
:02016100018D0E
:02016200018F0B
:02016300019108
:02016400019305
:02016500019403
:02016600019600
:020167000198FD
:02016800019AFA
:02016900019CF7
:02016A00019DF5
:02016B00019FF2
:02016C0001A1EF
:02016D0001A3EC
:02016E0001A4EA
:02016F0001A6E7
:0201700001A8E4
:0201710001A9E2
:0201720001ABDF
:0201730001ADDC
:0201740001AFD9
:0201750001B0D7
:0201760001B2D4
:0201770001B4D1
:0201780001B5CF
:0201790001B7CC
:02017A0001B9C9
:02017B0001BAC7
:02017C0001BCC4
:02017D0001BEC1
:02017E0001BFBF
:02017F0001C1BC
:0201800001C3B9
:0201810001C4B7
:0201820001C6B4
:0201830001C7B2
:0201840001C9AF
:0201850001CBAC
:0201860001CCAA
:0201870001CEA7
:0201880001CFA5
:0201890001D1A2
:02018A0001D39F
:02018B0001D49D
:02018C0001D69A
:02018D0001D798
:02018E0001D995
:02018F0001DA93
:0201900001DC90
:0201910001DD8E
:0201920001DF8B
:0201930001E089
:0201940001E286
:0201950001E384
:0201960001E581
:0201970001E77E
:0201980001E87C
:0201990001E97A
:02019A0001EB77
:02019B0001EC75
:02019C0001EE72
:02019D0001EF70
:02019E0001F16D
:02019F0001F26B
:0201A00001F468
:0201A10001F566
:0201A20001F763
:0201A30001F861
:0201A40001FA5E
:0201A50001FB5C
:0201A60001FC5A
:0201A70001FE57
:0201A80001FF55
:0201A900000153
:0201AA00000251
:0201AB0000044E
:0201AC0000054C
:0201AD0000064A
:0201AE00000847
:0201AF00000945
:0201B000000A43
:0201B100000C40
:0201B200000D3E
:0201B300000F3B
:0201B400001039
:0201B500001137
:0201B600001334
:0201B700001432
:0201B800001530
:0201B90000172D
:0201BA0000182B
:0201BB00001929
:0201BC00001B26
:0201BD00001C24
:0201BE00001D22
:0201BF00001F1F
:0201C00000201D
:0201C10000211B
:0201C200002219
:0201C300002416
:0201C400002514
:0201C500002612
:0201C60000280F
:0201C70000290D
:0201C800002A0B
:0201C900002B09
:0201CA00002D06
:0201CB00002E04
:0201CC00002F02
:0201CD00003000
:0201CE000032FD
:0201CF000033FB
:0201D0000034F9
:0201D1000035F7
:0201D2000037F4
:0201D3000038F2
:0201D4000039F0
:0201D500003AEE
:0201D600003CEB
:0201D700003DE9
:0201D800003EE7
:0201D900003FE5
:0201DA000040E3
:0201DB000042E0
:0201DC000043DE
:0201DD000044DC
:0201DE000045DA
:0201DF000046D8
:0201E0000047D6
:0201E1000049D3
:0201E200004AD1
:0201E300004BCF
:0201E400004CCD
:0201E500004DCB
:0201E600004EC9
:0201E7000050C6
:0201E8000051C4
:0201E9000052C2
:0201EA000053C0
:0201EB000054BE
:0201EC000055BC
:0201ED000056BA
:0201EE000057B8
:0201EF000059B5
:0201F000005AB3
:0201F100005BB1
:0201F200005CAF
:0201F300005DAD
:0201F400005EAB
:0201F500005FA9
:0201F6000060A7
:0201F7000061A5
:0201F8000062A3
:0201F9000063A1
:0201FA0000659E
:0201FB0000669C
:0201FC0000679A
:0201FD00006898
:0201FE00006996
:0201FF00006A94
:02020000006B91
:02020100006C8F
:02020200006D8D
:02020300006E8B
:02020400006F89
:02020500007087
:02020600007185
:02020700007283
:02020800007381
:0202090000747F
:02020A0000757D
:02020B0000767B
:02020C00007779
:02020D00007877
:02020E00007975
:02020F00007A73
:02021000007B71
:02021100007C6F
:02021200007D6D
:02021300007E6B
:02021400007F69
:02021500008067
:02021600008165
:02021700008263
:02021800008361
:0202190000845F
:02021A0000855D
:02021B0000865B
:02021C00008759
:02021D00008857
:02021E00008955
:02021F00008A53
:02022000008B51
:02022100008C4F
:02022200008D4D
:02022300008E4B
:02022400008F49
:02022500009047
:02022600009145
:02022700009243
:02022800009242
:02022900009340
:02022A0000943E
:02022B0000953C
:02022C0000963A
:02022D00009738
:02022E00009836
:02022F00009934
:02023000009A32
:02023100009B30
:02023200009C2E
:02023300009D2C
:02023400009D2B
:02023500009E29
:02023600009F27
:0202370000A025
:0202380000A123
:0202390000A221
:02023A0000A31F
:02023B0000A41D
:02023C0000A41C
:02023D0000A51A
:02023E0000A618
:02023F0000A716
:0202400000A814
:0202410000A912
:0202420000AA10
:0202430000AA0F
:0202440000AB0D
:0202450000AC0B
:0202460000AD09
:0202470000AE07
:0202480000AF05
:0202490000B003
:02024A0000B002
:02024B0000B100
:02024C0000B2FE
:02024D0000B3FC
:02024E0000B4FA
:02024F0000B4F9
:0202500000B5F7
:0202510000B6F5
:0202520000B7F3
:0202530000B8F1
:0202540000B9EF
:0202550000B9EE
:0202560000BAEC
:0202570000BBEA
:0202580000BCE8
:0202590000BDE6
:02025A0000BDE5
:02025B0000BEE3
:02025C0000BFE1
:02025D0000C0DF
:02025E0000C1DD
:02025F0000C1DC
:0202600000C2DA
:0202610000C3D8
:0202620000C4D6
:0202630000C4D5
:0202640000C5D3
:0202650000C6D1
:0202660000C7CF
:0202670000C7CE
:0202680000C8CC
:0202690000C9CA
:02026A0000CAC8
:02026B0000CAC7
:02026C0000CBC5
:02026D0000CCC3
:02026E0000CDC1
:02026F0000CDC0
:0202700000CEBE
:0202710000CFBC
:0202720000D0BA
:0202730000D0B9
:0202740000D1B7
:0202750000D2B5
:0202760000D3B3
:0202770000D3B2
:0202780000D4B0
:0202790000D5AE
:02027A0000D6AC
:02027B0000D6AB
:02027C0000D7A9
:02027D0000D8A7
:02027E0000D8A6
:02027F0000D9A4
:0202800000DAA2
:0202810000DAA1
:0202820000DB9F
:0202830000DC9D
:0202840000DD9B
:0202850000DD9A
:0202860000DE98
:0202870000DF96
:0202880000DF95
:0202890000E093
:02028A0000E191
:02028B0000E190
:02028C0000E28E
:02028D0000E38C
:02028E0000E38B
:02028F0000E489
:0202900000E587
:0202910000E586
:0202920000E684
:0202930000E782
:0202940000E781
:0202950000E87F
:0202960000E97D
:0202970000E97C
:0202980000EA7A
:0202990000EB78
:02029A0000EB77
:02029B0000EC75
:02029C0000ED73
:02029D0000ED72
:02029E0000EE70
:02029F0000EF6E
:0202A00000EF6D
:0202A10000F06B
:0202A20000F169
:0202A30000F168
:0202A40000F266
:0202A50000F364
:0202A60000F363
:0202A70000F461
:0202A80000F460
:0202A90000F55E
:0202AA0000F65C
:0202AB0000F65B
:0202AC0000F759
:0202AD0000F857
:0202AE0000F856
:0202AF0000F954
:0202B00000F953
:0202B10000FA51
:0202B20000FB4F
:0202B30000FB4E
:0202B40000FC4C
:0202B50000FC4B
:0202B60000FD49
:0202B70000FE47
:0202B80000FE46
:0202B90000FF44
:0202BA0000FF43
:0202BB00010040
:0202BC0001013E
:0202BD0001013D
:0202BE0001023B
:0202BF0001023A
:0202C000010338
:0202C100010436
:0202C200010435
:0202C300010533
:0202C400010532
:0202C500010630
:0202C60001062F
:0202C70001072D
:0202C80001082B
:0202C90001082A
:0202CA00010928
:0202CB00010927
:0202CC00010A25
:0202CD00010A24
:0202CE00010B22
:0202CF00010C20
:0202D000010C1F
:0202D100010D1D
:0202D200010D1C
:0202D300010E1A
:0202D400010E19
:0202D500010F17
:0202D600010F16
:0202D700011014
:0202D800011112
:0202D900011111
:0202DA0001120F
:0202DB0001120E
:0202DC0001130C
:0202DD0001130B
:0202DE00011409
:0202DF00011408
:0202E000011506
:0202E100011505
:0202E200011603
:0202E300011602
:0202E400011700
:0202E5000117FF
:0202E6000118FD
:0202E7000119FB
:0202E8000119FA
:0202E900011AF8
:0202EA00011AF7
:0202EB00011BF5
:0202EC00011BF4
:0202ED00011CF2
:0202EE00011CF1
:0202EF00011DEF
:0202F000011DEE
:0202F100011EEC
:0202F200011EEB
:0202F300011FE9
:0202F400011FE8
:0202F5000120E6
:0202F6000120E5
:0202F7000121E3
:0202F8000121E2
:0202F9000122E0
:0202FA000122DF
:0202FB000123DD
:0202FC000123DC
:0202FD000124DA
:0202FE000124D9
:0202FF000125D7
:020300000125D5
:020301000126D3
:020302000126D2
:020303000127D0
:020304000127CF
:020305000128CD
:020306000128CC
:020307000129CA
:020308000129C9
:020309000129C8
:02030A00012AC6
:02030B00012AC5
:02030C00012BC3
:02030D00012BC2
:02030E00012CC0
:02030F00012CBF
:02031000012DBD
:02031100012DBC
:02031200012EBA
:02031300012EB9
:02031400012FB7
:02031500012FB6
:020316000130B4
:020317000130B3
:020318000130B2
:020319000131B0
:02031A000131AF
:02031B000132AD
:02031C000132AC
:02031D000133AA
:02031E000133A9
:02031F000134A7
:020320000134A6
:020321000135A4
:020322000135A3
:020323000135A2
:020324000136A0
:0203250001369F
:0203260001379D
:0203270001379C
:0203280001389A
:02032900013899
:02032A00013898
:02032B00013996
:02032C00013995
:02032D00013A93
:02032E00013A92
:02032F00013B90
:02033000013B8F
:02033100013B8E
:02033200013C8C
:02033300013C8B
:02033400013D89
:02033500013D88
:02033600013E86
:02033700013E85
:02033800013E84
:02033900013F82
:02033A00013F81
:02033B0001407F
:02033C0001407E
:02033D0001417C
:02033E0001417B
:02033F0001417A
:02034000014278
:02034100014277
:02034200014375
:02034300014374
:02034400014373
:02034500014471
:02034600014470
:0203470001456E
:0203480001456D
:0203490001456C
:02034A0001466A
:02034B00014669
:02034C00014767
:02034D00014766
:02034E00014765
:02034F00014863
:02035000014862
:02035100014960
:0203520001495F
:0203530001495E
:02035400014A5C
:02035500014A5B
:02035600014A5A
:02035700014B58
:02035800014B57
:02035900014C55
:02035A00014C54
:02035B00014C53
:02035C00014D51
:02035D00014D50
:02035E00014E4E
:02035F00014E4D
:02036000014E4C
:02036100014F4A
:02036200014F49
:02036300014F48
:02036400015046
:02036500015045
:02036600015143
:02036700015142
:02036800015141
:0203690001523F
:02036A0001523E
:02036B0001523D
:02036C0001533B
:02036D0001533A
:02036E00015339
:02036F00015437
:02037000015436
:02037100015534
:02037200015533
:02037300015532
:02037400015630
:0203750001562F
:0203760001562E
:0203770001572C
:0203780001572B
:0203790001572A
:02037A00015828
:02037B00015827
:02037C00015826
:02037D00015924
:02037E00015923
:02037F00015922
:02038000015A20
:02038100015A1F
:02038200015A1E
:02038300015B1C
:02038400015B1B
:02038500015C19
:02038600015C18
:02038700015C17
:02038800015D15
:02038900015D14
:02038A00015D13
:02038B00015E11
:02038C00015E10
:02038D00015E0F
:02038E00015F0D
:02038F00015F0C
:02039000015F0B
:02039100016009
:02039200016008
:02039300016007
:02039400016105
:02039500016104
:02039600016103
:02039700016201
:02039800016200
:020399000162FF
:02039A000162FE
:02039B000163FC
:02039C000163FB
:02039D000163FA
:02039E000164F8
:02039F000164F7
:0203A0000164F6
:0203A1000165F4
:0203A2000165F3
:0203A3000165F2
:0203A4000166F0
:0203A5000166EF
:0203A6000166EE
:0203A7000167EC
:0203A8000167EB
:0203A9000167EA
:0203AA000168E8
:0203AB000168E7
:0203AC000168E6
:0203AD000168E5
:0203AE000169E3
:0203AF000169E2
:0203B0000169E1
:0203B100016ADF
:0203B200016ADE
:0203B300016ADD
:0203B400016BDB
:0203B500016BDA
:0203B600016BD9
:0203B700016CD7
:0203B800016CD6
:0203B900016CD5
:0203BA00016CD4
:0203BB00016DD2
:0203BC00016DD1
:0203BD00016DD0
:0203BE00016ECE
:0203BF00016ECD
:0203C000016ECC
:0203C100016ECB
:0203C200016FC9
:0203C300016FC8
:0203C400016FC7
:0203C5000170C5
:0203C6000170C4
:0203C7000170C3
:0203C8000170C2
:0203C9000171C0
:0203CA000171BF
:0203CB000171BE
:0203CC000172BC
:0203CD000172BB
:0203CE000172BA
:0203CF000172B9
:0203D0000173B7
:0203D1000173B6
:0203D2000173B5
:0203D3000174B3
:0203D4000174B2
:0203D5000174B1
:0203D6000174B0
:0203D7000175AE
:0203D8000175AD
:0203D9000175AC
:0203DA000176AA
:0203DB000176A9
:0203DC000176A8
:0203DD000176A7
:0203DE000177A5
:0203DF000177A4
:0203E0000177A3
:0203E1000177A2
:0203E2000178A0
:0203E30001789F
:0203E40001789E
:0203E50001799C
:0203E60001799B
:0203E70001799A
:0203E800017999
:0203E900017A97
:0203EA00017A96
:0203EB00017A95
:0203EC00017A94
:0203ED00017B92
:0203EE00017B91
:0203EF00017B90
:0203F000017B8F
:0203F100017C8D
:0203F200017C8C
:0203F300017C8B
:0203F400017C8A
:0203F500017D88
:0203F600017D87
:0203F700017D86
:0203F800017D85
:0203F900017E83
:0203FA00017E82
:0203FB00017E81
:0203FC00017E80
:0203FD00017F7E
:0203FE00017F7D
:0203FF00017F7C
:00000001ff
